:1000000000800020BD010000E94C0000A14C000070
:10001000A14C0000A14C0000A14C0000A14C00002C
:10002000A14C0000A14C0000A14C0000E94C0000D4
:10003000E94C0000A14C0000155E0000195E0000B4
:10004000E94C0000E94C0000E94C0000E94C0000DC
:10005000E94C0000E94C0000E94C0000E94C0000CC
:10006000E94C0000E94C0000E94C0000E94C0000BC
:10007000E94C0000E94C0000E94C0000E94C0000AC
:10008000E94C0000E94C0000E94C0000E94C00009C
:10009000E94C0000E94C0000E94C0000E94C00008C
:1000A000E94C0000E94C0000E94C0000E94C00007C
:1000B000E94C0000214600002D46000031460000BA
:1000C0003D4600004146000045460000E94C000066
:1000D000E94C0000E94C0000E94C0000E94C00004C
:1000E000E94C0000E94C0000E94C0000E94C00003C
:1000F000E94C0000E94C0000E94C0000E94C00002C
:10010000E94C0000E94C0000E94C0000E94C00001B
:10011000E94C0000E94C0000E94C0000E94C00000B
:10012000E94C0000E94C0000E94C0000E94C0000FB
:10013000E94C0000E94C0000E94C0000E94C0000EB
:10014000E94C0000E94C0000E94C0000E94C0000DB
:10015000E94C0000E94C0000E94C0000E94C0000CB
:10016000E94C000049510000E94C0000E94C000056
:10017000E94C0000E94C0000E94C0000E94C0000AB
:10018000E94C0000E94C0000E94C0000E94C00009B
:10019000E94C0000E94C0000E94C0000E94C00008B
:1001A000E94C0000E94C0000E94C0000E94C00007B
:1001B000E94C0000E94C0000E94C0000564B4CF2C1
:1001C000205210B51A804DF628121A8000BF00BFC9
:1001D00004F08EFD514B4FF010621A60504A9A6045
:1001E000504ADA60504A136813F4807304D14F49BF
:1001F0000B604FF4A85313604D4B1A78110703D5C9
:100200001A7842F008021A704A4B4B492A221A7097
:100210004A4A4B4B8B4204D252F8040F43F8040B6A
:10022000F8E7484B484900228B4202D243F8042B9E
:10023000FAE74649464A002352F8230041F82300D2
:1002400001336F2BF8D1434B434A802103F8011B44
:100250009342FBD1414B3D4A1A60414B8A221A70AE
:10026000A3F5805324225A70A0221A709A7992071B
:10027000FCD59A79D406FCD43A4A937903F00C035E
:10028000082B384BF9D103221A7140225A719A79FE
:100290009006FCD5334A9179324B4906FBD5324A58
:1002A000324911600221516020221A709A7902F0BD
:1002B0000C020C2AFAD12E4B2E4A1A602E4B2F4AD2
:1002C0001A6000225A60072243F8042C2C4AC3F813
:1002D0000C2D62B604F00EFE144B1B68DA0705D530
:1002E000284804F08BFD284B284A1A60284B1B78BD
:1002F0005B0609D5244C254B22689A4204D121483B
:1003000004F07CFD0023236004F0F8FC06F024FEDA
:1003100005F0E8FDFEE700BF0E20054030800440F8
:10032000823F04000100002B10D0034014D0034092
:1003300002D0074000E007406490FF1FA882000041
:100340002087FF1F6890FF1FD495FF1F0082FF1FAB
:100350000000000000E400E05FE400E008ED00E0E1
:100360000050064000400640448004400000030165
:1003700004800440C010050014E000E0FF76010096
:10038000000020203DDC91631CE00340A5C3945A8B
:1003900000F00740FFFFFFFFFFFFFFFFFFFFFFFF32
:1003A000FFFFFFFFFFFFFFFFFFFFFFFFFFFFFFFF5D
:1003B000FFFFFFFFFFFFFFFFFFFFFFFFFFFFFFFF4D
:1003C000FFFFFFFFFFFFFFFFFFFFFFFFFFFFFFFF3D
:1003D000FFFFFFFFFFFFFFFFFFFFFFFFFFFFFFFF2D
:1003E000FFFFFFFFFFFFFFFFFFFFFFFFFFFFFFFF1D
:1003F000FFFFFFFFFFFFFFFFFFFFFFFFFFFFFFFF0D
:10040000FFFFFFFFFFFFFFFFFFFFFFFFDEF9FFFF23
:1004100010B5054C237833B9044B13B10448AFF33E
:1004200000800123237010BD6890FF1F00000000B2
:10043000AC820000084B10B51BB108490848AFF367
:1004400000800848036803B910BD074B002BFBD0A0
:10045000BDE81040184700BF000000006C90FF1F6F
:10046000AC8200006490FF1F0000000008B514205B
:1004700004F0F2FC01210C2004F0D4FCC82004F0AC
:10048000EBFC01210B20BDE8084004F0CBBC00BF11
:10049000F8B5284C28480B2105F096FB2168274821
:1004A00005F016FD254805F0BFFC254A136863B921
:1004B000244D254825492B60012505600B6001333B
:1004C0001360236801332360F8BD012B07D11E4D53
:1004D0001C481E492B60002505600B60EFE7022BCE
:1004E00008D1194F174E1948002101253960316094
:1004F0000560E4E7032B08D1134E124D1348012188
:100500000027376029600160D9E7042B03D10E4F23
:100510000E4E0C48E8E7052BD1D10C480A4E094D88
:1005200000230360136023680121013331602960D7
:100530002360F8BD2091FF1F887900007087FF1F9E
:10054000F890FF1F5491FF1F2092FF1F9890FF1FEC
:100550002DE9F0034F084FEA30060018494100F03A
:10056000AA3001F0AA3106F0553607F055370F438F
:10057000064334093D092CA1D1E900017D402CA39B
:10058000D3E9002344EA077474404FEA0519204078
:10059000294049EA14794FEA041808EA020809EAEE
:1005A000030946404F4089EA070188EA0600020A2B
:1005B0000B0A21A7D7E900674B4042EA016242409B
:1005C0001D0216401F4045EA126514021CA3D3E920
:1005D00000237040794014401D4085EA010384EAFD
:1005E0000002100D190D594040EA033050400D052E
:1005F00043F6FF7640F6FC7745EA103506400F409B
:10060000040511A1D1E900017240204029407B403E
:1006100042404B409907900741EA920140EA93001B
:10062000BDE8F003704700BF03C3303030C00003A3
:1006300030300C0303030C303F00F0030C30C000DB
:10064000003F00F0030C30C00000F0FF0300C0FFCB
:100650002DE9F047824682B0084615461C4605F053
:1006600091FEDDE90E2305F03FFDDDE90C230F4689
:1006700006467049002006F015F802460B46304643
:10068000394605F0E5FE06F07DF900279DF828E0E3
:100690009DF82C10002C00F0C8803B460126002756
:1006A000B61903F101037F419C42F9D116F1FF32E3
:1006B00047F1FF3311B10028B8BF8019C1178B4231
:1006C00008BF82423CBF10461946BEF1000F79D0E8
:1006D0004B084FEA300202430B43960846EA837602
:1006E0009F0832433B43160946EA037632431F090B
:1006F0003B43160A46EA03661F0A16431F43320CA1
:1007000042EA07423B0C1F4316434FF0000946EAFA
:10071000070247EA0903484FDFF82CE1474E013250
:1007200043F1000307FB02F70EFB0377A2FB0E2346
:100730003B449B0EF35C9C4265D3C4F14004A4F19E
:10074000200200FA02F2A140C4F1200320FA03F3D0
:1007500011431943A040FFF7FBFEEB4303F00703EF
:1007600005F0F8052B44DBB2A3F12004994000FA10
:1007700004F4C3F1200220FA02F2214300FA03F349
:1007800011430AF10700019100930DF1FF350AF1C1
:100790000F0A15F8011F2A4B2A4A10F8014F01EBE6
:1007A00081214E0049010A403340134303EB0322E9
:1007B00003EB022344EA134382450370E9D102B0FC
:1007C000BDE8F087A5F1200400FA04F401FA05F36E
:1007D000C5F1200220FA02F223431343A8408DE81A
:1007E00009000DF1FF310AF107030AF10F0A13F8AE
:1007F000010F11F8012F534542EA00021A70F6D199
:1008000002B0BDE8F0871B1BC3F1200720FA03F6F6
:1008100001FA07F7A3F1200221FA02F23E4321FA7E
:1008200003F346EA0200194687E73A463B460126AB
:1008300040E700BF0000F03F63DD2F024879000071
:1008400010210200408408006D3895CCF8B5844C26
:100850002368002B3BD1834B834D1B688348844F17
:10086000844E8549012B854B0CBF022201221A6060
:100870000023834A2B700360012511203B703560F3
:100880000D60156004F0D4FA18B17E4B1A7802B9E5
:100890001D70112004F0CCFA0346B8B979490A78E2
:1008A000A2B1794D794E2A680B7001321146784811
:1008B00033602A6005F00CFB1721764805F084F9B7
:1008C000734805F0B1FA2B680A2B54D02368022B29
:1008D00035D0042B12D0052B43D16F4B1B7813B1AD
:1008E000664B02221A6023680F2B18D0102B2AD0D7
:1008F000112B23D1614B02221A60F8BD664B1B7885
:1009000013B15E4B02221A605A4D5B485C4A0023C9
:100910002B600360236801210F2B1160E6D1524B3D
:100920001B7813B9554B03221A60524C5248544A53
:1009300000230121236003601160F8BDF8BD4C4B1A
:1009400001221A70CFE7484B1B7813B94B4B032297
:100950001A60484848494A4A012303600B60136003
:10096000F8BD062B0CD14C4A444B12780421196077
:10097000002AB8D0B5E7494A236801211170A6E7DB
:10098000072B0DD1464B474A1B6812689B1A002B58
:10099000B8BF5B423B2BA0DC384B05221A609CE7BA
:1009A000082B07D13C4A354B127805211960002AE3
:1009B00099D096E7092B16D1374B2B4A19782E4F31
:1009C0002A4E2C4D2E480123137000223B603360C9
:1009D0002A60026019B9344B1B68072B83D1274B5F
:1009E00006221A607FE70C2B3FF47AAF0E2B7FF4C0
:1009F0007AAF1C4B1B68012B204B0CBF022201223B
:100A000011201A6004F014FA20B11E4B1A780AB9AA
:100A100001221A70112004F00BFA034600287FF41B
:100A200062AF18490A78002A3FF45DAF164D174EA1
:100A30002A680B7001321146154833602A6005F0B0
:100A400047FA1721134805F0BFF8114805F0ECF9F3
:100A50002B680A2B7FF447AF104B01221A7042E734
:100A60007492FF1FB890FF1F6192FF1F4491FF1FF8
:100A70002492FF1F2092FF1F5491FF1F8C92FF1F93
:100A80009890FF1F2C92FF1F5C91FF1F2091FF1F6A
:100A90007087FF1F94790000BE90FF1FF091FF1F29
:100AA0007C91FF1F9892FF1FB491FF1F2DE9F04129
:100AB000734B744D1B682C68734A74487449754EA7
:100AC000146003FB04F20768DFF878E2DFF878824D
:100AD00086FB020681FB0410D217E117C2EBA612B7
:100AE000C1EB6001C72B6C4E6C48D4BF9C464FF0E5
:100AF000C80C8A42A8BF0A463260694EC0F800C0DE
:100B00006422684868493260652606606320CEF832
:100B10000020086027B998F80010002900F08580AF
:100B20006248DFF814E2624F624E634900220260BD
:100B300064208EF800203A70326008605F4F604891
:100B40003A68604ED0F800E0DFF800C2082A5E4A3A
:100B50000CBF0121002111705C4A317810785C4A89
:100B6000C82B1170A8BFC8235A4ACCF800305A4B82
:100B7000C2F800E0594A1870594B00201060162046
:100B80001C6004F04FF93178052004F04BF9554B07
:100B90005548564A1B78347898F800100470117044
:100BA0001BB9534B1B78002B30D0524B01221A70CB
:100BB000514A524B12681B689A421FDB504B2A68FD
:100BC0001B689A421ADC4F4B00221A703B684E4950
:100BD000013B032B4D4B94BF012200221A704C4B5A
:100BE0001B68022B4B4B0CBF012200221A704A4B90
:100BF0003B203C2208601A60BDE8F081474B1B682F
:100C0000032BE0D13F4B01221A70DFE7444B1B78E6
:100C1000002BCAD1434B1B78002BC6D1424B1B780B
:100C2000002BC2D1334A1370C2E74049097800292A
:100C30003FF476AF3E49096800293FF471AF3D4962
:100C40003D4F08681A4E01213970317070B91A4A47
:100C500010603A4A12687AB1144A64211160384A25
:100C6000126832B1134A6421116067E712490A60C1
:100C7000EFE710490A6061E70C490A60EFE700BF3F
:100C8000A491FF1F2892FF1F4891FF1F4C91FF1F47
:100C900067666666D34D62107491FF1F3492FF1F22
:100CA0004C92FF1F8092FF1F7892FF1FB490FF1F8E
:100CB0005C92FF1F5091FF1F1092FF1FB491FF1F06
:100CC0004492FF1F8992FF1F4092FF1FB891FF1FA0
:100CD000C091FF1FF090FF1F5892FF1F9C91FF1FB4
:100CE0003092FF1FA891FF1F5E92FF1F6092FF1FAF
:100CF0006191FF1F7192FF1F1091FF1FAC90FF1FAA
:100D00009092FF1FF891FF1FD890FF1F0091FF1FC7
:100D10000492FF1F9492FF1F2891FF1FD090FF1F86
:100D2000A492FF1F9C90FF1F1892FF1FBD90FF1FF2
:100D30003892FF1F2092FF1FD491FF1F5491FF1F75
:100D40009890FF1F1C92FF1F0891FF1F8491FF1FA7
:100D500008B50021102004F079F80021112004F0DA
:100D600075F80021122004F071F80021132004F01E
:100D70006DF801210B2004F069F801210C2004F02A
:100D800065F80121142004F061F80121152004F018
:100D90005DF80121162004F059F80121172004F014
:100DA00055F80121052004F051F800210B2004F032
:100DB00039F800210C2004F035F80021162004F049
:100DC00031F80021172004F02DF80021052004F04F
:100DD00029F80C2003F06CFE082003F03BFC084BC4
:100DE0001860082003F036FC064B012118600D2026
:100DF00004F02CF801210D20BDE8084004F012B8E1
:100E00009090FF1F0491FF1F38B5524805F00CF871
:100E10001721514804F0D8FE4E4805F005F84F4B15
:100E20001B78980600F18E804C4B1B78190700F157
:100E300081804A4B1B785A0774D4484B1B789B0718
:100E40005DD4474B1B781D0664D4454B1B785C066C
:100E50004DD4434B1B78980641D4414B1B7859071E
:100E600035D43F4B1B781A0729D43D4B1B789B0781
:100E700006D518213B4804F0A7FE364804F0D4FFFD
:100E8000344804F0D1FF72B6374A4CF220504DF688
:100E90002811108020231180013BFDD1334C3448B0
:100EA000344900234FF48055258003800B8032F8AD
:100EB0000E3C9BB243F0D30322F80E3C38BD1921FF
:100EC0002D4804F081FE234804F0AEFFCDE71C213D
:100ED0002A4804F079FE1F4804F0A6FFC1E7132159
:100EE000274804F071FE1B4804F09EFFB5E712216D
:100EF000244804F069FE174804F096FFA9E717217B
:100F0000214804F061FE134804F08EFF144B1B7857
:100F10001D069AD50E211D4804F056FE0D4804F01A
:100F200083FF92E70E211A4804F04EFE094804F0B0
:100F30007BFF82E70C21174804F046FE054804F0C9
:100F400073FF76E72121144804F03EFE014804F0C7
:100F50006BFF69E77087FF1FAC79000001F0074065
:100F600000F00740947A00000E2005400420054060
:100F70000620054016200540787A0000587A0000C7
:100F8000447A0000307A0000087A0000207A0000DD
:100F9000F8790000E8790000C479000010B584B049
:100FA0000024234600940C4A0C490D4802F0E6FF49
:100FB0009DF80C30029443F0010364F341038DF873
:100FC0000C300424E2B202A90134054802F09CFF6F
:100FD000102CF7D104B010BD4C94FF1F20A10700C6
:100FE000B092FF1FFFFFFFFFF8B58568C4680021BE
:100FF000A8B205F0F7F932A3D3E9002305F028FAE7
:101000000022002305F072F805F0BCFCB0F57A7FF1
:1010100047DC2D4B18602E0C0027102101220023E5
:1010200092185B410139FBD159084FEA3200B942AD
:1010300008BFB0423946304602D2B01A67EB03010E
:1010400005F0D0F91EA3D3E9002305F001FA00232F
:10105000002205F04BF805F095FC1C4BA6B2186079
:10106000002710230120002100184941013BFBD13A
:101070004B084FEA3002BB4208BFB2421AD3304697
:10108000394605F0AFF90EA3D3E9002305F0E0F9E6
:101090000023002205F02AF805F074FC0C4B1860C0
:1010A000F8BD0C4B084A83FB0013C017C0EBA3002C
:1010B0001060B0E7301A67EB0101E2E7AFF30080A0
:1010C000000000A09999B93F5492FF1F9891FF1F0B
:1010D0003C92FF1F6766666670B5614C614DA468FF
:1010E000614E84B00DF1100E0EE90F00A0B2002188
:1010F00005F078F958A3D3E9002305F0A9F90022F7
:10110000002304F0F3FFC5E90001C4F3004000210F
:1011100005F068F90022002304F0E8FF0022002314
:1011200005F0FEFB002800F091804FF000053570BF
:10113000C4F34040002105F055F90022002304F0DB
:10114000D5FF00220023494E4FF0010505F0E8FBD2
:1011500008B14FF000053570C4F38040002105F060
:1011600041F90022002304F0C1FF00220023404E79
:101170004FF0010505F0D4FB08B14FF000053570C4
:10118000C4F3C040002105F02DF90022002304F033
:10119000ADFF00220023374E4FF0010505F0C0FBE4
:1011A00008B14FF000053570C4F30050002105F080
:1011B00019F90022002304F099FF002200232E4E8B
:1011C0004FF0010505F0ACFB08B14FF0000535709C
:1011D000C4F34050002105F005F90022002304F07B
:1011E00085FF00220023254E4FF0010505F098FBF6
:1011F00008B14FF000053570C4F38050002105F0B0
:10120000F1F80022002304F071FF002200231C4E9D
:101210004FF0010505F084FB08B14FF00005C4F361
:10122000C0503570002105F0DDF80022002304F0E5
:101230005DFF00220023134D4FF0010405F070FB09
:1012400008B14FF000042C7004B070BD4FF00105E0
:101250006DE700BFAFF30080000000E04D62503F3B
:10126000C491FF1FE891FF1F6892FF1F9491FF1F19
:101270009C92FF1F5891FF1F1A91FF1F1B91FF1F88
:101280001C91FF1F1D91FF1FF8B58568C668184F98
:101290000024280C214605F0A5F80022002304F0C4
:1012A00025FF05F06FFB21463860A8B205F09AF8DB
:1012B0000022002304F01AFF05F064FB0D4B0E4DD5
:1012C00018602146B0B205F08DF807A3D3E90023DA
:1012D00005F0BEF80022002304F008FFC5E9000174
:1012E000F8BD00BFAFF30080000000A09999B93F9E
:1012F0006C92FF1F4492FF1FE090FF1FFFFFFFFF54
:10130000F8B58668C568264F0024300C214605F0E4
:1013100069F821A3D3E9002305F09AF800220023FD
:1013200004F0E4FE05F02EFB21463860A8B205F07B
:1013300059F819A3D3E9002305F08AF80022002305
:1013400004F0D4FE05F01EFB164B174F1860214623
:10135000B0B205F047F810A3D3E9002305F078F800
:101360000022002304F0C2FE05F00CFB2146386089
:10137000280C05F037F808A3D3E9002305F068F836
:101380000023002204F0B2FE05F0FCFA074B1860BF
:10139000F8BD00BFAFF30080000000A09999B93FED
:1013A000A491FF1F6C91FF1F2892FF1F1091FF1F38
:1013B0002DE9F04F8468DFF87C87ABB004F00100C2
:1013C000002105F00FF80022002304F08FFE002218
:1013D000002306460F4605F0A3FA002800F04482D9
:1013E0004FF0000588F80050C4F34000002104F0DD
:1013F000F9FF0022002304F079FE00220023CDE94A
:101400000001DFF834874FF0010505F089FA08B1D3
:101410004FF0000588F80050C4F38000002104F06C
:10142000E1FF0022002304F061FE00220023CDE949
:101430000201DFF808874FF0010505F071FA08B1E5
:101440004FF0000588F80050C4F3C000002104F0FC
:10145000C9FF0022002304F049FE00220023CDE949
:101460000401DFF8DC864FF0010505F059FA08B1F8
:101470004FF0000588F80050C4F30010002104F07C
:10148000B1FF0022002304F031FE00220023CDE949
:101490000601DFF8B0864FF0010505F041FA08B10A
:1014A0004FF0000588F80050C4F34010002104F00C
:1014B00099FF0022002304F019FE00220023CDE949
:1014C0000801DFF884864FF0010505F029FA08B11C
:1014D0004FF0000588F80050C4F38010002104F09C
:1014E00081FF0022002304F001FE00220023CDE949
:1014F0000A01DFF858864FF0010505F011FA08B12E
:101500004FF0000588F80050C4F3C010002104F02B
:1015100069FF0022002304F0E9FD00220023CDE949
:101520000C01DFF82C864FF0010505F0F9F908B140
:101530004FF0000588F80050C4F30040002104F08B
:1015400051FF0022002304F0D1FD00220023CDE949
:101550000E01DFF800864FF0010505F0E1F908B152
:101560004FF0000588F80050C4F34040002104F01B
:1015700039FF0022002304F0B9FD00220023CDE949
:101580001001DFF8D4854FF0010505F0C9F908B165
:101590004FF0000588F80050C4F38040002104F0AB
:1015A00021FF0022002304F0A1FD00220023CDE949
:1015B0002801DFF8A8854FF0010505F0B1F908B161
:1015C0004FF0000588F80050C4F3C040002104F03B
:1015D00009FF0022002304F089FD00220023CDE949
:1015E0001201DFF87C854FF0010505F099F908B18B
:1015F0004FF0000588F80050C4F30050002104F0BB
:10160000F1FE0022002304F071FD00220023CDE949
:101610001401DFF850854FF0010505F081F908B19C
:101620004FF0000588F80050C4F34050002104F04A
:10163000D9FE0022002304F059FD00220023CDE949
:101640001601DFF824854FF0010505F069F908B1AE
:101650004FF0000588F80050C4F38050002104F0DA
:10166000C1FE0022002304F041FD00220023CDE949
:101670001801DFF8F8844FF0010505F051F908B1C1
:101680004FF0000588F80050C4F3C050002104F06A
:10169000A9FE0022002304F029FD00220023CDE949
:1016A0002001DFF8CC844FF0010505F039F908B1CD
:1016B0004FF0000588F80050C4F30060002104F0EA
:1016C00091FE0022002304F011FD00220023CDE949
:1016D0002601DFF8A0844FF0010505F021F908B1DB
:1016E0004FF0000588F80050C4F34060002104F07A
:1016F00079FE0022002304F0F9FC00220023CDE94A
:101700002401DFF874844FF0010505F009F908B1F0
:101710004FF0000588F80050C4F38060002104F009
:1017200061FE0022002304F0E1FC00220023CDE949
:101730001E01DFF848844FF0010505F0F1F808B10B
:101740004FF0000588F80050C4F3C060002104F099
:1017500049FE0022002304F0C9FC00220023CDE949
:101760001C01DFF81C844FF0010505F0D9F808B121
:101770004FF0000588F80050C4F30070002104F019
:1017800031FE0022002304F0B1FC00220023CDE949
:101790002201DFF8F0834FF0010505F0C1F808B130
:1017A0004FF0000588F80050C4F34070002104F0A9
:1017B00019FE0022002304F099FC00220023CDE949
:1017C0001A01DFF8C4834FF0010505F0A9F808B14C
:1017D0004FF0000588F80050C4F38070002104F039
:1017E00001FE0022002304F081FC00220023804639
:1017F0008946DFF898A34FF0010505F091F808B18C
:101800004FF000058AF80050E00F002104F0EAFDD7
:101810000022002304F06AFC0022002304460D4647
:10182000DFF86CB34FF0010A05F07AF808B14FF019
:10183000000A30463946002200238BF800A005F04C
:101840006FF8002800F0CE80DDE9000100220023BF
:1018500005F066F858B9B54B01221A60B44B012265
:101860001A602BB0BDE8F08F4FF00105BAE5DDE955
:1018700002010022002305F053F80028EBD0DDE937
:1018800004010022002305F04BF80028E3D0DDE935
:1018900006010022002305F043F80028DBD0DDE933
:1018A00008010022002305F03BF80028D3D0DDE931
:1018B0000A010022002305F033F80028CBD0DDE92F
:1018C0000C010022002305F02BF80028C3D0DDE92D
:1018D0000E010022002305F023F80028BBD0DDE92B
:1018E00010010022002305F01BF80028B3D0DDE929
:1018F00028010022002305F013F8002800F01281CF
:10190000DDE912010022002305F00AF80028A2D028
:10191000DDE914010022002305F002F800289AD026
:10192000DDE916010022002304F0FAFF002892D01E
:10193000DDE918010022002304F0F2FF00288AD01C
:10194000DDE920010022002304F0EAFF002882D014
:10195000DDE926010022002304F0E2FF002800F068
:101960002181DDE924010022002304F0D9FF0028B1
:1019700000F01881DDE91E010022002304F0D0FFF1
:1019800000283FF468AFDDE91C010022002304F0C9
:10199000C7FF00283FF45FAFDDE9220100220023EA
:1019A00004F0BEFF002800F0F980DDE91A010022F2
:1019B000002304F0B5FF00283FF44DAF40464946F0
:1019C0000022002304F0ACFF40B12046294600224B
:1019D000002304F0A5FF002840F0DC80534B0122D7
:1019E0001A609BE0514B01221A60DDE900010022E0
:1019F000002304F095FF00283FF430AFDDE9020139
:101A00000022002304F08CFF00283FF427AFDDE91B
:101A100004010022002304F083FF00283FF41EAFDE
:101A2000DDE906010022002304F07AFF00283FF4DC
:101A300015AFDDE908010022002304F071FF002842
:101A40003FF40CAFDDE90A010022002304F068FF37
:101A500000283FF403AFDDE90C010022002304F06D
:101A60005FFF00283FF4FAAEDDE90E0100220023FB
:101A700004F056FF00283FF4F1AEDDE9100100222A
:101A8000002304F04DFF00283FF4E8AEDDE9120129
:101A90000022002304F044FF00283FF4DFAEDDE91C
:101AA00014010022002304F03BFF00283FF4D6AECF
:101AB000DDE916010022002304F032FF00283FF484
:101AC000CDAEDDE918010022002304F029FF002833
:101AD0003FF4C4AEDDE920010022002304F020FF22
:101AE00000283FF4BBAEDDE91E010022002304F014
:101AF00017FF00283FF4B2AEDDE91C0100220023ED
:101B000004F00EFF00283FF4A9AEDDE91A0100221F
:101B1000002304F005FF00283FF4A0AE044B002290
:101B20001A609EE6014B01221A60AFE78890FF1F02
:101B30004C91FF1F5B92FF1F5991FF1F5D92FF1F8A
:101B40006992FF1F8891FF1F7092FF1F9391FF1FE3
:101B5000A890FF1F9590FF1FA990FF1F9592FF1F50
:101B60000191FF1F7C92FF1F9691FF1F9191FF1F14
:101B70009591FF1F5092FF1F9692FF1F1891FF1F14
:101B8000A091FF1FE890FF1F9291FF1F5992FF1F26
:101B90005A92FF1F054B00221A60BFE7034B012238
:101BA0001A60B2E7014B01221A609CE78890FF1F80
:101BB0002DE9F041C7688668DFF8C8800021380C3D
:101BC00004F010FC2AA3D3E9002304F041FC002315
:101BD000002204F08BFA04F0D5FEB4B2C8F800007D
:101BE000002510230120002100184941013BFBD1B1
:101BF0004B084FEA3002AB4208BFA24234D3204622
:101C0000294604F0EFFB1AA3D3E9002304F020FCDB
:101C10000022002304F06AFA04F0B4FE164B174CBD
:101C200018600021B8B204F0DDFB11A3D3E9002352
:101C300004F00EFC0022002304F058FA04F0A2FE87
:101C400000212060300C04F0CDFB09A3D3E9002370
:101C500004F0FEFB0023002204F048FA04F092FE98
:101C6000074B1860BDE8F081201A65EB0101C8E759
:101C7000000000A09999A93FC490FF1F6492FF1F24
:101C80009092FF1FEC90FF1F2DE9F041C668876816
:101C9000DFF8CC800021F0B204F0A4FB00222C4B32
:101CA00004F0D6FB0023002204F020FA04F06AFEC0
:101CB000BCB2C8F800000025102301200021001844
:101CC0004941013BFBD14B084FEA3002AB4208BF10
:101CD000A24234D32046294604F084FB1AA3D3E958
:101CE000002304F0B5FB0022002304F0FFF904F008
:101CF00049FE184B184C18600021380C04F072FB98
:101D000011A3D3E9002304F0A3FB0022002304F075
:101D1000EDF904F037FE00212060C6F3072004F03F
:101D200061FB00220A4B04F093FB0023002204F025
:101D3000DDF904F027FE094B1860BDE8F081201A98
:101D400065EB0101C8E700BF000000A09999A93F19
:101D50000000E03FCC90FF1FAC90FF1F0092FF1FE0
:101D6000FC90FF1FFFFFFFFF2DE9F8438468D0F8C8
:101D70000C90534E0021C4F3401004F033FB0022BA
:101D8000002304F0B3F90022002304F0C9FD002869
:101D900000F08C804FF000053570C4F30130002155
:101DA00004F020FB0022002304F0A0F904F0EAFD77
:101DB000444BDFF8288118600021C4F3C01004F000
:101DC00011FB0022002304F091F9002200234FF0C0
:101DD000010504F0A5FD08B14FF000051FFA89F6D2
:101DE00088F80050002710210122002392185B413F
:101DF0000139FBD159084FEA3200B94208BFB0425D
:101E00003946304602D2B01A67EB030104F0EAFA11
:101E100029A3D3E9002304F01BFB0022002304F0D4
:101E200065F904F0AFFD284B284D18600021200C07
:101E300004F0D8FA20A3D3E9002304F009FB002220
:101E4000002304F053F904F09DFD00212860C4F341
:101E5000032004F0C7FA0022002304F047F904F03D
:101E600091FD1B4B1B4E18600021C4F3801004F041
:101E7000B9FA0022002304F039F9002200234FF0C0
:101E8000010504F04DFD08B14FF0000504F01F00FE
:101E90000021357004F0A6FA0023002204F026F990
:101EA00004F070FD0C4B1860BDE8F8834FF001059D
:101EB00072E700BFAFF30080000000A09999A93F2E
:101EC0001E91FF1FB091FF1FE091FF1FA092FF1F07
:101ED0001492FF1F8091FF1FA892FF1F9091FF1F78
:101EE0002DE9F04F8468B94E8FB0C4F30030002163
:101EF00004F078FA0022002304F0F8F8002200230E
:101F000004F00EFD002800F0D5814FF0000535707B
:101F1000C4F34030002104F065FA0022002304F0ED
:101F2000E5F80022002306460F46DFF8A4824FF0B2
:101F3000010504F0F5FC08B14FF0000588F80050E9
:101F4000C4F34020002104F04DFA0022002304F0E5
:101F5000CDF800220023CDE90001DFF878824FF0B0
:101F6000010504F0DDFC08B14FF0000588F80050D1
:101F7000C4F3C030002104F035FA0022002304F03D
:101F8000B5F800220023CDE90201DFF84C824FF0C2
:101F9000010504F0C5FC08B14FF0000588F80050B9
:101FA000C4F38020002104F01DFA0022002304F075
:101FB0009DF800220023CDE90401DFF820824FF0D4
:101FC000010504F0ADFC08B14FF0000588F80050A1
:101FD000C4F3C020002104F005FA0022002304F01D
:101FE00085F800220023DFF8F8814FF0010504F0A6
:101FF00097FC08B14FF0000588F80050C4F380301A
:10200000002104F0EFF90022002304F06FF8002211
:102010000023CDE90601DFF8CC814FF0010504F083
:102020007FFC08B14FF0000588F80050C4F3002091
:10203000002104F0D7F90022002304F057F8002211
:102040000023CDE90801DFF8A0814FF0010504F07D
:1020500067FC08B14FF0000588F8005004F001005B
:10206000002104F0BFF90022002304F03FF8002211
:102070000023DFF878814FF0010504F051FC08B12E
:102080004FF0000588F80050C4F34000002104F030
:10209000A9F90022002304F029F800220023CDE949
:1020A0000A01DFF84C814FF0010504F039FC08B15A
:1020B0004FF0000588F80050C4F38000002104F0C0
:1020C00091F90022002304F011F800220023DFF828
:1020D00024814FF0010504F023FC08B14FF0000506
:1020E00088F80050C4F3C000002104F07BF90022FE
:1020F000002303F0FBFF00220023CDE90C01DFF8F1
:10210000F8804FF0010504F00BFC08B14FF000051A
:1021100088F80050C4F30010002104F063F9002295
:10212000002303F0E3FF00220023DFF8D0804FF00C
:10213000010504F0F5FB08B14FF0000588F80050E8
:10214000C4F34010002104F04DF90022002303F0F5
:10215000CDFF0022002380468946DFF8A4A04FF07F
:10216000010504F0DDFB08B14FF000058AF80050CE
:10217000C4F38010002104F035F90022002303F09D
:10218000B5FF00220023DFF87CA04FF0010504F02A
:10219000C7FB08B14FF000058AF80050C4F3C01027
:1021A000002104F01FF90022002303F09FFF00220A
:1021B000002304460D46DFF850B04FF0010A04F04A
:1021C000AFFB18B34FF0000A20E000BF2D92FF1FB5
:1021D000A191FF1F8490FF1F6091FF1F8892FF1F36
:1021E0003C91FF1F5F92FF1FA891FF1FF590FF1FFB
:1021F0006191FF1FDC91FF1FA492FF1FAC92FF1F94
:102200009C90FF1F0C92FF1F1892FF1F304639460B
:10221000002200238BF800A004F082FB002843D0AA
:10222000DDE900010022002304F07AFB00283BD006
:10223000DDE902010022002304F072FBA0B3DDE916
:1022400004010022002304F06BFB68B3DDE9060102
:102250000022002304F064FB30B3DDE90801002212
:10226000002304F05DFBF8B1DDE90A010022002340
:1022700004F056FBC0B1DDE90C010022002304F09C
:102280004FFB88B1404649460022002304F048FB3A
:1022900050B1204629460022002304F041FB18B12A
:1022A000064B00221A7002E0044B01221A700FB094
:1022B000BDE8F08F4FF0010529E600BF0891FF1F30
:1022C000F8B58468C5683F4F0021C4F3C02004F00E
:1022D00089F80022002303F009FF0022002304F004
:1022E0001FFB00286AD04FF000063E70C4F3003098
:1022F000002104F077F80022002303F0F7FE00220B
:102300000023314F4FF0010604F00AFB08B14FF0F3
:1023100000063E70C4F34030002104F063F8002250
:10232000002303F0E3FE00220023284F4FF00106B4
:1023300004F0F6FA08B14FF000063E70C4F30C202A
:10234000002104F04FF80022002303F0CFFE04F038
:1023500019FB1F4B1F4E18600021E0B204F042F839
:102360000022002303F0C2FE04F00CFB00213060C9
:10237000A8B204F037F80022002303F0B7FE04F0FF
:1023800001FB154B154E18600021C4F3026004F0E8
:1023900029F80022002303F0A9FE04F0F3FA00213B
:1023A0003060C5F3014004F01DF80023002203F063
:1023B0009DFE04F0E7FA0A4B1860F8BD4FF00106E5
:1023C00093E700BFB891FF1F8992FF1F4892FF1F3C
:1023D000D090FF1F7492FF1F6491FF1F0492FF1F94
:1023E0008C91FF1FFFFFFFFF2DE9F0418568DFF8AB
:1023F0001081C5F30720002103F0F4FF0022002321
:1024000003F074FE04F0BEFA394B04461C60C5F3B9
:102410000310002103F0E6FF0023002203F066FE14
:1024200004F0B0FAC5F30846C8F8000000270923F5
:102430000120002100184941013BFBD14B084FEA24
:102440003002BB4208BFB24249D2301A67EB0101E9
:1024500003F0C8FF24A3D3E9002303F0F9FF00220F
:10246000002303F043FE04F08DFA224B224E186045
:10247000002105F00F0003F0B5FF0023002203F058
:1024800035FE04F07FFAA4F10903022B306002D874
:102490001A4B04221A60A4F10C03052B02D8174B27
:1024A00005221A60A4F11303052B02D8134B07224F
:1024B0001A60A4F11A03032B02D8104B09221A60E8
:1024C000A4F11F030D2B02D80C4B0D221A602E3CD9
:1024D000082C02D8094B11221A60BDE8F081304661
:1024E0003946B5E7AFF30080000000A09999B93FE5
:1024F000D490FF1FA490FF1FB491FF1F7891FF1F7E
:10250000B890FF1FC3682DE9F04100218668DFF80D
:10251000DC8003F0010003F065FF0022002303F0DC
:10252000E5FD0022002304F0FBF9002847D04FF01E
:102530000007B4B288F800700025102101220023A2
:1025400092185B410139FBD159084FEA3200A94288
:1025500008BFA042294620462AD2A01A65EB0301F3
:1025600003F040FF0022002303F0C0FD04F00AFA4C
:102570001C4B340C1860002510230120002100188A
:102580004941013BFBD14B084FEA3002AB4208BF47
:10259000A24217D32046294603F024FF002300223D
:1025A00003F0A4FD04F0EEF90F4B1860BDE8F081D4
:1025B00003F018FF0022002303F098FDD6E74FF048
:1025C0000107B6E7201A65EB010103F00BFF0023BA
:1025D000002203F08BFD04F0D5F9034B1860BDE831
:1025E000F08100BFD891FF1F6891FF1F8991FF1FE5
:1025F00010B5444C444886B0214601F0AFFD236835
:1026000040F2032293425DD0B3F5017F1AD340F22A
:102610005532934231D044D940F25A32934236D0A7
:1026200040F25B32934259D040F25632934217D176
:102630002046FEF7D9FC354A354B12680192019AC3
:102640001A600DE040F20112934256D0B3F5817F3B
:1026500008D2812B4DD0822B02D12046FFF7C4FE39
:1026600006B010BDB3F5827F34D040F2022293420F
:10267000F6D12046FFF79CFAF2E72046FEF704FE6B
:10268000224A244B12680592059A1A60E8E7204610
:10269000FEF78EFE1D4A204B12680492049A1A60BF
:1026A000DEE7B3F5407F11D040F251329342D7D1EB
:1026B0002046FEF725FE154A184B12680392039A2E
:1026C0001A60CDE72046FFF7DFFAC9E72046FFF79B
:1026D00019FFC5E72046FFF703FCC1E794E80F00A8
:1026E000FEF7FAFC094A0E4B12680292029A1A602F
:1026F000B6E72046FFF7E4FDB2E72046FFF734FBDC
:10270000AEE700BF2C91FF1FB092FF1F6494FF1F24
:10271000BC91FF1FC090FF1F8C90FF1FAC91FF1F4B
:10272000A090FF1FF0B51948194B82791C7840F230
:102730005735002303216FF3000287B00560C17194
:1027400082714372837264B1124AFF23127802725B
:10275000437283720D49104807B0BDE8F04001F0A4
:10276000FFBD0E4B0B4D1968019400940C4B2C7857
:102770000472002600270022CDE90223CDE9046778
:1027800010230822FDF764FFE4E700BFC491FF1F98
:102790002492FF1F2087FF1FB092FF1F7891FF1F19
:1027A0000000F03FFFFFFFFF2DE9F0478E4D8F4BFC
:1027B000DFF8849295F806E0197886B000240026A8
:1027C00000274FF0000840F26A336FF3000E2846EE
:1027D0004FF0060ACDE9028922462B60019400944D
:1027E000CDE90467012385F806E085F807A02C727F
:1027F0006C72AC72EC722C736C73FDF729FF7C4B1E
:102800000194197800940123CDE9028928461A46DB
:10281000CDE90467FDF71CFF764B0194197800940D
:10282000CDE902892846CDE9046781F00101012341
:102830000222FDF70DFF704B019419680094B1FA64
:1028400081F1CDE902892846CDE9046749090123D0
:102850000322FDF7FDFE694B019419680094CDE950
:1028600002892846CDE9046701230422FDF7F0FE22
:10287000634B019419780094CDE902892846CDE98B
:10288000046701230522FDF7E3FE5E4B01941978EE
:102890000094CDE9028952462846CDE90467012318
:1028A000FDF7D6FE584B019419780094CDE90289C2
:1028B0002846CDE9046701230722FDF7C9FE534BE3
:1028C000019419780094CDE902892846CDE904677E
:1028D00001230822FDF7BCFE4D4B019419780094AA
:1028E000CDE902892846CDE9046701230922FDF7D5
:1028F000AFFE484B019419780094CDE9028928462F
:10290000CDE9046701230A22FDF7A2FE424B0194A0
:1029100019780094CDE902892846CDE9046701239E
:102920000B22FDF795FE3D4B019419780094CDE9FB
:1029300002892846CDE9046701230C22FDF788FEB1
:10294000374B019419780094CDE902892846CDE9E6
:10295000046701230D22FDF77BFE324B01941978A9
:102960000094CDE902892846CDE9046701230E22AF
:10297000FDF76EFE2C4B019419780094CDE9028985
:1029800028460FF25C09D9E90089CDE904670123E3
:102990000F22FDF75DFE254B01944FF0010A1968E7
:1029A000CDF800A02846CDE90467CDE902891023BF
:1029B0001722FDF74DFE1E4B01941968CDF800A0BB
:1029C0002846CDE90467CDE9028910232722FDF7C7
:1029D0003FFE1848294606B0BDE8F04701F0C0BCEC
:1029E000000000A09999B93FC491FF1FB090FF1F4C
:1029F000F490FF1FC191FF1F3892FF1F4C91FF1FE2
:102A00006092FF1F7192FF1F0991FF1FF891FF1F36
:102A10002492FF1F0091FF1F9492FF1F5E92FF1FE1
:102A2000BD90FF1F4092FF1FBE90FF1F9892FF1F97
:102A30007C91FF1FB092FF1F0000F03F314A2DE94B
:102A4000D043937908216FF300038020D1719371F3
:102A50001060D31D86B00F32002103F8011F93428E
:102A60004FF00004F9D1284F284B01944FF0000893
:102A70004FF0000900261968224800942246CDE94B
:102A80000489CDE902670823FDF7E2FD204B01949C
:102A900019681C480094CDE90489CDE90267042334
:102AA0000822FDF7D5FD1B4B0194197815480094B9
:102AB000CDE90489CDE9026701230D22FDF7C8FDA8
:102AC000154B019419780F480094CDE90489CDE99C
:102AD000026701230E22FDF7BBFD104B019419681C
:102AE00008480094CDE90489CDE902670823112242
:102AF000FDF7AEFD03490A4806B0BDE8D04301F03A
:102B00002FBC00BFC491FF1F0000F03F0C91FF1FBE
:102B10008C92FF1F5892FF1FC091FF1FFC91FF1F57
:102B2000B092FF1F3E4A2DE9D043937908216FF3FD
:102B3000000340F20520D17193711060D31D86B05F
:102B40000F32002103F8011F93424FF00004F9D126
:102B5000344F354B01944FF000084FF00009002628
:102B600019682F4800942246CDE90489CDE902670F
:102B70000823FDF76DFD2D4B01941968284800943A
:102B800008231A46CDE90489CDE90267FDF760FD07
:102B9000274B0194196822480094CDE90489CDE9B6
:102BA000026708231022FDF753FD224B0194196898
:102BB0001B480094CDE90489CDE902670823182257
:102BC000FDF746FD1C4B0194197815480094CDE99A
:102BD0000489CDE9026701232022FDF739FD174B57
:102BE000019419780E480094CDE90489CDE9026773
:102BF00001232122FDF72CFD114B0194197808487F
:102C00000094CDE90489CDE9026701232222FDF772
:102C10001FFD03490B4806B0BDE8D04301F0A0BB3F
:102C2000C491FF1F0000F03F1092FF1FB490FF1FE0
:102C30005091FF1F4491FF1FBC90FF1F9490FF1FF6
:102C40009690FF1FB092FF1F2F4A2DE9D043937932
:102C500008216FF300034FF40070D171937110607D
:102C6000D31D86B00F32002103F8011F93424FF0AD
:102C70000004F9D122A7D7E90067244B0094196812
:102C800021484FF000084FF000090123019322462C
:102C9000CDE90267CDE904891023FDF7D9FC1C4B6F
:102CA000019419681848009410231A46CDE9048944
:102CB000CDE90267FDF7CCFC164B01941968124868
:102CC0000094CDE90489CDE9026710232022FDF7A5
:102CD000BFFC114B019419680B480094CDE904899D
:102CE000CDE9026710233022FDF7B2FC06490B48FC
:102CF00006B0BDE8D04301F033BB00BFAFF30080A6
:102D0000000000A09999A93FC491FF1F3492FF1FB2
:102D10007491FF1F4891FF1F1C92FF1FB092FF1F6D
:102D2000374A2DE9D043937908216FF3000340F22D
:102D30000120D17193711060D31D86B00F32002134
:102D400003F8011F93424FF00004F9D12AA3D3E9FD
:102D500000232C4901940026002709682848009484
:102D6000CDE90223CDE9046722461023FDF770FC6C
:102D7000DFF8A890244B01944FF000081968204810
:102D80000094CDE90289CDE9046708231022FDF7FC
:102D90005FFC1E4B0194196819480094CDE9028923
:102DA000CDE9046708231822FDF752FCDFF8709084
:102DB000174B01944FF00008197811480094CDE9A1
:102DC0000467CDE9028901232B22FDF741FC114B59
:102DD000019419780A480094CDE90467CDE9028985
:102DE00001232D22FDF734FC05490B4806B0BDE850
:102DF000D04301F0B5BA00BF000000A09999A93FE7
:102E0000C491FF1F8092FF1F4C92FF1F7892FF1FFB
:102E1000D491FF1F5C92FF1FB092FF1F0000E03FA4
:102E20000000F03FFFFFFFFF434A2DE9F047937991
:102E300008216FF300034FF48070D171937110601B
:102E4000D31D86B00F32002103F8011F93424FF0CB
:102E5000000AF9D1394BCDF804A0394F196836482A
:102E6000CDF800A00024002504230026CDE9026748
:102E70001A46CDE90445FDF7EBFB324B324FCDF856
:102E800004A019682C48CDF800A0002608231A4693
:102E9000CDE90445CDE90267FDF7DAFB0FF29009B1
:102EA000D9E90089294BCDF804A019682248CDF84A
:102EB00000A010231A46CDE90445CDE90289FDF7AB
:102EC000C7FB234BCDF800A019681B4801230193D1
:102ED000CDE90445CDE9028910232022FDF7B8FB96
:102EE0001C4BCDF804A019681348CDF800A0CDE91B
:102EF0000445CDE9026708233022FDF7A9FB164BF4
:102F0000CDF804A019680C48CDF800A0CDE904451F
:102F1000CDE9026708233822FDF79AFB06490F48DE
:102F200006B0BDE8F04701F01BBA00BFAFF3008068
:102F3000000000A09999A93FC491FF1F9C91FF1F19
:102F40000000F03FF090FF1F0000E03F3092FF1FB5
:102F50008491FF1F2891FF1FD890FF1FB092FF1F81
:102F600010B50C215E485F4C02F02EFE5E4802F068
:102F70005BFF236873B3012B33D0022B38D0032BB4
:102F80003DD0042B42D0052B47D0062B4CD0072B2D
:102F900051D0082B56D0092B5BD00A2B60D00B2BBD
:102FA00065D00C2B6AD00D2B6FD00E2B74D00F2B4D
:102FB00079D0102B7ED0112B00F08480122B00F0E2
:102FC00089800021494802F0FFFD4748BDE81040D4
:102FD00002F02ABF1C21464802F0F6FD2368012BAF
:102FE000CBD12B21434802F0EFFD2368022BC6D141
:102FF0001221414802F0E8FD2368032BC1D11B21B7
:103000003E4802F0E1FD2368042BBCD11C213C4862
:1030100002F0DAFD2368052BB7D11821394802F0F8
:10302000D3FD2368062BB2D12121374802F0CCFD15
:103030002368072BADD11221344802F0C5FD236867
:10304000082BA8D11821324802F0BEFD2368092BB5
:10305000A3D111212F4802F0B7FD23680A2B9ED17E
:103060001A212D4802F0B0FD23680B2B99D11921AC
:103070002A4802F0A9FD23680C2B94D10721284887
:1030800002F0A2FD23680D2B8FD11B21254802F0F1
:103090009BFD23680E2B8AD10721234802F094FD63
:1030A00023680F2B85D12C21204802F08DFD236849
:1030B000102B80D127211E4802F086FD2368112B9A
:1030C0007FF47CAF26211B4802F07EFD2368122B83
:1030D0007FF477AF2521184802F076FD71E700BF35
:1030E000B07A00007492FF1F7087FF1FFC7F000002
:1030F000C07A0000E07A00000C7B0000207B00001A
:103100003C7B00005C7B0000787B00009C7B000027
:10311000B07B0000CC7B0000E07B0000FC7B00006B
:10312000187C0000207C00003C7C0000447C0000F7
:10313000747C00009C7C0000C47C000010B50C2155
:103140007448754C02F040FD744802F06DFE23682F
:10315000002B62D0012B67D0022B6CD0032B71D0D7
:10316000042B76D0052B7BD0062B00F08180072B1B
:1031700000F08680082B00F08B8000216848694CA5
:1031800002F022FD654802F04FFE0F21664802F072
:103190001BFD624802F048FE216800297DD001290C
:1031A00000F08380022900F08880032900F08D80E0
:1031B000042900F09280052900F09780062900F08C
:1031C0009C80072900F0A1800021554802F0FCFCFA
:1031D000524802F029FE0A21544802F0F5FC544BF3
:1031E0004E48196802F074FE0121524802F0ECFCCE
:1031F0004A4802F019FE12214F4802F0E5FC4F4BFD
:103200004648196802F064FE01214D4802F0DCFCDA
:103210004248BDE8104002F007BE0E21494802F0C6
:10322000D3FC2368012B97D10D21474802F0CCFC39
:103230002368022B92D10C21444802F0C5FC23687C
:10324000032B8DD10C21424802F0BEFC2368042BD5
:1032500088D10C213F4802F0B7FC2368052B83D1AD
:1032600009213D4802F0B0FC2368062B7FF47FAFB4
:103270001E213A4802F0A8FC2368072B7FF47AAF9E
:103280001F21374802F0A0FC2368082B7FF475AF9C
:103290001521344802F098FC6FE70D21324802F006
:1032A00093FC216801297FF47DAF16212F4802F09D
:1032B0008BFC216802297FF478AF14212C4802F09E
:1032C00083FC216803297FF473AF1621294802F09B
:1032D0007BFC216804297FF46EAF1721264802F099
:1032E00073FC216805297FF469AF0B21234802F0A4
:1032F0006BFC216806297FF464AF0921164802F0AF
:1033000063FC216807297FF45FAF1D4802F05CFC75
:103310005AE700BFEC7C0000B491FF1F7087FF1FCD
:10332000FC7F0000B890FF1FB07D0000447E0000CD
:10333000D490FF1F507E0000547E00007891FF1F44
:10334000687E0000FC7C00000C7D00001C7D0000FD
:103350002C7D00003C7D00004C7D0000587D00006D
:10336000787D0000987D0000C07D0000D07D0000C9
:10337000E87D0000007E0000187E0000307E000026
:103380003C7E000010B52E21AE48AF4C02F01CFC74
:10339000AE4802F049FD2821AD4802F015FCAB48CB
:1033A00002F042FD0021AB4802F00EFCA74802F0FB
:1033B0003BFD1021A84802F007FCA44802F034FDB0
:1033C0000C21A64802F000FC2368012B00F030819C
:1033D000002B00F02581A24CA2480D2102F0F4FB45
:1033E0002368002B00F00981012B00F011819E4C15
:1033F0009E48132102F0E8FB2368002B00F0EA80CE
:10340000012B00F0F2801321994802F0DDFB994B6B
:103410008E48196802F05CFD0121974802F0D4FB48
:103420008A4802F001FD1721944802F0CDFB944B2D
:103430008648196802F04CFD0121924802F0C4FB55
:10344000824802F0F1FC17218F4802F0BDFB8F4B40
:103450007E48196802F03CFD01218D4802F0B4FB62
:103460007A4802F0E1FC18218A4802F0ADFB8A4B51
:103470007648196802F02CFD0121854802F0A4FB72
:10348000724802F0D1FC1721844802F09DFB844B66
:103490006E48196802F01CFD01217A4802F094FB85
:1034A0006A4802F0C1FC1A217E4802F08DFB7E4B77
:1034B0006648196802F00CFD0121724802F084FB95
:1034C000624802F0B1FC0021624802F07DFB5F48D7
:1034D00002F0AAFC0F21754802F076FB5B4802F06F
:1034E000A3FC1221724802F06FFB724B5748196817
:1034F00002F0EEFC0121704802F066FB534802F036
:1035000093FC18216D4802F05FFB6D4B4F48196822
:1035100002F0DEFC0121684802F056FB4B4802F045
:1035200083FC00214B4802F04FFB484802F07CFC32
:103530000021484802F048FB444802F075FC152180
:10354000604802F041FB414802F06EFC0D215E48EC
:1035500002F03AFB5D4B3D48197802F0B9FC0021BE
:103560003C4802F031FB394802F05EFC1221584819
:1035700002F02AFB574B3548197802F0A9FC0021CC
:10358000344802F021FB314802F04EFC0E21524833
:1035900002F01AFB514B2D48197802F099FC0021DA
:1035A0002C4802F011FB294802F03EFC002129487A
:1035B00002F00AFB254802F037FCFFF7D1FCFFF7C9
:1035C000BDFD2E211F4802F0FFFA2048BDE8104043
:1035D00002F02ABC0221424802F0F6FA1B4802F02F
:1035E00023FC2368012B7FF40EAF03213D4802F03A
:1035F000EBFA164802F018FC05E70221384802F001
:10360000E3FA124802F010FC2368012B7FF4EFAEBE
:103610000321344802F0D8FA0C4802F005FCE6E633
:103620000521314802F0D0FA084802F0FDFBD2E64D
:1036300002212E4802F0C8FA044802F0F5FB236884
:10364000C6E600BF6C7E00003892FF1F7087FF1F28
:103650009C7E0000FC7F0000C87E0000DC7E000035
:103660008890FF1FF87E00004C91FF1F107F000024
:10367000247F00004492FF1F507E0000387F00002E
:103680005492FF1F507F0000547F00009891FF1F4D
:10369000687E00006C7F0000A491FF1F887F0000FF
:1036A0002892FF1FA07F00001091FF1FBC7F000029
:1036B000CC7F00009892FF1FE07F0000E47F0000B5
:1036C0007C91FF1F0080000018800000BD90FF1F4C
:1036D00028800000B090FF1F3C800000C191FF1FB8
:1036E000087F00000C7F0000F07E0000EC7E0000F0
:1036F00008B54FF4967001F0AFFB00210B2001F0EC
:1037000091FB00210C2001F08DFB0021162001F01F
:1037100089FB0021172001F085FB0021052001F025
:1037200081FB024B00221A7008BD00BFBD90FF1F35
:1037300038B5244A244B11681B68994218DDCB1A0E
:10374000224C22784AB922480268182B02F1010261
:10375000026018DD132A04DC38BD1D4B1A68132AD9
:10376000FADD1C4B01221A70BDE83840FFF7C0BFDC
:1037700001DA5B1AE4E7154C2378002BEDD1144BEA
:103780001A6801321A60312AEBDC134B1D78002DC8
:10379000E0D1C829DEDD4FF4967001F05DFB012118
:1037A000172001F03FFBC82001F056FB29460B20F3
:1037B00001F038FB012323700A20BDE8384001F0F6
:1037C0004BBB00BF5492FF1F9892FF1FBD90FF1F7D
:1037D0004091FF1FB090FF1F1991FF1F08B51020E7
:1037E00001F026FB012804BF054B1870102001F0E2
:1037F0001FFB20B9024A034B107001221A7008BD4A
:10380000C191FF1F1991FF1F2748284AF8B5046886
:10381000274D284F40F2EE2613783BB12B78DB077B
:1038200004D5036839685B1A0E2B06D80368117833
:103830001B1B71B3B3F5FA6FEED91B211E4802F0C2
:10384000C3F91E4802F0F0FA14211C4802F048FBAC
:10385000FDF7A4FBFDF7D8FAFDF77AFA0121142051
:1038600001F0E0FA642001F0F7FAFFF7B7FF144B1C
:103870001B788BB1134B1B7893B1642001F0ECFAE9
:103880000F21114802F0A0F90C4802F0CDFA62B6FF
:10389000F8BDB342C0D9D0E70C4B01221A70ECE757
:1038A000FCF7E4FDE9E700BF6494FF1F4895FF1FA4
:1038B0006095FF1FCC95FF1F4C8000007087FF1F95
:1038C000C191FF1F1991FF1F68800000B090FF1F7A
:1038D00070B5122001F020F9464C474E20601320AD
:1038E00001F01AF92468454A454B4649186002FB25
:1038F00004F202F2FF7281FB0241404BD4171144E3
:10390000C4EBE12103FB00F33E4C03F2FF73002AFA
:1039100084FB03241C444FEAE372B8BF01F1FF317A
:10392000C2EBE424002B0846B8BF04F1FF3403F0D7
:103930000BF9354903F010FA03F0AAFA334B0546A8
:103940001D60204603F000F92F4903F005FA03F04B
:103950009FFAA5F561534FF4BD7202FB03F32C4AA5
:103960002C492D4D086003F5E16382FB03421A44A4
:10397000002B4FEAE374A0F561514FF4BD7303FBD4
:1039800001F1234B01F5E161C4EBE22483FB012348
:103990000B444FEAE172B8BF04F1FF34C2EBE323FA
:1039A0000029B8BF03F1FF33092C2C60336005DC1C
:1039B0000022092B2A600EDC326070BD092B13DC5B
:1039C0000023C82C336014DD144B2046196800F026
:1039D00063FE33682860C82BEFDD114A1846116872
:1039E00000F05AFE306070BDC82CEDDCC82BF4DC52
:1039F000E3E770BD0892FF1F7C91FF1F10090500CF
:103A0000C890FF1F810008809A990141F491FF1F1F
:103A1000C5B3A2912491FF1F9892FF1F9090FF1FA2
:103A20000491FF1F70B58CB001E0FEF7E1FD69481D
:103A300000F05EFB0028F8D1674C684A23680193C8
:103A4000019B11685B1AFA2B25D92368039303980D
:103A5000634923680293029B096810605B1AB3F5FF
:103A6000FA6F42D95F4B00221A605F4B1B78002B24
:103A700066D15E4D2B78002B68D05D4E3368012BEC
:103A800064DD0121152001F0CDF92B78002B5DD0EC
:103A90003368012B5ADD2368564A0893089B116846
:103AA0004D485B1A642B56D82368534A0A930A9BE5
:103AB000116849485B1AB3F5FA7F14D903680B9370
:103AC0000B9B136072B64D4B4AF202614BF280427F
:103AD00019801A8062B6FEF767FEFFF7B5F8FFF7A8
:103AE0001FF9FFF74FFC0CB070BD2368444A0493E4
:103AF000049B12689B1AB3F5FA6FB3D82368414A46
:103B00000593059B12689B1AB3F5FA6FAAD8236830
:103B10003D4A0693069B12689B1AB3F5FA6FA1D82B
:103B200023683A4A0793079B12689B1AB3F5FA6F0A
:103B300098D82C4B01221A602B4B1B78002B98D065
:103B40002A4DFFF7F5FD2B78002B96D1002115208B
:103B500001F068F99FE703680993099B1360FEF77A
:103B6000E1FDFEF76BFFFEF7DDFFFFF75DF9FFF705
:103B7000AFFEFFF733FEFCF799FFFCF767FE11205D
:103B800001F056F9224B23491A78003018BF012062
:103B900008703AB1204A12683B2A17DD1F490022FB
:103BA0000A601A70114B1B78002B3FF47DAF0E4B4F
:103BB0001D78002D7FF478AFFFF79AFD1849194A58
:103BC000194B0D60012111601D606DE7FCF760FC71
:103BD000E8E700BFB092FF1F6494FF1F8492FF1FAD
:103BE000BC91FF1F3892FF1FC191FF1FBD90FF1FA7
:103BF0004492FF1F7091FF1F1491FF1F0C2005407E
:103C0000A090FF1FAC91FF1FC090FF1F8C90FF1F63
:103C1000F091FF1FBE90FF1F2091FF1F5C91FF1FBF
:103C20005491FF1F2092FF1F9890FF1F00F0F2BFDA
:103C300000F0F0BF00207047704700BF30B40B4663
:103C4000054603C905EBC204043484E8030019796E
:103C500011F0010F296812D11C6812481023843119
:103C600013FB0211A404204008602968803113FB73
:103C7000021230BC136823F40013136070471868F5
:103C80008431102313FB021120F060400860296882
:103C9000803113FB021230BC136843F4001313602D
:103CA000704700BF0000FC1F4388826810B59BB2BC
:103CB0000446084602EB0311102200F013FD63884E
:103CC000A1889BB2013393FBF1F201FB12339BB24B
:103CD0006380012010BD00BFF8B5204C204A217937
:103CE0000546034601F0FD0102202A606FF3000142
:103CF000002285F894011D2720261020C5F8A02059
:103D0000C5F8F870A5F89661A5F8980121712260B0
:103D1000114643F8B02F05F1F00243F8041F934217
:103D20004FF00004F9D1C5F88440C5F88840C5F8C3
:103D30008C40C5F890409822214605F1FC0003F024
:103D4000F3FB1F220F2385F8FC40C5F80841C5F896
:103D50000021C5F80C312846F8BD00BF4C94FF1F68
:103D60000040024038B5D0F8A03003B138BD044659
:103D7000B0F89801000102F0BDF8D4F8B020C4F802
:103D8000A000AAB10023B4F89851B4F89611A4F891
:103D90009430C4F89C00A4F89630C4F8AC20A4F881
:103DA000A430A4F89850A4F8A810A4F8A63038BD00
:103DB000B4F89601000102F09DF8C4F8B000024684
:103DC000D4F8A000DEE700BFF8B52C4BB3FBF1F54B
:103DD000052DB3FBF5F6A1EB06064BD900229E4656
:103DE0001746931CB5FBF3F4192C02F1010203FBF7
:103DF00004F3F6D8BEFBF3F3CB1A002BB8BF5B423B
:103E0000B3422EDB2FD0052CEBD87B1CB5FBF3F592
:103E1000053D142D1CD8B6F5967F19DC184A0068AC
:103E200005EB45055319515D5A789B7801F0070160
:103E300041F48001D20441F4804102F460121B0479
:103E40000A4303F4E023134343EA07674760F8BDDE
:103E500039210C4801F0B8FE0B48BDE8F84001F0EC
:103E6000E3BF1E4617460B2CCDD9122C9CBF1E4615
:103E70001746C8E701230027C8E700BF0024F40065
:103E80002487FF1F788000007087FF1F0F2930B440
:103E900004462DDC69BBD0F8A030012084F89401E1
:103EA00023B3002210252368803315FB023301322F
:103EB000196801F4001141F08061196094F89401CF
:103EC000C0F11003D2B2DBB29342ECD80F2B0DD865
:103ED00010204FF000612268803210FB0322013372
:103EE000DBB2102B1160F6D194F8940130BC70470E
:103EF0000F21D4F8A03084F894111BB11029D0D12F
:103F00000023E5E70846F1E790F89431C3F1100388
:103F1000DBB29A4201D2FFF791BE704790F894311C
:103F2000C3F11003DBB29A4220D2036810B41C68BC
:103F3000E4011CD41C6844F080441C6004682368BD
:103F400043F08053236004682368DB01FCD504F54B
:103F5000086404EB820211600268136823F0805346
:103F6000136002681368DB01FCD410BC704703F5D2
:103F7000086303EB820210BC1160F7E72DE9F04102
:103F80000546164698460C469DF81870FFF7EAFE5F
:103F90002A68524B9A4200F08F80514A4F49137859
:103FA00043F0800313702B688B427BD05A6822F455
:103FB00000525A602A68136843F0804313602A68ED
:103FC000136823F0004313602A681368DB02FCD4F3
:103FD000136883F0007313602B681A689701FCD490
:103FE0001A68D001FCD51A6842F400321A602146E2
:103FF0002846FFF7E9FE2A68136843F4803313600C
:1040000095F89431102B18BF002404D11DE0013421
:10401000E4B29C4219D2224600212846FFF77EFFD7
:1040200095F89431C3F11003DBB2A342EFD92246D5
:1040300031462846FFF702FE95F894310134C3F16A
:104040001003DBB2E4B29C42E5D32A68136823F084
:10405000805313602B681A68D101FCD41A681201CE
:10406000FCD495F894112846FFF710FFD5F8F830E6
:1040700003F1604303F5644340221A70D5F8F82039
:1040800053099B0003F1604303F5614302F01F02F3
:10409000012101FA02F21A602B684FF6FF729A6250
:1040A000BDE8F081A2F5E732A2F5E272136843F0B1
:1040B000100313602B6879E7B8F1010F06BF03F511
:1040C00018334833074B4FF40072012F1A600CBFAE
:1040D000054B064B4FF400721A605EE70040024049
:1040E00000500640309004404CA0044034900440FE
:1040F000D0F8F83030B45C09A10001F1604101F55D
:10410000614101220968144D03F01F0302FA03F311
:10411000194008BF002280F8F42045F82430B0F898
:10412000A430B0F8A6209BB292B29B1A44BFB0F85C
:10413000A8209B1869B1D0F8F8104A09920002F142
:10414000604202F5614201F01F01012000FA01F115
:104150001160184630BC704780E100E0F8B50446B5
:10416000D0F8F8001A4F4609B30003F1604303F595
:10417000614301221D6800F01F0002FA00F31D4296
:1041800014BF1546002584F8F45047F82630B4F8DB
:10419000A420B4F8A63092B29BB29A4216D004F191
:1041A000A400FFF781FD94F8F45075B1D4F8F8201D
:1041B00053099B0003F1604303F56143012102F0C1
:1041C0001F0201FA02F21A60F8BDF8BD0020ECE708
:1041D00080E100E070B48B7913F0010F036828D000
:1041E0000C681025843315FB023324F0604412FB65
:1041F00005F21C6003688C68883324BA9C500368FD
:10420000CC688C3324BA9C508B79DC071DD513F015
:10421000020FCB7901684FEA034303F4702301F1E5
:10422000800114BF43F0476343F046638B5070BC7A
:1042300070470D680E4C1026843316FB0233AD0414
:104240002C4012FB06F21C60D4E713F0020FCB796E
:1042500001684FEA034303F4702301F1800114BFA6
:1042600043F0416343F040638B5070BC704700BF24
:104270000000FC1F0368F0B58033102717FB0233E2
:104280008C791D688D80C5F34056C5F30343C5F393
:10429000005E66F30004CB7106686EF3410404F01F
:1042A000FB046FF3C70417FB02668C7191F806E0FC
:1042B000D6F884401EF0010F24F060440C60C5F372
:1042C000036504BFA40C0C60062D25D0D6F88840E9
:1042D000CC72260A250C042B4FEA14648E724D72A0
:1042E0000C7210D900688C3017FB0202072B126881
:1042F000CA734FEA12244FEA12404FEA12628C73DB
:1043000048730A7307D807330B4400220F3103F8B0
:10431000012F8B42FBD1F0BD8C7944F004048C71E9
:10432000D4E700BF38B50B888D8848889BB201332D
:1043300093FBF5F405FB14339DB283B29D420CD080
:104340000B8888680C469BB2114600EB03101022C4
:1043500000F0C8F92580012038BD002038BD00BF1D
:10436000F8B50446D0F8F8002B4E4509AB0003F130
:10437000604303F5614301221F6800F01F0002FA49
:1043800000F31F4208BF002284F8F42046F82530CD
:10439000B4F89430B4F896209BB292B29A4218D0F6
:1043A0000A46204604F19401FFF7BCFF94F8F4306C
:1043B00073B1D4F8F82053099B0003F1604303F56F
:1043C0006143012102F01F0201FA02F21A60F8BDF6
:1043D000F8BD94F89421C2F11002D2B20F2ADFD8AE
:1043E00002F12D0504EB8505130104E00132102ACA
:1043F00003F11003D4D055F8040B0028F6D120683F
:104400008030C058C0F303600828EFD12046D2B2F4
:10441000FFF7E0FE0120C9E780E100E02DE9F04F61
:10442000026889B0136B03938346054600F1B40A12
:104430000024994608E0022B3AD00134102C05F1F3
:1044400008050AF1040A2ED029FA04F3D907F4D595
:10445000270102F18003DB59C3F30363062B27D046
:10446000082BE8D1DAF8000008B90BF194000188B4
:10447000438889B29BB2994200F09D8001884388AD
:1044800089B29BB29942D8D004A9FFF70DFC00284D
:1044900040F0B280DBF800200134102C05F1080553
:1044A0000AF1040AD0D1039B136309B0BDE8F08F71
:1044B00004A9E2B25846FFF7DDFE9BF8FC306BB171
:1044C000D5F814319DF8162001335207C5F8143180
:1044D00004D5D5F818310133C5F81831002201236D
:1044E0008DE88400A34002950BF180060BF1900843
:1044F0001D4656F8040F28B1426812EA05032BD175
:10450000002A3FDBB045F4D1009B019F029D002BA8
:104510003FD09BF8FC3083B1BBF8A430BBF8A610A9
:104520009AB28BB2D31A44BFBBF8A8209B18DBF811
:1045300004219A4238BFCBF804310BEBC4031B7A39
:10454000DB0714D5DBF800306A68843322F0604260
:10455000DA51DBF8002070E703681F682D4B9F429B
:1045600045D10020009B1843C3B20093CAE7696895
:10457000DBF80030284A890484330A40DA51DBF83A
:1045800000205AE702681768224A97423CD1184631
:10459000E8E704AA0BF1A4015846FFF7C3FE002880
:1045A000B7D19BF8FC30002BC7D0DBF808310133C2
:1045B000CBF80831B0E70127A74047F000470BF1DF
:1045C00080060BF1900856F8040F10B143681F42A3
:1045D00004D1B045F7D1DBF800205DE703680F4A4E
:1045E0005B689342F5D0002221469847F1E700230B
:1045F000224604A9B847B5E7E2B204A95846FFF736
:10460000E9FDDBF8002018E74FF0FF3204A9B847B6
:10461000A8E700BF353C00000000FC1F393C00004B
:104620000148FFF7FBBE00BFB092FF1F704700BFFD
:10463000014B1B681B6A7047B092FF1F704700BF99
:10464000704700BF704700BF00210148FFF744BB1F
:10465000B092FF1F10F001030BD110F0060F06D12E
:1046600001070AD4C20604D483060ED47047184644
:1046700070470221052002F031BC064A138802214E
:1046800023330520138002F029BC0221072002F009
:1046900025BC00BF5694FF1F70B50F4E3368DB0773
:1046A00004460ED50D4D2B880D4A04EB840464009E
:1046B0005A2000FB0340A2FB00304009288080B252
:1046C00070BD304600F032FB044D0028EBD0304680
:1046D0002C8000F031FBE6E75894FF1F5494FF1F35
:1046E0001F85EB5101B441EA000313F003036FD1BE
:1046F000403A41D351F8043B40F8043B51F8043BA5
:1047000040F8043B51F8043B40F8043B51F8043BAB
:1047100040F8043B51F8043B40F8043B51F8043B9B
:1047200040F8043B51F8043B40F8043B51F8043B8B
:1047300040F8043B51F8043B40F8043B51F8043B7B
:1047400040F8043B51F8043B40F8043B51F8043B6B
:1047500040F8043B51F8043B40F8043B51F8043B5B
:1047600040F8043B51F8043B40F8043B51F8043B4B
:1047700040F8043B403ABDD2303211D351F8043BEB
:1047800040F8043B51F8043B40F8043B51F8043B2B
:1047900040F8043B51F8043B40F8043B103AEDD29A
:1047A0000C3205D351F8043B40F8043B043AF9D2EB
:1047B00004320AD0D2071CBF11F8013B00F8013BBC
:1047C00003D30B7803704B78437001BC704700BF74
:1047D0000C2A4AD310F0030311D0C3F10403D21AF8
:1047E000DB071CBF11F8013B00F8013B07D311F8B0
:1047F000013B00F8013B11F8013B00F8013B11F0CF
:1048000003033FF475AF30B4043AC91AC3F1040C82
:1048100051F8044B022B19D0032B0BD0240A51F86A
:10482000043B1D0644EA050440F8044B1C46043AC8
:10483000F4D216E0240E51F8043B1D0244EA0504AC
:1048400040F8044B1C46043AF4D20AE0240C51F818
:10485000043B1D0444EA050440F8044B1C46043A9A
:10486000F4D20432B1EB0C0130BC043AA0D3013ACB
:1048700011F8013B00F8013BF9D20B7803704B783B
:1048800043708B78837001BC704700BF374A38494A
:1048900013681B06FCD40B6813F08003F8D172B6C2
:1048A00034490A78002A5FD0334A3448F0B4344C93
:1048B000176806682568D4680C303E4414320068D6
:1048C0001268304F35442C4420440244C2F34E0257
:1048D0002D4E2E482E4D2F4C42F400423A60376840
:1048E00006682D682C4A24680C303E440068126823
:1048F0002A4F35442C4420440244C2F34E02284E31
:104900002848294D294C42F400423A60376806682D
:104910002D68274A24680C303E4400681268254FF1
:1049200035442C4420440244C2F34E02224E234814
:10493000234D244C42F400423A60376806682D68E3
:10494000214A24680C303E440068126835442C44E7
:1049500020440244C2F34E021C4842F4004202606A
:104960000B7062B6F0BC704762B6704724B003406B
:1049700024B00B405D94FF1F38B003403CB00340AF
:1049800040B003402CB0034058B003405CB003403B
:1049900060B0034064B003406CB0034030B00340EB
:1049A00038B00B403CB00B4040B00B4044B00B4023
:1049B0004CB00B402CB00B4058B00B405CB00B40DF
:1049C00060B00B4064B00B406CB00B4030B00B409B
:1049D00030B42948294A2A4B2A4D6024E121047029
:1049E00011701B78284C082B30D00A2B27482849F7
:1049F00037D00C2B0CBF35223D2212232A602360B6
:104A000002600B60234B24491B78244ABBB101236D
:104A10000B601360224B23491B78234A012B26D9B4
:104A2000042B0FD9082B1ED9102B94BF8623872364
:104A30000B6013601D4B01221A7030BC70470B6075
:104A40001360E7E784230B601360F3E700F58E2023
:104A50000F490830012213232A60236002600B6093
:104A6000D0E73922F7E785230B601360E2E7802364
:104A70000B601360DEE700BF0040074001400740C5
:104A80006387FF1F08B003400CB0034008B00B4021
:104A90000CB00B406094FF1F20B0034020B00B40CF
:104AA0006487FF1F24B0034024B00B405D94FF1FB8
:104AB0000C2830B417D91023984228BF18461C463A
:104AC000104A114D1178181A8C42287018D00F49CD
:104AD00013700B7823B10E490E4A00230B6013604C
:104AE00030BCFFF775BF0A2802D90C231C46E7E744
:104AF000082802D90A231C46E2E708231C46DFE700
:104B000030BC70476387FF1F5C94FF1F5D94FF1FDD
:104B100024B0034024B00B4028282FD8334B2DE974
:104B2000F0411E5CFF2E2BD0314B1B78002B2AD17D
:104B300032062CD472B62F4D2F4C2F4601232660FF
:104B40002B7062B672B623681B060CD43B781BB977
:104B5000F4E72B78002BF1D062B601F0E1F972B6E0
:104B600023681806F5D5254B1B6800222A7062B60B
:104B7000234A107843FA00F0BDE8F0810020704726
:104B80000020BDE8F081FFF781FE3206D2D572B673
:104B90001C4DDFF87C801C4C06F04007FFB206F08D
:104BA0003F06D8F80030DFB123F01003C8F800301A
:104BB00001232660134A2B7062B672B62368190669
:104BC0000CD413781BB9ECE72B78002BE9D062B634
:104BD00001F0A6F972B623681B06F5D50B4BC3E7A7
:104BE00043F01003C8F80030E2E700BFB4800000D3
:104BF0005D94FF1F5F94FF1F00B0034010B003409F
:104C00005C94FF1F5E94FF1F00B00B4010B00B4080
:104C10000CB00B40F0B585B0102219496846FFF77B
:104C200061FD184A127891071DD51749174D0A786A
:104C300012F0700218BF0A701549164A0346802701
:104C400015480F700026332403212E700470117054
:104C500072B60D4C43F001032046984762B62378A4
:104C600013F0700309D10D4B064901E0013B02D05E
:104C70000A78D207FAD505B0F0BD237005B0F0BDB3
:104C8000E0800000010002400000024004000240F9
:104C9000070002400A0002400B000240410D0300E1
:104CA00008B5104C08E0236859050DD423681A058F
:104CB0000FD42368DB0411D423685803F3D500F024
:104CC00043FA23685905F1D500F00EF823681A0558
:104CD000EFD500F009F82368DB04EDD500F004F807
:104CE000EAE700BF3480044008B5FFF7D9FF00BFF2
:104CF000014B10221A80704700200540704700BF0A
:104D0000094908B50B6830B16A461844A2F58052CB
:104D1000904202D20860184608BD02F017F90C2331
:104D200003604FF0FF3008BD6887FF1F0078B0FABE
:104D300080F04009704700BF01230370704700BF37
:104D400010B40F4B53F8302092F880422CB101235D
:104D500069B182F8803010BC704703EBC0035B6818
:104D60001A6841B922F002021A6010BC704782F83A
:104D7000003110BC704742F003021A6010BC70474B
:104D8000F08000001C4A02EBC00301295B6811D0CF
:104D900004291BD052F83000002280F8802229B16B
:104DA000022920D0032922D01A6070474FF4807264
:104DB0001A60704752F830004FF4A27280F88012E7
:104DC0001A601A6822F020021A60704752F83010F8
:104DD0004FF4A272012081F880021A601A6842F032
:104DE00020021A60704740F203121A6070474FF4B5
:104DF00081721A60704700BFF080000030B4054B2C
:104E0000054D064C002210211A602A6020601960AE
:104E100030BC704714D0034004D0034000D003409E
:104E2000704700BF212801D8FFF78ABF704700BF35
:104E3000212806D8044B53F8303093F80002C0B252
:104E400070470020704700BFF0800000212801D883
:104E5000FFF798BF704700BF2DE9F843054672B6CB
:104E6000204F214B214A1B683C68126862B65201F0
:104E700002D5322B88BF013495B3C3F5BB331C4E2A
:104E8000DFF86490DFF86480FF334FF47A72A6FB9A
:104E9000031302FB04F404EB931472B6D9F8001068
:104EA0003A68D8F800E062B6C1F5BB33FF33A6FB21
:104EB00003031EF0806FC4EB93134FF47A7002D09B
:104EC000322988BF013200FB0233B3F57A7F04D365
:104ED000013D05D004F57A74DFE701F021F8DCE745
:104EE000BDE8F8836494FF1F18E000E004ED00E0E3
:104EF000ABAAAAAAF8B52E4B2E49DFF8D4E0DFF80A
:104F0000D4C02D4E2D4D2E4C2E4A2F4F4FF4000065
:104F100018604FF0807018604FF0007018604FF00C
:104F2000806018604FF0006018600020086028233F
:104F30004BF6FF71CCF80010CEF8003033601360F0
:104F40002B6023603B60B3629362092245F8242CF6
:104F5000C4F8D80F05F57F65C7F8D41F07F5FF27FC
:104F600007F5FA67C6F8F83F2B6006F5FF26C4F888
:104F7000D42F05F5FD2504F5FF24386006F2F476FC
:104F80001248316005F5FF6504F5FD642B60236070
:104F90000260FFF71DFDFFF743FF1420FFF75CFFE2
:104FA00000F00CFD4FF48C70BDE8F840FFF754BFE3
:104FB00008E100E0048003401480034024800340A3
:104FC0002C8003401C8003403480034000800B4051
:104FD0000C80034008800340431E032B14D872B694
:104FE0000A4951F8230068B170B4094C058834F8B7
:104FF0001320466841F82360521B24F8132062B640
:1050000070BC704762B6704700207047C094FF1FA5
:10501000BC95FF1F013803280BD872B6074B53F815
:10502000203043B100205B680130002BFBD162B619
:105030007047002070471846F9E700BF1495FF1F1E
:10504000F0B472B61A491B4E012311F8014B194FE7
:105050009A00240742F0010505D556F8324064B1A4
:1050600056F83520BAB10133052BEED162B6124B9A
:1050700000221A70F0BC00F01BBD0F4C0F4D2178C0
:1050800007EB4313083001395860217047F832505C
:1050900062B6F0BC7047084A0949137807EBC504AB
:1050A0000830013B6060137047F8351062B6F0E7D6
:1050B0002C8200000080FF1F3D95FF1F88004000EC
:1050C000C8004000431E032B1DD81B4A400140F07E
:1050D000100030B4104472B6184CE25C032A1BD89E
:1050E000DFE802F00212151703220D88E25410F0D7
:1050F000080F14BFC823882343EA054308314160E1
:10510000036062B630BC704708300222EDE705222A
:10511000EBE708300422E8E7094A52F8230038B1E7
:10512000084A52F82300416042F8231062B6E9E7CA
:1051300042F82310034AF7E70080FF1F4C95FF1F3A
:105140001495FF1F2495FF1F2DE9F04FDFF814B3CE
:10515000DFF814A387B044E0AD4F4FEA930807EBA4
:10516000C809013ED9F8042003F00803F6B2A2F101
:10517000080003F0FF04002B40F0038157F838309B
:105180001B0C99B222F8081C002B00F0F180A14BF7
:1051900022F8064C42F8044C53F82620002A00F06E
:1051A0006C819D4D55F8263058609C4C45F8260082
:1051B00034F81630194424F8161000F059FC002871
:1051C00000F05481964A974B19F0080F00F108003F
:1051D00018BF1346C9F8040047F8383008238BF885
:1051E00000309BF80040E4B260071BD58E4B1B7863
:1051F000ABB18E490A7802F0FF032AB1013BDBB262
:105200000B70002B00F0B58389490A7802F0FF0388
:105210002AB1013BDBB20B70002B00F0F6800423B7
:105220008BF8003004F0080303F0FF02002B00F0BD
:10523000D5809AF80030DBB21E098DD19C08744FDE
:1052400057F8342007EBC401C2F38302013A4968DE
:105250000C2A7ED8DFE802F081817D7D7D7D7D7D19
:10526000427D7D7D07000868724B734D01936C4B46
:105270004A68724E47F8343081B240F281646D4B17
:105280006A60286000220120A1423A611A60BA6176
:10529000307000F2F680B1F5D06F80F0E882B1F5A1
:1052A000817F00F0D38200F2D881802900F04D8107
:1052B000822940F09282A988614B01F07F01042984
:1052C00000F28C825F4C89000B44227062701A7865
:1052D000930740F13883207002203AE1554B019347
:1052E0001A6862B3584B5949544E18880C7896F88E
:1052F00000E04028054684F0010C28BF402544F01A
:105300000204BEF1000F81F800C0A0EB050007EB1E
:10531000C40C0CBF8821C82180B28EF0010E41EA76
:105320000541CCF80420188086F800E02A4447F8AC
:10533000341010B9402D18BF0022019B1A603E4B5B
:105340001A88B2F5A06F04D100219A785970404BA9
:105350001A70404A0123137040E7374A158842F219
:105360002100854200F052812D4A47F83420F0E7B1
:105370002B4A2C4B19F0080F18BF134647F838304A
:105380002CE700F095FB344A344952F82630002BC4
:1053900000F02D8158688C5D42F8260003F1080268
:1053A000C9F80420032C05D8DFE804F0120F150219
:1053B00004228A551A8819F0080F0CBF8823C823C5
:1053C00043EA024347F8383008E702228A55F1E7FA
:1053D00003228A55EEE705228A55EBE7E00700F144
:1053E0007881210600F1A281A20706D51C4A1D4939
:1053F00013780220DBB213700870E30602D5194B54
:1054000010221A7007B0BDE8F08F00F0BDFC06E76F
:105410000080FF1FC094FF1F6C94FF1FBC95FF1FEF
:10542000C8004000880040004895FF1FD194FF1F2E
:105430005095FF1F6894FF1F3495FF1FD094FF1FE6
:10544000C02007404095FF1F7C94FF1F3C95FF1F25
:1054500098200740942007401495FF1F4C95FF1F8C
:10546000882007408020074090200740B74A47F82F
:105470003800137801331370B0E643F82600B44DBA
:1054800093E642F22104A14200F0AD8000F20E81C9
:10549000B1F5086F00F05481B1F5106F40F09D81B7
:1054A000AC4AA9781170AC4D042402E00134142CEC
:1054B0000CD057F834301906F8D505EBC403013485
:1054C0005868083800F0F4FA142CF2D1A349A44B20
:1054D000A44A0291A449A54C9D4D039405964FF012
:1054E000000988461C4616460495206828B1456880
:1054F00000F0DEFA2846002DF9D100232360049B3A
:1055000030681A46002342F8293028B1456800F077
:10551000CFFA2846002DF9D100223260029A98F87D
:1055200000301146002241F8042B039A0291023BFD
:105530004FF0000122F81910032B00F2B481DFE8CC
:1055400013F0E201AE01E201AE01894C02202270AB
:105550006270EA88824280F00D8286490D78402A86
:1055600045F0020E944607EBCE0028BF4FF0400CEA
:1055700004EB0C0344600293CCEB02004FEA0C48AE
:105580004FF001090022C82444EA080385F0010411
:1055900047F83E3032700C70DFF8BCE1764BDFF834
:1055A000D481002840F02081BCF1400F1BD144F091
:1055B000020407EBC403029FDFF89CE15F60002A4E
:1055C00040F02781020442F0880286F800900D70B6
:1055D00007444EF834203B46402804D10020674A57
:1055E000019910800B60664A01231370B1E68B5D50
:1055F000032B00F2248101A252F823F0DD510000B8
:10560000DD5100002157000027570000928862B941
:105610005C4ACD1D11F8013B02F8013F8D42F9D1E2
:10562000594A1268862A00F0C9805249524E0878B9
:10563000327840F0020580F00100087007EBC501E8
:10564000002A4FF00000486082F001020CBF882160
:10565000C82147F83510327086E640F20232914296
:1056600040F0B080A98801F07F01042900F2B580E4
:105670006A88002A40F0B180444C89000C4481467D
:10568000217841F00201217000200290804684467A
:10569000044638490D7845F0020E07EBCE03B9F108
:1056A000000F5C600CBF8824C8246DE742F22124FF
:1056B000A14240F08E80A988002940F04281344BFD
:1056C000344A354C1B68AD78136081460A46257014
:1056D000DAE72B49204B3148264EDFF8B0C0304D79
:1056E000DFF8D4E02F4F02240C702F4C18605C6060
:1056F00098602E48D8601A619A610D2332702C4C44
:105700008CF800302B4EFF232B7001209F258EF844
:1057100000303A7033702570087007B0BDE8F08F24
:1057200000238B555AE501238B5557E51749224B2A
:1057300080220D2008701A70A2077FF55EAE55E634
:10574000044A0B4C1278227003E700BF3D95FF1FFF
:105750006C94FF1F4895FF1F0080FF1F2495FF1FBB
:10576000C094FF1F1495FF1F4C95FF1FBC95FF1F92
:105770004095FF1F3C95FF1FD094FF1F7C94FF1F97
:1057800094200740C395FF1FC495FF1FC02007400A
:105790006494FF1FCC95FF1F6095FF1F8800400099
:1057A00088200740982007408094FF1FD494FF1F53
:1057B000842007408C20074080200740754A0F2135
:1057C000117032E7B1F5A06F07D100224FF0010947
:1057D0005AE742F221329142F7D06F4B0F221A70F2
:1057E0006E4A01231370B4E540287FF6E0AE44F022
:1057F00002040EEBC401029E4E60AAB183F8009031
:10580000674A88F800503346403840334EF8342019
:10581000E5E6029B86F80090020442F0C8020D7093
:1058200003444EF83420D7E683F80090029B5D4A8B
:1058300088F80050403840334EF83420CFE619F055
:10584000080F0CBF022303238B55C7E4A98801F07E
:105850007F010429C1D86A88002ABED14E4C890034
:105860000C448146217821F0020121700CE74E4A58
:105870005468002CB1D06888B5F804E003E00C321D
:105880005468002CA9D013888342F8D153887345FB
:10589000F5D1000A03280CBF2078108959E64FF093
:1058A000010388F8003009F10109B9F1040F04F18E
:1058B000040406F1040608F101087FF416AE3B4B20
:1058C000059E3B4DDFF8F080002018704FF0010975
:1058D00018F8013B05F8043B1A0719D44FEA89046C
:1058E00044F0020244F00304002347F8323047F842
:1058F0003430304B9D4209F10109E9D196F800900E
:1059000089F00102C0E64FF0000388F80030CAE7D2
:1059100000F0AEF818B307EB49134FEA89040830DA
:105920005860204B47F8343000F0A2F868B144F0DA
:10593000010307EBC30208305060194A47F83320CF
:10594000CEE78146A0E6022003E6184B44F00102B0
:105950001B7847F83200154A01331370C0E7134B28
:10596000124A1B784FEA8904013347F83400137058
:10597000DAE700BE4028844628BF4FF0400C04EB15
:105980000C03CCEB00004FEA0C48029300224FF0CE
:1059900001097EE6D194FF1FC020074094200740F4
:1059A000C800400088004000308200003D95FF1F85
:1059B000C4200740D42007402C8200002DE9F0418C
:1059C00000F04AFB00231F491A4601EBC30041F8CF
:1059D00033200133142B42604FF000041948F4D1F6
:1059E000194A1A4F13681A491A4D1B4EDFF874C032
:1059F000DFF874E0DFF8748043F480231360C0F3B1
:105A000007233B70C0F307430B70000EFF2302F522
:105A100028322870D4328CF80030104D8EF80030C7
:105A20000F483370012388F80030702681F8504009
:105A30004FF40074102107F8183C2E7004601170A8
:105A4000BDE8F0810080FF1F348004409C200740A7
:105A5000B0200740B42007401020074049E400E090
:105A600008E100E08020074088200740942007409C
:105A700072B60D480268B2FA82F30B2B10DC4FF0BD
:105A80000041D94022EA0102026062B6074803EBF6
:105A9000C303DB00C2180021C1501046516070479B
:105AA00062B60020704700BF6C87FF1FBC83FF1FDA
:105AB0000D4B0E4AC31AA2FB03231B090B2B0CD858
:105AC0000B4A127852B972B60A484FF00041026888
:105AD00021FA03F31A43026062B67047064A12784D
