:1000000000800020BD0100003D550000F5540000B7
:10001000F5540000F5540000F5540000F5540000BC
:10002000F5540000F5540000F55400003D55000063
:100030003D550000F554000001690000056900000D
:100040003D5500003D5500003D5500003D55000068
:100050003D5500003D5500003D5500003D55000058
:100060003D5500003D5500003D5500003D55000048
:100070003D5500003D5500003D5500003D55000038
:100080003D5500003D5500003D5500003D55000028
:100090003D5500003D5500003D5500003D55000018
:1000A0003D5500003D5500003D5500003D55000008
:1000B0003D55000099450000A5450000A9450000F8
:1000C000B5450000B9450000BD4500003D550000A4
:1000D0003D5500003D5500003D5500003D550000D8
:1000E0003D5500003D5500003D5500003D550000C8
:1000F0003D5500003D5500003D5500003D550000B8
:100100003D5500003D5500003D5500003D550000A7
:100110003D5500003D5500003D5500003D55000097
:100120003D5500003D5500003D5500003D55000087
:100130003D5500003D5500003D5500003D55000077
:100140003D5500003D5500003D5500003D55000067
:100150003D5500003D5500003D5500003D55000057
:100160003D550000D95900003D5500003D550000A7
:100170003D5500003D5500003D5500003D55000037
:100180003D5500003D5500003D5500003D55000027
:100190003D5500003D5500003D5500003D55000017
:1001A0003D5500003D5500003D5500003D55000007
:1001B0003D5500003D5500003D550000564B4CF2AA
:1001C000205210B51A804DF628121A8000BF00BFC9
:1001D00005F0B8F9514B4FF010621A60504A9A601E
:1001E000504ADA60504A136813F4807304D14F49BF
:1001F0000B604FF4A85313604D4B1A78110703D5C9
:100200001A7842F008021A704A4B4B492A221A7097
:100210004A4A4B4B8B4204D252F8040F43F8040B6A
:10022000F8E7484B484900228B4202D243F8042B9E
:10023000FAE74649464A002352F8230041F82300D2
:1002400001336F2BF8D1434B434A802103F8011B44
:100250009342FBD1414B3D4A1A60414B8A221A70AE
:10026000A3F5805324225A70A0221A709A7992071B
:10027000FCD59A79D406FCD43A4A937903F00C035E
:10028000082B384BF9D103221A7140225A719A79FE
:100290009006FCD5334A9179324B4906FBD5324A58
:1002A000324911600221516020221A709A7902F0BD
:1002B0000C020C2AFAD12E4B2E4A1A602E4B2F4AD2
:1002C0001A6000225A60072243F8042C2C4AC3F813
:1002D0000C2D62B605F036FA144B1B68DA0705D50B
:1002E000284805F0B5F9284B284A1A60284B1B7896
:1002F0005B0609D5244C254B22689A4204D121483B
:1003000005F0A6F90023236008F00AFF05F020F9A4
:1003100006F058FDFEE700BF0E2005403080044087
:10032000823F04000100002B10D0034014D0034092
:1003300002D0074000E007400092FF1F9CEA000047
:100340002087FF1F0092FF1F3097FF1F0082FF1FB3
:100350000000000000E400E05FE400E008ED00E0E1
:100360000050064000400640448004400000030165
:1003700004800440C010050014E000E0FF76010096
:1003800000002020C241BF601CE00340A5C3945A76
:1003900000F00740FFFFFFFFFFFFFFFFFFFFFFFF32
:1003A000FFFFFFFFFFFFFFFFFFFFFFFFFFFFFFFF5D
:1003B000FFFFFFFFFFFFFFFFFFFFFFFFFFFFFFFF4D
:1003C000FFFFFFFFFFFFFFFFFFFFFFFFFFFFFFFF3D
:1003D000FFFFFFFFFFFFFFFFFFFFFFFFFFFFFFFF2D
:1003E000FFFFFFFFFFFFFFFFFFFFFFFFFFFFFFFF1D
:1003F000FFFFFFFFFFFFFFFFFFFFFFFFFFFFFFFF0D
:10040000FFFFFFFFFFFFFFFFFFFFFFFFDEF9FFFF23
:1004100010B5054C237833B9044B13B10448AFF33E
:1004200000800123237010BD0092FF1F0000000018
:1004300098EA0000084B10B51BB108490848AFF313
:1004400000800848036803B910BD074B002BFBD0A0
:10045000BDE81040184700BF000000000492FF1FD5
:1004600098EA00000092FF1F0000000008B5142069
:1004700005F01AF901210C2005F0FCF8C82005F060
:1004800013F901210B20BDE8084005F0F3B800BFC7
:10049000F8B5284C28480B2106F00CF921682748AC
:1004A00006F0AEFA254806F05BFA254A136863B9F0
:1004B000244D254825492B60012505600B6001333B
:1004C0001360236801332360F8BD012B07D11E4D53
:1004D0001C481E492B60002505600B60EFE7022BCE
:1004E00008D1194F174E1948002101253960316094
:1004F0000560E4E7032B08D1134E124D1348012188
:100500000027376029600160D9E7042B03D10E4F23
:100510000E4E0C48E8E7052BD1D10C480A4E094D88
:1005200000230360136023680121013331602960D7
:100530002360F8BDA092FF1FC4D800009C87FF1F56
:100540003C92FF1FD092FF1FFC93FF1F2C92FF1FB6
:1005500070B51D210B4806F0ADF80B4806F000FA07
:100560000A4B0B4A5A60142602250A24002040F642
:100570005A214FF443721E705D701C72587259817B
:100580009A8170BDD0D800009C87FF1F6C92FF1F1E
:1005900020A10700F0B50746144689B0022206F0F4
:1005A00023FBBE68B4422CD0A61B6846174906F050
:1005B000E9FA002E28DD012504AC6946204606F044
:1005C000F5FA1349204606F09BFB0146684606F003
:1005D0003DFB0135204606F095FAAE42EDDA69465C
:1005E000204606F0E3FA3946204606F081FB014634
:1005F000384606F02BFB204606F084FA684606F0E3
:1006000081FA384609B0F0BD04ACE8E7B0E200007A
:10061000F0D80000F0B51A4C25688DB008AC012D5B
:1006200084E80F0005D02146164803F055FE0DB0B2
:10063000F0BD02469DF82E109DF82F009DF82D70FC
:100640009DF82C609DF82B50069005919DF82A008E
:100650009DF829109DF828300190009104970A49CF
:1006600003960295094809F03FFB084809F048FD48
:100670000146064806F01EF8054806F071F9D2E773
:100680009892FF1F0C94FF1FF4D80000DC92FF1F0C
:100690009C87FF1F10B5A8B08DE80F0004A89DF837
:1006A0000A100822FFF776FF08A89DF80D1008220F
:1006B000FFF770FF0CA89DF80F100822FFF76AFFE4
:1006C00004A910A80223002206F058FB08A914A8C8
:1006D0000423012206F052FB0CA918A806230422C9
:1006E00006F04CFB10A81CA90023102206F02CFBDE
:1006F00014A820A90023102206F026FB18A824A97C
:100700000023102206F020FB1CA80222002109F081
:1007100035FE124B02221860002120A809F02EFE9F
:100720000F4B02220021186024A809F027FE0D4B70
:10073000186018A806F0E6F914A806F0E3F910A866
:1007400006F0E0F90CA806F0DDF908A806F0DAF9E1
:1007500004A806F0D7F928B010BD00BF6493FF1FAE
:100760006893FF1F0494FF1F10B5AAB08DE80F0017
:1007700005A89DF80B100822FFF70CFF09A89DF8AB
:100780000C100822FFF706FF0DA89DF80D10082297
:10079000FFF700FF2D4B9DF80E201A6009A925A830
:1007A00006F004FA05A925A806F0A2FA014611A848
:1007B00006F0FCF925A806F0A5F90DA915A8032354
:1007C000002206F0DBFA0DA919A80623032206F081
:1007D000D5FA25A911A80023112206F0B5FA15A80B
:1007E0001DA90023102206F0AFFA19A821A90023A1
:1007F000102206F0A9FA25A80222002109F0BEFD68
:10080000134BA0F5FA4402221DA800211C6009F038
:10081000B5FD104B02220021186021A809F0AEFDA1
:100820000D4B186019A806F06DF915A806F06AF9C5
:1008300011A806F067F90DA806F064F909A806F0FA
:1008400061F905A806F05EF92AB010BD6093FF1F9C
:10085000E493FF1FD493FF1F3892FF1FF0B599B0A8
:100860008DE80F0004A89DF808102B4D2B4E082290
:10087000FFF790FE04A908A80623042206F07EFADA
:1008800004A90CA80823062206F078FA08A810A9E3
:100890000023102206F058FA00230CA814A91022F5
:1008A00006F052FA0222002110A809F067FD022288
:1008B0002860002114A809F061FD2C68306034F034
:1008C00002070AD13946162004F0D4FE3946052025
:1008D00004F0D0FE124B2C681F60012C10D033683E
:1008E0000BB1012B01D10F4A13600CA806F00AF9D5
:1008F00008A806F007F904A806F004F919B0F0BD3D
:100900002146162004F0B6FE2146052004F0B2FE72
:10091000034B1C60E3E700BF2892FF1FD093FF1F2B
:100920003092FF1F3C87FF1F2DE9F04FDFF8DC906E
:1009300097B00EAD0AAC12AE84E80F0049462846C7
:1009400006F020F930462C4906F01CF90FF2A00BF6
:10095000DBE900AB0496039500274FF0000894E80C
:100960000E00CDE9087810274FF0000E02970D9F7A
:10097000CDF804E0CDE906AB0097204804F046FA34
:1009800008F0DEF81E4B1860304606F0BBF828462B
:1009900006F0B8F81A4A1B4B12681A6049462846F6
:1009A00006F0F0F830461849DFF8649006F0EAF8EF
:1009B00000220023CDE90823CDE906AB10230496DD
:1009C00003950293019394E80E000D9C00940B484C
:1009D00004F01CFA08F0B4F8C9F80000304606F03C
:1009E00091F8284606F08EF817B0BDE8F08F00BFEA
:1009F000000000A09999B93F58D90000C492FF1F88
:100A0000AC93FF1FA893FF1F64D9000054D90000C6
:100A1000D892FF1F2DE9F04397B00AAC0EAD84E8E1
:100A20000F0012AE1C491D4F284606F0ABF81C49BA
:100A3000304606F0A7F84FF000084FF00009049682
:100A40000395102094E80E00CDE908890290DFF8A4
:100A50005C900D984FF0000800248DE81100CDE95E
:100A60000689104804F0D2F908F06AF83860304678
:100A700006F048F8284606F045F83B68642B04D099
:100A8000094A136017B0BDE8F083074B63221A6070
:100A900017B0BDE8F08300BF54D90000D893FF1F02
:100AA00058D90000C492FF1F6C93FF1F0000F03F55
:100AB0002DE9F04F384CDFF8FCA02468374FDFF801
:100AC000F89099B04FF0000B0F94354C0F9D2560B6
:100AD00010AD0AAC14AE84E80F00C7F800B0514660
:100AE0000FF2AC08D8E90078284606F04BF84946E2
:100AF000304606F047F80496039594E80E00CDE9D9
:100B0000067800274FF00008CDE9087810270297F3
:100B100001970D9F0097234804F078F908F010F82A
:100B2000214B1860304605F0EDFF284605F0EAFF3E
:100B30005146284606F026F84946304606F022F887
:100B400000220023CDE9082311A3D3E90023CDE936
:100B500006231023049603950293CDF804B094E87D
:100B60000E000D9C00940F48104C04F04FF907F054
:100B7000E7FF2060304605F0C5FF284605F0C2FFBC
:100B80000B4B22681A6019B0BDE8F08FAFF30080FC
:100B9000000000A09999B93FC095FF1FA892FF1FC0
:100BA000B093FF1FC492FF1F0094FF1FBC93FF1F51
:100BB0007493FF1F54D9000058D9000010B596B0A7
:100BC0008DE80F0005A89DF80A100822FFF7E2FC47
:100BD000082209A89DF80B10FFF7DCFC09A911A851
:100BE00005F0E4FF05A911A806F082F801460DA85A
:100BF00005F0DCFF11A805F085FF002311A90DA861
:100C0000112206F0A1F80222002111A809F0B6FB7A
:100C10000DA805F077FF09A805F074FF05A805F0F9
:100C200071FF16B010BD00BF2DE9F04FABB08DE8DD
:100C30000F0005A89DF80810349E0822FFF7AAFCB3
:100C400009A808229DF80A109DF80950FFF7A2FC98
:100C50000DA808229DF80B10FFF79CFC05A911A810
:100C6000042302229DF80C7006F088F80823042261
:100C700005A915A806F082F80DA925A805F096FF8C
:100C800009A925A806F034F8014619A805F08EFF39
:100C900025A805F037FF11A81DA90023102206F092
:100CA00053F815A821A90023102206F04DF80023BF
:100CB00025A919A8112206F047F8022200211DA833
:100CC00009F05CFB02220021834621A809F056FBB3
:100CD00002220021824625A809F050FBB0F5004F02
:100CE0000446A4BFA0F57F44FF3C802DC8BFA5F5F6
:100CF0008075284607F00EFC02460B46002023496B
:100D000006F0F8F980468946204607F003FC424683
:100D10004B4607F065FC07F013FF012E2AD0022E88
:100D200020D0032E09D11A4B1A4918601A4A1B4BBE
:100D3000C1F800A01760C3F800B019A805F0E2FEE2
:100D400015A805F0DFFE11A805F0DCFE0DA805F0E2
:100D5000D9FE09A805F0D6FE05A805F0D3FE2BB0F4
:100D6000BDE8F08F0E4B0F4A18600F4BC2F800A081
:100D70001F60E2E70D4B0E4918600E4A0E4BC1F89A
:100D800000A01760C3F800B0D7E700BF0000244000
:100D90003492FF1FF893FF1FEC93FF1F8893FF1FF0
:100DA0008092FF1F8C93FF1F4092FF1F8C92FF1FAA
:100DB000E093FF1F8492FF1FC493FF1F10B596B0EE
:100DC0008DE80F0005A89DF80C100822FFF7E2FB44
:100DD000082209A89DF80D10FFF7DCFB09A911A84E
:100DE00005F0E4FE05A911A805F082FF01460DA853
:100DF00005F0DCFE11A805F085FE11A90DA8002361
:100E0000112205F0A1FF002111A8022209F0B6FA73
:100E1000074BA0F196020DA81A6005F073FE09A811
:100E200005F070FE05A805F06DFE16B010BD00BF00
:100E30007093FF1F30B57B4D7B4883B0294603F08C
:100E400043F92A68794B9A4200F0BB8018D9784B55
:100E50009A4200F0C88040F28780764B9A425CD07C
:100E600003F540739A4200F0B680A3F5C0639A423E
:100E700057D10223009395E80F00FFF7D5FE50E00D
:100E800040F256339A4200F0978060D96A4B9A42FA
:100E90004DD003F500739A4200F0988040F25A3327
:100EA0009A423ED1654B1B7843B92B7A002B00F058
:100EB000A68063486349012303600B60624B1B6893
:100EC000012B32D1EB796149614808F00DFF604890
:100ED00009F016F901465E4805F0ECFB2C68514B11
:100EE00014F080444FD1DB798BB12B1959491A7A10
:100EF000574808F0F9FE564809F002F901465448EF
:100F000005F0D8FB0134EB79E4B2A342EDD85248A6
:100F100003B0BDE8304005F023BD95E80F00FFF7B2
:100F20004DFE494B1B68012B06D003B030BD95E840
:100F30000F00FFF743FFF4E72A68D300C2D522F081
:100F40006042EB794549424808F0CEFEBFE740F2E7
:100F500051339A424ED040F255339A42E1D195E84E
:100F60000F00FFF757FDDCE7A3F578539A421ED038
:100F700003F570539A42D4D10323009395E80F00F0
:100F8000FFF752FECDE7364D314C0FCD0FC495E83B
:100F9000030044F8040B204620F81419152105F02D
:100FA00089FB2D4803B0BDE8304005F0D9BC95E879
:100FB0000F00FFF753FCB4E795E80F00FFF7B4FC10
:100FC000AFE795E80F00FFF7CFFBAAE795E80F0022
:100FD000FFF760FBA5E71C4B22491B68E87A086015
:100FE000012BA2D1ABE70123009395E80F00FFF797
:100FF0001BFE96E795E80F00FFF75AFD91E76B7A25
:10100000002B7FF456AFA97A064B00297FF451AF2D
:10101000DB7A002B7FF44DAF09480A4903600B606F
:101020004CE700BFAC92FF1F0C94FF1F8014FF1809
:101030008055FF18805AFF188011FF189C92FF1FDF
:10104000C892FF1F1C92FF1F7893FF1FA0D90000BA
:10105000DC92FF1FD8D900009C87FF1F6CD90000CD
:10106000C0D900007C93FF1F2DE9F041854BC8B02B
:10107000196868461022FFF78DFA834B04A8196897
:101080001022FFF787FA814B08A819680222FFF7A0
:1010900081FA7F4B0CA819680222FFF77BFA7D4B7F
:1010A00010A819680222FFF775FA7B4B14A819687B
:1010B0000222FFF76FFA794B18A819680222FFF78E
:1010C00069FA1CA8764905F05DFD764B20A81968E1
:1010D0000222FFF75FFA744B0222196824A8FFF777
:1010E00059FA10A944A805F061FD0CA944A805F01F
:1010F000FFFD08A905F0FCFD14A905F0F9FD014666
:1011000028A805F053FD44A805F0FCFC1CA944A840
:1011100005F04CFD20A944A805F0EAFD24A905F03E
:10112000E7FD18A905F0E4FD01462CA805F03EFDF9
:1011300044A805F0E7FC694644A81023082205F0FE
:101140001DFE30A944A80023102205F0FDFD44A88F
:1011500005F0D8FC694644A80823002205F00EFEDD
:1011600034A944A80023102205F0EEFD44A805F0A0
:10117000C9FC04A944A81023082205F0FFFD38A9E2
:1011800044A80023102205F0DFFD44A805F0BAFCB6
:1011900004A944A80823002205F0F0FD3CA944A8B6
:1011A0000023102205F0D0FD44A805F0ABFC28A8D0
:1011B00040A90023102205F0C7FD002344A92CA854
:1011C000102205F0C1FD30A80222002109F0D6F856
:1011D00002228046002134A809F0D0F802220746F6
:1011E000002138A809F0CAF80222064600213CA8CE
:1011F00009F0C4F802220546002140A809F0BEF813
:1012000002220446002144A809F0B8F8274BDFF871
:10121000A0E09A79C3F800E0062142F0010283F8C9
:1012200008805F729E72DD721C735873D9719A7157
:101230000FCBFFF7EFF92CA805F064FC28A805F008
:1012400061FC24A805F05EFC20A805F05BFC1CA84E
:1012500005F058FC18A805F055FC14A805F052FC40
:1012600010A805F04FFC0CA805F04CFC08A805F0F0
:1012700049FC04A805F046FC684605F043FC48B06C
:10128000BDE8F0815C93FF1FA893FF1FCC93FF1F65
:101290005892FF1F9C93FF1F3C87FF1F3092FF1F38
:1012A000E4D90000F493FF1F2092FF1F4892FF1F14
:1012B0008221FF18F0B5594B594C1968B1B06846F6
:1012C0000422FFF767F9574B04A819680222FFF7B9
:1012D00061F9554B08A819680822FFF75BF9534BD1
:1012E000082219680CA8FFF755F910A8504905F015
:1012F00049FC10A92CA805F059FC10A92CA805F050
:10130000F7FC0CA905F0F4FC014614A805F04EFC0E
:101310002CA805F0F7FB10A92CA805F047FC10A994
:101320002CA805F0E5FC04A905F0E2FC10A905F0E5
:10133000DFFC014618A805F039FC2CA805F0E2FBFB
:1013400010A92CA805F032FC69462CA805F0D0FCA9
:1013500010A905F0CDFC01461CA805F027FC2CA81F
:1013600005F0D0FB14A820A90023102205F0ECFC06
:1013700018A824A90023102205F0E6FC1CA828A91F
:101380000023102205F0E0FC00232CA908A810225D
:1013900005F0DAFC20A80222002108F0EFFF02226B
:1013A0000746002124A808F0E9FF02220646002192
:1013B00028A808F0E3FF0222054600212CA808F027
:1013C000DDFF1C4B9A79987342F00101072000223F
:1013D0001F729E72DD721C60D87199715A721A73F5
:1013E0005A730FCBFFF716F91CA805F08BFB18A852
:1013F00005F088FB14A805F085FB10A805F082FB1A
:101400000CA805F07FFB08A805F07CFB04A805F0FC
:1014100079FB684605F076FB31B0F0BDA493FF1F61
:101420008230FF183487FF1F6C93FF1F8892FF1FC5
:10143000E4D900004892FF1F2DE9F04F3A4B3B4A98
:101440001B681268012B99B068D0002B68D101226B
:10145000374B1B789BB1374B99791A7240F257344E
:10146000FF2203206FF300011C60D87199715A723A
:101470009A720FCBFFF7CEF819B0BDE8F08F2D4C64
:101480002D48A1790068254663F3000140F25737E3
:10149000032605F8082F2760E671A17107F03AF8D6
:1014A0000DF1400A0DF1500B804689465046234904
:1014B00005F068FB5846224905F064FB95E80300F7
:1014C000CDE902898DE80300CDF81CB0CDF818A055
:1014D0000026002794E80C00CDE90A67194F4FF069
:1014E000100E0CAD00260821CDF814E0284604911A
:1014F000CDE90867144903F023F995E80F0084E863
:101500000F00584605F0FEFA504605F0FBFA94E845
:101510000F00FFF77FF819B0BDE8F08F002297E7C2
:10152000B2FA82F2520993E73C87FF1FD093FF1F64
:101530007C92FF1F4892FF1F6093FF1F54D9000049
:1015400058D900000000F03FC492FF1FF0B5A5B0CD
:1015500068463F493F4D05F015FB3F4B04A819680D
:101560000222FFF717F808A804220521FFF712F856
:1015700010220CA84FF47A71FFF70CF8694620A8E6
:1015800005F014FB04A920A805F0B2FB08A905F09A
:10159000AFFB014610A805F009FB20A805F0B2FA40
:1015A00010A814A90023102205F0CEFB0CA920A836
:1015B0001023082205F0E2FB18A920A8002310221E
:1015C00005F0C2FB20A805F09DFA0CA920A808236D
:1015D000002205F0D3FB00231CA920A8102205F04F
:1015E000B3FB20A805F08EFA14A80222002108F00F
:1015F000C5FE02220746002118A808F0BFFE0222FD
:10160000064600211CA808F0B9FE144B9A79D8723E
:10161000052442F00102002001211F729E721D600C
:10162000DC719A71587219730FCBFEF7F3FF10A893
:1016300005F068FA0CA805F065FA08A805F062FA4A
:1016400004A805F05FFA684605F05CFA25B0F0BD25
:10165000E4D900008239FF182C87FF1F4892FF1F32
:10166000F0B5A5B068463F493F4D05F08BFA3F4BBA
:1016700004A819680222FEF78DFF08A8042203219E
:10168000FEF788FF10220CA8C821FEF783FF6946E9
:1016900020A805F08BFA04A920A805F029FB08A9C9
:1016A00005F026FB014610A805F080FA20A805F0F9
:1016B00029FA10A814A90023102205F045FB0CA953
:1016C00020A81023082205F059FB18A920A8002300
:1016D000102205F039FB20A805F014FA0CA920A867
:1016E0000823002205F04AFB00231CA920A8102291
:1016F00005F02AFB20A805F005FA14A80222002113
:1017000008F03CFE02220746002118A808F036FE29
:101710000222064600211CA808F030FE144B9A79DC
:10172000D872052442F00102002001211F729E722E
:101730001D60DC719A71587219730FCBFEF76AFF46
:1017400010A805F0DFF90CA805F0DCF908A805F0F1
:10175000D9F904A805F0D6F9684605F0D3F925B003
:10176000F0BD00BFE4D900008237FF184887FF1F93
:101770004892FF1FF0B59DB068463B493B4C3C4D3D
:1017800005F000FA3B4B04A819681022FEF702FF8F
:10179000394B0422196808A8FEF7FCFE694618A810
:1017A00005F004FA08A918A805F0A2FA01460CA849
:1017B00005F0FCF918A805F0A5F904A918A810234C
:1017C000082205F0DBFA10A918A80023102205F062
:1017D000BBFA18A805F096F904A918A80823002256
:1017E00005F0CCFA14A918A80023102205F0ACFAD1
:1017F00018A805F087F9002318A90CA8102205F0F5
:10180000A3FA10A80222002108F0B8FD0222074620
:10181000002114A808F0B2FD02220646002118A8F3
:1018200008F0ACFD154B16499A79246809681873BD
:1018300042F0010205201F725E721D609C72D87119
:101840009A71D9720FCBFEF7E5FE0CA805F05AF994
:1018500008A805F057F904A805F054F9684605F002
:1018600051F91DB0F0BD00BFE8D900008493FF1FFF
:101870008233FF187493FF1F2487FF1F4892FF1FB6
:101880003087FF1FF0B59DB068463B493B4C3C4D4F
:1018900005F078F93B4B04A819681022FEF77AFE90
:1018A000394B0422196808A8FEF774FE694618A887
:1018B00005F07CF908A918A805F01AFA01460CA849
:1018C00005F074F918A805F01DF904A918A810234B
:1018D000082205F053FA10A918A80023102205F0D9
:1018E00033FA18A805F00EF904A918A80823002255
:1018F00005F044FA14A918A80023102205F024FAD0
:1019000018A805F0FFF8002318A90CA8102205F06C
:101910001BFA10A80222002108F030FD022207461F
:10192000002114A808F02AFD02220646002118A86A
:1019300008F024FD154B16499A7924680968187334
:1019400042F0010205201F725E721D609C72D87108
:101950009A71D9720FCBFEF75DFE0CA805F0D2F894
:1019600008A805F0CFF804A805F0CCF8684605F003
:10197000C9F81DB0F0BD00BFE8D90000BC92FF1F40
:101980008234FF183887FF1F4C87FF1F4892FF1FC4
:101990004087FF1F0E4B0F4899790F4A006870B4BB
:1019A0000E4D0F4C2D6824681A600826FF2241F066
:1019B0000101DE711D725C729872DA721A735A73C9
:1019C0009A73DA7399710FCB70BCFEF723BE00BF18
:1019D0004892FF1F2C92FF1F8220FF18FC93FF1FCD
:1019E000D092FF1FFFFFFFFFC74AC848C849C94B35
:1019F00012681B682DE9F04F05680F68C648C74993
:101A000090F80080097849F6404412F10009A3F1EA
:101A10000F0318BF4FF00109A5F10105A742B5FA60
:101A200085F5D4BF00240124092BEBB04FEA5515EE
:101A300000F2C981BA4B1E68A6F10106B6FA86F615
:101A4000760912A80122FEF7A5FD16A801220021A1
:101A5000FEF7A0FD41461AA80122FEF79BFD49466C
:101A60001EA80122FEF796FD294622A80122FEF7B4
:101A700091FD26A801220021FEF78CFD21462AA80F
:101A80000122FEF787FD66AD012231462EA8FEF742
:101A900081FD2EA9284605F089F82AA9284605F0D7
:101AA00027F926A905F024F922A905F021F91EA994
:101AB00005F01EF91AA905F01BF916A905F018F989
:101AC00012A905F015F9014632A805F06FF828466D
:101AD00005F018F8934B19688B1EA1F10108B8FAAC
:101AE00088F8012B4FEA581840F26F8149F64049B7
:101AF0004F45D4BF4FF000094FF001098A4A8B4B84
:101B000017681E688A4C112003F0BAFD894B824683
:101B1000196836A80122FEF73DFD874BA7F10107A2
:101B200019783AA80122B7FA87F7A6F10106FEF75D
:101B300031FD7F0941463EA80122B6FA86F6FEF73E
:101B400029FD7609394642A80122FEF723FD3146D8
:101B500046A80122FEF71EFD784B4AA819780122FB
:101B6000FEF718FD49464EA80122FEF713FD1AF1B3
:101B7000000118BF0121012252A8FEF70BFD52A956
:101B8000284605F013F84EA9284605F0B1F84AA9F1
:101B900005F0AEF846A905F0ABF842A905F0A8F8A3
:101BA0003EA905F0A5F83AA905F0A2F836A905F076
:101BB0009FF8014656A804F0F9FF284604F0A2FF5A
:101BC0005AA932A80023102205F0BEF856A85EA933
:101BD0000023102205F0B8F85AA80222002108F0CC
:101BE000CDFB5EAB0C9002221846002108F0C6FB2C
:101BF000A3790D90524806226FF3000340F26A3138
:101C0000E271A3710068216006F084FC62AE804638
:101C1000894630464B4904F0B5FF04F1080A4A49A9
:101C2000284604F0AFFF9AE80300CDE902898DE869
:101C300003000FF2CC09D9E90089069607954FF009
:101C4000170E94E80C000EAFCDE908894FF0100B89
:101C50004FF000084FF00009CDF810E0CDE90A89F7
:101C60003846CDF814B0394902F06AFD97E80F0004
:101C700084E80F00284604F045FF304604F042FF98
:101C8000334B186806F046FC8046894630462D499D
:101C900004F078FF2C49284604F074FF002200234A
:101CA0009AE80300CDE90A2315A3D3E900238DE8C0
:101CB0000300CDE90823CDE902894FF0270E0696EF
:101CC000CDF814B0079594E80C003846CDF810E034
:101CD0001E4902F035FD97E80F0084E80F00284602
:101CE00004F010FF304604F00DFF9DF830302372F1
:101CF0009DF83430637294E80F00FEF78BFC29E006
:101D0000000000A09999B93FA892FF1FC892FF1F39
:101D10007093FF1F4487FF1F9492FF1F9493FF1F30
:101D20007C93FF1F6493FF1F6893FF1F2892FF1F80
:101D30004892FF1FE893FF1F7C92FF1F4492FF1FF2
:101D40008093FF1FF0D9000058D90000C492FF1FF4
:101D50005C93FF1F56A804F0D5FE52A804F0D2FEF3
:101D60004EA804F0CFFE4AA804F0CCFE46A804F02A
:101D7000C9FE42A804F0C6FE3EA804F0C3FE3AA87D
:101D800004F0C0FE36A804F0BDFE32A804F0BAFE8E
:101D90002EA804F0B7FE2AA804F0B4FE26A804F08A
:101DA000B1FE22A804F0AEFE1EA804F0ABFE1AA8F5
:101DB00004F0A8FE16A804F0A5FE12A804F0A2FEE6
:101DC0006BB0BDE8F08F00263BE64FF0010995E6C9
:101DD00010B5A34C236884B0002B67D0012B6CD0C6
:101DE000022B71D0032B76D0042B7BD0052B00F077
:101DF0008180062B00F08680072B00F08B80082B5B
:101E000000F09080092B00F095800A2B00F09A805A
:101E10000B2B00F09F800C2B00F0A4800D2B00F00A
:101E2000A9800E2B00F0AE800F2B00F0B380102B9A
:101E300000F0B880112B00F0BD80122B00F0C280A2
:101E4000132B00F0C780142B00F0CC80152B00F072
:101E5000D180162B00F0D680172B00F0DB80182BDA
:101E600000F0E080192B00F0E5801A2B00F0EA80EA
:101E70001B2B00F0EF8000217A4804F01BFC7A480D
:101E800004F06EFD6846794904F07CFE68467849A6
:101E900004F02EFF0146744804F03CFD724804F043
:101EA0005FFD684604F02EFE04B010BD7149704815
:101EB00004F0DCFE2368012B92D16F496C4804F0DA
:101EC000D5FE2368022B8DD16C49694804F0CEFE03
:101ED0002368032B88D16A49654804F0C7FE23684C
:101EE000042B83D16749624804F0C0FE2368052BA8
:101EF0007FF47FAF64495E4804F0B8FE2368062B88
:101F00007FF47AAF61495A4804F0B0FE2368072B8A
:101F10007FF475AF5E49564804F0A8FE2368082B8D
:101F20007FF470AF5B49524804F0A0FE2368092B90
:101F30007FF46BAF58494E4804F098FE23680A2B93
:101F40007FF466AF55494A4804F090FE23680B2B96
:101F50007FF461AF5249464804F088FE23680C2B99
:101F60007FF45CAF4F49424804F080FE23680D2B9C
:101F70007FF457AF4C493E4804F078FE23680E2B9F
:101F80007FF452AF49493A4804F070FE23680F2BA2
:101F90007FF44DAF4649364804F068FE2368102BA5
:101FA0007FF448AF4349324804F060FE2368112BA8
:101FB0007FF443AF40492E4804F058FE2368122BAB
:101FC0007FF43EAF3D492A4804F050FE2368132BAE
:101FD0007FF439AF3A49264804F048FE2368142BB1
:101FE0007FF434AF3749224804F040FE2368152BB4
:101FF0007FF42FAF34491E4804F038FE2368162BB7
:102000007FF42AAF31491A4804F030FE2368172BB9
:102010007FF425AF2E49164804F028FE2368182BBC
:102020007FF420AF2B49124804F020FE2368192BBF
:102030007FF41BAF28490E4804F018FE23681A2BC2
:102040007FF416AF25490A4804F010FE23681B2BC5
:102050007FF411AF2249064804F008FE0BE700BFE9
:102060007C93FF1FB0E200009C87FF1FD0DB0000C5
:102070005C92FF1FF4D90000FCD9000008DA0000D0
:1020800010DA00001CDA000034DA000044DA000044
:102090005CDA00006CDA000080DA000090DA000000
:1020A000A8DA0000C0DA0000D4DA0000E4DA0000A8
:1020B000F4DA000010DB00001CDB000028DB00006D
:1020C00038DB000048DB000058DB000068DB000064
:1020D0007CDB000088DB0000A4DB0000B0DB00003C
:1020E000C0DB000010B500216A486B4C04F0E2FA36
:1020F0006A4804F035FC236833B3012B2ED0022B41
:1021000036D0032B3ED0664C2368002B45D0012BE4
:102110004DD0022B55D0032B5DD0042B65D0052B61
:102120006DD0062B75D0072B7DD05E4C2368002B1D
:1021300000F08580012B00F08D80022B00F095804F
:10214000032B00F09D8010BD2221574804F0B2FA05
:10215000524804F005FC2368012BD0D11E215348BE
:1021600004F0A8FA4D4804F0FBFB2368022BC8D109
:102170001A214F4804F09EFA484804F0F1FB236806
:10218000032BC0D118214B48454C04F093FA434827
:1021900004F0E6FB2368002BB9D11C21464804F06B
:1021A00089FA3E4804F0DCFB2368012BB1D11A21E7
:1021B000424804F07FFA394804F0D2FB2368022B2E
:1021C000A9D11A213E4804F075FA344804F0C8FB3E
:1021D0002368032BA1D11D213A4804F06BFA2F4844
:1021E00004F0BEFB2368042B99D11D21364804F06E
:1021F00061FA2A4804F0B4FB2368052B91D11D2114
:10220000324804F057FA254804F0AAFB2368062B4D
:1022100089D119212E4804F04DFA204804F0A0FB82
:102220002368072B81D117212A481E4C04F042FA5B
:102230001A4804F095FB2368002B7FF47BAF26211E
:10224000254804F037FA154804F08AFB2368012B6F
:102250007FF473AF2221214804F02CFA0F4804F0D8
:102260007FFB2368022B7FF46BAF1E211C4804F018
:1022700021FA0A4804F074FB2368032B7FF463AF50
:102280001C21184804F016FA0448BDE8104004F078
:1022900067BB00BFB0E200006493FF1F9C87FF1F75
:1022A0006893FF1F0494FF1FE8DB00000CDC0000B4
:1022B0002CDC000048DC000064DC000084DC000052
:1022C000A0DC0000BCDC0000DCDC0000FCDC00006A
:1022D0001CDD000038DD000050DD000078DD00006E
:1022E0009CDD0000BCDD000010B500217B487C4C6B
:1022F00004F0E0F97B4804F033FB17217A4804F03E
:10230000D9F97A4B7748196804F07AFB02217848AA
:1023100004F0D0F9734804F023FB2368002B37D076
:10232000012B3FD0022B47D0032B4FD0042B57D08B
:10233000052B5FD0062B67D0072B6FD06D4C236821
:10234000002B76D0012B7ED0022B00F08780032B50
:1023500000F08F80042B00F09780052B00F09F8009
:10236000062B00F0A780072B00F0AF801A216248EF
:1023700004F0A0F9614B5B48196804F041FB0121AE
:102380005F4804F097F95748BDE8104004F0E8BAF8
:102390001D215C4804F08EF9524804F0E1FA2368EC
:1023A000012BBFD11E21584804F084F94D4804F098
:1023B000D7FA2368022BB7D11E21544804F07AF9CA
:1023C000484804F0CDFA2368032BAFD11D215048B3
:1023D00004F070F9434804F0C3FA2368042BA7D132
:1023E0001D214C4804F066F93E4804F0B9FA236810
:1023F000052B9FD11D21484804F05CF9394804F0B1
:10240000AFFA2368062B97D11D21444804F052F9F6
:10241000344804F0A5FA2368072B8FD116214048D1
:10242000344C04F047F92F4804F09AFA2368002B43
:1024300088D11B213B4804F03DF92A4804F090FA6A
:102440002368012B80D11B21374804F033F925483C
:1024500004F086FA2368022B7FF479AF24213348F5
:1024600004F028F91F4804F07BFA2368032B7FF45B
:1024700071AF1B212E4804F01DF91A4804F070FAC0
:102480002368042B7FF469AF1B212A4804F012F95A
:10249000144804F065FA2368052B7FF461AF1B2113
:1024A000254804F007F90F4804F05AFA2368062B70
:1024B0007FF459AF1721214804F0FCF8094804F0D3
:1024C0004FFA2368072B7FF451AF15211C4804F005
:1024D000F1F8044804F044FA48E700BFB0E2000015
:1024E000D493FF1F9C87FF1FDCDD0000E493FF1FD8
:1024F000F4DD00003892FF1FD4DF00006093FF1F5F
:10250000D0DF0000F8DD000018DE000038DE00003B
:1025100058DE000078DE000098DE0000B8DE000023
:10252000D8DE0000F0DE00000CDF000028DF000035
:1025300050DF00006CDF000088DF0000A4DF000037
:10254000BCDF000010B500213448354C04F0B2F86F
:10255000344804F005FA23687BB1012B17D0022B15
:102560001FD0032B27D0304C23687BB3012B37D0EF
:10257000022B3FD0032B47D010BD17212B4804F06E
:1025800099F8284804F0ECF92368012BE7D11821C9
:10259000274804F08FF8234804F0E2F92368022B5F
:1025A000DFD11C21234804F085F81E4804F0D8F937
:1025B0002368032BD7D116211F481B4C04F07AF84F
:1025C000184804F0CDF92368002BCFD12B211B48EC
:1025D00004F070F8134804F0C3F92368012BC7D145
:1025E0002721174804F066F80E4804F0B9F923686B
:1025F000022BBFD12621134804F05CF8094804F0EF
:10260000AFF92368032BB7D121210F4804F052F80A
:102610000448BDE8104004F0A3B900BFB0E20000D8
:102620002892FF1F9C87FF1FD093FF1FF0DF000041
:1026300008E0000024E0000044E000005CE000004E
:1026400088E00000B0E00000D8E0000070B5002194
:102650005448554D04F02EF8544804F081F90021F7
:10266000504804F027F8514804F07AF91D215048E9
:1026700004F020F84D4804F073F90021494804F0B3
:1026800019F84A4804F06CF91C214A4804F012F881
:102690002C68012C4DD064B31C21474804F00AF883
:1026A000464B4248196804F0ABF9454B1B68012BB7
:1026B00005D0444C2368052B53D0062B57D000215E
:1026C0003848414D03F0F6FF384804F049F91C2121
:1026D0003E4803F0EFFF2C68012C12D004B170BD0E
:1026E00003213B4803F0E6FF3048BDE8704004F0AA
:1026F00037B90321364803F0DDFF2C4804F030F9E8
:10270000CAE7344B2948196804F07AF9324B1B6840
:10271000012B05D0314E3368032B2DD0042B3CD038
:102720000021204803F0C6FF204804F019F92C6866
:10273000D4E72B4B1D48196804F062F9294B1B683C
:10274000012B05D0284E3368052B20D0062B19D03D
:102750000021144803F0AEFF144804F001F92C687E
:1027600099E70121214803F0A5FF2368A5E702218D
:102770001F4803F09FFFA2E721461E4803F09AFF7F
:102780003368CBE702211A4803F094FFE0E72146C3
:10279000164803F08FFF3368D8E70221164803F08C
:1027A00089FFBDE7B0E20000C493FF1F9C87FF1FB5
:1027B000FCE000001CE1000044E100008092FF1FEB
:1027C0004092FF1F8C93FF1F8893FF1F64E100005E
:1027D0004CDD00003492FF1FEC93FF1FF893FF1FA6
:1027E0008C92FF1F8492FF1FE093FF1F3CE10000CB
:1027F00040E10000D0DF000084E1000010B52E2190
:10280000BB48BC4C03F056FFBB4804F0A9F8242198
:10281000BA4803F04FFFB84804F0A2F80021B848C6
:1028200003F048FFB44804F09BF81021B54803F0CA
:1028300041FFB14804F094F80C21B34803F03AFF8B
:102840002368002B00F0B881012B00F0C081AF4C51
:10285000AF480D2103F02EFF2368002B00F0DE812E
:10286000012B00F0E681AB4CAB48132103F022FFB3
:102870002368002B00F0BF81012B00F0C7811321DA
:10288000A648A74C03F016FFA64B9B48196804F016
:10289000B7F80121A44803F00DFF974804F060F851
:1028A0001721A24803F006FFA14B9348196804F0D2
:1028B000A7F801219F4803F0FDFE8F4804F050F86F
:1028C00017219D4803F0F6FE9C4B8B48196804F0D5
:1028D00097F801219A4803F0EDFE874804F040F88C
:1028E0001821984803F0E6FE974B8348196804F0D6
:1028F00087F80121924803F0DDFE7F4804F030F8AC
:102900001821924803F0D6FE914B7B48196804F0D9
:1029100077F80121874803F0CDFE774804F020F8CE
:102920000021774803F0C6FE734804F019F80F2120
:10293000884803F0BFFE704804F012F81221864860
:1029400003F0B8FE854B6C48196804F059F8012172
:10295000834803F0AFFE684804F002F8182181486C
:1029600003F0A8FE804B6448196804F049F801217F
:102970007B4803F09FFE604803F0F2FF00216048AF
:1029800003F098FE5C4803F0EBFF00215C4803F085
:1029900091FE594803F0E4FF1521744803F08AFEC4
:1029A000554803F0DDFF0D21714803F083FE714BA4
:1029B0005148197804F024F80021514803F07AFEB8
:1029C0004D4803F0CDFF12216B4803F073FE6B4BB3
:1029D0004948197804F014F80021494803F06AFEC8
:1029E000454803F0BDFF0E21654803F063FE654BCB
:1029F0004148197804F004F80021414803F05AFED8
:102A00003D4803F0ADFF00213D4803F053FE3A4836
:102A100003F0A6FF2378002B40F0E18020215A48E4
:102A200003F048FE344803F09BFF0021344803F0D4
:102A300041FE314803F094FF1721544803F03AFE59
:102A4000534B2D48196803F0DBFF2B4803F088FF38
:102A50001321504803F02EFE4F4B2748196803F00E
:102A6000CFFF254803F07CFF1A214C4803F022FEDB
:102A70004B4B2148196803F0C3FF0321494803F079
:102A800019FE1D4803F06CFF2321474803F012FE96
:102A9000464B1948196803F0B3FF0121284803F099
:102AA00009FE154803F05CFF1B21414803F002FEBC
:102AB000404B1148196803F0A3FF0121204803F09F
:102AC000F9FD0D4803F04CFFFFF782F9FFF70AFB11
:102AD000FFF70AFCFFF736FDFFF7B8FD2E2104488B
:102AE00003F0E8FD0448BDE8104003F039BF00BF23
:102AF00088E10000A892FF1F9C87FF1FB8E100003B
:102B0000B0E20000E0E10000F4E100001C92FF1FD1
:102B100008E20000C892FF1F20E2000034E200003B
:102B20007C92FF1FD893FF1F48E200004CE2000098
:102B3000AC93FF1F3CE1000064E20000D892FF1F4D
:102B4000D0DF00007CE200000094FF1F98E200004C
:102B5000BC93FF1FB4E20000C4E200008093FF1F9B
:102B6000D8E20000DCE200005C93FF1FF8E2000006
:102B700010E300004492FF1F20E300009493FF1F26
:102B800034E300000894FF1F44E300008CE30000DE
:102B90004487FF1FA4E300009C93FF1FB8E30000DD
:102BA0007093FF1FD4E30000D8E30000C893FF1F19
:102BB000FCE300003887FF1F0221224803F07AFD62
:102BC000214803F0CDFE2368012B7FF440AE0521A0
:102BD0001E4803F06FFD1C4803F0C2FE37E62021BB
:102BE0001B4803F067FD184803F0BAFE2378002B5A
:102BF0007FF41BAF12E70221164803F05BFD124879
:102C000003F0AEFE2368012B7FF439AE0321124896
:102C100003F050FD0C4803F0A3FE30E602210D48FE
:102C200003F048FD084803F09BFE2368012B7FF466
:102C30001AAE0321084803F03DFD034803F090FE5F
:102C400011E600BF04E200009C87FF1F30DD00009A
:102C500068E3000018E200001CE2000008B54FF431
:102C6000967002F021FD00210B2002F003FD0021EF
:102C70000C2002F0FFFC0021162002F0FBFC0021DA
:102C8000172002F0F7FC0021052002F0F3FC024BB4
:102C900000221A7008BD00BF4492FF1F38B5234AB6
:102CA000234B11681B68994218DDCB1A214C2278FE
:102CB0004AB921480268182B02F10102026018DDAE
:102CC000132A04DC38BD1C4B1A68132AFADD1B4B8F
:102CD00001221A70BDE83840FFF7C0BF01DA5B1A65
:102CE000E4E7144C2378002BEDD1134B1A68013222
:102CF0001A60312AEBDC124B1D78002DE0D1C82977
:102D0000DEDD642002F0D0FC0121172002F0B2FCCD
:102D1000C82002F0C9FC29460B2002F0ABFC0123BD
:102D200023700A20BDE8384002F0BEBCAC93FF1F00
:102D30008093FF1F4492FF1FC092FF1F9493FF1FB9
:102D40009492FF1F08B5102002F09AFC012804BFDE
:102D5000054B1870102002F093FC20B9024A034B77
:102D6000107001221A7008BD0894FF1F9492FF1F73
:102D7000F0B5642085B0B34D02F096FC05F1100665
:102D80002F462C46601B02F09BFB04F8010BA64269
:102D9000F8D13B78142B01D0FDF7DAFB0024234651
:102DA0007968A94A0094A94801F09EF89DF80C3072
:102DB000029443F0010364F341038DF80C300424C2
:102DC000E2B202A90134A14801F054F8102CF7D165
:102DD000082001F0FBFB9E4B1860082001F0F6FB79
:102DE0009C4B0C2118609C4803F064FC9B4803F04A
:102DF000B7FD18219A4803F05DFC984803F0B0FD38
:102E00001421964803F038FE944803F0A9FD1721D9
:102E1000944803F04FFC914803F0A2FD924B1B78BD
:102E20009A0600F10381904B1B781B0700F1F68096
:102E30008D4B1B785F0700F1E9808B4B1B789E0759
:102E400000F1D080894B1B781D0600F1D780874B9D
:102E50001B785C0600F1BE80844B1B78980600F15D
:102E6000B180824B1B78590700F1A4807F4B1B78FF
:102E70001A0700F197807D4B1B789B0700F18A8031
:102E8000764803F06DFD72B6794A4CF220504DF64B
:102E90002811108020231180013BFDD1754876490F
:102EA000764B00244FF4805505800C801C8032F84E
:102EB0000E3C9BB243F0D30322F80E3C2146102077
:102EC00002F0ECFB2146112002F0E8FB2146122023
:102ED00002F0E4FB2146132002F0E0FB01210B206D
:102EE00002F0DCFB01210C2002F0D8FB01211420B0
:102EF00002F0D4FB0121152002F0D0FB01211620A5
:102F000002F0CCFB0121172002F0C8FB01210520B3
:102F100002F0C4FB21460B2002F0ACFB21460C2042
:102F200002F0A8FB2146162002F0A4FB2146172040
:102F300002F0A0FB2146052002F09CFB0121142099
:102F400002F098FB642002F0AFFBFFF7FBFE0121CB
:102F50000D2002F0A3FB01210D2002F08BFB0C20C1
:102F600002F0B4F9464B1B7883B1464B1B78002B1B
:102F700064D0642002F098FB0F21434803F09AFBD1
:102F8000364803F0EDFC62B605B0F0BD3F4B0122C0
:102F90001A70EEE718213E4803F08CFB2F4803F02F
:102FA000DFFC6DE719213B4803F084FB2B4803F05D
:102FB000D7FC60E71C21384803F07CFB274803F06E
:102FC000CFFC53E71321354803F074FB234803F08B
:102FD000C7FC46E71221324803F06CFB1F4803F0A0
:102FE000BFFC39E717212F4803F064FB1B4803F0AF
:102FF000B7FC1E4B1B781D067FF529AF0E212A4812
:1030000003F058FB154803F0ABFC20E70E212748DE
:1030100003F050FB114803F0A3FC0EE70C212448F9
:1030200003F048FB0D4803F09BFC01E721212148F8
:1030300003F040FB094803F093FCF4E6FDF716FAB1
:1030400097E700BF6C92FF1FA895FF1F0C94FF1F0E
:103050002492FF1FDC93FF1F18E400009C87FF1FD2
:1030600028E4000044E4000001F0074000F00740BD
:103070000E2005400420054006200540162005408E
:103080000894FF1F9492FF1F48E500009493FF1FD0
:103090002CE5000010E50000F0E40000DCE4000096
:1030A000C8E40000A0E40000B8E4000090E40000E0
:1030B00080E400005CE400002DE9F843122002F0F7
:1030C00039F9384C384F2060132002F033F9226868
:1030D000364BDFF8FC80186007FB02F2814688FB64
:1030E00002301044D217C2EBE02005F00BFE30494D
:1030F000304E314D05F00EFF05F0A8FF07FB09F338
:10310000044688FB03202D4A2D4F14601844DB171A
:10311000C3EBE02005F0F6FD254905F0FBFE05F0C8
:1031200095FF40F27B11A4F56153264C386001FBFA
:1031300003F3A0F5615201FB02F284FB03E11944A1
:1031400084FB02E4DB171444C3EBE123D217C2EB88
:10315000E422092B33602A6006DC0023092A33604D
:103160000FDC2B60BDE8F883092A14DC0022C82B91
:103170002A6015DD144A1846116801F049FA2A68D8
:103180003060C82AEEDD114B1046196801F040FA94
:103190002860BDE8F883C82BECDCC82AF3DCE1E743
:1031A000BDE8F883A093FF1F10090500CC92FF1F14
:1031B0009A9901418093FF1F5C93FF1F9893FF1F13
:1031C000A492FF1F4B5998912492FF1FDC93FF1F7D
:1031D000810008802DE9F04F8BB001E0FDF72AFE59
:1031E000A44800F03BFF0028F8D103F039FA00288A
:1031F00007DDA14803F070FC431EC72B9CBF9F4B0B
:1032000018609F4C9F4A23680393039B11685B1AC5
:10321000FA2B21D92368059305989B4923680493C9
:10322000049B096810605B1AB3F5FA7F06D9974AC8
:103230001368032B00F39C8101331360944B1B78BC
:10324000002B40F08581934D2B78002B40F0878137
:103250000021152002F00EFA23688F4A0693069B80
:10326000116887485B1A642B22D823688B4A08931D
:10327000089B116882485B1AB3F5FA7F02D80BB03D
:10328000BDE8F08F03680993099B136072B6844B05
:103290004AF202614BF2804219801A8062B6FEF750
:1032A000A3FB804B1B68012BE9D1FFF7A7FAE6E7E8
:1032B00003680793DFF85082079B1360FEF7BCF8A2
:1032C000FDF7D2FEFDF7F6FFFEF740F9FEF7C8F96D
:1032D000FEF750FAFEF7D6FAFEF75CFBFFF7ECFEBE
:1032E000FFF730FD98F800304BB16F4B1B683B2B5C
:1032F00040F31B836D4A0023136088F80030DFF829
:103300000CB2DBF80030012B00F00681684B1B6823
:10331000012B00F00181674B1B78002B40F0FC80F3
:10332000DFF870A1644D9AF8003023B1584B1B7838
:10333000002B00F0EC822B68012B00F02C81022B7B
:1033400040F04E835D4A5E4B11685E4E5E4FDFF883
:10335000C0911A683B294FF0010333603B60C9F804
:10336000003028DC594B1B68C82B24DDDFF8808136
:10337000D8F80030012B1ED1554B1B68012B1AD1F8
:10338000544B1B68012B16D1AAB9DFF888B1DBF8C2
:103390000030022B0FD1504B196842F2341399427E
:1033A00009DD4E4B1B68022B05D14D4B1B68012BD1
:1033B00004BF4C490B604C4B1B68002B40F049810B
:1033C0004A4B01211970022A00F020832B68042B3C
:1033D00000F06E81052B00F0D182062B00F08C816D
:1033E000072B00F0A383082B00F05182092B00F07B
:1033F000C0820F2B00F04781102B00F09C83112B13
:1034000000F09581122B00F03881142B00F02A81F6
:10341000152B00F03382162B00F0F081172B00F0F3
:103420005682182B40F08C80314B1B68172B04D030
:103430002B4A1268012A40F0A68019232B60204BEA
:103440002C481A682C49012303600B6012B9254BE4
:103450000A601A60294B1B7823B92949294A01209F
:10346000086013601A4B1B68002B7FF4FEAE01232B
:103470002B60FAE60C94FF1F9C87FF1F3887FF1F05
:10348000C095FF1FB493FF1FB093FF1F9093FF1FC2
:103490000894FF1F4492FF1FB893FF1F9092FF1FD5
:1034A0000C2005402887FF1FA092FF1FD492FF1F0A
:1034B000C892FF1F9493FF1F4487FF1F5C93FF1F59
:1034C0006893FF1FFC93FF1FD092FF1FA893FF1F5D
:1034D0006493FF1F0494FF1FE493FF1F2892FF1FB4
:1034E000D093FF1FCC93FF1F3892FF1F7C92FF1FCA
:1034F0007C93FF1F3C87FF1F5892FF1F7D92FF1F89
:103500002092FF1F9C93FF1FF093FF1FA892FF1FA5
:103510002C92FF1FD493FF1FDFF85CA2934E944FB1
:10352000DFF8C092934D9AF8002001233360002306
:103530003B60C9F8003019232B60002A7FF4F6AEF7
:10354000A3F10F02092A1CD9192B7FF48EAE76E75E
:10355000894DFFF7A3FB2B78002B3FF479AE0121B7
:10356000152002F087F82B78002B7FF475AE6FE6FC
:10357000824B01221A60824B1B78002B3FF463AE12
:10358000E6E7804B1B68012B00F0E2812B68192BCA
:103590007FF46BAE53E7DBF80020002AD0D17A4AE3
:1035A0001268002ACCD198F800203AB96F4E704FBB
:1035B000DFF8309233603B60C9F80030734A7448DA
:1035C0007449754E754F00231360754A0360754842
:1035D0000B6013607449754A336003600126112043
:1035E0003B700E60166002F04BF818B1704B1A7801
:1035F00002B91E70112002F043F80246C0B96C49AE
:103600000B78ABB16B4E6C4F3368087001331946C1
:103610006A4833603A6003F0F3F91721684803F011
:1036200049F8664803F09CF933680A2B00F01C82C5
:10363000644B1B683B2B0ADC634B1A68C82A06DD07
:10364000DFF84081D8F80020012A00F037822B688B
:1036500075E6012B7FF4B7AE5C4B00211970B2E622
:1036600014232B60DFF81C81D8F80030122B00F0F7
:10367000C1812B68CFE612232B60554B1B68012BB1
:10368000EED02B68C4E6DFF8FC8010232B60D8F85E
:103690000030504E5048514901220327102B37600B
:1036A00002600A6000F0B5812B68ABE604232B6052
:1036B000464B2E4E1A782E4FDFF828910023012119
:1036C00033603B60C9F80010002A40F031812E4B76
:1036D0001B680BB92E4B1960DFF81CB1DBF800300A
:1036E000032B00F0AD81DFF89C80D8F800300E2B62
:1036F00000F02B812B6870E61C4E1D4FDFF8E49024
:1037000007232B60364B244A196820480023136096
:1037100002294FF0010233603B600260C9F80020CB
:10372000124F134E2F4800F01D812B685EE6DFF824
:103730005480D8F80030144A126892B92A492B4AAA
:103740000968126891420CDD29492A4A0968126801
:10375000914206DA0E4A01211160112B8BD02B68A1
:1037600053E6104A01211160F7E700BFFC93FF1FE9
:10377000D092FF1F4487FF1F4492FF1FA892FF1F94
:103780000894FF1F7C93FF1FC892FF1F5892FF1FD2
:103790009C93FF1F3092FF1FCC93FF1F7D92FF1F52
:1037A0002092FF1FE893FF1F3887FF1F3C87FF1FF2
:1037B000C093FF1FD492FF1FA092FF1F9C87FF1F83
:1037C00058E500005C93FF1FA893FF1F7C92FF1F2A
:1037D0002892FF1FA493FF1F2C87FF1F4887FF1FFE
:1037E0006893FF1F2C92FF1FAC93FF1F8092FF1F57
:1037F000BC93FF1F8C92FF1FD493FF1FDFF89C82A6
:103800009B4B9C4E1B68DFF898929B4F9B49DFF8BF
:10381000A8A200223260C9F80020C82B4FF0010294
:103820003A606FDCC72B0B60DAF800206CDC934247
:10383000B4BF0A680A6092490B689342BCBF013367
:103840000B609A42B8BF03F1FF334FF01100B8BFCD
:103850000B6001F015FF10B9DAF800303BB9894868
:1038600089498A4A012303600B7000231360D8F84A
:103870000030122B00F0C1802B68CFE5DFF81C82EE
:10388000D8F80030142BF7D116232B60B8E7804B03
:10389000784E1A68784FDFF80892002301213360D0
:1038A0003B60C9F80010002A61D109232B60794BD5
:1038B00019680022012332603A60C9F8003021B94A
:1038C000754A12680AB92B603AE62B6894E5734B87
:1038D000684F1B68684E724900220120162B3A601F
:1038E000326008600BD06F4A1268022A07D06E4A15
:1038F000116842F23412914201DC2B6820E6182252
:103900002A6093E5DAF80020C82008608FE7594E56
:10391000594FDFF88C910193FFF7A0F9019B3B60B1
:1039200001223260C9F8003005E5FCF7B1FDE6E49C
:10393000DFF870B1DBF80030032B73D0DFF85C8167
:10394000D8F80030022B7FF4D2AE0F232B609CE618
:10395000484A4948524913600023192203600B600A
:103960002A606CE508213B603360026029602B68A7
:103970003FE5404E404FDFF8289198E73D4E3E4FDF
:10398000DFF81C91DFF81CB14849494A494B4FF018
:1039900000084FF0010A1120C1F80080C6F800802D
:1039A000C9F80080C2F800A0C7F800A0C3F800A0C2
:1039B00001F066FE28B1334A344BC2F800A0C3F8C8
:1039C0000080DBF80030012B26D0022B7FF492AE72
:1039D000354B1A6842F234139A423FF791AE89E6AA
:1039E000032B7FF4F4AC2A4B1B68012B3FF45EAE33
:1039F0002B68EFE415232B603EE717210022296096
:103A0000012132603A60C9F800106CE703232B6093
:103A1000EEE711222A608EE61A491C4A0B60002349
:103A200013606DE6204B196841F66313994285DCFB
:103A3000164B1B68012B0AD0002A3FF454AE7DE7D9
:103A4000194B196841F663139942F1DD4BE6002AE0
:103A50007FF474AFDFF84480D8F8003005220E2BD5
:103A60002A603FF472AF8FE7012388F80030DFE56A
:103A70003492FF1FFC93FF1FD092FF1FC893FF1FBC
:103A80003887FF1F2092FF1F7D92FF1F9C93FF1F0F
:103A90006893FF1F6493FF1F0494FF1F7C93FF1F15
:103AA0002C92FF1FD493FF1FE493FF1FA493FF1FCB
:103AB0002C87FF1F4887FF1F0094FF1F1F4A1268B3
:103AC000012A7FF4C4AD1E4A1268012A7FF4BFADFB
:103AD0001C4A1268002A7FF4BAADDFF880B0DBF828
:103AE000001002297FF4B3AD1749086842F234117F
:103AF00088427FF7ACAD1549096802297FF4A7AD6C
:103B00001349096801297FF4A2AD9AF80010002931
:103B10003FF49DAD0F4E104FDFF84490012102207D
:103B200031603960C9F8001028601CE4094E0A4F62
:103B3000DFF82C90E6E5DFF82C80A8E56493FF1F02
:103B40000494FF1F6893FF1FE493FF1F2892FF1F39
:103B5000D093FF1FFC93FF1FD092FF1FD493FF1F32
:103B60002C92FF1F7C93FF1F10B5074C01F060FCE7
:103B70002046064903F006F82046054A0549BDE8F7
:103B8000104004F06FBB00BF5C92FF1FB0E200006A
:103B90002087FF1F056B000000207047704700BFA3
:103BA00030B40B46054603C905EBC204043484E86F
:103BB0000300197911F0010F296812D11C6812480D
:103BC0001023843113FB0211A404204008602968EB
:103BD000803113FB021230BC136823F4001313600E
:103BE000704718688431102313FB021120F06040E5
:103BF00008602968803113FB021230BC136843F45B
:103C000000131360704700BF0000FC1F70B44388AE
:103C100082689BB202EB031304461E685D689A68D3
:103C2000DB68CB608A600E604D606388A1880120EC
:103C30009BB2034493FBF1F201FB12339BB263800E
:103C400070BC7047F8B5204C204A217905460346E0
:103C500001F0FD0102202A606FF30001002285F8C7
:103C600094011D2720261020C5F8A020C5F8F87063
:103C7000A5F89661A5F8980121712260114643F8D4
:103C8000B02F05F1F00243F8041F93424FF00004F7
:103C9000F9D1C5F88440C5F88840C5F88C40C5F80E
:103CA00090409822214605F1FC0005F0C1FD1F223D
:103CB0000F2385F8FC40C5F80841C5F80021C5F878
:103CC0000C312846F8BD00BFA895FF1F00400240F8
:103CD00038B5D0F8A03003B138BD0446B0F898012B
:103CE000000103F077F8D4F8B020C4F8A000AAB11E
:103CF0000023B4F89851B4F89611A4F89430C4F89D
:103D00009C00A4F89630C4F8AC20A4F8A430A4F821
:103D10009850A4F8A810A4F8A63038BDB4F89601BD
:103D2000000103F057F8C4F8B0000246D4F8A00030
:103D3000DEE700BFF8B52C4BB3FBF1F5052DB3FB67
:103D4000F5F6A1EB06064BD900229E461746931CBA
:103D5000B5FBF3F4192C02F1010203FB04F3F6D8CE
:103D6000BEFBF3F3CB1A002BB8BF5B42B3422EDB92
:103D70002FD0052CEBD87B1CB5FBF3F5053D142D9E
:103D80001CD8B6F5967F19DC184A006805EB450586
:103D90005319515D5A789B7801F0070141F4800175
:103DA000D20441F4804102F460121B040A4303F47C
:103DB000E023134343EA07674760F8BD39210C4805
:103DC00002F078FC0B48BDE8F84002F0C9BD1E4681
:103DD00017460B2CCDD9122C9CBF1E461746C8E7A0
:103DE00001230027C8E700BF0024F4005087FF1F0D
:103DF00070E500009C87FF1F0F2930B404462DDCBE
:103E000069BBD0F8A030012084F8940123B30022CC
:103E100010252368803315FB02330132196801F441
:103E2000001141F08061196094F89401C0F1100311
:103E3000D2B2DBB29342ECD80F2B0DD810204FF04A
:103E400000612268803210FB03220133DBB2102BA9
:103E50001160F6D194F8940130BC70470F21D4F86A
:103E6000A03084F894111BB11029D0D10023E5E7CC
:103E70000846F1E790F89431C3F11003DBB29A429F
:103E800001D2FFF78DBE704790F89431C3F1100353
:103E9000DBB29A4220D2036810B41C68E4011CD43F
:103EA0001C6844F080441C600468236843F080531D
:103EB000236004682368DB01FCD504F5086404EB87
:103EC000820211600268136823F080531360026855
:103ED0001368DB01FCD410BC704703F5086303EBE7
:103EE000820210BC1160F7E72DE9F0410546164645
:103EF00098460C469DF81870FFF7EAFE2A68524B68
:103F00009A4200F08F80514A4F49137843F0800362
:103F100013702B688B427BD05A6822F400525A608F
:103F20002A68136843F0804313602A68136823F0FB
:103F3000004313602A681368DB02FCD4136883F023
:103F4000007313602B681A689701FCD41A68D001BB
:103F5000FCD51A6842F400321A6021462846FFF761
:103F6000E9FE2A68136843F48033136095F89431AE
:103F7000102B18BF002404D11DE00134E4B29C4290
:103F800019D2224600212846FFF77EFF95F894318A
:103F9000C3F11003DBB2A342EFD9224631462846D3
:103FA000FFF7FEFD95F894310134C3F11003DBB245
:103FB000E4B29C42E5D32A68136823F0805313606F
:103FC0002B681A68D101FCD41A681201FCD495F848
:103FD00094112846FFF710FFD5F8F83003F160433D
:103FE00003F5644340221A70D5F8F82053099B006A
:103FF00003F1604303F5614302F01F02012101FA5E
:1040000002F21A602B684FF6FF729A62BDE8F081E7
:10401000A2F5E732A2F5E272136843F010031360D1
:104020002B6879E7B8F1010F06BF03F51833483361
:10403000074B4FF40072012F1A600CBF054B064B63
:104040004FF400721A605EE70040024000500640E4
:10405000309004404CA0044034900440D0F8F83034
:1040600030B45C09A10001F1604101F56141012218
:104070000968144D03F01F0302FA03F3194008BF47
:10408000002280F8F42045F82430B0F8A430B0F8CD
:10409000A6209BB292B29B1A44BFB0F8A8209B18EE
:1040A00069B1D0F8F8104A09920002F1604202F5B5
:1040B000614201F01F01012000FA01F11160184670
:1040C00030BC704780E100E0F8B50446D0F8F80055
:1040D0001A4F4609B30003F1604303F5614301221F
:1040E0001D6800F01F0002FA00F31D4214BF1546C0
:1040F000002584F8F45047F82630B4F8A420B4F82A
:10410000A63092B29BB29A4216D004F1A400FFF7F7
:104110007DFD94F8F45075B1D4F8F82053099B0054
:1041200003F1604303F56143012102F01F0201FA2C
:1041300002F21A60F8BDF8BD0020ECE780E100E073
:1041400070B48B7913F0010F036828D00C68102528
:10415000843315FB023324F0604412FB05F21C602B
:1041600003688C68883324BA9C500368CC688C330D
:1041700024BA9C508B79DC071DD513F0020FCB7944
:1041800001684FEA034303F4702301F1800114BF77
:1041900043F0476343F046638B5070BC70470D6833
:1041A0000E4C1026843316FB0233AD042C4012FB58
:1041B00006F21C60D4E713F0020FCB7901684FEAD6
:1041C000034303F4702301F1800114BF43F0416302
:1041D00043F040638B5070BC704700BF0000FC1F71
:1041E0000368F0B58033102717FB02338C791D6804
:1041F0008D80C5F34056C5F30343C5F3005E66F3F7
:104200000004CB7106686EF3410404F0FB046FF305
:10421000C70417FB02668C7191F806E0D6F884405B
:104220001EF0010F24F060440C60C5F3036504BF69
:10423000A40C0C60062D25D0D6F88840CC72260A36
:10424000250C042B4FEA14648E724D720C7210D937
:1042500000688C3017FB0202072B1268CA734FEA02
:1042600012244FEA12404FEA12628C7348730A73A9
:1042700007D807330B4400220F3103F8012F8B427C
:10428000FBD1F0BD8C7944F004048C71D4E700BFFD
:104290000B884888F0B59BB28D88013393FBF5F409
:1042A00005FB14339BB280B2834213D00888D2F846
:1042B00000C0D2F804E09768D6688D6882B2120117
:1042C000AC1845F802C0C4F804E0A760E66001201D
:1042D0000B80F0BD0020F0BDF8B50446D0F8F80022
:1042E0002B4E4509AB0003F1604303F56143012206
:1042F0001F6800F01F0002FA00F31F4208BF0022EF
:1043000084F8F42046F82530B4F89430B4F89620B8
:104310009BB292B29A4218D00A46204604F1940108
:10432000FFF7B6FF94F8F43073B1D4F8F8205309CE
:104330009B0003F1604303F56143012102F01F027A
:1043400001FA02F21A60F8BDF8BD94F89421C2F1A6
:104350001002D2B20F2ADFD802F12D0504EB850539
:10436000130104E00132102A03F11003D4D055F8F0
:10437000040B0028F6D120688030C058C0F30360D9
:104380000828EFD12046D2B2FFF7DAFE0120C9E7B4
:1043900080E100E02DE9F04F026889B0136B0393D0
:1043A0008346054600F1B40A0024994608E0022B32
:1043B0003AD00134102C05F108050AF1040A2ED078
:1043C00029FA04F3D907F4D5270102F18003DB5958
:1043D000C3F30363062B27D0082BE8D1DAF80000DB
:1043E00008B90BF194000188438889B29BB29942C5
:1043F00000F09D800188438889B29BB29942D8D051
:1044000004A9FFF703FC002840F0B280DBF800208D
:104410000134102C05F108050AF1040AD0D1039BE0
:10442000136309B0BDE8F08F04A9E2B25846FFF764
:10443000D7FE9BF8FC306BB1D5F814319DF81620EF
:1044400001335207C5F8143104D5D5F818310133BA
:10445000C5F81831002201238DE88400A34002959D
:104460000BF180060BF190081D4656F8040F28B199
:10447000426812EA05032BD1002A3FDBB045F4D194
:10448000009B019F029D002B3FD09BF8FC3083B125
:10449000BBF8A430BBF8A6109AB28BB2D31A44BFB3
:1044A000BBF8A8209B18DBF804219A4238BFCBF850
:1044B00004310BEBC4031B7ADB0714D5DBF80030A7
:1044C0006A68843322F06042DA51DBF8002070E73A
:1044D00003681F682D4B9F4245D10020009B184365
:1044E000C3B20093CAE76968DBF80030284A890440
:1044F00084330A40DA51DBF800205AE70268176873
:10450000224A97423CD11846E8E704AA0BF1A401DD
:104510005846FFF7BDFE0028B7D19BF8FC30002BB2
:10452000C7D0DBF808310133CBF80831B0E70127F9
:10453000A74047F000470BF180060BF1900856F8B2
:10454000040F10B143681F4204D1B045F7D1DBF826
:1045500000205DE703680F4A5B689342F5D00022B4
:1045600021469847F1E70023224604A9B847B5E75A
:10457000E2B204A95846FFF7E3FDDBF8002018E794
:104580004FF0FF3204A9B847A8E700BF993B0000ED
:104590000000FC1F9D3B00000148FFF7FBBE00BF71
:1045A0000C94FF1F704700BF014B1B681B6A7047CC
:1045B0000C94FF1F704700BF704700BF704700BFDB
:1045C00000210148FFF73EBB0C94FF1F10F00103D0
:1045D0000BD110F0060F06D101070AD4C20604D48D
:1045E00083060ED47047184670470221052004F058
:1045F00053BD064A1388022123330520138004F09B
:104600004BBD0221072004F047BD00BFB295FF1F3C
:1046100070B50F4E3368DB0704460ED50D4D2B8861
:104620000D4A04EB840464005A2000FB0340A2FB03
:1046300000304009288080B270BD304600F0A0FFF5
:10464000044D0028EBD030462C8000F09FFFE6E7B9
:10465000B495FF1FB095FF1F1F85EB5170B5154630
:104660008CB006460021684602F08CFAAC68002C3B
:104670001ADD694608A802F099FA2246013C234651
:10468000294604A802F07AFB04A908A802F030FB2E
:104690000146684602F0DAFA04A802F033FA08A8E4
:1046A00002F030FA002CE4D16946304602F018FAE4
:1046B000684602F027FA30460CB070BDF0B50746E8
:1046C000114689B002221C4602F08EFABE68B4423E
:1046D0002CD0A61B6846184902F054FA002E28DD9B
:1046E000012504AC6946204602F060FA13492046D1
:1046F00002F006FB0146684602F0A8FA01352046A2
:1047000002F000FAAE42EDDA6946204602F04EFAB7
:104710003946204602F0ECFA0146384602F096FA95
:10472000204602F0EFF9684602F0ECF9384609B08D
:10473000F0BD04ACE8E700BFB0E20000F0D8000034
:1047400082B02DE9F04FD3B00C465CA981E80C0093
:1047500068AB60A9D3E900230490D1E9000103F01C
:104760008BFD66ABD3E9002306460F4600206E4959
:1047700004F060F832463B469DF87751019503F00E
:104780002FFF639F629E649D80463846894603F0F2
:10479000C1FE02460B4600204FF0804102F0AAFC09
:1047A000CDE902016598614902F0B8FA002800F0ED
:1047B0005882002200234046494604F083F900282D
:1047C00040F008834946404604F0BAF921460246C3
:1047D0003B461EA8FFF772FF5549284602F09EFA95
:1047E000002800F001820DF59C791EA94AA802F06C
:1047F000DDF94AAA48462146FFF730FF49461EA880
:1048000002F02CFA484602F07DF94AA802F07AF943
:104810004849284602F082FA002800F0FD81072E60
:1048200040F2DF81A6F10803072BA6F1100398BF21
:10483000C6F1170A072BA6F1180398BFC6F1270A7D
:10484000072BA6F1200398BFC6F1370A072BA6F164
:10485000280398BFC6F1470A072BA6F1300398BF7B
:10486000C6F1570A072BA6F1380398BFC6F1670AAD
:10487000072B98BFC6F1770A574422A8002102F0FF
:1048800081F9019B002B5DD0019B03F107085CAB14
:1048900098440DF2771626E046A94AA802F086F958
:1048A0004AAA21464846FFF7D9FE494646A802F0E3
:1048B000D5F9484602F026F94AA802F023F922A9C0
:1048C000484602F073F946A9484602F011FA01463B
:1048D00022A802F0BBF9484602F014F946A802F0FB
:1048E00011F9B0452ED0214646A8082316F8012F0D
:1048F000FFF7E4FE0E49284602F010FA0028CBD15B
:104900000D49284602F00AFA0028C5D10B4928466D
:1049100002F004FA0028BFD10949284602F0FEF946
:104920000028B9D1CBE700BF0000F03F64D90000F8
:1049300054D90000F0D90000B4E50000B8E500004B
:10494000C0E50000CB4926A802F01CF92AA8C949F5
:1049500002F018F9BAF1000F0CDD5346002222A92B
:10496000484602F00BFA494626A802F077F9484675
:1049700002F0C8F8249B9F42C0F0668126A94846F1
:1049800002F014F91EA9484602F0B2F92AA902F071
:10499000AFF901461EA802F059F9484602F0B2F8F4
:1049A000B549284602F0BAF9002800F075810823BD
:1049B00000221EA9484602F0E1F921464A462EA8E7
:1049C000FFF74CFE484602F09DF8102308221EA96E
:1049D000484602F0D3F921464A4632A8FFF73EFE88
:1049E000484602F08FF8182310221EA9484602F00C
:1049F000C5F921464A4636A8FFF730FE484602F080
:104A000081F8202318221EA9484602F0B7F9214652
:104A10004A463AA8FFF722FE484602F073F82823D8
:104A200020221EA9484602F0A9F921464A463EA87E
:104A3000FFF714FE484602F065F8302328221EA92D
:104A4000484602F09BF921464A4642A8FFF706FE77
:104A5000484602F057F8382330221EA9484602F093
:104A60008DF921464A4646A8FFF7F8FD484602F070
:104A700049F8402338221EA9484602F07FF9214612
:104A80004A464AA8FFF7EAFD0DF1180B484602F026
:104A900039F82EA859460023092202F055F90DF1E4
:104AA000240A0CAB1C46029332A85146002309226B
:104AB00002F04AF90DF13C08214636A800230922EC
:104AC00002F042F912AF3AA841460023092202F04F
:104AD0003BF93EA839460023092202F035F915AE0C
:104AE00018AB1D46059342A831460023092202F067
:104AF0002BF91BAC46A829460023092202F024F911
:104B00002146002309224AA802F01EF94AA801F012
:104B1000F9FF46A801F0F6FF42A801F0F3FF3EA816
:104B200001F0F0FF3AA801F0EDFF36A801F0EAFF2E
:104B300032A801F0E7FF2EA801F0E4FF5846022258
:104B4000002105F01BFC02228DF87801002150465F
:104B500005F014FC02228DF879010021029805F07D
:104B60000DFC02228DF87A010021404605F006FC7A
:104B700002228DF87B010021384605F0FFFB02225E
:104B80008DF87C010021304605F0F8FB02228DF8FB
:104B90007D010021059805F0F1FB02228DF87E01D0
:104BA0000021204605F0EAFB9DF804308DF87731AE
:104BB0008DF87F015CAB0FCB049C84E80F002AA822
:104BC00001F0A0FF26A801F09DFF22A801F09AFFA6
:104BD0001EA801F097FF049853B0BDE8F04F02B053
:104BE0007047C6F1070A1DE62449284602F096F8E8
:104BF00000287FF4F8AD2249284602F08FF80028FB
:104C00007FF4F1AD1F49284602F088F800287FF4B0
:104C1000EAAD0DF59C79FBE51B49284602F07EF8CC
:104C200000287FF4FCAD1949284602F077F80028E7
:104C30007FF4F5AD1649284602F070F800287FF49D
:104C4000EEAD3744B24618E63A4622A9484602F08D
:104C500095F849462AA802F001F8484601F052FFAB
:104C60008CE60C49659802F059F800287FF4A1AD54
:104C7000A8E500BFB0E2000054D90000B4E5000090
:104C8000B8E50000C0E50000C8E50000CCE5000084
:104C9000D8E50000ACE500005849284602F03EF88F
:104CA00000287FF484AE5649284602F037F80028E1
:104CB0007FF47DAE2846534902F030F805460028BF
:104CC0007FF475AE02461EA9484608230DF1180B65
:104CD00002F054F859462B460922484602F034F8AF
:104CE000484601F00FFF0DF1240A1EA94846102383
:104CF000092202F043F851462B460922484602F0A9
:104D000023F8484601F0FEFE0CAB1C4602931EA998
:104D100048461823102202F031F821462B4609227A
:104D2000484602F011F8484601F0ECFE0DF13C084F
:104D30001EA948462023182202F020F841462B469F
:104D40000922484602F000F8484601F0DBFE12AFA7
:104D50001EA948462823202202F010F839462B4687
:104D60000922484601F0F0FF484601F0CBFE15AE9F
:104D70001EA948463023282202F000F831462B466F
:104D80000922484601F0E0FF484601F0BBFE18AB9F
:104D90001C4605931EA948463823302201F0EEFF39
:104DA00021462B460922484601F0CEFF484601F035
:104DB000A9FE1BAC1EA948464023382201F0DEFFA5
:104DC00048462B462146092201F0BEFF484601F025
:104DD00099FEB3E600220C4BDDE9020103F04CFA28
:104DE00003F0AEFE013003F095FB02460B46404651
:104DF000494603F043FA80468946E3E4B4E50000FF
:104E0000B8E50000C0E500000000F03F84B02DE9E7
:104E1000F0439DB00DF1940888E80E009DF89B408A
:104E2000DDF8A4902B9F06460021684601F0AAFEFB
:104E3000002C4CD00734A0440DF19B050CAC26E0AF
:104E400004A908A801F0B2FE08AA31462046FFF7DF
:104E500005FC214604A801F001FF204601F052FEA6
:104E600008A801F04FFE6946204601F09FFE04A904
:104E7000204601F03DFF0146684601F0E7FE20466E
:104E800001F040FE04A801F03DFEA84520D03146C7
:104E900004A8082315F8012FFFF710FC77493846BE
:104EA00001F03CFF0028CBD17549384601F036FFB0
:104EB0000028C5D17349384601F030FF0028BFD122
:104EC0007149384601F02AFF0028B9D1CBE70CAC74
:104ED0006E49384601F022FF002800F09980B9F1B0
:104EE000070F40F292800022A9F10803072BA9F1D5
:104EF000100398BFC9F11702072BA9F1180398BF37
:104F0000C9F12702072BA9F1200398BFC9F1370285
:104F1000072BA9F1280398BFC9F14702072BA9F174
:104F2000300398BFC9F15702072BA9F1380398BF86
:104F3000C9F16702072B2A9B98BFC9F17702D318E2
:104F40006946204601F01AFF2146684601F086FEB8
:104F5000204601F0D7FD4949384601F0DFFE002820
:104F600076D0694608A801F021FE08AA31462046FD
:104F7000FFF774FB2146684601F070FE204601F001
:104F8000C1FD08A801F0BEFD029803F0B3FA024685
:104F90000B4600204FF0804102F0ACF800223C4B61
:104FA00003F06AF903F0CCFD2146002340220546B8
:104FB000684601F0C9FE20460021022205F0DEF914
:104FC000344904462C9801F0A9FE002839D005EB9D
:104FD000D573B4EB630F01DD0135641B204603F08C
:104FE00099FADDE92E2303F0FBFADDE9302303F023
:104FF00045F9044668460D4601F084FD20462946E1
:105000001DB0BDE8F04304B07047C9F107026BE77B
:105010002149384601F082FE00287FF460AF1F4925
:10502000384601F07BFE00287FF459AF1C49384612
:1050300001F074FE00287FF452AF2A9B4A464B448D
:105040007EE718492C9801F069FE0028BFD1C5E71A
:105050000B49384601F062FE002882D109493846E2
:1050600001F05CFE00287FF47CAF3846064901F071
:1050700055FE00287FF475AF86E700BF54D90000C5
:10508000B4E50000B8E50000C0E50000F0D900007C
:105090000000F03F64D90000C8E50000CCE5000046
:1050A000D8E50000ACE50000374A384913681B0614
:1050B000FCD40B6813F08003F8D172B634490A7837
:1050C000002A5FD0334A3448F0B4344C176806687D
:1050D0002568D4680C303E44143200681268304FA2
:1050E00035442C4420440244C2F34E022D4E2E4837
:1050F0002E4D2F4C42F400423A60376806682D6806
:105100002C4A24680C303E44006812682A4F35440B
:105110002C4420440244C2F34E02284E2848294D14
:10512000294C42F400423A60376806682D68274AE5
:1051300024680C303E4400681268254F35442C44E6
:1051400020440244C2F34E02224E2348234D244CF5
:1051500042F400423A60376806682D68214A2468A4
:105160000C303E440068126835442C44204402440C
:10517000C2F34E021C4842F4004202600B7062B659
:10518000F0BC704762B6704724B0034024B00B40B7
:10519000B995FF1F38B003403CB0034040B0034016
:1051A0002CB0034058B003405CB0034060B00340F3
:1051B00064B003406CB0034030B0034038B00B40E3
:1051C0003CB00B4040B00B4044B00B404CB00B40E7
:1051D0002CB00B4058B00B405CB00B4060B00B40A3
:1051E00064B00B406CB00B4030B00B4030B4294879
:1051F000294A2A4B2A4D6024E121047011701B7842
:10520000284C082B30D00A2B2748284937D00C2BA4
:105210000CBF35223D2212232A60236002600B60FE
:10522000234B24491B78244ABBB101230B60136034
:10523000224B23491B78234A012B26D9042B0FD953
:10524000082B1ED9102B94BF862387230B60136075
:105250001D4B01221A7030BC70470B601360E7E7EA
:1052600084230B601360F3E700F58E200F490830AC
:10527000012213232A60236002600B60D0E73922E9
:10528000F7E785230B601360E2E780230B60136070
:10529000DEE700BF00400740014007408F87FF1F47
:1052A00008B003400CB0034008B00B400CB00B40FA
:1052B000BC95FF1F20B0034020B00B409087FF1F1C
:1052C00024B0034024B00B40B995FF1F0C2830B424
:1052D00017D91023984228BF18461C46104A114D72
:1052E0001178181A8C42287018D00F4913700B7857
:1052F00023B10E490E4A00230B60136030BCFFF748
:1053000075BF0A2802D90C231C46E7E7082802D9F2
:105310000A231C46E2E708231C46DFE730BC70473F
:105320008F87FF1FB895FF1FB995FF1F24B003405B
:1053300024B00B4028282FD8334B2DE9F0411E5CB8
:10534000FF2E2BD0314B1B78002B2AD132062CD4C8
:1053500072B62F4D2F4C2F46012326602B7062B65C
:1053600072B623681B060CD43B781BB9F4E72B7884
:10537000002BF1D062B601F043FD72B62368180627
:10538000F5D5254B1B6800222A7062B6234A107897
:1053900043FA00F0BDE8F081002070470020BDE82E
:1053A000F081FFF781FE3206D2D572B61C4DDFF8D0
:1053B0007C801C4C06F04007FFB206F03F06D8F890
:1053C0000030DFB123F01003C8F80030012326605D
:1053D000134A2B7062B672B6236819060CD4137880
:1053E0001BB9ECE72B78002BE9D062B601F008FD81
:1053F00072B623681B06F5D50B4BC3E743F01003C9
:10540000C8F80030E2E700BFE4E50000B995FF1FEF
:10541000BB95FF1F00B0034010B00340B895FF1FBD
:10542000BA95FF1F00B00B4010B00B400CB00B4002
:10543000F0B51B4B1B4E596818689A68DB6885B03D
:105440006C460FC4337899071DD5174A174C13784B
:10545000174913F0700318BF1370164A164B8027B4
:10546000177000263320032226706D4608701A70CC
:1054700072B6043C45F001052046A84762B6237881
:1054800013F0700309D10D4B064901E0013B02D036
:105490000A78D207FAD505B0F0BD237005B0F0BD8B
:1054A00010E600000100024000000240040002403B
:1054B0000B000240070002400A000240410D0300B9
:1054C000B0F5006F0AD210B5094B1B78DB07044614
:1054D00006D504F1A0500078C0B210BD002070477E
:1054E000FFF7A6FF04F1A0500078C0B210BD00BFC6
:1054F0000100024008B5104C08E0236859050DD49E
:1055000023681A050FD42368DB0411D423685803D9
:10551000F3D500F061FA23685905F1D500F00EF8D3
:1055200023681A05EFD500F009F82368DB04EDD5F0
:1055300000F004F8EAE700BF3480044008B5FFF744
:10554000D9FF00BF014B10221A8070470020054090
:10555000704700BF094908B50B6830B16A46184466
:10556000A2F58052904202D20860184608BD03F0AE
:10557000D1FD0C2303604FF0FF3008BD9487FF1F5F
:105580000078B0FA80F04009704700BF0123037033
:10559000704700BF10B40F4B53F8302092F8804290
:1055A0002CB1012369B182F8803010BC704703EB45
:1055B000C0035B681A6841B922F002021A6010BC8D
:1055C000704782F8003110BC704742F003021A6045
:1055D00010BC704720E600001C4A02EBC003012902
:1055E0005B6811D004291BD052F83000002280F8EB
:1055F000802229B1022920D0032922D01A607047C5
:105600004FF480721A60704752F830004FF4A27263
:1056100080F880121A601A6822F020021A6070471F
:1056200052F830104FF4A272012081F880021A6003
:105630001A6842F020021A60704740F203121A60A2
:1056400070474FF481721A60704700BF20E6000077
:1056500030B4054B054D064C002210211A602A601B
:105660002060196030BC704714D0034004D0034060
:1056700000D00340212801D8FFF78CBF704700BF3E
:10568000212806D8044B53F8303093F80002C0B2FA
:1056900070470020704700BF20E60000212801D895
:1056A000FFF79ABF704700BF2DE9F843054672B671
:1056B000204F214B214A1B683C68126862B6520198
:1056C00002D5322B88BF013495B3C3F5BB331C4ED2
:1056D000DFF86490DFF86480FF334FF47A72A6FB42
:1056E000031302FB04F404EB931472B6D9F8001010
:1056F0003A68D8F800E062B6C1F5BB33FF33A6FBC9
:1057000003031EF0806FC4EB93134FF47A7002D042
:10571000322988BF013200FB0233B3F57A7F04D30C
:10572000013D05D004F57A74DFE701F069FBDCE7A1
:10573000BDE8F883C095FF1F18E000E004ED00E02D
:10574000ABAAAAAAF8B52D4B2D49DFF8D0E0DFF8B7
:10575000D0C02C4E2C4D2D4C2D4A2E4F4FF4000016
:1057600018604FF0807018604FF0007018604FF0B4
:10577000806018604FF000601860002008602823E7
:105780004BF6FF71CCF80010CEF800303360136098
:105790002B6023603B60B3629362092245F8242C9E
:1057A000C4F8D80F05F57F65C7F8D41F07F5FF27A4
:1057B00007F5FA67C6F8F83F2B6006F5FF26C4F830
:1057C000D42F05F5FD2504F5FF24386006F2F476A4
:1057D0001148316005F5FF6504F5FD642B60236019
:1057E0000260FFF703FD1920FFF75EFF00F05AFE8D
:1057F00040F21310BDE8F840FFF756BF08E100E0A3
:105800000480034014800340248003402C80034024
:105810001C8003403480034000800B400C80034018
:1058200008800340431E032B14D872B60A4951F86E
:10583000230068B170B4094C058834F81320466819
:1058400041F82360521B24F8132062B670BC7047E5
:1058500062B67047002070471C96FF1F1897FF1F05
:10586000013803280BD872B6074B53F8203043B1E8
:1058700000205B680130002BFBD162B6704700202E
:1058800070471846F9E700BF7096FF1F30B472B634
:105890002B4A13781D0706D52A4B196A002936D0E2
:1058A000996A002941D053781C0706D5254B196CFD
:1058B00000293ED0996C002939D09378190705D575
:1058C000204B196E002936D0996E89B1D3781B0709
:1058D00007D51C4BD3F880207AB3D3F88820112148
:1058E0003AB162B6184B00221A7030BC00F056BEB6
:1058F0000D21154C154D227843F8315003EBC103AF
:105900000830013A5860227062B630BC70470422F9
:105910000D4C0F4D217843F8325003EBC203083091
:105920004A1E5860227062B6EFE70521E1E70921BF
:10593000DFE70822ECE70C22EAE71022E8E700BFE5
:105940005CE700000080FF1F9996FF1FC800400021
:1059500088004000431E032B1DD81B4A400140F025
:10596000100030B4104472B6184CE25C032A1BD805
:10597000DFE802F00212151703220D88E25410F03E
:10598000080F14BFC823882343EA05430831036086
:10599000416062B630BC704708300222EDE7052254
:1059A000EBE708300422E8E7094A52F8230038B14F
:1059B000084A52F82300416042F8231062B6E9E732
:1059C00042F82310034AF7E70080FF1FA896FF1F45
:1059D0007096FF1F8096FF1F2DE9F04FDFF818B378
:1059E000DFF818A387B044E0AE4F4FEA930807EB07
:1059F000C809013ED9F8042003F00803F6B2A2F169
:105A0000080003F0FF04002B40F0048157F8383001
:105A10001B0C99B222F8081C002B00F0F280A24B5C
:105A200022F8064C42F8044C53F82620002A00F0D5
:105A30006E819E4D55F8263058609D4C45F82600E5
:105A400034F81630194424F8161000F087FD0028A9
:105A500000F05681974A984B19F0080F00F10800A2
:105A600018BF1346C9F8040047F8383008238BF8EC
:105A700000309BF80040E4B261071BD58F4B1B78C8
:105A8000ABB18F490A7802F0FF032AB1013BDBB2C8
:105A90000B70002B00F0EF848A490A7802F0FF03B4
:105AA0002AB1013BDBB20B70002B00F0F78004231E
:105AB0008BF8003004F0080303F0FF02002B00F025
:105AC000D6809AF80030DBB21E098DD19C08DFF831
:105AD000D49159F8342009EBC401C2F38302013A8E
