:1000000000800020BD01000021550000D9540000EF
:10001000D9540000D9540000D9540000D95400002C
:10002000D9540000D9540000D954000021550000D3
:1000300021550000D9540000E5680000E96800007F
:1000400021550000215500002155000021550000D8
:1000500021550000215500002155000021550000C8
:1000600021550000215500002155000021550000B8
:1000700021550000215500002155000021550000A8
:100080002155000021550000215500002155000098
:100090002155000021550000215500002155000088
:1000A0002155000021550000215500002155000078
:1000B000215500007D450000894500008D45000068
:1000C000994500009D450000A14500002155000014
:1000D0002155000021550000215500002155000048
:1000E0002155000021550000215500002155000038
:1000F0002155000021550000215500002155000028
:100100002155000021550000215500002155000017
:100110002155000021550000215500002155000007
:1001200021550000215500002155000021550000F7
:1001300021550000215500002155000021550000E7
:1001400021550000215500002155000021550000D7
:1001500021550000215500002155000021550000C7
:1001600021550000BD590000215500002155000017
:1001700021550000215500002155000021550000A7
:100180002155000021550000215500002155000097
:100190002155000021550000215500002155000087
:1001A0002155000021550000215500002155000077
:1001B000215500002155000021550000564B4CF2FE
:1001C000205210B51A804DF628121A8000BF00BFC9
:1001D00005F0AAF9514B4FF010621A60504A9A602C
:1001E000504ADA60504A136813F4807304D14F49BF
:1001F0000B604FF4A85313604D4B1A78110703D5C9
:100200001A7842F008021A704A4B4B492A221A7097
:100210004A4A4B4B8B4204D252F8040F43F8040B6A
:10022000F8E7484B484900228B4202D243F8042B9E
:10023000FAE74649464A002352F8230041F82300D2
:1002400001336F2BF8D1434B434A802103F8011B44
:100250009342FBD1414B3D4A1A60414B8A221A70AE
:10026000A3F5805324225A70A0221A709A7992071B
:10027000FCD59A79D406FCD43A4A937903F00C035E
:10028000082B384BF9D103221A7140225A719A79FE
:100290009006FCD5334A9179324B4906FBD5324A58
:1002A000324911600221516020221A709A7902F0BD
:1002B0000C020C2AFAD12E4B2E4A1A602E4B2F4AD2
:1002C0001A6000225A60072243F8042C2C4AC3F813
:1002D0000C2D62B605F028FA144B1B68DA0705D519
:1002E000284805F0A7F9284B284A1A60284B1B78A4
:1002F0005B0609D5244C254B22689A4204D121483B
:1003000005F098F90023236008F0FAFE05F012F9D1
:1003100006F04AFDFEE700BF0E2005403080044095
:10032000823F04000100002B10D0034014D0034092
:1003300002D0074000E007400092FF1F5CEA000087
:100340002087FF1F0092FF1F2C97FF1F0082FF1FB7
:100350000000000000E400E05FE400E008ED00E0E1
:100360000050064000400640448004400000030165
:1003700004800440C010050014E000E0FF76010096
:1003800000002020B4F249601CE00340A5C3945A49
:1003900000F00740FFFFFFFFFFFFFFFFFFFFFFFF32
:1003A000FFFFFFFFFFFFFFFFFFFFFFFFFFFFFFFF5D
:1003B000FFFFFFFFFFFFFFFFFFFFFFFFFFFFFFFF4D
:1003C000FFFFFFFFFFFFFFFFFFFFFFFFFFFFFFFF3D
:1003D000FFFFFFFFFFFFFFFFFFFFFFFFFFFFFFFF2D
:1003E000FFFFFFFFFFFFFFFFFFFFFFFFFFFFFFFF1D
:1003F000FFFFFFFFFFFFFFFFFFFFFFFFFFFFFFFF0D
:10040000FFFFFFFFFFFFFFFFFFFFFFFFDEF9FFFF23
:1004100010B5054C237833B9044B13B10448AFF33E
:1004200000800123237010BD0092FF1F0000000018
:1004300058EA0000084B10B51BB108490848AFF353
:1004400000800848036803B910BD074B002BFBD0A0
:10045000BDE81040184700BF000000000492FF1FD5
:1004600058EA00000092FF1F0000000008B51420A9
:1004700005F00CF901210C2005F0EEF8C82005F07C
:1004800005F901210B20BDE8084005F0E5B800BFE3
:10049000F8B5284C28480B2106F0FEF821682748BB
:1004A00006F0A0FA254806F04DFA254A136863B90C
:1004B000244D254825492B60012505600B6001333B
:1004C0001360236801332360F8BD012B07D11E4D53
:1004D0001C481E492B60002505600B60EFE7022BCE
:1004E00008D1194F174E1948002101253960316094
:1004F0000560E4E7032B08D1134E124D1348012188
:100500000027376029600160D9E7042B03D10E4F23
:100510000E4E0C48E8E7052BD1D10C480A4E094D88
:1005200000230360136023680121013331602960D7
:100530002360F8BDA092FF1F84D800009C87FF1F96
:100540003C92FF1FD092FF1FF893FF1F2C92FF1FBA
:1005500070B51D210B4806F09FF80B4806F0F2F924
:100560000A4B0B4A5A60142602250A24002040F642
:100570005A214FF443721E705D701C72587259817B
:100580009A8170BD90D800009C87FF1F6C92FF1F5E
:1005900020A10700F0B50746144689B0022206F0F4
:1005A00015FBBE68B4422CD0A61B6846174906F05E
:1005B000DBFA002E28DD012504AC6946204606F052
:1005C000E7FA1349204606F08DFB0146684606F01F
:1005D0002FFB0135204606F087FAAE42EDDA694678
:1005E000204606F0D5FA3946204606F073FB014650
:1005F000384606F01DFB204606F076FA684606F0FF
:1006000073FA384609B0F0BD04ACE8E770E20000C8
:10061000B0D80000F0B51A4C25688DB008AC012D9B
:1006200084E80F0005D02146164803F047FE0DB0C0
:10063000F0BD02469DF82E109DF82F009DF82D70FC
:100640009DF82C609DF82B50069005919DF82A008E
:100650009DF829109DF828300190009104970A49CF
:1006600003960295094809F02FFB084809F028FD78
:100670000146064806F010F8054806F063F9D2E78F
:100680009892FF1F0894FF1FB4D80000DC92FF1F50
:100690009C87FF1F10B5A8B08DE80F0004A89DF837
:1006A0000A100822FFF776FF08A89DF80D1008220F
:1006B000FFF770FF0CA89DF80F100822FFF76AFFE4
:1006C00004A910A80223002206F04AFB08A914A8D6
:1006D0000423012206F044FB0CA918A806230422D7
:1006E00006F03EFB10A81CA90023102206F01EFBFA
:1006F00014A820A90023102206F018FB18A824A98A
:100700000023102206F012FB1CA80222002109F08F
:1007100015FE124B02221860002120A809F00EFEDF
:100720000F4B02220021186024A809F007FE0D4B90
:10073000186018A806F0D8F914A806F0D5F910A882
:1007400006F0D2F90CA806F0CFF908A806F0CCF90B
:1007500004A806F0C9F928B010BD00BF6493FF1FBC
:100760006893FF1F0094FF1F10B5AAB08DE80F001B
:1007700005A89DF80B100822FFF70CFF09A89DF8AB
:100780000C100822FFF706FF0DA89DF80D10082297
:10079000FFF700FF2D4B9DF80E201A6009A925A830
:1007A00006F0F6F905A925A806F094FA014611A865
:1007B00006F0EEF925A806F097F90DA915A8032370
:1007C000002206F0CDFA0DA919A80623032206F08F
:1007D000C7FA25A911A80023112206F0A7FA15A827
:1007E0001DA90023102206F0A1FA19A821A90023AF
:1007F000102206F09BFA25A80222002109F09EFD96
:10080000134BA0F5FA4402221DA800211C6009F038
:1008100095FD104B02220021186021A809F08EFDE1
:100820000D4B186019A806F05FF915A806F05CF9E1
:1008300011A806F059F90DA806F056F909A806F016
:1008400053F905A806F050F92AB010BD6093FF1FB8
:10085000E093FF1FD093FF1F3892FF1FF0B599B0B0
:100860008DE80F0004A89DF808102B4D2B4E082290
:10087000FFF790FE04A908A80623042206F070FAE8
:1008800004A90CA80823062206F06AFA08A810A9F1
:100890000023102206F04AFA00230CA814A9102203
:1008A00006F044FA0222002110A809F047FD0222B6
:1008B0002860002114A809F041FD2C68306034F054
:1008C00002070AD13946162004F0C6FE3946052033
:1008D00004F0C2FE124B2C681F60012C10D033684C
:1008E0000BB1012B01D10F4A13600CA806F0FCF8E4
:1008F00008A806F0F9F804A806F0F6F819B0F0BD5B
:100900002146162004F0A8FE2146052004F0A4FE8E
:10091000034B1C60E3E700BF2892FF1FCC93FF1F2F
:100920003092FF1F3C87FF1F2DE9F04F3A4CDFF854
:1009300000912468394FDFF8FC80DFF8FCA099B003
:1009400014AE0F94364C0F9D256010AD0AAC84E8B0
:100950000F004FF0000B49462846C7F800B006F0DC
:1009600003F930462F4906F0FFF8CDF804B00FF236
:10097000A00CDCE900BC04960395102794E80E0057
:10098000CDE906BC02974FF0000C0D9F00974FF089
:10099000000BCDE908BC404604F02AFA08F0C0F884
:1009A000CAF80000304606F09FF8284606F09CF88A
:1009B0001D4BDAF800201A604946284606F0D4F8A4
:1009C00030461A49DFF8749006F0CEF80022002372
:1009D000CDE908230EA3D3E90023CDE90623102394
:1009E000049603950293019394E80E000D9C0094E5
:1009F000404604F0FDF908F093F8C9F800003046CD
:100A000006F072F8284606F06FF819B0BDE8F08FCE
:100A1000000000A09999B93FBC95FF1FA892FF1F45
:100A2000AC93FF1F18D90000A493FF1F24D9000026
:100A300014D90000C492FF1FA893FF1FD892FF1F74
:100A40002DE9F04397B00AAC0EAD84E80F0012AE6A
:100A50001C491D4F284606F087F81C49304606F011
:100A600083F84FF000084FF000090496039510201A
:100A700094E80E00CDE908890290DFF85C900D98AB
:100A80004FF0000800248DE81100CDE906891048D8
:100A900004F0AEF908F044F83860304606F024F867
:100AA000284606F021F83B68642B04D0094A1360FD
:100AB00017B0BDE8F083074B63221A6017B0BDE89A
:100AC000F08300BF14D90000D493FF1F18D9000091
:100AD000C492FF1F6C93FF1F0000F03FFFFFFFFF5A
:100AE0002DE9F04FDFF8DCA0DFF8DC90DFF8DC80E8
:100AF00097B00EAD0AAC12AE84E80F0051462846FE
:100B000006F032F84946304606F02EF80FF2A00CF7
:100B1000DCE900BC04960395102794E80E00CDE9AB
:100B200006BC02974FF0000C01974FF0000B0D9F91
:100B30000097CDE908BC404604F05AF907F0F0FFF1
:100B40001D4B1860304605F0CFFF284605F0CCFF5E
:100B50005146284606F008F84946304606F004F8A3
:100B600000220023CDE9082311A3D3E90023CDE916
:100B70000623102304960395029394E80E004FF089
:100B8000000E0D9CCDF804E00094404604F030F9CE
:100B900007F0C6FF094C2060304605F0A5FF284647
:100BA00005F0A2FF064B22681A6017B0BDE8F08F6F
:100BB000000000A09999B93FFC93FF1FB893FF1F55
:100BC0007493FF1F14D9000018D90000C492FF1FAE
:100BD00010B596B08DE80F0005A89DF80A10082200
:100BE000FFF7D8FC082209A89DF80B10FFF7D2FCEC
:100BF00009A911A805F0CCFF05A911A806F06AF80B
:100C000001460DA805F0C4FF11A805F06DFF0023F3
:100C100011A90DA8112206F089F80222002111A8BD
:100C200009F08CFB0DA805F05FFF09A805F05CFF3B
:100C300005A805F059FF16B010BD00BF2DE9F04F13
:100C4000ABB08DE80F0005A89DF80810349E08226F
:100C5000FFF7A0FC09A808229DF80A109DF809508A
:100C6000FFF798FC0DA808229DF80B10FFF792FCE7
:100C700005A911A8042302229DF80C7006F070F853
:100C80000823042205A915A806F06AF80DA925A8CD
:100C900005F07EFF09A925A806F01CF8014619A851
:100CA00005F076FF25A805F01FFF11A81DA9002358
:100CB000102206F03BF815A821A90023102206F007
:100CC00035F8002325A919A8112206F02FF80222D1
:100CD00000211DA809F032FB02220021834621A831
:100CE00009F02CFB02220021824625A809F026FBF0
:100CF000B0F5004F0446A4BFA0F57F44FF3C802D13
:100D0000C8BFA5F58075284607F0F4FB02460B46E0
:100D10000020234906F0E0F980468946204607F086
:100D2000E9FB42464B4607F04BFC07F0F9FE012E6B
:100D30002AD0022E20D0032E09D11A4B1A4918604E
:100D40001A4A1B4BC1F800A01760C3F800B019A8DD
:100D500005F0CAFE15A805F0C7FE11A805F0C4FEEF
:100D60000DA805F0C1FE09A805F0BEFE05A805F016
:100D7000BBFE2BB0BDE8F08F0E4B0F4A18600F4B37
:100D8000C2F800A01F60E2E70D4B0E4918600E4A42
:100D90000E4BC1F800A01760C3F800B0D7E700BF42
:100DA000000024403492FF1FF493FF1FE893FF1FBD
:100DB0008893FF1F8092FF1F8C93FF1F4092FF1F9D
:100DC0008C92FF1FDC93FF1F8492FF1FC093FF1FB5
:100DD00010B596B08DE80F0005A89DF80C100822FC
:100DE000FFF7D8FB082209A89DF80D10FFF7D2FBEA
:100DF00009A911A805F0CCFE05A911A805F06AFF04
:100E000001460DA805F0C4FE11A805F06DFE11A95C
:100E10000DA80023112205F089FF002111A802224C
:100E200009F08CFA074BA0F196020DA81A6005F0A4
:100E30005BFE09A805F058FE05A805F055FE16B0A2
:100E400010BD00BF7093FF1F30B57B4D7B4883B052
:100E5000294603F02BF92A68794B9A4200F0BB80AF
:100E600018D9784B9A4200F0C88040F28780764BC0
:100E70009A425CD003F540739A4200F0B680A3F525
:100E8000C0639A4257D10223009395E80F00FFF701
:100E9000D5FE50E040F256339A4200F0978060D978
:100EA0006A4B9A424DD003F500739A4200F0988045
:100EB00040F25A339A423ED1654B1B7843B92B7AA4
:100EC000002B00F0A68063486349012303600B6098
:100ED000624B1B68012B32D1EB796149614808F004
:100EE000F3FE604809F0ECF801465E4805F0D4FBDB
:100EF0002C68514B14F080444FD1DB798BB12B1906
:100F000059491A7A574808F0DFFE564809F0D8F8D0
:100F10000146544805F0C0FB0134EB79E4B2A3422A
:100F2000EDD8524803B0BDE8304005F00BBD95E860
:100F30000F00FFF74DFE494B1B68012B06D003B095
:100F400030BD95E80F00FFF743FFF4E72A68D300B0
:100F5000C2D522F06042EB794549424808F0B4FE20
:100F6000BFE740F251339A424ED040F255339A4295
:100F7000E1D195E80F00FFF763FDDCE7A3F57853B7
:100F80009A421ED003F570539A42D4D103230093A2
:100F900095E80F00FFF752FECDE7364D314C0FCDEF
:100FA0000FC495E8030044F8040B204620F81419F8
:100FB000152105F071FB2D4803B0BDE8304005F068
:100FC000C1BC95E80F00FFF749FCB4E795E80F00B6
:100FD000FFF7AAFCAFE795E80F00FFF7C5FBAAE70C
:100FE00095E80F00FFF756FBA5E71C4B22491B684D
:100FF000E87A0860012BA2D1ABE70123009395E8C2
:101000000F00FFF71BFE96E795E80F00FFF768FD5E
:1010100091E76B7A002B7FF456AFA97A064B002933
:101020007FF451AFDB7A002B7FF44DAF09480A49BA
:1010300003600B604CE700BFAC92FF1F0894FF1FDA
:101040008014FF188055FF18805AFF188011FF1870
:101050009C92FF1FC892FF1F1C92FF1F7893FF1FD7
:1010600060D90000DC92FF1F98D900009C87FF1F09
:101070002CD9000080D900007C93FF1F2DE9F0419E
:10108000854BC8B0196868461022FFF783FA834B76
:1010900004A819681022FFF77DFA814B08A8196887
:1010A0000222FFF777FA7F4B0CA819680222FFF79C
:1010B00071FA7D4B10A819680222FFF76BFA7B4B7F
:1010C00014A819680222FFF765FA794B18A8196865
:1010D0000222FFF75FFA1CA8764905F045FD764B22
:1010E00020A819680222FFF755FA744B02221968EA
:1010F00024A8FFF74FFA10A944A805F049FD0CA950
:1011000044A805F0E7FD08A905F0E4FD14A905F0E1
:10111000E1FD014628A805F03BFD44A805F0E4FCEC
:101120001CA944A805F034FD20A944A805F0D2FD6F
:1011300024A905F0CFFD18A905F0CCFD01462CA887
:1011400005F026FD44A805F0CFFC694644A810230D
:10115000082205F005FE30A944A80023102205F05E
:10116000E5FD44A805F0C0FC694644A80823002218
:1011700005F0F6FD34A944A80023102205F0D6FDA1
:1011800044A805F0B1FC04A944A81023082205F0E6
:10119000E7FD38A944A80023102205F0C7FD44A8A4
:1011A00005F0A2FC04A944A80823002205F0D8FDFC
:1011B0003CA944A80023102205F0B8FD44A805F07E
:1011C00093FC28A840A90023102205F0AFFD0023BE
:1011D00044A92CA8102205F0A9FD30A80222002164
:1011E00009F0ACF802228046002134A809F0A6F8E4
:1011F00002220746002138A809F0A0F8022206467C
:1012000000213CA809F09AF802220546002140A8D6
:1012100009F094F802220446002144A809F08EF84F
:10122000274BDFF8A0E09A79C3F800E0062142F0EE
:10123000010283F808805F729E72DD721C7358731E
:10124000D9719A710FCBFFF7E5F92CA805F04CFC8A
:1012500028A805F049FC24A805F046FC20A805F0C4
:1012600043FC1CA805F040FC18A805F03DFC14A8A0
:1012700005F03AFC10A805F037FC0CA805F034FC8A
:1012800008A805F031FC04A805F02EFC684605F01E
:101290002BFC48B0BDE8F0815C93FF1FA493FF1FB7
:1012A000C893FF1F5892FF1F9893FF1F3C87FF1F93
:1012B0003092FF1FA4D90000F093FF1F2092FF1F60
:1012C0004892FF1F8221FF18F0B5594B594C1968FD
:1012D000B1B068460422FFF75DF9574B04A81968BE
:1012E0000222FFF757F9554B08A819680822FFF7A3
:1012F00051F9534B082219680CA8FFF74BF910A8B5
:10130000504905F031FC10A92CA805F041FC10A9AA
:101310002CA805F0DFFC0CA905F0DCFC014614A8A4
:1013200005F036FC2CA805F0DFFB10A92CA805F071
:101330002FFC10A92CA805F0CDFC04A905F0CAFCCF
:1013400010A905F0C7FC014618A805F021FC2CA83F
:1013500005F0CAFB10A92CA805F01AFC69462CA8B8
:1013600005F0B8FC10A905F0B5FC01461CA805F075
:101370000FFC2CA805F0B8FB14A820A9002310220C
:1013800005F0D4FC18A824A90023102205F0CEFCF7
:101390001CA828A90023102205F0C8FC00232CA9B2
:1013A00008A8102205F0C2FC20A80222002108F0A3
:1013B000C5FF02220746002124A808F0BFFF022231
:1013C0000646002128A808F0B9FF022205460021A0
:1013D0002CA808F0B3FF1C4B9A79987342F00101D6
:1013E000072000221F729E72DD721C60D8719971F5
:1013F0005A721A735A730FCBFFF70CF91CA805F039
:1014000073FB18A805F070FB14A805F06DFB10A87D
:1014100005F06AFB0CA805F067FB08A805F064FB63
:1014200004A805F061FB684605F05EFB31B0F0BD35
:10143000A093FF1F8230FF183487FF1F6C93FF1F9C
:101440008892FF1FA4D900004892FF1F2DE9F04F9A
:101450003A4B3B4A1B681268012B99B068D0002BAD
:1014600068D10122374B1B789BB1374B99791A729F
:1014700040F25734FF2203206FF300011C60D87143
:1014800099715A729A720FCBFFF7C4F819B0BDE880
:10149000F08F2D4C2D48A1790068254663F300019B
:1014A00040F25737032605F8082F2760E671A1712F
:1014B00007F020F80DF1400A0DF1500B80468946E7
:1014C0005046234905F050FB5846224905F04CFB95
:1014D00095E80300CDE902898DE80300CDF81CB042
:1014E000CDF818A00026002794E80C00CDE90A6783
:1014F000194F4FF0100E0CAD00260821CDF814E066
:1015000028460491CDE90867144903F00BF995E8E2
:101510000F0084E80F00584605F0E6FA504605F043
:10152000E3FA94E80F00FFF775F819B0BDE8F08F03
:10153000002297E7B2FA82F2520993E73C87FF1F35
:10154000CC93FF1F7C92FF1F4892FF1F6093FF1FE9
:1015500014D9000018D900000000F03FC492FF1F0A
:10156000F0B5A5B068463F493F4D05F0FDFA3F4B49
:1015700004A819680222FFF70DF808A80422052123
:10158000FFF708F810220CA84FF47A71FFF702F861
:10159000694620A805F0FCFA04A920A805F09AFBEA
:1015A00008A905F097FB014610A805F0F1FA20A85C
:1015B00005F09AFA10A814A90023102205F0B6FB32
:1015C0000CA920A81023082205F0CAFB18A920A8FE
:1015D0000023102205F0AAFB20A805F085FA0CA92B
:1015E00020A80823002205F0BBFB00231CA920A88B
:1015F000102205F09BFB20A805F076FA14A8022221
:10160000002108F09BFE02220746002118A808F0DE
:1016100095FE0222064600211CA808F08FFE144BFE
:101620009A79D872052442F00102002001211F722C
:101630009E721D60DC719A71587219730FCBFEF7A0
:10164000E9FF10A805F050FA0CA805F04DFA08A81B
:1016500005F04AFA04A805F047FA684605F044FA8E
:1016600025B0F0BDA4D900008239FF182C87FF1FD8
:101670004892FF1FF0B5A5B068463F493F4D05F0C1
:1016800073FA3F4B04A819680222FEF783FF08A8EB
:1016900004220321FEF77EFF10220CA8C821FEF7CA
:1016A00079FF694620A805F073FA04A920A805F07F
:1016B00011FB08A905F00EFB014610A805F068FA19
:1016C00020A805F011FA10A814A90023102205F093
:1016D0002DFB0CA920A81023082205F041FB18A916
:1016E00020A80023102205F021FB20A805F0FCF91A
:1016F0000CA920A80823002205F032FB00231CA916
:1017000020A8102205F012FB20A805F0EDF914A87E
:101710000222002108F012FE02220746002118A82A
:1017200008F00CFE0222064600211CA808F006FE66
:10173000144B9A79D872052442F00102002001214D
:101740001F729E721D60DC719A71587219730FCBF3
:10175000FEF760FF10A805F0C7F90CA805F0C4F962
:1017600008A805F0C1F904A805F0BEF9684605F01F
:10177000BBF925B0F0BD00BFA4D900008237FF1827
:101780004887FF1F4892FF1FF0B59DB068463B4950
:101790003B4C3C4D05F0E8F93B4B04A8196810227E
:1017A000FEF7F8FE394B0422196808A8FEF7F2FE8E
:1017B000694618A805F0ECF908A918A805F08AFAF6
:1017C00001460CA805F0E4F918A805F08DF904A964
:1017D00018A81023082205F0C3FA10A918A800239E
:1017E000102205F0A3FA18A805F07EF904A918A89C
:1017F0000823002205F0B4FA14A918A80023102227
:1018000005F094FA18A805F06FF9002318A90CA8A0
:10181000102205F08BFA10A80222002108F08EFD9C
:1018200002220746002114A808F088FD022206467D
:10183000002118A808F082FD154B16499A792468F2
:101840000968187342F0010205201F725E721D6064
:101850009C72D8719A71D9720FCBFEF7DBFE0CA87F
:1018600005F042F908A805F03FF904A805F03CF995
:10187000684605F039F91DB0F0BD00BFA8D90000D9
:101880008493FF1F8233FF187493FF1F2487FF1F69
:101890004892FF1F3087FF1FF0B59DB068463B4957
:1018A0003B4C3C4D05F060F93B4B04A819681022F5
:1018B000FEF770FE394B0422196808A8FEF76AFE8D
:1018C000694618A805F064F908A918A805F002FAF5
:1018D00001460CA805F05CF918A805F005F904A963
:1018E00018A81023082205F03BFA10A918A8002315
:1018F000102205F01BFA18A805F0F6F804A918A89C
:101900000823002205F02CFA14A918A8002310229D
:1019100005F00CFA18A805F0E7F8002318A90CA8A0
:10192000102205F003FA10A80222002108F006FD9B
:1019300002220746002114A808F000FD02220646F4
:10194000002118A808F0FAFC154B16499A7924686A
:101950000968187342F0010205201F725E721D6053
:101960009C72D8719A71D9720FCBFEF753FE0CA8F6
:1019700005F0BAF808A805F0B7F804A805F0B4F81F
:10198000684605F0B1F81DB0F0BD00BFA8D9000051
:10199000BC92FF1F8234FF183887FF1F4C87FF1F40
:1019A0004892FF1F4087FF1F0E4B0F4899790F4A3F
:1019B000006870B40E4D0F4C2D6824681A6008261C
:1019C000FF2241F00101DE711D725C729872DA72C1
:1019D0001A735A739A73DA7399710FCB70BCFEF74E
:1019E00019BE00BF4892FF1F2C92FF1F8220FF18D4
:1019F000F893FF1FD092FF1FC74AC848C849C94B78
:101A000012681B682DE9F04F05680F68C648C74982
:101A100090F80080097849F6404412F10009A3F1DA
:101A20000F0318BF4FF00109A5F10105A742B5FA50
:101A300085F5D4BF00240124092BEBB04FEA5515DE
:101A400000F2C981BA4B1E68A6F10106B6FA86F605
:101A5000760912A80122FEF79DFD16A80122002199
:101A6000FEF798FD41461AA80122FEF793FD49466C
:101A70001EA80122FEF78EFD294622A80122FEF7AC
:101A800089FD26A801220021FEF784FD21462AA80F
:101A90000122FEF77FFD66AD012231462EA8FEF73A
:101AA00079FD2EA9284605F073F82AA9284605F0E5
:101AB00011F926A905F00EF922A905F00BF91EA9C6
:101AC00005F008F91AA905F005F916A905F002F9BB
:101AD00012A905F0FFF8014632A805F059F828468A
:101AE00005F002F8934B19688B1EA1F10108B8FAB2
:101AF00088F8012B4FEA581840F26F8149F64049A7
:101B00004F45D4BF4FF000094FF001098A4A8B4B73
:101B100017681E688A4C112003F0A4FD894B824689
:101B2000196836A80122FEF735FD874BA7F101079A
:101B300019783AA80122B7FA87F7A6F10106FEF74D
:101B400029FD7F0941463EA80122B6FA86F6FEF736
:101B500021FD7609394642A80122FEF71BFD3146D8
:101B600046A80122FEF716FD784B4AA819780122F3
:101B7000FEF710FD49464EA80122FEF70BFD1AF1B3
:101B8000000118BF0121012252A8FEF703FD52A94E
:101B9000284604F0FDFF4EA9284605F09BF84AA907
:101BA00005F098F846A905F095F842A905F092F8D5
:101BB0003EA905F08FF83AA905F08CF836A905F092
:101BC00089F8014656A804F0E3FF284604F08CFF8C
:101BD0005AA932A80023102205F0A8F856A85EA939
:101BE0000023102205F0A2F85AA80222002108F0D2
:101BF000A5FB5EAB0C9002221846002108F09EFB6C
:101C0000A3790D90524806226FF3000340F26A3127
:101C1000E271A3710068216006F06CFC62AE804640
:101C2000894630464B4904F09FFF04F1080A4A49AF
:101C3000284604F099FF9AE80300CDE902898DE86F
:101C400003000FF2CC09D9E90089069607954FF0F9
:101C5000170E94E80C000EAFCDE908894FF0100B79
:101C60004FF000084FF00009CDF810E0CDE90A89E7
:101C70003846CDF814B0394902F054FD97E80F000A
:101C800084E80F00284604F02FFF304604F02CFFB4
:101C9000334B186806F02EFC8046894630462D49A5
:101CA00004F062FF2C49284604F05EFF0022002366
:101CB0009AE80300CDE90A2315A3D3E900238DE8B0
:101CC0000300CDE90823CDE902894FF0270E0696DF
:101CD000CDF814B0079594E80C003846CDF810E024
:101CE0001E4902F01FFD97E80F0084E80F00284608
:101CF00004F0FAFE304604F0F7FE9DF8303023720F
:101D00009DF83430637294E80F00FEF783FC29E0FD
:101D1000000000A09999B93FA892FF1FC892FF1F29
:101D20007093FF1F4487FF1F9492FF1F9093FF1F24
:101D30007C93FF1F6493FF1F6893FF1F2892FF1F70
:101D40004892FF1FE493FF1F7C92FF1F4492FF1FE6
:101D50008093FF1FB0D9000018D90000C492FF1F64
:101D60005C93FF1F56A804F0BFFE52A804F0BCFE0F
:101D70004EA804F0B9FE4AA804F0B6FE46A804F046
:101D8000B3FE42A804F0B0FE3EA804F0ADFE3AA8AF
:101D900004F0AAFE36A804F0A7FE32A804F0A4FEC0
:101DA0002EA804F0A1FE2AA804F09EFE26A804F0A6
:101DB0009BFE22A804F098FE1EA804F095FE1AA827
:101DC00004F092FE16A804F08FFE12A804F08CFE18
:101DD0006BB0BDE8F08F00263BE64FF0010995E6B9
:101DE00010B5A34C236884B0002B67D0012B6CD0B6
:101DF000022B71D0032B76D0042B7BD0052B00F067
:101E00008180062B00F08680072B00F08B80082B4A
:101E100000F09080092B00F095800A2B00F09A804A
:101E20000B2B00F09F800C2B00F0A4800D2B00F0FA
:101E3000A9800E2B00F0AE800F2B00F0B380102B8A
:101E400000F0B880112B00F0BD80122B00F0C28092
:101E5000132B00F0C780142B00F0CC80152B00F062
:101E6000D180162B00F0D680172B00F0DB80182BCA
:101E700000F0E080192B00F0E5801A2B00F0EA80DA
:101E80001B2B00F0EF8000217A4804F005FC7A4813
:101E900004F058FD6846794904F066FE68467849C2
:101EA00004F018FF0146744804F026FD724804F05F
:101EB00049FD684604F018FE04B010BD7149704831
:101EC00004F0C6FE2368012B92D16F496C4804F0E0
:101ED000BFFE2368022B8DD16C49694804F0B8FE1F
:101EE0002368032B88D16A49654804F0B1FE236852
:101EF000042B83D16749624804F0AAFE2368052BAE
:101F00007FF47FAF64495E4804F0A2FE2368062B8D
:101F10007FF47AAF61495A4804F09AFE2368072B90
:101F20007FF475AF5E49564804F092FE2368082B93
:101F30007FF470AF5B49524804F08AFE2368092B96
:101F40007FF46BAF58494E4804F082FE23680A2B99
:101F50007FF466AF55494A4804F07AFE23680B2B9C
:101F60007FF461AF5249464804F072FE23680C2B9F
:101F70007FF45CAF4F49424804F06AFE23680D2BA2
:101F80007FF457AF4C493E4804F062FE23680E2BA5
:101F90007FF452AF49493A4804F05AFE23680F2BA8
:101FA0007FF44DAF4649364804F052FE2368102BAB
:101FB0007FF448AF4349324804F04AFE2368112BAE
:101FC0007FF443AF40492E4804F042FE2368122BB1
:101FD0007FF43EAF3D492A4804F03AFE2368132BB4
:101FE0007FF439AF3A49264804F032FE2368142BB7
:101FF0007FF434AF3749224804F02AFE2368152BBA
:102000007FF42FAF34491E4804F022FE2368162BBC
:102010007FF42AAF31491A4804F01AFE2368172BBF
:102020007FF425AF2E49164804F012FE2368182BC2
:102030007FF420AF2B49124804F00AFE2368192BC5
:102040007FF41BAF28490E4804F002FE23681A2BC8
:102050007FF416AF25490A4804F0FAFD23681B2BCC
:102060007FF411AF2249064804F0F2FD0BE700BFF0
:102070007C93FF1F70E200009C87FF1F90DB000035
:102080005C92FF1FB4D90000BCD90000C8D9000081
:10209000D0D90000DCD90000F4D9000004DA000037
:1020A0001CDA00002CDA000040DA000050DA0000F0
:1020B00068DA000080DA000094DA0000A4DA000098
:1020C000B4DA0000D0DA0000DCDA0000E8DA000060
:1020D000F8DA000008DB000018DB000028DB000055
:1020E0003CDB000048DB000064DB000070DB00002C
:1020F00080DB000010B500216A486B4C04F0CCFA7C
:102100006A4804F01FFC236833B3012B2ED0022B46
:1021100036D0032B3ED0664C2368002B45D0012BD4
:102120004DD0022B55D0032B5DD0042B65D0052B51
:102130006DD0062B75D0072B7DD05E4C2368002B0D
:1021400000F08580012B00F08D80022B00F095803F
:10215000032B00F09D8010BD2221574804F09CFA0B
:10216000524804F0EFFB2368012BD0D11E215348C5
:1021700004F092FA4D4804F0E5FB2368022BC8D125
:102180001A214F4804F088FA484804F0DBFB236822
:10219000032BC0D118214B48454C04F07DFA43482D
:1021A00004F0D0FB2368002BB9D11C21464804F071
:1021B00073FA3E4804F0C6FB2368012BB1D11A2103
:1021C000424804F069FA394804F0BCFB2368022B4A
:1021D000A9D11A213E4804F05FFA344804F0B2FB5A
:1021E0002368032BA1D11D213A4804F055FA2F484A
:1021F00004F0A8FB2368042B99D11D21364804F074
:102200004BFA2A4804F09EFB2368052B91D11D212F
:10221000324804F041FA254804F094FB2368062B69
:1022200089D119212E4804F037FA204804F08AFB9E
:102230002368072B81D117212A481E4C04F02CFA61
:102240001A4804F07FFB2368002B7FF47BAF262124
:10225000254804F021FA154804F074FB2368012B8B
:102260007FF473AF2221214804F016FA0F4804F0DE
:1022700069FB2368022B7FF46BAF1E211C4804F01E
:102280000BFA0A4804F05EFB2368032B7FF463AF6C
:102290001C21184804F000FA0448BDE8104004F07E
:1022A00051BB00BF70E200006493FF1F9C87FF1FBB
:1022B0006893FF1F0094FF1FA8DB0000CCDB000029
:1022C000ECDB000008DC000024DC000044DC000043
:1022D00060DC00007CDC00009CDC0000BCDC00005A
:1022E000DCDC0000F8DC000010DD000038DD000060
:1022F0005CDD00007CDD000010B500217B487C4CDB
:1023000004F0CAF97B4804F01DFB17217A4804F059
:10231000C3F97A4B7748196804F064FB02217848C6
:1023200004F0BAF9734804F00DFB2368002B37D092
:10233000012B3FD0022B47D0032B4FD0042B57D07B
:10234000052B5FD0062B67D0072B6FD06D4C236811
:10235000002B76D0012B7ED0022B00F08780032B40
:1023600000F08F80042B00F09780052B00F09F80F9
:10237000062B00F0A780072B00F0AF801A216248DF
:1023800004F08AF9614B5B48196804F02BFB0121CA
:102390005F4804F081F95748BDE8104004F0D2BA14
:1023A0001D215C4804F078F9524804F0CBFA236808
:1023B000012BBFD11E21584804F06EF94D4804F09E
:1023C000C1FA2368022BB7D11E21544804F064F9E6
:1023D000484804F0B7FA2368032BAFD11D215048B9
:1023E00004F05AF9434804F0ADFA2368042BA7D14E
:1023F0001D214C4804F050F93E4804F0A3FA23682C
:10240000052B9FD11D21484804F046F9394804F0B6
:1024100099FA2368062B97D11D21444804F03CF912
:10242000344804F08FFA2368072B8FD116214048D7
:10243000344C04F031F92F4804F084FA2368002B5F
:1024400088D11B213B4804F027F92A4804F07AFA86
:102450002368012B80D11B21374804F01DF9254842
:1024600004F070FA2368022B7FF479AF24213348FB
:1024700004F012F91F4804F065FA2368032B7FF477
:1024800071AF1B212E4804F007F91A4804F05AFADC
:102490002368042B7FF469AF1B212A4804F0FCF861
:1024A000144804F04FFA2368052B7FF461AF1B2119
:1024B000254804F0F1F80F4804F044FA2368062B8D
:1024C0007FF459AF1721214804F0E6F8094804F0D9
:1024D00039FA2368072B7FF451AF15211C4804F00B
:1024E000DBF8044804F02EFA48E700BF70E2000071
:1024F000D093FF1F9C87FF1F9CDD0000E093FF1F10
:10250000B4DD00003892FF1F94DF00006093FF1FCE
:1025100090DF0000B8DD0000D8DD0000F8DD00002D
:1025200018DE000038DE000058DE000078DE000013
:1025300098DE0000B0DE0000CCDE0000E8DE000027
:1025400010DF00002CDF000048DF000064DF000027
:102550007CDF000010B500213448354C04F09CF8B5
:10256000344804F0EFF923687BB1012B17D0022B1C
:102570001FD0032B27D0304C23687BB3012B37D0DF
:10258000022B3FD0032B47D010BD17212B4804F05E
:1025900083F8284804F0D6F92368012BE7D11821E5
:1025A000274804F079F8234804F0CCF92368022B7B
:1025B000DFD11C21234804F06FF81E4804F0C2F953
:1025C0002368032BD7D116211F481B4C04F064F855
:1025D000184804F0B7F92368002BCFD12B211B48F2
:1025E00004F05AF8134804F0ADF92368012BC7D161
:1025F0002721174804F050F80E4804F0A3F9236887
:10260000022BBFD12621134804F046F8094804F0F4
:1026100099F92368032BB7D121210F4804F03CF826
:102620000448BDE8104004F08DB900BF70E200001E
:102630002892FF1F9C87FF1FCC93FF1FB0DF000075
:10264000C8DF0000E4DF000004E000001CE0000040
:1026500048E0000070E0000098E0000070B5002144
:102660005448554D04F018F8544804F06BF9002113
:10267000504804F011F8514804F064F91D21504805
:1026800004F00AF84D4804F05DF90021494804F0CF
:1026900003F84A4804F056F91C214A4803F0FCFFAD
:1026A0002C68012C4DD064B31C21474803F0F4FF83
:1026B000464B4248196804F095F9454B1B68012BBD
:1026C00005D0444C2368052B53D0062B57D000214E
:1026D0003848414D03F0E0FF384804F033F91C213D
:1026E0003E4803F0D9FF2C68012C12D004B170BD14
:1026F00003213B4803F0D0FF3048BDE8704004F0B0
:1027000021B90321364803F0C7FF2C4804F01AF919
:10271000CAE7344B2948196804F064F9324B1B6846
:10272000012B05D0314E3368032B2DD0042B3CD028
:102730000021204803F0B0FF204804F003F92C6882
:10274000D4E72B4B1D48196804F04CF9294B1B6842
:10275000012B05D0284E3368052B20D0062B19D02D
:102760000021144803F098FF144804F0EBF82C689B
:1027700099E70121214803F08FFF2368A5E7022193
:102780001F4803F089FFA2E721461E4803F084FF9B
:102790003368CBE702211A4803F07EFFE0E72146C9
:1027A000164803F079FF3368D8E70221164803F092
:1027B00073FFBDE770E20000C093FF1F9C87FF1FFF
:1027C000BCE00000DCE0000004E100008092FF1F9C
:1027D0004092FF1F8C93FF1F8893FF1F24E100008E
:1027E0000CDD00003492FF1FE893FF1FF493FF1FDE
:1027F0008C92FF1F8492FF1FDC93FF1FFCE0000000
:1028000000E1000090DF000044E1000010B52E213F
:10281000BB48BC4C03F040FFBB4804F093F82421B4
:10282000BA4803F039FFB84804F08CF80021B848E2
:1028300003F032FFB44804F085F81021B54803F0E6
:102840002BFFB14804F07EF80C21B34803F024FFBD
:102850002368002B00F0B881012B00F0C081AF4C41
:10286000AF480D2103F018FF2368002B00F0DE8134
:10287000012B00F0E681AB4CAB48132103F00CFFB9
:102880002368002B00F0BF81012B00F0C7811321CA
:10289000A648A74C03F000FFA64B9B48196804F01C
:1028A000A1F80121A44803F0F7FE974804F04AF884
:1028B0001721A24803F0F0FEA14B9348196804F0D9
:1028C00091F801219F4803F0E7FE8F4804F03AF8A1
:1028D00017219D4803F0E0FE9C4B8B48196804F0DB
:1028E00081F801219A4803F0D7FE874804F02AF8BE
:1028F0001821984803F0D0FE974B8348196804F0DC
:1029000071F80121924803F0C7FE7F4804F01AF8DD
:102910001821924803F0C0FE914B7B48196804F0DF
:1029200061F80121874803F0B7FE774804F00AF800
:102930000021774803F0B0FE734804F003F80F213C
:10294000884803F0A9FE704803F0FCFF1221864876
:1029500003F0A2FE854B6C48196804F043F801218E
:10296000834803F099FE684803F0ECFF1821814882
:1029700003F092FE804B6448196804F033F801219B
:102980007B4803F089FE604803F0DCFF00216048CB
:1029900003F082FE5C4803F0D5FF00215C4803F0A1
:1029A0007BFE594803F0CEFF1521744803F074FEF6
:1029B000554803F0C7FF0D21714803F06DFE714BC0
:1029C0005148197804F00EF80021514803F064FED4
:1029D0004D4803F0B7FF12216B4803F05DFE6B4BCF
:1029E0004948197803F0FEFF0021494803F054FEDE
:1029F000454803F0A7FF0E21654803F04DFE654BE7
:102A00004148197803F0EEFF0021414803F044FEED
:102A10003D4803F097FF00213D4803F03DFE3A4852
:102A200003F090FF2378002B40F0E18020215A48EA
:102A300003F032FE344803F085FF0021344803F0F0
:102A40002BFE314803F07EFF1721544803F024FE8B
:102A5000534B2D48196803F0C5FF2B4803F072FF54
:102A60001321504803F018FE4F4B2748196803F014
:102A7000B9FF254803F066FF1A214C4803F00CFE0D
:102A80004B4B2148196803F0ADFF0321494803F07F
:102A900003FE1D4803F056FF2321474803F0FCFDC9
:102AA000464B1948196803F09DFF0121284803F09F
:102AB000F3FD154803F046FF1B21414803F0ECFDF0
:102AC000404B1148196803F08DFF0121204803F0A5
:102AD000E3FD0D4803F036FFFFF782F9FFF70AFB2D
:102AE000FFF70AFCFFF736FDFFF7B8FD2E2104487B
:102AF00003F0D2FD0448BDE8104003F023BF00BF3F
:102B000048E10000A892FF1F9C87FF1F78E10000AA
:102B100070E20000A0E10000B4E100001C92FF1F81
:102B2000C8E10000C892FF1FE0E10000F4E10000EE
:102B30007C92FF1FD493FF1F08E200000CE200000C
:102B4000A893FF1FFCE0000024E20000D892FF1FC2
:102B500090DF00003CE20000FC93FF1F58E2000001
:102B6000B893FF1F74E2000084E200008093FF1F0F
:102B700098E200009CE200005C93FF1FB8E20000B6
:102B8000D0E200004492FF1FE0E200009093FF1F9C
:102B9000F4E200000494FF1F04E300004CE3000093
:102BA0004487FF1F64E300009893FF1F78E3000051
:102BB0007093FF1F94E3000098E30000C493FF1F8D
:102BC000BCE300003887FF1F0221224803F064FDA8
:102BD000214803F0B7FE2368012B7FF440AE0521A6
:102BE0001E4803F059FD1C4803F0ACFE37E62021D7
:102BF0001B4803F051FD184803F0A4FE2378002B76
:102C00007FF41BAF12E70221164803F045FD12487E
:102C100003F098FE2368012B7FF439AE032112489C
:102C200003F03AFD0C4803F08DFE30E602210D481A
:102C300003F032FD084803F085FE2368012B7FF482
:102C40001AAE0321084803F027FD034803F07AFE7B
:102C500011E600BFC4E100009C87FF1FF0DC00000C
:102C600028E30000D8E10000DCE1000008B54FF4E3
:102C7000967002F00BFD00210B2002F0EDFC00210C
:102C80000C2002F0E9FC0021162002F0E5FC0021F6
:102C9000172002F0E1FC0021052002F0DDFC024BD0
:102CA00000221A7008BD00BF4492FF1F38B5234AA6
:102CB000234B11681B68994218DDCB1A214C2278EE
:102CC0004AB921480268182B02F10102026018DD9E
:102CD000132A04DC38BD1C4B1A68132AFADD1B4B7F
:102CE00001221A70BDE83840FFF7C0BF01DA5B1A55
:102CF000E4E7144C2378002BEDD1134B1A68013212
:102D00001A60312AEBDC124B1D78002DE0D1C82966
:102D1000DEDD642002F0BAFC0121172002F09CFCE9
:102D2000C82002F0B3FC29460B2002F095FC0123D9
:102D300023700A20BDE8384002F0A8BCA893FF1F0A
:102D40008093FF1F4492FF1FC092FF1F9093FF1FAD
:102D50009492FF1F08B5102002F084FC012804BFE4
:102D6000054B1870102002F07DFC20B9024A034B7D
:102D7000107001221A7008BD0494FF1F9492FF1F67
:102D8000F0B5642085B0B34D02F080FC05F110066B
:102D90002F462C46601B02F085FB04F8010BA6426F
:102DA000F8D13B78142B01D0FDF7D2FB0024234649
:102DB0007968A94A0094A94801F088F89DF80C3078
:102DC000029443F0010364F341038DF80C300424B2
:102DD000E2B202A90134A14801F03EF8102CF7D16B
:102DE000082001F0E5FB9E4B1860082001F0E0FB95
:102DF0009C4B0C2118609C4803F04EFC9B4803F050
:102E0000A1FD18219A4803F047FC984803F09AFD69
:102E10001421964803F022FE944803F093FD1721F5
:102E2000944803F039FC914803F08CFD924B1B78D9
:102E30009A0600F10381904B1B781B0700F1F68086
:102E40008D4B1B785F0700F1E9808B4B1B789E0749
:102E500000F1D080894B1B781D0600F1D780874B8D
:102E60001B785C0600F1BE80844B1B78980600F14D
:102E7000B180824B1B78590700F1A4807F4B1B78EF
:102E80001A0700F197807D4B1B789B0700F18A8021
:102E9000764803F057FD72B6794A4CF220504DF651
:102EA0002811108020231180013BFDD175487649FF
:102EB000764B00244FF4805505800C801C8032F83E
:102EC0000E3C9BB243F0D30322F80E3C2146102067
:102ED00002F0D6FB2146112002F0D2FB214612203F
:102EE00002F0CEFB2146132002F0CAFB01210B2089
:102EF00002F0C6FB01210C2002F0C2FB01211420CC
:102F000002F0BEFB0121152002F0BAFB01211620C0
:102F100002F0B6FB0121172002F0B2FB01210520CF
:102F200002F0AEFB21460B2002F096FB21460C205E
:102F300002F092FB2146162002F08EFB214617205C
:102F400002F08AFB2146052002F086FB01211420B5
:102F500002F082FB642002F099FBFFF7FBFE0121E7
:102F60000D2002F08DFB01210D2002F075FB0C20DD
:102F700002F09EF9464B1B7883B1464B1B78002B21
:102F800064D0642002F082FB0F21434803F084FBED
:102F9000364803F0D7FC62B605B0F0BD3F4B0122C6
:102FA0001A70EEE718213E4803F076FB2F4803F035
:102FB000C9FC6DE719213B4803F06EFB2B4803F079
:102FC000C1FC60E71C21384803F066FB274803F08A
:102FD000B9FC53E71321354803F05EFB234803F0A7
:102FE000B1FC46E71221324803F056FB1F4803F0BC
:102FF000A9FC39E717212F4803F04EFB1B4803F0CB
:10300000A1FC1E4B1B781D067FF529AF0E212A4817
:1030100003F042FB154803F095FC20E70E212748FA
:1030200003F03AFB114803F08DFC0EE70C21244815
:1030300003F032FB0D4803F085FC01E72121214814
:1030400003F02AFB094803F07DFCF4E6FDF70EFAD5
:1030500097E700BF6C92FF1FA495FF1F0894FF1F06
:103060002492FF1FD893FF1FD8E300009C87FF1F07
:10307000E8E3000004E4000001F0074000F007402E
:103080000E2005400420054006200540162005407E
:103090000494FF1F9492FF1F08E500009093FF1F08
:1030A000ECE40000D0E40000B0E400009CE4000088
:1030B00088E4000060E4000078E4000050E40000D0
:1030C00040E400001CE400002DE9F843122002F067
:1030D00023F9384C384F2060132002F01DF9226884
:1030E000364BDFF8FC80186007FB02F2814688FB54
:1030F00002301044D217C2EBE02005F0F3FD304956
:10310000304E314D05F0F6FE05F090FF07FB09F358
:10311000044688FB03202D4A2D4F14601844DB170A
:10312000C3EBE02005F0DEFD254905F0E3FE05F0E8
:103130007DFF40F27B11A4F56153264C386001FB02
:1031400003F3A0F5615201FB02F284FB03E1194491
:1031500084FB02E4DB171444C3EBE123D217C2EB78
:10316000E422092B33602A6006DC0023092A33603D
:103170000FDC2B60BDE8F883092A14DC0022C82B81
:103180002A6015DD144A1846116801F033FA2A68DE
:103190003060C82AEEDD114B1046196801F02AFA9A
:1031A0002860BDE8F883C82BECDCC82AF3DCE1E733
:1031B000BDE8F8839C93FF1F10090500CC92FF1F08
:1031C0009A9901418093FF1F5C93FF1F9493FF1F07
:1031D000A492FF1F4B5998912492FF1FD893FF1F71
:1031E000810008802DE9F04F8BB001E0FDF72CFE47
:1031F000A24800F025FF0028F8D103F023FA0028A8
:1032000007DD9F4803F05AFC431EC72B9CBF9D4B14
:1032100018609D4C9D4A23680393039B11685B1AB9
:10322000FA2B1CD9236805930598994923680493C0
:10323000049B096810605B1AC82B02D9954B0122C8
:103240001A60954B1B78002B40F08481934D2B78AE
:10325000002B40F086810021152002F0FDF9236843
:103260008F4A0693069B116887485B1A642B22D805
:1032700023688C4A0893089B116883485B1AB3F54E
:10328000FA7F02D80BB0BDE8F08F03680993099B61
:10329000136072B6844B4AF202614BF2804219808D
:1032A0001A8062B6FEF7A8FB804B1B68012BE9D1A0
:1032B000FFF7ACFAE6E703680793DFF85482079B51
:1032C0001360FEF7C3F8FDF7D9FEFDF7FDFFFEF72B
:1032D00047F9FEF7CFF9FEF757FAFEF7DDFAFEF7EA
:1032E00063FBFFF7F1FEFFF735FD98F800304BB1B7
:1032F0006F4B1B683B2B40F30A836E4A002313601D
:1033000088F80030DFF88CB1DBF80030012B00F0DA
:103310000581694B1B68012B00F00081674B1B780E
:10332000002B40F0FB80DFF874A1654D9AF8003067
:1033300023B1594B1B78002B00F0DB822B68012B4B
:1033400000F02281022B40F00B835E4A5E4B116835
:103350005E4E5F4FDFF8BC911A683B294FF00103C6
:1033600033603B60C9F8003028DC5A4B1B68C82B1F
:1033700024DDDFF88481D8F80030012B1ED1564BB4
:103380001B68012B1AD1554B1B68012B16D1AAB90A
:10339000DFF884B1DBF80030022B0FD1504B1968F5
:1033A00042F23413994209DD4E4B1B68022B05D1C2
:1033B0004D4B1B68012B04BF4C490B604C4B1B68E9
:1033C000002B40F03D814B4B01211970022A00F087
:1033D0000F832B68042B00F06281052B00F0CA825A
:1033E000062B00F08081072B00F09283082B00F061
:1033F0004082092B00F0AF820F2B00F03B81102B95
:1034000000F08B83112B00F08981122B00F02C81AE
:10341000142B00F01E81152B00F02282162B00F0D9
:10342000DF81172B00F04582182B40F08B80324B48
:103430001B68172B04D02C4A1268012A40F09C808C
:1034400019232B60204B2D481A682D490123036056
:103450000B6012B9254B0A601A602A4B1B7823B9FE
:1034600029492A4A0120086013601B4B1B68002B66
:103470007FF4FEAE01232B60FAE600BF0894FF1F25
:103480009C87FF1F3887FF1FBC95FF1FB093FF1F4E
:10349000AC93FF1FA892FF1F0494FF1F4492FF1FCD
:1034A000B493FF1F9092FF1F0C2005402887FF1F39
:1034B000A092FF1FD492FF1FC892FF1F9093FF1F7F
:1034C0004487FF1F5C93FF1F6893FF1FF893FF1F44
:1034D000D092FF1FA493FF1F6493FF1F0094FF1F50
:1034E000E093FF1F2892FF1FCC93FF1FC893FF1F7D
:1034F0003892FF1F7C92FF1F7C93FF1F3C87FF1FAA
:103500005892FF1F7D92FF1F2092FF1F9893FF1F6D
:10351000EC93FF1F2C92FF1FD093FF1FDFF844A2F4
:103520008D4E8E4FDFF89C928D4D9AF8002001232E
:10353000336000233B60C9F8003019232B60002A58
:103540007FF4F7AEA3F10F02092A13D9192B7FF4E8
:103550008FAE77E7834DFFF7A9FB2B78002B3FF465
:103560007AAE0121152002F077F82B78002B7FF43A
:1035700076AE70E67C4B1B68012B00F0DB812B687C
:10358000192B7FF475AE5DE7DBF80020002AD9D156
:10359000764A1268002AD5D198F800203AB96E4EC2
:1035A0006E4FDFF8209233603B60C9F800307048FE
:1035B0007049714A714E724F0023036071480B606D
:1035C00013607149714A33600360012611203B701A
:1035D0000E60166002F046F818B16D4B1A7802B909
:1035E0001E70112002F03EF80246C0B968490B78FF
:1035F000ABB1684E684F33680870013319466748AD
:1036000033603A6003F0EEF91721654803F044F89F
:10361000624803F097F933680A2B00F01682614B79
:103620001B683B2B0ADC604B1A68C82A06DDDFF8F2
:103630003881D8F80020012A00F032822B6881E618
:10364000012B7FF4C3AE594B00211970BEE6142341
:103650002B60DFF81481D8F80030122B00F0BC8109
:103660002B68DBE612232B60514B1B68012BEED03D
:103670002B68D0E6DFF8F08010232B60D8F80030FC
:103680004C4E4D484D4901220327102B37600260F4
:103690000A6000F0B0812B68B7E604232B60434B2F
:1036A0002D4E1A782D4FDFF81C9100230121336035
:1036B0003B60C9F80010002A40F02C812B4B1B689E
:1036C0000BB92C4B1960DFF814B1DBF80030032B79
:1036D00000F0A181DFF89080D8F800300E2B00F0C8
:1036E00026812B687CE61C4E1C4FDFF8D890072300
:1036F0002B60334B214A19681D48002313600229AF
:103700004FF0010233603B600260C9F80020124FA5
:10371000124E2C4800F018812B686AE6DFF84880CA
:10372000D8F80030114A126892B92749274A096827
:10373000126891420CDD2649264A096812689142B6
:1037400006DA0C4A01211160112B8BD02B685FE641
:10375000214A01211160F7E7F893FF1FD092FF1F64
:103760004487FF1F4492FF1F7C93FF1FC892FF1FD7
:103770005892FF1F9893FF1F3092FF1FC893FF1F9F
:103780007D92FF1F2092FF1F3887FF1F3C87FF1F7E
:10379000BC93FF1FD492FF1FA092FF1F9C87FF1FA7
:1037A00018E500005C93FF1FA493FF1F7C92FF1F8E
:1037B0002892FF1FA093FF1F2C87FF1F4887FF1F22
:1037C0006893FF1F2C92FF1FA893FF1F8092FF1F7B
:1037D000B893FF1F8C92FF1FE493FF1FD093FF1F2E
:1037E000DFF89C829B4B9C4E1B68DFF898929B4FA6
:1037F0009B49DFF8A8A200223260C9F80020C82B3C
:103800004FF001023A606FDCC72B0B60DAF8002042
:103810006CDC9342B4BF0A680A6092490B68934219
:10382000BCBF01330B609A42B8BF03F1FF334FF0C6
:103830001100B8BF0B6001F015FF10B9DAF80030C5
:103840003BB9894889498A4A012303600B700023E8
:103850001360D8F80030122B00F0C1802B68E0E52F
:10386000DFF81C82D8F80030142BF7D116232B6018
:10387000B8E7804B784E1A68784FDFF8089200233B
:10388000012133603B60C9F80010002A61D109238F
:103890002B60794B19680022012332603A60C9F825
:1038A000003021B9754A12680AB92B604AE62B68C4
:1038B000A5E5734B684F1B68684E724900220120D2
:1038C000162B3A60326008600BD06F4A1268022AE9
:1038D00007D06E4A116842F23412914201DC2B6823
:1038E00030E618222A60A4E5DAF80020C820086033
:1038F0008FE7594E594FDFF88C910193FFF7B6F9D6
:10390000019B3B6001223260C9F8003016E5FCF7EC
:10391000BFFDF7E4DFF870B1DBF80030032B6DD0AA
:10392000DFF85C81D8F80030022B7FF4D7AE0F238C
:103930002B60A1E6484A49485249136000231922E6
:1039400003600B602A607DE508213B603360026004
:1039500029602B6850E5404E404FDFF8289198E7EA
:10396000032B7FF437AD434B1B68012B3FF495AE1F
:103970002B6832E5384E394FDFF80891DFF808B18F
:103980004349444A444B4FF000084FF0010A1120CC
:10399000C1F80080C6F80080C9F80080C2F800A015
:1039A000C7F800A0C3F800A001F05CFE28B12E4AC1
:1039B0002F4BC2F800A0C3F80080DBF80030012BC9
:1039C00031D0022B7FF48DAE304B1A6842F23413A3
:1039D0009A423FF78CAE84E615232B603EE7172111
:1039E00000222960012132603A60C9F800106CE7BA
:1039F00003232B60BCE711222A6093E6234B19684E
:103A000041F6631399428BDC194B1B68012B10D0D4
:103A1000002A85D15EE61D4B196841F66313994271
:103A20003FF758AEF0E71049114A0B6000231360CE
:103A30005DE6002A7FF474AFDFF84480D8F80030E8
:103A400005220E2B2A609BD171E7012388F80030F4
:103A5000E5E500BF3492FF1FF893FF1FD092FF1FD0
:103A6000C493FF1F3887FF1F2092FF1F7D92FF1F07
:103A70009893FF1F6893FF1F6493FF1F0094FF1F1D
:103A80007C93FF1F2C92FF1FD093FF1FE093FF1F1B
:103A9000A093FF1F2C87FF1F4887FF1FFC93FF1F6A
:103AA0001F4A1268012A7FF4C9AD1E4A1268012A12
:103AB0007FF4C4AD1C4A1268002A7FF4BFADDFF862
:103AC00080B0DBF8001002297FF4B8AD1749086810
:103AD00042F2341188427FF7B1AD154909680229D5
:103AE0007FF4ACAD1349096801297FF4A7AD9AF8BA
:103AF000001000293FF4A2AD0F4E104FDFF84490A4
:103B00000121022031603960C9F8001028602DE4DD
:103B1000094E0A4FDFF82C90EBE5DFF82C80ADE57D
:103B20006493FF1F0094FF1F6893FF1FE093FF1F24
:103B30002892FF1FCC93FF1FF893FF1FD092FF1F07
:103B4000D093FF1F2C92FF1F7C93FF1F10B5074CD3
:103B500001F060FC2046064903F006F82046054ABD
:103B60000549BDE8104004F06DBB00BF5C92FF1F2B
:103B700070E200002087FF1FE96A00000020704704
:103B8000704700BF30B40B46054603C905EBC204BD
:103B9000043484E80300197911F0010F296812D167
:103BA0001C6812481023843113FB0211A404204026
:103BB00008602968803113FB021230BC136823F4BB
:103BC00000131360704718688431102313FB02112F
:103BD00020F0604008602968803113FB021230BC7D
:103BE000136843F400131360704700BF0000FC1F0C
:103BF00070B4438882689BB202EB031304461E68CC
:103C00005D689A68DB68CB608A600E604D6063888F
:103C1000A18801209BB2034493FBF1F201FB123314
:103C20009BB2638070BC7047F8B5204C204A217964
:103C30000546034601F0FD0102202A606FF30001F2
:103C4000002285F894011D2720261020C5F8A02009
:103C5000C5F8F870A5F89661A5F898012171226061
:103C6000114643F8B02F05F1F00243F8041F9342C8
:103C70004FF00004F9D1C5F88440C5F88840C5F874
:103C80008C40C5F890409822214605F1FC0005F0D3
:103C9000BFFD1F220F2385F8FC40C5F80841C5F879
:103CA0000021C5F80C312846F8BD00BFA495FF1FC0
:103CB0000040024038B5D0F8A03003B138BD04460A
:103CC000B0F89801000103F077F8D4F8B020C4F8F8
:103CD000A000AAB10023B4F89851B4F89611A4F842
:103CE0009430C4F89C00A4F89630C4F8AC20A4F832
:103CF000A430A4F89850A4F8A810A4F8A63038BDB1
:103D0000B4F89601000103F057F8C4F8B000024679
:103D1000D4F8A000DEE700BFF8B52C4BB3FBF1F5FB
:103D2000052DB3FBF5F6A1EB06064BD900229E4606
:103D30001746931CB5FBF3F4192C02F1010203FBA7
:103D400004F3F6D8BEFBF3F3CB1A002BB8BF5B42EB
:103D5000B3422EDB2FD0052CEBD87B1CB5FBF3F543
:103D6000053D142D1CD8B6F5967F19DC184A00685D
:103D700005EB45055319515D5A789B7801F0070111
:103D800041F48001D20441F4804102F460121B042A
:103D90000A4303F4E023134343EA07674760F8BD8F
:103DA00039210C4802F078FC0B48BDE8F84002F0DD
:103DB000C9BD1E4617460B2CCDD9122C9CBF1E46E2
:103DC0001746C8E701230027C8E700BF0024F40016
:103DD0005087FF1F30E500009C87FF1F0F2930B47C
:103DE00004462DDC69BBD0F8A030012084F8940192
:103DF00023B3002210252368803315FB02330132E0
:103E0000196801F4001141F08061196094F894017F
:103E1000C0F11003D2B2DBB29342ECD80F2B0DD815
:103E200010204FF000612268803210FB0322013322
:103E3000DBB2102B1160F6D194F8940130BC7047BE
:103E40000F21D4F8A03084F894111BB11029D0D1DF
:103E50000023E5E70846F1E790F89431C3F1100339
:103E6000DBB29A4201D2FFF78DBE704790F89431D1
:103E7000C3F11003DBB29A4220D2036810B41C686D
:103E8000E4011CD41C6844F080441C60046823686E
:103E900043F08053236004682368DB01FCD504F5FC
:103EA000086404EB820211600268136823F08053F7
:103EB000136002681368DB01FCD410BC704703F583
:103EC000086303EB820210BC1160F7E72DE9F041B3
:103ED0000546164698460C469DF81870FFF7EAFE10
:103EE0002A68524B9A4200F08F80514A4F4913780A
:103EF00043F0800313702B688B427BD05A6822F406
:103F000000525A602A68136843F0804313602A689D
:103F1000136823F0004313602A681368DB02FCD4A3
:103F2000136883F0007313602B681A689701FCD440
:103F30001A68D001FCD51A6842F400321A60214692
:103F40002846FFF7E9FE2A68136843F480331360BC
:103F500095F89431102B18BF002404D11DE00134D2
:103F6000E4B29C4219D2224600212846FFF77EFF88
:103F700095F89431C3F11003DBB2A342EFD9224686
:103F800031462846FFF7FEFD95F894310134C3F120
:103F90001003DBB2E4B29C42E5D32A68136823F035
:103FA000805313602B681A68D101FCD41A6812017F
:103FB000FCD495F894112846FFF710FFD5F8F83097
:103FC00003F1604303F5644340221A70D5F8F820EA
:103FD00053099B0003F1604303F5614302F01F02A4
:103FE000012101FA02F21A602B684FF6FF729A6201
:103FF000BDE8F081A2F5E732A2F5E272136843F062
:10400000100313602B6879E7B8F1010F06BF03F5C1
:1040100018334833074B4FF40072012F1A600CBF5E
:10402000054B064B4FF400721A605EE700400240F9
:1040300000500640309004404CA0044034900440AE
:10404000D0F8F83030B45C09A10001F1604101F50D
:10405000614101220968144D03F01F0302FA03F3C2
:10406000194008BF002280F8F42045F82430B0F849
:10407000A430B0F8A6209BB292B29B1A44BFB0F80D
:10408000A8209B1869B1D0F8F8104A09920002F1F3
:10409000604202F5614201F01F01012000FA01F1C6
:1040A0001160184630BC704780E100E0F8B5044666
:1040B000D0F8F8001A4F4609B30003F1604303F546
:1040C000614301221D6800F01F0002FA00F31D4247
:1040D00014BF1546002584F8F45047F82630B4F88C
:1040E000A420B4F8A63092B29BB29A4216D004F142
:1040F000A400FFF77DFD94F8F45075B1D4F8F820D2
:1041000053099B0003F1604303F56143012102F071
:104110001F0201FA02F21A60F8BDF8BD0020ECE7B8
:1041200080E100E070B48B7913F0010F036828D0B0
:104130000C681025843315FB023324F0604412FB15
:1041400005F21C6003688C68883324BA9C500368AD
:10415000CC688C3324BA9C508B79DC071DD513F0C6
:10416000020FCB7901684FEA034303F4702301F196
:10417000800114BF43F0476343F046638B5070BC2B
:1041800070470D680E4C1026843316FB0233AD04C5
:104190002C4012FB06F21C60D4E713F0020FCB791F
:1041A00001684FEA034303F4702301F1800114BF57
:1041B00043F0416343F040638B5070BC704700BFD5
:1041C0000000FC1F0368F0B58033102717FB023393
:1041D0008C791D688D80C5F34056C5F30343C5F344
:1041E000005E66F30004CB7106686EF3410404F0D0
:1041F000FB046FF3C70417FB02668C7191F806E0AD
:10420000D6F884401EF0010F24F060440C60C5F322
:10421000036504BFA40C0C60062D25D0D6F8884099
:10422000CC72260A250C042B4FEA14648E724D7250
:104230000C7210D900688C3017FB0202072B126831
:10424000CA734FEA12244FEA12404FEA12628C738B
:1042500048730A7307D807330B4400220F3103F861
:10426000012F8B42FBD1F0BD8C7944F004048C719A
:10427000D4E700BF0B884888F0B59BB28D88013326
:1042800093FBF5F405FB14339BB280B2834213D049
:104290000888D2F800C0D2F804E09768D6688D6824
:1042A00082B21201AC1845F802C0C4F804E0A7605D
:1042B000E66001200B80F0BD0020F0BDF8B504469B
:1042C000D0F8F8002B4E4509AB0003F1604303F52D
:1042D000614301221F6800F01F0002FA00F31F4231
:1042E00008BF002284F8F42046F82530B4F8943052
:1042F000B4F896209BB292B29A4218D00A46204651
:1043000004F19401FFF7B6FF94F8F43073B1D4F8D8
:10431000F82053099B0003F1604303F56143012139
:1043200002F01F0201FA02F21A60F8BDF8BD94F81B
:104330009421C2F11002D2B20F2ADFD802F12D056A
:1043400004EB8505130104E00132102A03F1100388
:10435000D4D055F8040B0028F6D120688030C0581E
:10436000C0F303600828EFD12046D2B2FFF7DAFE8F
:104370000120C9E780E100E02DE9F04F026889B033
:10438000136B03938346054600F1B40A0024994653
:1043900008E0022B3AD00134102C05F108050AF18F
:1043A000040A2ED029FA04F3D907F4D5270102F123
:1043B0008003DB59C3F30363062B27D0082BE8D116
:1043C000DAF8000008B90BF194000188438889B23B
:1043D0009BB2994200F09D800188438889B29BB2CC
:1043E0009942D8D004A9FFF703FC002840F0B2801E
:1043F000DBF800200134102C05F108050AF1040A4D
:10440000D0D1039B136309B0BDE8F08F04A9E2B2D9
:104410005846FFF7D7FE9BF8FC306BB1D5F8143146
:104420009DF8162001335207C5F8143104D5D5F88C
:1044300018310133C5F81831002201238DE88400BA
:10444000A34002950BF180060BF190081D4656F82B
:10445000040F28B1426812EA05032BD1002A3FDB82
:10446000B045F4D1009B019F029D002B3FD09BF8EB
:10447000FC3083B1BBF8A430BBF8A6109AB28BB263
:10448000D31A44BFBBF8A8209B18DBF804219A423A
:1044900038BFCBF804310BEBC4031B7ADB0714D510
:1044A000DBF800306A68843322F06042DA51DBF8CE
:1044B000002070E703681F682D4B9F4245D1002004
:1044C000009B1843C3B20093CAE76968DBF8003069
:1044D000284A890484330A40DA51DBF800205AE77D
:1044E00002681768224A97423CD11846E8E704AAB6
:1044F0000BF1A4015846FFF7BDFE0028B7D19BF889
:10450000FC30002BC7D0DBF808310133CBF8083181
:10451000B0E70127A74047F000470BF180060BF1F9
:10452000900856F8040F10B143681F4204D1B045FB
:10453000F7D1DBF800205DE703680F4A5B68934220
:10454000F5D0002221469847F1E70023224604A92E
:10455000B847B5E7E2B204A95846FFF7E3FDDBF838
:10456000002018E74FF0FF3204A9B847A8E700BFC2
:104570007D3B00000000FC1F813B00000148FFF76D
:10458000FBBE00BF0894FF1F704700BF014B1B68B4
:104590001B6A70470894FF1F704700BF704700BF39
:1045A000704700BF00210148FFF73EBB0894FF1F82
:1045B00010F001030BD110F0060F06D101070AD449
:1045C000C20604D483060ED47047184670470221F1
:1045D000052004F051BD064A13880221233305202B
:1045E000138004F049BD0221072004F045BD00BF3F
:1045F000AE95FF1F70B50F4E3368DB0704460ED52E
:104600000D4D2B880D4A04EB840464005A2000FBF6
:104610000340A2FB00304009288080B270BD3046C4
:1046200000F0A0FF044D0028EBD030462C8000F0B5
:104630009FFFE6E7B095FF1FAC95FF1F1F85EB516D
:1046400070B515468CB006460021684602F08CFA1B
:10465000AC68002C1ADD694608A802F099FA2246D7
:10466000013C2346294604A802F07AFB04A908A8C5
:1046700002F030FB0146684602F0DAFA04A802F0C4
:1046800033FA08A802F030FA002CE4D1694630462B
:1046900002F018FA684602F027FA30460CB070BDF6
:1046A000F0B50746114689B002221C4602F08EFA88
:1046B000BE68B4422CD0A61B6846184902F054FAD2
:1046C000002E28DD012504AC6946204602F060FA80
:1046D0001349204602F006FB0146684602F0A8FA9C
:1046E0000135204602F000FAAE42EDDA6946204676
:1046F00002F04EFA3946204602F0ECFA01463846FE
:1047000002F096FA204602F0EFF9684602F0ECF962
:10471000384609B0F0BD04ACE8E700BF70E2000025
:10472000B0D8000082B02DE9F04FD3B00C465CA9A0
:1047300081E80C0068AB60A9D3E900230490D1E9BB
:10474000000103F089FD66ABD3E9002306460F465E
:1047500000206E4904F05EF832463B469DF87751E2
:10476000019503F02DFF639F629E649D804638464D
:10477000894603F0BFFE02460B4600204FF0804101
:1047800002F0AAFCCDE902016598614902F0B8FA8D
:10479000002800F05882002200234046494604F0D9
:1047A00081F9002840F008834946404604F0B8F9F2
:1047B000214602463B461EA8FFF772FF5549284690
:1047C00002F09EFA002800F001820DF59C791EA9E6
:1047D0004AA802F0DDF94AAA48462146FFF730FF11
:1047E00049461EA802F02CFA484602F07DF94AA874
:1047F00002F07AF94849284602F082FA002800F0CF
:10480000FD81072E40F2DF81A6F10803072BA6F1F8
:10481000100398BFC6F1170A072BA6F1180398BF1B
:10482000C6F1270A072BA6F1200398BFC6F1370A65
:10483000072BA6F1280398BFC6F1470A072BA6F15C
:10484000300398BFC6F1570A072BA6F1380398BF6B
:10485000C6F1670A072B98BFC6F1770A574422A80A
:10486000002102F081F9019B002B5DD0019B03F137
:1048700007085CAB98440DF2771626E046A94AA8D3
:1048800002F086F94AAA21464846FFF7D9FE494672
:1048900046A802F0D5F9484602F026F94AA802F0E7
:1048A00023F922A9484602F073F946A9484602F0C6
:1048B00011FA014622A802F0BBF9484602F014F9A9
:1048C00046A802F011F9B0452ED0214646A808238B
:1048D00016F8012FFFF7E4FE0E49284602F010FA01
:1048E0000028CBD10D49284602F00AFA0028C5D18C
:1048F0000B49284602F004FA0028BFD1094928468E
:1049000002F0FEF90028B9D1CBE700BF0000F03F6C
:1049100024D9000014D90000B0D9000074E50000CB
:1049200078E5000080E50000CB4926A802F01CF9DC
:104930002AA8C94902F018F9BAF1000F0CDD534654
:10494000002222A9484602F00BFA494626A802F0A6
:1049500077F9484602F0C8F8249B9F42C0F0668170
:1049600026A9484602F014F91EA9484602F0B2F9F9
:104970002AA902F0AFF901461EA802F059F94846EB
:1049800002F0B2F8B549284602F0BAF9002800F062
:104990007581082300221EA9484602F0E1F921464C
:1049A0004A462EA8FFF74CFE484602F09DF8102319
:1049B00008221EA9484602F0D3F921464A4632A8E9
:1049C000FFF73EFE484602F08FF8182310221EA97A
:1049D000484602F0C5F921464A4636A8FFF730FEA0
:1049E000484602F081F8202318221EA9484602F00A
:1049F000B7F921464A463AA8FFF722FE484602F098
:104A000073F8282320221EA9484602F0A9F921465E
:104A10004A463EA8FFF714FE484602F065F83023E8
:104A200028221EA9484602F09BF921464A4642A880
:104A3000FFF706FE484602F057F8382330221EA939
:104A4000484602F08DF921464A4646A8FFF7F8FD90
:104A5000484602F049F8402338221EA9484602F091
:104A60007FF921464A464AA8FFF7EAFD0DF1180BE7
:104A7000484602F039F82EA859460023092202F0D0
:104A800055F90DF1240A0CAB1C46029332A851468D
:104A90000023092202F04AF90DF13C08214636A80C
:104AA0000023092202F042F912AF3AA8414600233E
:104AB000092202F03BF93EA839460023092202F000
:104AC00035F915AE18AB1D46059342A831460023B3
:104AD000092202F02BF91BAC46A829460023092223
:104AE00002F024F92146002309224AA802F01EF907
:104AF0004AA801F0F9FF46A801F0F6FF42A801F02C
:104B0000F3FF3EA801F0F0FF3AA801F0EDFF36A850
:104B100001F0EAFF32A801F0E7FF2EA801F0E4FF60
:104B200058460222002105F009FC02228DF8780186
:104B30000021504605F002FC02228DF87901002187
:104B4000029805F0FBFB02228DF87A010021404615
:104B500005F0F4FB02228DF87B010021384605F0B8
:104B6000EDFB02228DF87C010021304605F0E6FBCA
:104B700002228DF87D010021059805F0DFFB02225D
:104B80008DF87E010021204605F0D8FB9DF8043009
:104B90008DF877318DF87F015CAB0FCB049C84E8F6
:104BA0000F002AA801F0A0FF26A801F09DFF22A86F
:104BB00001F09AFF1EA801F097FF049853B0BDE8DA
:104BC000F04F02B07047C6F1070A1DE62449284697
:104BD00002F096F800287FF4F8AD2249284602F04A
:104BE0008FF800287FF4F1AD1F49284602F088F8BD
:104BF00000287FF4EAAD0DF59C79FBE51B492846BA
:104C000002F07EF800287FF4FCAD1949284602F036
:104C100077F800287FF4F5AD1649284602F070F8C1
:104C200000287FF4EEAD3744B24618E63A4622A992
:104C3000484602F095F849462AA802F001F848468D
:104C400001F052FF8CE60C49659802F059F80028F3
:104C50007FF4A1ADA8E500BF70E2000014D9000008
:104C600074E5000078E5000080E5000088E50000BC
:104C70008CE5000098E500006CE5000058492846E6
:104C800002F03EF800287FF484AE5649284602F030
:104C900037F800287FF47DAE2846534902F030F8FB
:104CA000054600287FF475AE02461EA94846082333
:104CB0000DF1180B02F054F859462B4609224846CC
:104CC00002F034F8484601F00FFF0DF1240A1EA946
:104CD00048461023092202F043F851462B46092288
:104CE000484602F023F8484601F0FEFE0CAB1C4695
:104CF00002931EA948461823102202F031F82146DB
:104D00002B460922484602F011F8484601F0ECFE15
:104D10000DF13C081EA948462023182202F020F875
:104D200041462B460922484602F000F8484601F069
:104D3000DBFE12AF1EA948462823202202F010F8FD
:104D400039462B460922484601F0F0FF484601F05B
:104D5000CBFE15AE1EA948463023282202F000F8EB
:104D600031462B460922484601F0E0FF484601F053
:104D7000BBFE18AB1C4605931EA9484638233022BB
:104D800001F0EEFF21462B460922484601F0CEFFF6
:104D9000484601F0A9FE1BAC1EA948464023382214
:104DA00001F0DEFF48462B462146092201F0BEFFF6
:104DB000484601F099FEB3E600220C4BDDE9020102
:104DC00003F04AFA03F0ACFE013003F093FB024615
:104DD0000B464046494603F041FA80468946E3E4E3
:104DE00074E5000078E5000080E500000000F03F79
:104DF00084B02DE9F0439DB00DF1940888E80E00D1
:104E00009DF89B40DDF8A4902B9F06460021684644
:104E100001F0AAFE002C4CD00734A0440DF19B05F4
:104E20000CAC26E004A908A801F0B2FE08AA31469D
:104E30002046FFF705FC214604A801F001FF2046AB
:104E400001F052FE08A801F04FFE6946204601F02D
:104E50009FFE04A9204601F03DFF0146684601F08F
:104E6000E7FE204601F040FE04A801F03DFEA84503
:104E700020D0314604A8082315F8012FFFF710FCB5
:104E80007749384601F03CFF0028CBD175493846B8
:104E900001F036FF0028C5D17349384601F030FFD4
:104EA0000028BFD17149384601F02AFF0028B9D146
:104EB000CBE70CAC6E49384601F022FF002800F029
:104EC0009980B9F1070F40F292800022A9F10803FE
:104ED000072BA9F1100398BFC9F11702072BA9F1FD
:104EE000180398BFC9F12702072BA9F1200398BF27
:104EF000C9F13702072BA9F1280398BFC9F147026E
:104F0000072BA9F1300398BFC9F15702072BA9F16C
:104F1000380398BFC9F16702072B2A9B98BFC9F1D4
:104F20007702D3186946204601F01AFF21466846E9
:104F300001F086FE204601F0D7FD4949384601F0D0
:104F4000DFFE002876D0694608A801F021FE08AAF5
:104F500031462046FFF774FB2146684601F070FE9B
:104F6000204601F0C1FD08A801F0BEFD029803F043
:104F7000B1FA02460B4600204FF0804102F0ACF837
:104F800000223C4B03F068F903F0CAFD21460023E0
:104F900040220546684601F0C9FE20460021022253
:104FA00005F0CCF9344904462C9801F0A9FE0028FC
:104FB00039D005EBD573B4EB630F01DD0135641B0C
:104FC000204603F097FADDE92E2303F0F9FADDE934
:104FD000302303F043F9044668460D4601F084FD92
:104FE000204629461DB0BDE8F04304B07047C9F122
:104FF00007026BE72149384601F082FE00287FF462
:1050000060AF1F49384601F07BFE00287FF459AF9E
:105010001C49384601F074FE00287FF452AF2A9BE9
:105020004A464B447EE718492C9801F069FE002857
:10503000BFD1C5E70B49384601F062FE002882D196
:105040000949384601F05CFE00287FF47CAF384601
:10505000064901F055FE00287FF475AF86E700BFD2
:1050600014D9000074E5000078E5000080E5000038
:10507000B0D900000000F03F24D9000088E500000E
:105080008CE5000098E500006CE50000374A3849DF
:1050900013681B06FCD40B6813F08003F8D172B6BA
:1050A00034490A78002A5FD0334A3448F0B4344C8B
:1050B000176806682568D4680C303E4414320068CE
:1050C0001268304F35442C4420440244C2F34E024F
:1050D0002D4E2E482E4D2F4C42F400423A60376838
:1050E00006682D682C4A24680C303E44006812681B
:1050F0002A4F35442C4420440244C2F34E02284E29
:105100002848294D294C42F400423A603768066825
:105110002D68274A24680C303E4400681268254FE9
:1051200035442C4420440244C2F34E02224E23480C
:10513000234D244C42F400423A60376806682D68DB
:10514000214A24680C303E440068126835442C44DF
:1051500020440244C2F34E021C4842F40042026062
:105160000B7062B6F0BC704762B6704724B0034063
:1051700024B00B40B595FF1F38B003403CB003404E
:1051800040B003402CB0034058B003405CB0034033
:1051900060B0034064B003406CB0034030B00340E3
:1051A00038B00B403CB00B4040B00B4044B00B401B
:1051B0004CB00B402CB00B4058B00B405CB00B40D7
:1051C00060B00B4064B00B406CB00B4030B00B4093
:1051D00030B42948294A2A4B2A4D6024E121047021
:1051E00011701B78284C082B30D00A2B27482849EF
:1051F00037D00C2B0CBF35223D2212232A602360AE
:1052000002600B60234B24491B78244ABBB1012365
:105210000B601360224B23491B78234A012B26D9AC
:10522000042B0FD9082B1ED9102B94BF862387235C
:105230000B6013601D4B01221A7030BC70470B606D
:105240001360E7E784230B601360F3E700F58E201B
:105250000F490830012213232A60236002600B608B
:10526000D0E73922F7E785230B601360E2E780235C
:105270000B601360DEE700BF0040074001400740BD
:105280008F87FF1F08B003400CB0034008B00B40ED
:105290000CB00B40B895FF1F20B0034020B00B406E
:1052A0009087FF1F24B0034024B00B40B595FF1F2B
:1052B0000C2830B417D91023984228BF18461C4632
:1052C000104A114D1178181A8C42287018D00F49C5
:1052D00013700B7823B10E490E4A00230B60136044
:1052E00030BCFFF775BF0A2802D90C231C46E7E73C
:1052F000082802D90A231C46E2E708231C46DFE7F8
:1053000030BC70478F87FF1FB495FF1FB595FF1FF7
:1053100024B0034024B00B4028282FD8334B2DE96C
:10532000F0411E5CFF2E2BD0314B1B78002B2AD175
:1053300032062CD472B62F4D2F4C2F4601232660F7
:105340002B7062B672B623681B060CD43B781BB96F
:10535000F4E72B78002BF1D062B601F043FD72B672
:1053600023681806F5D5254B1B6800222A7062B603
:10537000234A107843FA00F0BDE8F081002070471E
:105380000020BDE8F081FFF781FE3206D2D572B66B
:105390001C4DDFF87C801C4C06F04007FFB206F085
:1053A0003F06D8F80030DFB123F01003C8F8003012
:1053B00001232660134A2B7062B672B62368190661
:1053C0000CD413781BB9ECE72B78002BE9D062B62C
:1053D00001F008FD72B623681B06F5D50B4BC3E739
:1053E00043F01003C8F80030E2E700BFA4E5000076
:1053F000B595FF1FB795FF1F00B0034010B00340E5
:10540000B495FF1FB695FF1F00B00B4010B00B40C6
:105410000CB00B40F0B51B4B1B4E596818689A68CE
:10542000DB6885B06C460FC4337899071DD5174AE1
:10543000174C1378174913F0700318BF1370164AEE
:10544000164B8027177000263320032226706D46E6
:1054500008701A7072B6043C45F001052046A84752
:1054600062B6237813F0700309D10D4B064901E0B1
:10547000013B02D00A78D207FAD505B0F0BD2370FF
:1054800005B0F0BDD0E50000010002400000024080
:10549000040002400B000240070002400A000240E4
:1054A000410D0300B0F5006F0AD210B5094B1B780F
:1054B000DB07044606D504F1A0500078C0B210BD49
:1054C00000207047FFF7A6FF04F1A0500078C0B29B
:1054D00010BD00BF0100024008B5104C08E0236871
:1054E00059050DD423681A050FD42368DB0411D4A1
:1054F00023685803F3D500F061FA23685905F1D504
:1055000000F00EF823681A05EFD500F009F82368BB
:10551000DB04EDD500F004F8EAE700BF3480044076
:1055200008B5FFF7D9FF00BF014B10221A80704762
:1055300000200540704700BF094908B50B6830B12D
:105540006A461844A2F58052904202D2086018467A
:1055500008BD03F0CFFD0C2303604FF0FF3008BD02
:105560009487FF1F0078B0FA80F04009704700BFB1
:1055700001230370704700BF10B40F4B53F8302065
:1055800092F880422CB1012369B182F8803010BCBE
:10559000704703EBC0035B681A6841B922F002024E
:1055A0001A6010BC704782F8003110BC704742F09E
:1055B00003021A6010BC7047E0E500001C4A02EBD1
:1055C000C00301295B6811D004291BD052F83000B8
:1055D000002280F8802229B1022920D0032922D07C
:1055E0001A6070474FF480721A60704752F83000AA
:1055F0004FF4A27280F880121A601A6822F020021A
:105600001A60704752F830104FF4A272012081F8EE
:1056100080021A601A6842F020021A60704740F255
:1056200003121A6070474FF481721A60704700BF0E
:10563000E0E5000030B4054B054D064C002210217A
:105640001A602A602060196030BC704714D0034093
:1056500004D0034000D00340212801D8FFF78CBFBD
:10566000704700BF212806D8044B53F8303093F818
:105670000002C0B270470020704700BFE0E50000A4
:10568000212801D8FFF79ABF704700BF2DE9F843E2
:10569000054672B6204F214B214A1B683C681268B0
:1056A00062B6520102D5322B88BF013495B3C3F5DF
:1056B000BB331C4EDFF86490DFF86480FF334FF497
:1056C0007A72A6FB031302FB04F404EB931472B684
:1056D000D9F800103A68D8F800E062B6C1F5BB33DB
:1056E000FF33A6FB03031EF0806FC4EB93134FF44C
:1056F0007A7002D0322988BF013200FB0233B3F541
:105700007A7F04D3013D05D004F57A74DFE701F018
:1057100069FBDCE7BDE8F883BC95FF1F18E000E0FB
:1057200004ED00E0ABAAAAAAF8B52D4B2D49DFF88D
:10573000D0E0DFF8D0C02C4E2C4D2D4C2D4A2E4FF2
:105740004FF4000018604FF0807018604FF0007048
:1057500018604FF0806018604FF000601860002003
:10576000086028234BF6FF71CCF80010CEF800300B
:10577000336013602B6023603B60B3629362092245
:1057800045F8242CC4F8D80F05F57F65C7F8D41F59
:1057900007F5FF2707F5FA67C6F8F83F2B6006F50F
:1057A000FF26C4F8D42F05F5FD2504F5FF24386045
:1057B00006F2F4761148316005F5FF6504F5FD64E5
:1057C0002B6023600260FFF703FD1920FFF75EFFE7
:1057D00000F05AFE40F21310BDE8F840FFF756BF44
:1057E00008E100E00480034014800340248003406B
:1057F0002C8003401C8003403480034000800B4019
:105800000C80034008800340431E032B14D872B65B
:105810000A4951F8230068B170B4094C058834F87E
:105820001320466841F82360521B24F8132062B607
:1058300070BC704762B67047002070471896FF1F13
:105840001497FF1F013803280BD872B6074B53F883
:10585000203043B100205B680130002BFBD162B6E1
:105860007047002070471846F9E700BF6C96FF1F8D
:1058700030B472B62B4A13781D0706D52A4B196A25
:10588000002936D0996A002941D053781C0706D5E3
:10589000254B196C00293ED0996C002939D093789A
:1058A000190705D5204B196E002936D0996E89B19C
:1058B000D3781B0707D51C4BD3F880207AB3D3F8D5
:1058C000882011213AB162B6184B00221A7030BC00
:1058D00000F056BE0D21154C154D227843F831507D
:1058E00003EBC1030830013A5860227062B630BC45
:1058F000704704220D4C0F4D217843F8325003EBD2
:10590000C20308304A1E5860227062B6EFE70521D4
:10591000E1E70921DFE70822ECE70C22EAE71022A1
:10592000E8E700BF1CE700000080FF1F9596FF1FFF
:10593000C800400088004000431E032B1DD81B4AAE
:10594000400140F0100030B4104472B6184CE25CD4
:10595000032A1BD8DFE802F00212151703220D8874
:10596000E25410F0080F14BFC823882343EA05430C
:1059700008310360416062B630BC704708300222D3
:10598000EDE70522EBE708300422E8E7094A52F880
:10599000230038B1084A52F82300416042F823102E
:1059A00062B6E9E742F82310034AF7E70080FF1FD9
:1059B000A496FF1F6C96FF1F7C96FF1F2DE9F04FEA
:1059C000DFF818B3DFF818A387B044E0AE4F4FEA12
:1059D000930807EBC809013ED9F8042003F0080337
:1059E000F6B2A2F1080003F0FF04002B40F004819E
:1059F00057F838301B0C99B222F8081C002B00F025
:105A0000F280A24B22F8064C42F8044C53F82620B0
:105A1000002A00F06E819E4D55F8263058609D4C4E
:105A200045F8260034F81630194424F8161000F012
:105A300087FD002800F05681974A984B19F0080F0F
:105A400000F1080018BF1346C9F8040047F83830C1
:105A500008238BF800309BF80040E4B261071BD5A7
:105A60008F4B1B78ABB18F490A7802F0FF032AB144
:105A7000013BDBB20B70002B00F0EF848A490A78FF
:105A800002F0FF032AB1013BDBB20B70002B00F0E8
:105A9000F78004238BF8003004F0080303F0FF02C2
:105AA000002B00F0D6809AF80030DBB21E098DD1B1
:105AB0009C08DFF8D49159F8342009EBC401C2F3F3
:105AC0008302013A49680C2A7ED8DFE802F081811E
:105AD0007D7D7D7D7D7D477D7D7D07000868734DE3
