:1000000000800020BD01000039570000F1560000BB
:10001000F1560000F1560000F1560000F1560000C4
:10002000F1560000F1560000F1560000395700006B
:1000300039570000F156000065680000696800004B
:100040003957000039570000395700003957000070
:100050003957000039570000395700003957000060
:100060003957000039570000395700003957000050
:100070003957000039570000395700003957000040
:100080003957000039570000395700003957000030
:100090003957000039570000395700003957000020
:1000A0003957000039570000395700003957000010
:1000B00039570000F1450000FD45000001460000F1
:1000C0000D4600001146000015460000395700009B
:1000D00039570000395700003957000039570000E0
:1000E00039570000395700003957000039570000D0
:1000F00039570000395700003957000039570000C0
:1001000039570000395700003957000039570000AF
:10011000395700003957000039570000395700009F
:10012000395700003957000039570000395700008F
:10013000395700003957000039570000395700007F
:10014000395700003957000039570000395700006F
:10015000395700003957000039570000395700005F
:1001600039570000995B00003957000039570000EB
:10017000395700003957000039570000395700003F
:10018000395700003957000039570000395700002F
:10019000395700003957000039570000395700001F
:1001A000395700003957000039570000395700000F
:1001B000395700003957000039570000564B4CF2B0
:1001C000205210B51A804DF628121A8000BF00BFC9
:1001D00005F0B6FA514B4FF010621A60504A9A601F
:1001E000504ADA60504A136813F4807304D14F49BF
:1001F0000B604FF4A85313604D4B1A78110703D5C9
:100200001A7842F008021A704A4B4B492A221A7097
:100210004A4A4B4B8B4204D252F8040F43F8040B6A
:10022000F8E7484B484900228B4202D243F8042B9E
:10023000FAE74649464A002352F8230041F82300D2
:1002400001336F2BF8D1434B434A802103F8011B44
:100250009342FBD1414B3D4A1A60414B8A221A70AE
:10026000A3F5805324225A70A0221A709A7992071B
:10027000FCD59A79D406FCD43A4A937903F00C035E
:10028000082B384BF9D103221A7140225A719A79FE
:100290009006FCD5334A9179324B4906FBD5324A58
:1002A000324911600221516020221A709A7902F0BD
:1002B0000C020C2AFAD12E4B2E4A1A602E4B2F4AD2
:1002C0001A6000225A60072243F8042C2C4AC3F813
:1002D0000C2D62B605F036FB144B1B68DA0705D50A
:1002E000284805F0B3FA284B284A1A60284B1B7897
:1002F0005B0609D5244C254B22689A4204D121483B
:1003000005F0A4FA0023236005F020FA08F0A0FF0E
:1003100006F000FDFEE700BF0E20054030800440DF
:10032000823F04000100002B10D0034014D0034092
:1003300002D0074000E007400092FF1FC8E800001D
:100340002087FF1F0092FF1F3097FF1F0082FF1FB3
:100350000000000000E400E05FE400E008ED00E0E1
:100360000050064000400640448004400000030165
:1003700004800440C010050014E000E0FF76010096
:100380000000202098E918621CE00340A5C3945A9D
:1003900000F00740FFFFFFFFFFFFFFFFFFFFFFFF32
:1003A000FFFFFFFFFFFFFFFFFFFFFFFFFFFFFFFF5D
:1003B000FFFFFFFFFFFFFFFFFFFFFFFFFFFFFFFF4D
:1003C000FFFFFFFFFFFFFFFFFFFFFFFFFFFFFFFF3D
:1003D000FFFFFFFFFFFFFFFFFFFFFFFFFFFFFFFF2D
:1003E000FFFFFFFFFFFFFFFFFFFFFFFFFFFFFFFF1D
:1003F000FFFFFFFFFFFFFFFFFFFFFFFFFFFFFFFF0D
:10040000FFFFFFFFFFFFFFFFFFFFFFFFDEF9FFFF23
:1004100010B5054C237833B9044B13B10448AFF33E
:1004200000800123237010BD0092FF1F0000000018
:10043000C4E80000084B10B51BB108490848AFF3E9
:1004400000800848036803B910BD074B002BFBD0A0
:10045000BDE81040184700BF000000000492FF1FD5
:10046000C4E800000092FF1F0000000008B514203F
:1004700005F01AFA01210C2005F0FCF9C82005F05E
:1004800013FA01210B20BDE8084005F0F3B900BFC5
:10049000F8B5284C28480B2106F0BEF821682748FB
:1004A00006F064FA254806F00DFA254A136863B988
:1004B000244D254825492B60012505600B6001333B
:1004C0001360236801332360F8BD012B07D11E4D53
:1004D0001C481E492B60002505600B60EFE7022BCE
:1004E00008D1194F174E1948002101253960316094
:1004F0000560E4E7032B08D1134E124D1348012188
:100500000027376029600160D9E7042B03D10E4F23
:100510000E4E0C48E8E7052BD1D10C480A4E094D88
:1005200000230360136023680121013331602960D7
:100530002360F8BDA092FF1FECD600009C87FF1F30
:100540003C92FF1FD092FF1FFC93FF1F2C92FF1FB6
:1005500070B51D210B4806F05FF80B4806F0B2F9A4
:100560000A4B0B4A5A60142602250A24002040F642
:100570005A214FF443721E705D701C72587259817B
:100580009A8170BDF8D600009C87FF1F6C92FF1FF8
:1005900020A10700F0B50746144689B0022206F0F4
:1005A000C7FABE68B4422CD0A61B6846174906F0AD
:1005B0008DFA002E28DD012504AC6946204606F0A0
:1005C00099FA1349204606F043FB0146684606F0B7
:1005D000E5FA0135204606F039FAAE42EDDA694611
:1005E000204606F087FA3946204606F029FB0146E8
:1005F000384606F0D3FA204606F028FA684606F098
:1006000025FA384609B0F0BD04ACE8E7D8E00000B0
:1006100018D70000F0B51A4C25688DB008AC012D34
:1006200084E80F0005D02146164803F081FE0DB086
:10063000F0BD02469DF82E109DF82F009DF82D70FC
:100640009DF82C609DF82B50069005919DF82A008E
:100650009DF829109DF828300190009104970A49CF
:1006600003960295094809F0D7FB084809F0E8FD10
:100670000146064805F0D0FF054806F023F9D2E709
:100680009892FF1F0C94FF1F1CD70000DC92FF1FE5
:100690009C87FF1F10B5A8B08DE80F0004A89DF837
:1006A0000A100822FFF776FF08A89DF80D1008220F
:1006B000FFF770FF0CA89DF80F100822FFF76AFFE4
:1006C00004A910A80223002206F000FB08A914A820
:1006D0000423012206F0FAFA0CA918A80623042222
:1006E00006F0F4FA10A81CA90023102206F0D4FA90
:1006F00014A820A90023102206F0CEFA18A824A9D5
:100700000023102206F0C8FA1CA80222002109F0DA
:10071000D5FE124B02221860002120A809F0CEFE5F
:100720000F4B02220021186024A809F0C7FE0D4BD0
:10073000186018A806F08AF914A806F087F910A81E
:1007400006F084F90CA806F081F908A806F07EF9F5
:1007500004A806F07BF928B010BD00BF6493FF1F0A
:100760006893FF1F0494FF1F10B5AAB08DE80F0017
:1007700005A89DF80B100822FFF70CFF09A89DF8AB
:100780000C100822FFF706FF0DA89DF80D10082297
:10079000FFF700FF2D4B9DF80E201A6009A925A830
:1007A00006F0A8F905A925A806F04AFA014611A8FD
:1007B00006F0A0F925A806F049F90DA915A803230C
:1007C000002206F083FA0DA919A80623032206F0D9
:1007D0007DFA25A911A80023112206F05DFA15A8BB
:1007E0001DA90023102206F057FA19A821A90023F9
:1007F000102206F051FA25A80222002109F05EFE1F
:10080000134BA0F5FA4402221DA800211C6009F038
:1008100055FE104B02220021186021A809F04EFE5F
:100820000D4B186019A806F011F915A806F00EF97D
:1008300011A806F00BF90DA806F008F909A806F0B2
:1008400005F905A806F002F92AB010BD6093FF1F54
:10085000E493FF1FD493FF1F3892FF1FF0B599B0A8
:100860008DE80F0004A89DF808102B4D2B4E082290
:10087000FFF790FE04A908A80623042206F026FA32
:1008800004A90CA80823062206F020FA08A810A93B
:100890000023102206F000FA00230CA814A910224D
:1008A00006F0FAF90222002110A809F007FE022240
:1008B0002860002114A809F001FE2C68306034F093
:1008C00002070AD13946162004F0D4FF3946052024
:1008D00004F0D0FF124B2C681F60012C10D033683D
:1008E0000BB1012B01D10F4A13600CA806F0AEF832
:1008F00008A806F0ABF804A806F0A8F819B0F0BDF7
:100900002146162004F0B6FF2146052004F0B2FF70
:10091000034B1C60E3E700BF2892FF1FD093FF1F2B
:100920003092FF1F3C87FF1F2DE9F04FDFF8DC906E
:1009300097B00EAD0AAC12AE84E80F0049462846C7
:1009400006F0C4F830462C4906F0C0F80FF2A00BB0
:10095000DBE900AB0496039500274FF0000894E80C
:100960000E00CDE9087810274FF0000E02970D9F7A
:10097000CDF804E0CDE906AB0097204804F072FA08
:1009800007F0EAFF1E4B1860304606F05FF8284675
:1009900006F05CF81A4A1B4B12681A604946284652
:1009A00006F094F830461849DFF8649006F08EF8A7
:1009B00000220023CDE90823CDE906AB10230496DD
:1009C00003950293019394E80E000D9C00940B484C
:1009D00004F048FA07F0C0FFC9F80000304606F0FE
:1009E00035F8284606F032F817B0BDE8F08F00BFA2
:1009F000000000A09999B93F80D70000C492FF1F62
:100A0000AC93FF1FA893FF1F8CD700007CD700007A
:100A1000D892FF1F2DE9F04397B00AAC0EAD84E8E1
:100A20000F0012AE1C491D4F284606F04FF81C4916
:100A3000304606F04BF84FF000084FF000090496DE
:100A40000395102094E80E00CDE908890290DFF8A4
:100A50005C900D984FF0000800248DE81100CDE95E
:100A60000689104804F0FEF907F076FF386030463A
:100A700005F0ECFF284605F0E9FF3B68642B04D045
:100A8000094A136017B0BDE8F083074B63221A6070
:100A900017B0BDE8F08300BF7CD70000D893FF1FDC
:100AA00080D70000C492FF1F6C93FF1F0000F03F2F
:100AB0002DE9F04F384CDFF8FCA02468374FDFF801
:100AC000F89099B04FF0000B0F94354C0F9D2560B6
:100AD00010AD0AAC14AE84E80F00C7F800B0514660
:100AE0000FF2AC08D8E90078284605F0EFFF494638
:100AF000304605F0EBFF0496039594E80E00CDE92F
:100B0000067800274FF00008CDE9087810270297F3
:100B100001970D9F0097234804F0A4F907F01CFFEC
:100B2000214B1860304605F091FF284605F08EFFF6
:100B30005146284605F0CAFF4946304605F0C6FF33
:100B400000220023CDE9082311A3D3E90023CDE936
:100B500006231023049603950293CDF804B094E87D
:100B60000E000D9C00940F48104C04F07BF907F028
:100B7000F3FE2060304605F069FF284605F066FF69
:100B80000B4B22681A6019B0BDE8F08FAFF30080FC
:100B9000000000A09999B93FC095FF1FA892FF1FC0
:100BA000B093FF1FC492FF1F0094FF1FBC93FF1F51
:100BB0007493FF1F7CD7000080D7000010B596B05B
:100BC0008DE80F0005A89DF80A100822FFF7E2FC47
:100BD000082209A89DF80B10FFF7DCFC09A911A851
:100BE00005F088FF05A911A806F02AF801460DA80E
:100BF00005F080FF11A805F029FF002311A90DA819
:100C0000112206F049F80222002111A809F056FC31
:100C10000DA805F01BFF09A805F018FF05A805F0B1
:100C200015FF16B010BD00BF2DE9F04FABB08DE839
:100C30000F0005A89DF80810349E0822FFF7AAFCB3
:100C400009A808229DF80A109DF80950FFF7A2FC98
:100C50000DA808229DF80B10FFF79CFC05A911A810
:100C6000042302229DF80C7006F030F808230422B9
:100C700005A915A806F02AF80DA925A805F03AFF40
:100C800009A925A805F0DCFF014619A805F032FFE7
:100C900025A805F0DBFE11A81DA90023102205F0F0
:100CA000FBFF15A821A90023102205F0F5FF002362
:100CB00025A919A8112205F0EFFF022200211DA885
:100CC00009F0FCFB02220021834621A809F0F6FB73
:100CD00002220021824625A809F0F0FBB0F5004F62
:100CE0000446A4BFA0F57F44FF3C802DC8BFA5F5F6
:100CF0008075284607F01AFB02460B460020234960
:100D000006F006F980468946204607F00FFB42466A
:100D10004B4607F071FB07F01FFE012E2AD0022E72
:100D200020D0032E09D11A4B1A4918601A4A1B4BBE
:100D3000C1F800A01760C3F800B019A805F086FE3E
:100D400015A805F083FE11A805F080FE0DA805F09A
:100D50007DFE09A805F07AFE05A805F077FE2BB008
:100D6000BDE8F08F0E4B0F4A18600F4BC2F800A081
:100D70001F60E2E70D4B0E4918600E4A0E4BC1F89A
:100D800000A01760C3F800B0D7E700BF0000244000
:100D90003492FF1FF893FF1FEC93FF1F8893FF1FF0
:100DA0008092FF1F8C93FF1F4092FF1F8C92FF1FAA
:100DB000E093FF1F8492FF1FC493FF1F10B596B0EE
:100DC0008DE80F0005A89DF80C100822FFF7E2FB44
:100DD000082209A89DF80D10FFF7DCFB09A911A84E
:100DE00005F088FE05A911A805F02AFF01460DA807
:100DF00005F080FE11A805F029FE11A90DA8002319
:100E0000112205F049FF002111A8022209F056FB2A
:100E1000074BA0F196020DA81A6005F017FE09A86D
:100E200005F014FE05A805F011FE16B010BD00BFB8
:100E30007093FF1F30B57B4D7B4883B0294603F08C
:100E400075F92A68794B9A4200F0BB8018D9784B23
:100E50009A4200F0C88040F28780764B9A425CD07C
:100E600003F540739A4200F0B680A3F5C0639A423E
:100E700057D10223009395E80F00FFF7D5FE50E00D
:100E800040F256339A4200F0978060D96A4B9A42FA
:100E90004DD003F500739A4200F0988040F25A3327
:100EA0009A423ED1654B1B7843B92B7A002B00F058
:100EB000A68063486349012303600B60624B1B6893
:100EC000012B32D1EB796149614808F0A5FF6048F8
:100ED00009F0B6F901465E4805F09EFB2C68514BBF
:100EE00014F080444FD1DB798BB12B1959491A7A10
:100EF000574808F091FF564809F0A2F901465448B6
:100F000005F08AFB0134EB79E4B2A342EDD85248F4
:100F100003B0BDE8304005F0D5BC95E80F00FFF701
:100F20004DFE494B1B68012B06D003B030BD95E840
:100F30000F00FFF743FFF4E72A68D300C2D522F081
:100F40006042EB794549424808F066FFBFE740F24E
:100F500051339A424ED040F255339A42E1D195E84E
:100F60000F00FFF757FDDCE7A3F578539A421ED038
:100F700003F570539A42D4D10323009395E80F00F0
:100F8000FFF752FECDE7364D314C0FCD0FC495E83B
:100F9000030044F8040B204620F81419152105F02D
:100FA0003BFB2D4803B0BDE8304005F08BBC95E815
:100FB0000F00FFF753FCB4E795E80F00FFF7B4FC10
:100FC000AFE795E80F00FFF7CFFBAAE795E80F0022
:100FD000FFF760FBA5E71C4B22491B68E87A086015
:100FE000012BA2D1ABE70123009395E80F00FFF797
:100FF0001BFE96E795E80F00FFF75AFD91E76B7A25
:10100000002B7FF456AFA97A064B00297FF451AF2D
:10101000DB7A002B7FF44DAF09480A4903600B606F
:101020004CE700BFAC92FF1F0C94FF1F8014FF1809
:101030008055FF18805AFF188011FF189C92FF1FDF
:10104000C892FF1F1C92FF1F7893FF1FC8D7000094
:10105000DC92FF1F00D800009C87FF1F94D7000080
:10106000E8D700007C93FF1F2DE9F041854BC8B005
:10107000196868461022FFF78DFA834B04A8196897
:101080001022FFF787FA814B08A819680222FFF7A0
:1010900081FA7F4B0CA819680222FFF77BFA7D4B7F
:1010A00010A819680222FFF775FA7B4B14A819687B
:1010B0000222FFF76FFA794B18A819680222FFF78E
:1010C00069FA1CA8764905F001FD764B20A819683D
:1010D0000222FFF75FFA744B0222196824A8FFF777
:1010E00059FA10A944A805F005FD0CA944A805F07B
:1010F000A7FD08A905F0A4FD14A905F0A1FD01466E
:1011000028A805F0F7FC44A805F0A0FC1CA944A8F9
:1011100005F0F0FC20A944A805F092FD24A905F0F3
:101120008FFD18A905F08CFD01462CA805F0E2FC06
:1011300044A805F08BFC694644A81023082205F05A
:10114000C5FD30A944A80023102205F0A5FD44A840
:1011500005F07CFC694644A80823002205F0B6FD92
:1011600034A944A80023102205F096FD44A805F0F8
:101170006DFC04A944A81023082205F0A7FD38A996
:1011800044A80023102205F087FD44A805F05EFC6A
:1011900004A944A80823002205F098FD3CA944A80E
:1011A0000023102205F078FD44A805F04FFC28A884
:1011B00040A90023102205F06FFD002344A92CA8AC
:1011C000102205F069FD30A80222002109F076F90D
:1011D00002228046002134A809F070F90222074655
:1011E000002138A809F06AF90222064600213CA82D
:1011F00009F064F902220546002140A809F05EF9D1
:1012000002220446002144A809F058F9274BDFF8D0
:10121000A0E09A79C3F800E0062142F0010283F8C9
:1012200008805F729E72DD721C735873D9719A7157
:101230000FCBFFF7EFF92CA805F008FC28A805F064
:1012400005FC24A805F002FC20A805F0FFFB1CA863
:1012500005F0FCFB18A805F0F9FB14A805F0F6FB57
:1012600010A805F0F3FB0CA805F0F0FB08A805F0AA
:10127000EDFB04A805F0EAFB684605F0E7FB48B083
:10128000BDE8F0815C93FF1FA893FF1FCC93FF1F65
:101290005892FF1F9C93FF1F3C87FF1F3092FF1F38
:1012A0000CD80000F493FF1F2092FF1F4892FF1FED
:1012B0008221FF18F0B5594B594C1968B1B06846F6
:1012C0000422FFF767F9574B04A819680222FFF7B9
:1012D00061F9554B08A819680822FFF75BF9534BD1
:1012E000082219680CA8FFF755F910A8504905F015
:1012F000EDFB10A92CA805F0FDFB10A92CA805F00A
:101300009FFC0CA905F09CFC014614A805F0F2FB1B
:101310002CA805F09BFB10A92CA805F0EBFB10A94D
:101320002CA805F08DFC04A905F08AFC10A905F095
:1013300087FC014618A805F0DDFB2CA805F086FB0C
:1013400010A92CA805F0D6FB69462CA805F078FC5E
:1013500010A905F075FC01461CA805F0CBFB2CA8D4
:1013600005F074FB14A820A90023102205F094FCBA
:1013700018A824A90023102205F08EFC1CA828A977
:101380000023102205F088FC00232CA908A81022B5
:1013900005F082FC20A80222002109F08FF8022229
:1013A0000746002124A809F089F8022206460021F8
:1013B00028A809F083F80222054600212CA809F08C
:1013C0007DF81C4B9A79987342F0010107200022A6
:1013D0001F729E72DD721C60D87199715A721A73F5
:1013E0005A730FCBFFF716F91CA805F02FFB18A8AE
:1013F00005F02CFB14A805F029FB10A805F026FB2E
:101400000CA805F023FB08A805F020FB04A805F0B4
:101410001DFB684605F01AFB31B0F0BDA493FF1F19
:101420008230FF183487FF1F6C93FF1F8892FF1FC5
:101430000CD800004892FF1F2DE9F04F3A4B3B4A71
:101440001B681268012B99B068D0002B68D101226B
:10145000374B1B789BB1374B99791A7240F257344E
:10146000FF2203206FF300011C60D87199715A723A
:101470009A720FCBFFF7CEF819B0BDE8F08F2D4C64
:101480002D48A1790068254663F3000140F25737E3
:10149000032605F8082F2760E671A17106F046FFC4
:1014A0000DF1400A0DF1500B804689465046234904
:1014B00005F00CFB5846224905F008FB95E80300AF
:1014C000CDE902898DE80300CDF81CB0CDF818A055
:1014D0000026002794E80C00CDE90A67194F4FF069
:1014E000100E0CAD00260821CDF814E0284604911A
:1014F000CDE90867144903F04FF995E80F0084E837
:101500000F00584605F0A2FA504605F09FFA94E8FD
:101510000F00FFF77FF819B0BDE8F08F002297E7C2
:10152000B2FA82F2520993E73C87FF1FD093FF1F64
:101530007C92FF1F4892FF1F6093FF1F7CD7000023
:1015400080D700000000F03FC492FF1FF0B5A5B0A7
:1015500068463F493F4D05F0B9FA3F4B04A819686A
:101560000222FFF717F808A804220521FFF712F856
:1015700010220CA84FF47A71FFF70CF8694620A8E6
:1015800005F0B8FA04A920A805F05AFB08A905F04F
:1015900057FB014610A805F0ADFA20A805F056FA51
:1015A00010A814A90023102205F076FB0CA920A88E
:1015B0001023082205F08AFB18A920A80023102276
:1015C00005F06AFB20A805F041FA0CA920A8082321
:1015D000002205F07BFB00231CA920A8102205F0A7
:1015E0005BFB20A805F032FA14A80222002108F0C3
:1015F00065FF02220746002118A808F05FFF0222BB
:10160000064600211CA808F059FF144B9A79D8729D
:10161000052442F00102002001211F729E721D600C
:10162000DC719A71587219730FCBFEF7F3FF10A893
:1016300005F00CFA0CA805F009FA08A805F006FA5E
:1016400004A805F003FA684605F000FA25B0F0BDDD
:101650000CD800008239FF182C87FF1F4892FF1F0B
:10166000F0B5A5B068463F493F4D05F02FFA3F4B16
:1016700004A819680222FEF78DFF08A8042203219E
:10168000FEF788FF10220CA8C821FEF783FF6946E9
:1016900020A805F02FFA04A920A805F0D1FA08A97E
:1016A00005F0CEFA014610A805F024FA20A805F0AE
:1016B000CDF910A814A90023102205F0EDFA0CA909
:1016C00020A81023082205F001FB18A920A8002358
:1016D000102205F0E1FA20A805F0B8F90CA920A81D
:1016E0000823002205F0F2FA00231CA920A81022EA
:1016F00005F0D2FA20A805F0A9F914A802220021C9
:1017000008F0DCFE02220746002118A808F0D6FEE9
:101710000222064600211CA808F0D0FE144B9A793C
:10172000D872052442F00102002001211F729E722E
:101730001D60DC719A71587219730FCBFEF76AFF46
:1017400010A805F083F90CA805F080F908A805F0A9
:101750007DF904A805F07AF9684605F077F925B017
:10176000F0BD00BF0CD800008237FF184887FF1F6C
:101770004892FF1FF0B59DB068463B493B4C3C4D3D
:1017800005F0A4F93B4B04A819681022FEF702FFEC
:10179000394B0422196808A8FEF7FCFE694618A810
:1017A00005F0A8F908A918A805F04AFA01460CA8FE
:1017B00005F0A0F918A805F049F904A918A8102304
:1017C000082205F083FA10A918A80023102205F0BA
:1017D00063FA18A805F03AF904A918A8082300220A
:1017E00005F074FA14A918A80023102205F054FA81
:1017F00018A805F02BF9002318A90CA8102205F051
:101800004BFA10A80222002108F058FE02220746D7
:10181000002114A808F052FE02220646002118A852
:1018200008F04CFE154B16499A792468096818731C
:1018300042F0010205201F725E721D609C72D87119
:101840009A71D9720FCBFEF7E5FE0CA805F0FEF8F1
:1018500008A805F0FBF804A805F0F8F8684605F0BC
:10186000F5F81DB0F0BD00BF10D800008493FF1F35
:101870008233FF187493FF1F2487FF1F4892FF1FB6
:101880003087FF1FF0B59DB068463B493B4C3C4D4F
:1018900005F01CF93B4B04A819681022FEF77AFEEC
:1018A000394B0422196808A8FEF774FE694618A887
:1018B00005F020F908A918A805F0C2F901460CA8FE
:1018C00005F018F918A805F0C1F804A918A8102304
:1018D000082205F0FBF910A918A80023102205F032
:1018E000DBF918A805F0B2F804A918A8082300220B
:1018F00005F0ECF914A918A80023102205F0CCF982
:1019000018A805F0A3F8002318A90CA8102205F0C8
:10191000C3F910A80222002108F0D0FD02220746D8
:10192000002114A808F0CAFD02220646002118A8CA
:1019300008F0C4FD154B16499A7924680968187394
:1019400042F0010205201F725E721D609C72D87108
:101950009A71D9720FCBFEF75DFE0CA805F076F8F0
:1019600008A805F073F804A805F070F8684605F0BB
:101970006DF81DB0F0BD00BF10D80000BC92FF1F75
:101980008234FF183887FF1F4C87FF1F4892FF1FC4
:101990004087FF1F0E4B0F4899790F4A006870B4BB
:1019A0000E4D0F4C2D6824681A600826FF2241F066
:1019B0000101DE711D725C729872DA721A735A73C9
:1019C0009A73DA7399710FCB70BCFEF723BE00BF18
:1019D0004892FF1F2C92FF1F8220FF18FC93FF1FCD
:1019E000D092FF1FFFFFFFFFC74AC848C849C94B35
:1019F00012681B682DE9F04F05680F68C648C74993
:101A000090F80080097849F6404412F10009A3F1EA
:101A10000F0318BF4FF00109A5F10105A742B5FA60
:101A200085F5D4BF00240124092BEBB04FEA5515EE
:101A300000F2C981BA4B1E68A6F10106B6FA86F615
:101A4000760912A80122FEF7A5FD16A801220021A1
:101A5000FEF7A0FD41461AA80122FEF79BFD49466C
:101A60001EA80122FEF796FD294622A80122FEF7B4
:101A700091FD26A801220021FEF78CFD21462AA80F
:101A80000122FEF787FD66AD012231462EA8FEF742
:101A900081FD2EA9284605F02DF82AA9284605F033
:101AA000CFF826A905F0CCF822A905F0C9F81EA99F
:101AB00005F0C6F81AA905F0C3F816A905F0C0F894
:101AC00012A905F0BDF8014632A805F013F8284622
:101AD00004F0BCFF934B19688B1EA1F10108B8FA02
:101AE00088F8012B4FEA581840F26F8149F64049B7
:101AF0004F45D4BF4FF000094FF001098A4A8B4B84
:101B000017681E688A4C112003F0BAFE894B824682
:101B1000196836A80122FEF73DFD874BA7F10107A2
:101B200019783AA80122B7FA87F7A6F10106FEF75D
:101B300031FD7F0941463EA80122B6FA86F6FEF73E
:101B400029FD7609394642A80122FEF723FD3146D8
:101B500046A80122FEF71EFD784B4AA819780122FB
:101B6000FEF718FD49464EA80122FEF713FD1AF1B3
:101B7000000118BF0121012252A8FEF70BFD52A956
:101B8000284604F0B7FF4EA9284605F059F84AA99F
:101B900005F056F846A905F053F842A905F050F8AB
:101BA0003EA905F04DF83AA905F04AF836A905F026
:101BB00047F8014656A804F09DFF284604F046FF6A
:101BC0005AA932A80023102205F066F856A85EA98B
:101BD0000023102205F060F85AA80222002108F024
:101BE0006DFC5EAB0C9002221846002108F066FCEA
:101BF000A3790D90524806226FF3000340F26A3138
:101C0000E271A3710068216006F090FB62AE80462D
:101C1000894630464B4904F059FF04F1080A4A4905
:101C2000284604F053FF9AE80300CDE902898DE8C5
:101C300003000FF2CC09D9E90089069607954FF009
:101C4000170E94E80C000EAFCDE908894FF0100B89
:101C50004FF000084FF00009CDF810E0CDE90A89F7
:101C60003846CDF814B0394902F096FD97E80F00D8
:101C700084E80F00284604F0E9FE304604F0E6FE52
:101C8000334B186806F052FB8046894630462D4992
:101C900004F01CFF2C49284604F018FF0022002302
:101CA0009AE80300CDE90A2315A3D3E900238DE8C0
:101CB0000300CDE90823CDE902894FF0270E0696EF
:101CC000CDF814B0079594E80C003846CDF810E034
:101CD0001E4902F061FD97E80F0084E80F002846D6
:101CE00004F0B4FE304604F0B1FE9DF830302372AB
:101CF0009DF83430637294E80F00FEF78BFC29E006
:101D0000000000A09999B93FA892FF1FC892FF1F39
:101D10007093FF1F4487FF1F9492FF1F9493FF1F30
:101D20007C93FF1F6493FF1F6893FF1F2892FF1F80
:101D30004892FF1FE893FF1F7C92FF1F4492FF1FF2
:101D40008093FF1F18D8000080D70000C492FF1FA7
:101D50005C93FF1F56A804F079FE52A804F076FEAB
:101D60004EA804F073FE4AA804F070FE46A804F0E2
:101D70006DFE42A804F06AFE3EA804F067FE3AA891
:101D800004F064FE36A804F061FE32A804F05EFEA2
:101D90002EA804F05BFE2AA804F058FE26A804F042
:101DA00055FE22A804F052FE1EA804F04FFE1AA809
:101DB00004F04CFE16A804F049FE12A804F046FEFA
:101DC0006BB0BDE8F08F00263BE64FF0010995E6C9
:101DD00010B5A34C236884B0002B67D0012B6CD0C6
:101DE000022B71D0032B76D0042B7BD0052B00F077
:101DF0008180062B00F08680072B00F08B80082B5B
:101E000000F09080092B00F095800A2B00F09A805A
:101E10000B2B00F09F800C2B00F0A4800D2B00F00A
:101E2000A9800E2B00F0AE800F2B00F0B380102B9A
:101E300000F0B880112B00F0BD80122B00F0C280A2
:101E4000132B00F0C780142B00F0CC80152B00F072
:101E5000D180162B00F0D680172B00F0DB80182BDA
:101E600000F0E080192B00F0E5801A2B00F0EA80EA
:101E70001B2B00F0EF8000217A4804F0CDFB7A485C
:101E800004F020FD6846794904F020FE6846784950
:101E900004F0D6FE0146744804F0EEFC724804F0EB
:101EA00011FD684604F0D2FD04B010BD71497048C0
:101EB00004F084FE2368012B92D16F496C4804F032
:101EC0007DFE2368022B8DD16C49694804F076FEB3
:101ED0002368032B88D16A49654804F06FFE2368A4
:101EE000042B83D16749624804F068FE2368052B00
:101EF0007FF47FAF64495E4804F060FE2368062BE0
:101F00007FF47AAF61495A4804F058FE2368072BE2
:101F10007FF475AF5E49564804F050FE2368082BE5
:101F20007FF470AF5B49524804F048FE2368092BE8
:101F30007FF46BAF58494E4804F040FE23680A2BEB
:101F40007FF466AF55494A4804F038FE23680B2BEE
:101F50007FF461AF5249464804F030FE23680C2BF1
:101F60007FF45CAF4F49424804F028FE23680D2BF4
:101F70007FF457AF4C493E4804F020FE23680E2BF7
:101F80007FF452AF49493A4804F018FE23680F2BFA
:101F90007FF44DAF4649364804F010FE2368102BFD
:101FA0007FF448AF4349324804F008FE2368112B00
:101FB0007FF443AF40492E4804F000FE2368122B03
:101FC0007FF43EAF3D492A4804F0F8FD2368132B07
:101FD0007FF439AF3A49264804F0F0FD2368142B0A
:101FE0007FF434AF3749224804F0E8FD2368152B0D
:101FF0007FF42FAF34491E4804F0E0FD2368162B10
:102000007FF42AAF31491A4804F0D8FD2368172B12
:102010007FF425AF2E49164804F0D0FD2368182B15
:102020007FF420AF2B49124804F0C8FD2368192B18
:102030007FF41BAF28490E4804F0C0FD23681A2B1B
:102040007FF416AF25490A4804F0B8FD23681B2B1E
:102050007FF411AF2249064804F0B0FD0BE700BF42
:102060007C93FF1FD8E000009C87FF1FF8D9000079
:102070005C92FF1F1CD8000024D8000030D800005C
:1020800038D8000044D800005CD800006CD80000AC
:1020900084D8000094D80000A8D80000B8D8000068
:1020A000D0D80000E8D80000FCD800000CD900000F
:1020B0001CD9000038D9000044D9000050D90000D4
:1020C00060D9000070D9000080D9000090D90000CC
:1020D000A4D90000B0D90000CCD90000D8D90000A4
:1020E000E8D9000010B500216A486B4C04F094FA5E
:1020F0006A4804F0E7FB236833B3012B2ED0022B90
:1021000036D0032B3ED0664C2368002B45D0012BE4
:102110004DD0022B55D0032B5DD0042B65D0052B61
:102120006DD0062B75D0072B7DD05E4C2368002B1D
:1021300000F08580012B00F08D80022B00F095804F
:10214000032B00F09D8010BD2221574804F064FA53
:10215000524804F0B7FB2368012BD0D11E2153480D
:1021600004F05AFA4D4804F0ADFB2368022BC8D1A5
:102170001A214F4804F050FA484804F0A3FB2368A2
:10218000032BC0D118214B48454C04F045FA434875
:1021900004F098FB2368002BB9D11C21464804F0B9
:1021A0003BFA3E4804F08EFB2368012BB1D11A2183
:1021B000424804F031FA394804F084FB2368022BCA
:1021C000A9D11A213E4804F027FA344804F07AFBDA
:1021D0002368032BA1D11D213A4804F01DFA2F4892
:1021E00004F070FB2368042B99D11D21364804F0BC
:1021F00013FA2A4804F066FB2368052B91D11D21B0
:10220000324804F009FA254804F05CFB2368062BE9
:1022100089D119212E4804F0FFF9204804F052FB1F
:102220002368072B81D117212A481E4C04F0F4F9AA
:102230001A4804F047FB2368002B7FF47BAF26216C
:10224000254804F0E9F9154804F03CFB2368012B0C
:102250007FF473AF2221214804F0DEF90F4804F027
:1022600031FB2368022B7FF46BAF1E211C4804F066
:10227000D3F90A4804F026FB2368032B7FF463AFED
:102280001C21184804F0C8F90448BDE8104004F0C7
:1022900019BB00BFD8E000006493FF1F9C87FF1F9D
:1022A0006893FF1F0494FF1F10DA000034DA000067
:1022B00054DA000070DA00008CDA0000ACDA0000BA
:1022C000C8DA0000E4DA000004DB000024DB0000D0
:1022D00044DB000060DB000078DB0000A0DB0000D6
:1022E000C4DB0000E4DB000010B500217B487C4C1F
:1022F00004F092F97B4804F0E5FA17217A4804F0DB
:102300008BF97A4B7748196804F030FB0221784842
:1023100004F082F9734804F0D5FA2368002B37D013
:10232000012B3FD0022B47D0032B4FD0042B57D08B
:10233000052B5FD0062B67D0072B6FD06D4C236821
:10234000002B76D0012B7ED0022B00F08780032B50
:1023500000F08F80042B00F09780052B00F09F8009
:10236000062B00F0A780072B00F0AF801A216248EF
:1023700004F052F9614B5B48196804F0F7FA012147
:102380005F4804F049F95748BDE8104004F09ABA94
:102390001D215C4804F040F9524804F093FA236888
:1023A000012BBFD11E21584804F036F94D4804F0E6
:1023B00089FA2368022BB7D11E21544804F02CF966
:1023C000484804F07FFA2368032BAFD11D21504801
:1023D00004F022F9434804F075FA2368042BA7D1CE
:1023E0001D214C4804F018F93E4804F06BFA2368AC
:1023F000052B9FD11D21484804F00EF9394804F0FF
:1024000061FA2368062B97D11D21444804F004F992
:10241000344804F057FA2368072B8FD1162140481F
:10242000344C04F0F9F82F4804F04CFA2368002BE0
:1024300088D11B213B4804F0EFF82A4804F042FA07
:102440002368012B80D11B21374804F0E5F825488B
:1024500004F038FA2368022B7FF479AF2421334843
:1024600004F0DAF81F4804F02DFA2368032B7FF4F8
:1024700071AF1B212E4804F0CFF81A4804F022FA5D
:102480002368042B7FF469AF1B212A4804F0C4F8A9
:10249000144804F017FA2368052B7FF461AF1B2161
:1024A000254804F0B9F80F4804F00CFA2368062B0D
:1024B0007FF459AF1721214804F0AEF8094804F021
:1024C00001FA2368072B7FF451AF15211C4804F053
:1024D000A3F8044804F0F6F948E700BFD8E000008C
:1024E000D493FF1F9C87FF1F04DC0000E493FF1FB1
:1024F0001CDC00003892FF1FFCDD00006093FF1F12
:10250000F8DD000020DC000040DC000060DC0000A2
:1025100080DC0000A0DC0000C0DC0000E0DC00008B
:1025200000DD000018DD000034DD000050DD00009B
:1025300078DD000094DD0000B0DD0000CCDD00009F
:10254000E4DD000010B500213448354C04F064F897
:10255000344804F0B7F923687BB1012B17D0022B64
:102560001FD0032B27D0304C23687BB3012B37D0EF
:10257000022B3FD0032B47D010BD17212B4804F06E
:102580004BF8284804F09EF92368012BE7D1182165
:10259000274804F041F8234804F094F92368022BFB
:1025A000DFD11C21234804F037F81E4804F08AF9D3
:1025B0002368032BD7D116211F481B4C04F02CF89D
:1025C000184804F07FF92368002BCFD12B211B483A
:1025D00004F022F8134804F075F92368012BC7D1E1
:1025E0002721174804F018F80E4804F06BF9236807
:1025F000022BBFD12621134804F00EF8094804F03D
:1026000061F92368032BB7D121210F4804F004F8A6
:102610000448BDE8104004F055B900BFD8E0000000
:102620002892FF1F9C87FF1FD093FF1F18DE00001A
:1026300030DE00004CDE00006CDE000084DE0000B6
:10264000B0DE0000D8DE000000DF000070B5002121
:102650005448554D03F0E0FF544804F033F900218D
:10266000504803F0D9FF514804F02CF91D2150487F
:1026700003F0D2FF4D4804F025F90021494803F04A
:10268000CBFF4A4804F01EF91C214A4803F0C4FF5E
:102690002C68012C4DD064B31C21474803F0BCFFCB
:1026A000464B4248196804F061F9454B1B68012B01
:1026B00005D0444C2368052B53D0062B57D000215E
:1026C0003848414D03F0A8FF384804F0FBF81C21BE
:1026D0003E4803F0A1FF2C68012C12D004B170BD5C
:1026E00003213B4803F098FF3048BDE8704004F0F8
:1026F000E9B80321364803F08FFF2C4804F0E2F8D4
:10270000CAE7344B2948196804F030F9324B1B688A
:10271000012B05D0314E3368032B2DD0042B3CD038
:102720000021204803F078FF204804F0CBF82C6803
:10273000D4E72B4B1D48196804F018F9294B1B6886
:10274000012B05D0284E3368052B20D0062B19D03D
:102750000021144803F060FF144804F0B3F82C681B
:1027600099E70121214803F057FF2368A5E70221DB
:102770001F4803F051FFA2E721461E4803F04CFF1B
:102780003368CBE702211A4803F046FFE0E7214611
:10279000164803F041FF3368D8E70221164803F0DA
:1027A0003BFFBDE7D8E00000C493FF1F9C87FF1FDD
:1027B00024DF000044DF00006CDF00008092FF1F78
:1027C0004092FF1F8C93FF1F8893FF1F8CDF000038
:1027D00074DB00003492FF1FEC93FF1FF893FF1F80
:1027E0008C92FF1F8492FF1FE093FF1F64DF0000A5
:1027F00068DF0000F8DD0000ACDF000010B52E211E
:10280000BB48BC4C03F008FFBB4804F05BF8242134
:10281000BA4803F001FFB84804F054F80021B84862
:1028200003F0FAFEB44804F04DF81021B54803F067
:10283000F3FEB14804F046F80C21B34803F0ECFE77
:102840002368002B00F0B881012B00F0C081AF4C51
:10285000AF480D2103F0E0FE2368002B00F0DE817D
:10286000012B00F0E681AB4CAB48132103F0D4FE02
:102870002368002B00F0BF81012B00F0C7811321DA
:10288000A648A74C03F0C8FEA64B9B48196804F065
:102890006DF80121A44803F0BFFE974804F012F838
:1028A0001721A24803F0B8FEA14B9348196804F021
:1028B0005DF801219F4803F0AFFE8F4804F002F855
:1028C00017219D4803F0A8FE9C4B8B48196804F023
:1028D0004DF801219A4803F09FFE874803F0F2FF6C
:1028E0001821984803F098FE974B8348196804F024
:1028F0003DF80121924803F08FFE7F4803F0E2FF8C
:102900001821924803F088FE914B7B48196804F027
:102910002DF80121874803F07FFE774803F0D2FFAE
:102920000021774803F078FE734803F0CBFF0F21B6
:10293000884803F071FE704803F0C4FF12218648F6
:1029400003F06AFE854B6C48196804F00FF801210A
:10295000834803F061FE684803F0B4FF1821814802
:1029600003F05AFE804B6448196803F0FFFF012111
:102970007B4803F051FE604803F0A4FF002160484B
:1029800003F04AFE5C4803F09DFF00215C4803F021
:1029900043FE594803F096FF1521744803F03CFEAE
:1029A000554803F08FFF0D21714803F035FE714B40
:1029B0005148197803F0DAFF0021514803F02CFE4A
:1029C0004D4803F07FFF12216B4803F025FE6B4B4F
:1029D0004948197803F0CAFF0021494803F01CFE5A
:1029E000454803F06FFF0E21654803F015FE654B67
:1029F0004148197803F0BAFF0021414803F00CFE6A
:102A00003D4803F05FFF00213D4803F005FE3A48D2
:102A100003F058FF2378002B40F0E18020215A4832
:102A200003F0FAFD344803F04DFF0021344803F071
:102A3000F3FD314803F046FF1721544803F0ECFD45
:102A4000534B2D48196803F091FF2B4803F03AFFD0
:102A50001321504803F0E0FD4F4B2748196803F05D
:102A600085FF254803F02EFF1A214C4803F0D4FDC2
:102A70004B4B2148196803F079FF0321494803F0C3
:102A8000CBFD1D4803F01EFF2321474803F0C4FD82
:102A9000464B1948196803F069FF0121284803F0E3
:102AA000BBFD154803F00EFF1B21414803F0B4FDA8
:102AB000404B1148196803F059FF0121204803F0E9
:102AC000ABFD0D4803F0FEFEFFF782F9FFF70AFBAE
:102AD000FFF70AFCFFF736FDFFF7B8FD2E2104488B
:102AE00003F09AFD0448BDE8104003F0EBBE00BFC0
:102AF000B0DF0000A892FF1F9C87FF1FE0DF0000EF
:102B0000D8E0000008E000001CE000001C92FF1F5D
:102B100030E00000C892FF1F48E000005CE00000C9
:102B20007C92FF1FD893FF1F70E0000074E000004C
:102B3000AC93FF1F64DF00008CE00000D892FF1F01
:102B4000F8DD0000A4E000000094FF1FC0E00000DA
:102B5000BC93FF1FDCE00000ECE000008093FF1F4F
:102B600000E1000004E100005C93FF1F20E1000091
:102B700038E100004492FF1F48E100009493FF1FDA
:102B80005CE100000894FF1F6CE10000B4E100006C
:102B90004487FF1FCCE100009C93FF1FE0E1000091
:102BA0007093FF1FFCE1000000E20000C893FF1FCC
:102BB00024E200003887FF1F0221224803F02CFD89
:102BC000214803F07FFE2368012B7FF440AE0521EE
:102BD0001E4803F021FD1C4803F074FE37E6202157
:102BE0001B4803F019FD184803F06CFE2378002BF6
:102BF0007FF41BAF12E70221164803F00DFD1248C7
:102C000003F060FE2368012B7FF439AE03211248E4
:102C100003F002FD0C4803F055FE30E602210D489A
:102C200003F0FAFC084803F04DFE2368012B7FF403
:102C30001AAE0321084803F0EFFC034803F042FEFC
:102C400011E600BF2CE000009C87FF1F58DB00004E
:102C500090E1000040E0000044E0000008B54FF4BF
:102C6000967002F021FE00210B2002F003FE0021ED
:102C70000C2002F0FFFD0021162002F0FBFD0021D8
:102C8000172002F0F7FD0021052002F0F3FD024BB2
:102C900000221A7008BD00BF4492FF1F38B5234AB6
:102CA000234B11681B68994218DDCB1A214C2278FE
:102CB0004AB921480268182B02F10102026018DDAE
:102CC000132A04DC38BD1C4B1A68132AFADD1B4B8F
:102CD00001221A70BDE83840FFF7C0BF01DA5B1A65
:102CE000E4E7144C2378002BEDD1134B1A68013222
:102CF0001A60312AEBDC124B1D78002DE0D1C82977
:102D0000DEDD642002F0D0FD0121172002F0B2FDCB
:102D1000C82002F0C9FD29460B2002F0ABFD0123BB
:102D200023700A20BDE8384002F0BEBDAC93FF1FFF
:102D30008093FF1F4492FF1FC092FF1F9493FF1FB9
:102D40009492FF1F08B5102002F09AFD012804BFDD
:102D5000054B1870102002F093FD20B9024A034B76
:102D6000107001221A7008BD0894FF1F9492FF1F73
:102D7000F0B5642085B0B94D02F096FD05F110065E
:102D80002F462C46601B02F099FC04F8010BA6426A
:102D9000F8D13B78142B01D0FDF7DAFB0024234651
:102DA0007968AF4A0094AF4801F0D0F89DF80C3034
:102DB000029443F0010364F341038DF80C300424C2
:102DC000E2B202A90134A74801F086F8102CF7D12D
:102DD000082001F027FCA44BA44C1860082001F047
:102DE00021FCA34B2568A34AA34EA44F186040F2D0
:102DF000EE2013783BB13378D90704D523683968BE
:102E00005B1A0E2B08D8236811785B1B002900F091
:102E1000D880B3F5FA6FECD90C21994803F0FCFB8C
:102E2000984803F04FFD1821974803F0F5FB9548AB
:102E300003F048FD1421934803F0D4FD914803F0BA
:102E400041FD1721914803F0E7FB8E4803F03AFD5E
:102E50008F4B1B789A0600F147818D4B1B781B071F
:102E600000F13A818A4B1B785F0700F1EE80884BB6
:102E70001B789E0700F1D580864B1B781D0600F15C
:102E8000DC80844B1B785C0600F1C380814B1B788F
:102E9000980600F1B6807F4B1B78590700F1A98096
:102EA0007C4B1B781A0700F19C807A4B1B789B07A0
:102EB00000F18F80734803F005FD72B6764A4CF23C
:102EC00020504DF62811108020231180013BFDD1A8
:102ED00072487349734B00244FF4805505800C8071
:102EE0001C8032F80E3C9BB243F0D30322F80E3C18
:102EF0002146102002F0D2FC2146112002F0CEFC27
:102F00002146122002F0CAFC2146132002F0C6FC22
:102F100001210B2002F0C2FC01210C2002F0BEFCBA
:102F20000121142002F0BAFC0121152002F0B6FCA8
:102F30000121162002F0B2FC0121172002F0AEFCA4
:102F40000121052002F0AAFC21460B2002F092FC90
:102F500021460C2002F08EFC2146162002F08AFC4D
:102F60002146172002F086FC2146052002F082FC53
:102F70000121142002F07EFC642002F095FCFFF792
:102F8000E1FE01210D2002F089FC01210D2002F05B
:102F900071FC0C2002F09AFA434B1B78ABB1434B07
:102FA0001B78002B00F0A880642002F07DFC0F212C
:102FB0003F4803F031FB334803F084FC62B605B0B0
:102FC000F0BD83427FF615AF26E73A4B01221A7017
:102FD000EAE71821384803F01FFB2A4803F072FC87
:102FE00068E71921354803F017FB264803F06AFC0F
:102FF0005BE71C21324803F00FFB224803F062FC20
:103000004EE713212F4803F007FB1E4803F05AFC3C
:1030100041E712212C4803F0FFFA1A4803F052FC52
:1030200034E71721294803F0F7FA164803F04AFC61
:10303000184B1B781D067FF524AF0E21244803F0A2
:10304000EBFA104803F03EFC1BE70E21214803F089
:10305000E3FA0C4803F036FC09E700BF6C92FF1F4F
:10306000A895FF1F0C94FF1F2492FF1FC095FF1F00
:10307000DC93FF1FA496FF1FBC96FF1F2897FF1F1E
:1030800040E200009C87FF1F50E200006CE200005D
:1030900001F0074000F007400E20054004200540E5
:1030A00006200540162005400894FF1F9492FF1F3C
:1030B00070E300009493FF1F54E3000038E3000026
:1030C00018E3000004E30000F0E20000C8E20000A2
:1030D000E0E20000B8E200000C21094803F09CFA8D
:1030E000084803F0EFFBBDE62121074803F094FAFE
:1030F000044803F0E7FBB0E6FDF7B8F954E700BF7A
:10310000A8E200009C87FF1F84E2000070B5122037
:1031100002F010FA464C474E2060132002F00AFAE3
:103120002468454A454B4649186002FB04F202F206
:10313000FF7281FB0241404BD4171144C4EBE121E3
:1031400003FB00F33E4C03F2FF73002A84FB0324CD
:103150001C444FEAE372B8BF01F1FF31C2EBE42433
:10316000002B0846B8BF04F1FF3405F0D7FC354901
:1031700005F0DCFD05F076FE334B05461D6020466C
:1031800005F0CCFC2F4905F0D1FD05F06BFEA5F54F
:1031900061534FF4BD7202FB03F32C4A2C492D4DB1
:1031A000086003F5E16382FB03421A44002B4FEAF7
:1031B000E374A0F561514FF4BD7303FB01F1234BA0
:1031C00001F5E161C4EBE22483FB01230B444FEAE8
:1031D000E172B8BF04F1FF34C2EBE3230029B8BFAA
:1031E00003F1FF33092C2C60336005DC0022092B2E
:1031F0002A600EDC326070BD092B13DC0023C82C62
:10320000336014DD144B2046196801F02DFA336841
:103210002860C82BEFDD114A1846116801F024FA26
:10322000306070BDC82CEDDCC82BF4DCE3E770BD6A
:10323000A093FF1F5C93FF1F10090500CC92FF1F96
:10324000810008809A9901419893FF1FC5B3A2910C
:10325000A492FF1F8093FF1F2492FF1FDC93FF1F88
:103260002DE9F04F8BB001E0FDF7E4FD394800F0A7
:1032700027FF0028F8D103F0A5F9002807DD36481C
:1032800003F0E0FB431EC72B9CBF344B1860344C4B
:10329000344A23680393039B11685B1AFA2B28D9DD
:1032A000236805930598304923680493049B0968B3
:1032B00010605B1AB3F5FA7F06D92C4A1368032B0A
:1032C00000F3688101331360294B1B78002B40F019
:1032D0005981284D2B7813B3274E3368012B1EDDFF
:1032E0000121152002F0C6FA2B78C3B13368012BF7
:1032F00015DD2368214A0693069B116818485B1A5E
:10330000642B43D823681E4A0893089B116814480D
:103310005B1AB3F5FA7F07D80BB0BDE8F08F002138
:10332000152002F0A7FAE4E703680993099B1360EC
:1033300072B6144B4AF202614BF2804219801A8035
:1033400062B6FEF751FB104B1B68012BE4D1FFF76F
:1033500055FAE1E70C94FF1F9C87FF1F3887FF1F7A
:10336000C095FF1FB493FF1FB093FF1F9093FF1FE3
:103370000894FF1F4492FF1FD893FF1FB893FF1FAD
:103380009092FF1F0C2005402887FF1F03680793BA
:10339000DFF89482079B1360FEF74EF8FDF764FE9A
:1033A000FDF788FFFEF7D2F8FEF75AF9FEF7E2F9CB
:1033B000FEF768FAFEF7EEFAFFF7A8FEFFF7C2FC89
:1033C00098F800304BB17D4B1B683B2B40F3FC82DF
:1033D0007B4A0023136088F80030DFF848B2DBF83E
:1033E0000030012B00F0B280764B1B68012B00F0FF
:1033F000AD80754B1B78002B40F0A880DFF820A231
:10340000724D9AF8003023B1714B1B78002B00F0FD
:10341000CD822B68012B00F00D81022B40F02F8311
:103420006C4A6D4B11686D4E6D4FDFF800921A6853
:103430003B294FF0010333603B60C9F8003028DCC2
:10344000684B1B68C82B24DDDFF8BC81D8F800303E
:10345000012B1ED1644B1B68012B1AD1634B1B68D7
:10346000012B16D1AAB9DFF8C8B1DBF80030022B66
:103470000FD15F4B196842F23413994209DD5D4B5D
:103480001B68022B05D15C4B1B68012B04BF5B49F9
:103490000B605B4B1B68002B40F02A81594B0121CC
:1034A0001970022A00F001832B68042B00F04F8171
:1034B000052B00F0B282062B00F06D81072B00F087
:1034C0005F83082B00F03282092B00F0A1820F2BC2
:1034D00000F02881102B00F05883112B00F076812A
:1034E000122B00F01981142B00F00B81152B00F02A
:1034F000CD81162B00F08881172B00F03782182B16
:1035000038D1414B1B68172B03D03B4A1268012A64
:103510004BD119232B60304B3C481A683C4901239E
:1035200003600B6012B9354B0A601A60394B1B7887
:1035300023B93949394A0120086013602A4B1B68B6
:10354000002B7FF4DFAE01232B60DBE6DFF8D0A099
:10355000224E234FDFF8D4901C4D9AF8002001230F
:10356000336000233B60C9F8003019232B60002A28
:103570007FF44AAFA3F10F02092A14D9192B7FF463
:10358000C1AEC8E7264DFFF789FB2B78002B7FF4EF
:10359000A3AEC4E6234B01221A600D4B1B78002B0F
:1035A0003FF497AEEEE7184B1B68012B00F01F822B
:1035B0002B68192B7FF4A6AEADE700BFA092FF1FCA
:1035C000D492FF1FC892FF1F9493FF1F4487FF1FD1
:1035D0000894FF1F5C93FF1F6893FF1FFC93FF1F5E
:1035E000D092FF1FA893FF1F6493FF1F0494FF1F37
:1035F000E493FF1F2892FF1FD093FF1FCC93FF1F60
:103600003892FF1F7C92FF1F7C93FF1F3C87FF1F98
:103610005892FF1F7D92FF1F2092FF1F9C93FF1F58
:103620004492FF1FA892FF1FF093FF1F2C92FF1FD1
:10363000D493FF1FDBF80020002A9BD1984A126820
:10364000002A97D198F800203AB9964E964FDFF8A5
:10365000B49233603B60C9F80030944A944895496D
:10366000954E964F00231360954A036095480B6072
:1036700013609549954A33600360012611203B7021
:103680000E60166002F0FCF818B1914B1A7802B97E
:103690001E70112002F0F4F80246C0B98C490B7874
:1036A000ABB18C4E8C4F33680870013319468B4890
:1036B00033603A6003F05AF91721894802F0ACFFF1
:1036C000864803F0FFF833680A2B00F01D82854B13
:1036D0001B683B2B0ADC844B1A68C82A06DDDFF81E
:1036E0004082D8F80020012A00F012822B6894E66C
:1036F000012B7FF4D6AE7D4B00211970D1E6142347
:103700002B60DFF81C82D8F80030122B00F0C1814A
:103710002B68EEE612232B60754B1B68012BEED055
:103720002B68E3E6DFF8F88110232B60D8F800302F
:10373000704E7148714901220327102B37600260D7
:103740000A6000F0B5812B68CAE604232B60674B42
:10375000544E1A78544FDFF8AC91002301213360A6
:103760003B60C9F80010002A40F031814C4B1B68C7
:103770000BB94F4B1960DFF8ACB1DBF80030032B0D
:1037800000F0AD81DFF89881D8F800300E2B00F002
:103790002B812B688FE6434E434FDFF86891072358
:1037A0002B60574B444A1968404800231360022994
:1037B0004FF0010233603B600260C9F80020394FCE
:1037C000394E504800F01D812B687DE6DFF85081AE
:1037D000D8F80030324A126892B94B494B4A09680E
:1037E000126891420CDD4A494A4A096812689142BE
:1037F00006DA2F4A01211160112B8BD02B6872E65B
:10380000304A01211160F7E7DFF81481424B254E61
:103810001B68DFF8F090244F4049DFF80CA100222C
:103820003260C9F80020C82B4FF001023A6000F363
:10383000B880C72B0B60DAF8002000F3B480934205
:10384000B4BF0A680A6020490B689342BCBF0133C9
:103850000B609342C8BF03F1FF334FF01100C8BFA4
:103860000B6002F00DF810B9DAF800303BB91448DB
:1038700012490F4A012303600B7000231360D8F82C
:103880000030122B00F008812B6835E6DFF89080BD
:10389000D8F80030142BF7D116232B60B6E700BF01
:1038A000C892FF1FFC93FF1FD092FF1F5892FF1F6B
:1038B0009C93FF1F3092FF1FCC93FF1F7D92FF1F31
:1038C0002092FF1FE893FF1F3887FF1F3C87FF1FD1
:1038D000C093FF1FD492FF1FA092FF1F9C87FF1F62
:1038E00080E300005C93FF1FA893FF1F7C92FF1FE3
:1038F0002892FF1FA493FF1F2C87FF1F4887FF1FDD
:103900006893FF1F2C92FF1FAC93FF1F8092FF1F35
:10391000BC93FF1F8C92FF1F3492FF1FC893FF1FA1
:103920007C93FF1FD493FF1F0094FF1F984B994E69
:103930001A68994FDFF870920023012133603B60D1
:10394000C9F80010002A61D109232B60934B196834
:103950000022012332603A60C9F8003021B9904A50
:1039600012680AB92B6005E62B68B3E58D4B894FC9
:103970001B68894E8C4900220120162B3A60326068
:1039800008600BD0894A1268022A07D0884A116859
:1039900042F23412914201DC2B68EBE518222A60D6
:1039A000B1E5DAF80020C820086048E7794E7A4F80
:1039B000DFF8F4910193FFF751F9019B3B6001227D
:1039C0003260C9F8003024E5FCF762FD05E5DFF858
:1039D000DCB1DBF80030032B73D0DFF8C881D8F8F6
:1039E0000030022B7FF4D2AE0F232B609CE6694A95
:1039F00069486D4913600023192203600B602A6037
:103A000089E508213B603360026029602B685EE530
:103A1000604E614FDFF8909198E75E4E5E4FDFF8A1
:103A20008891DFF888B16349634A644B4FF000081E
:103A30004FF0010A1120C1F80080C6F80080C9F8D3
:103A40000080C2F800A0C7F800A0C3F800A001F0F1
:103A500017FF28B15A4A5B4BC2F800A0C3F8008098
:103A6000DBF80030012B26D0022B7FF492AE504BB6
:103A70001A6842F234139A423FF791AE89E6032B5B
:103A80007FF413AD424B1B68012B3FF45EAE2B68F5
:103A90000EE515232B60F7E617210022296001218E
:103AA00032603A60C9F800106CE703232B60EEE740
:103AB00011222A608EE64249424A0B6000231360BD
:103AC0006DE63B4B196841F66313994285DC3D4B2B
:103AD0001B68012B0BD0002A7FF47FAF52E6344BDA
:103AE000196841F6631399423FF74CAEEFE7002A9D
:103AF0007FF473AFDFF8AC80D8F8003005220E2BCE
:103B00002A603FF471AF8EE7012388F80030DEE5CC
:103B1000224A1268012A7FF4E9AD214A1268012A7B
:103B20007FF4E4AD1A4A1268002A7FF4DFADDFF8B3
:103B30007CB0DBF8001002297FF4D8AD1C4908687E
:103B400042F2341188427FF7D1AD1F49096802293A
:103B50007FF4CCAD1D49096801297FF4C7AD9AF8FF
:103B6000001000293FF4C2AD0A4E0B4FDFF8389029
:103B70000121022031603960C9F80010286060E43A
:103B8000044E054FDFF820900BE6DFF81880CDE5F6
:103B90006893FF1FFC93FF1FD092FF1F6493FF1FCA
:103BA0000494FF1F7C93FF1F2C92FF1FD493FF1FD1
:103BB000E493FF1FA493FF1F2C87FF1F4887FF1F5D
:103BC0002092FF1F9C93FF1F2892FF1FD093FF1F7F
:103BD00010B5074C01F02CFD2046064902F076FF97
:103BE0002046054A0549BDE8104004F047BA00BF29
:103BF0005C92FF1FD8E000002087FF1F4D6A000085
:103C000001F016BD00207047704700BF30B40B466E
:103C1000054603C905EBC204043484E8030019799E
:103C200011F0010F296812D11C6812481023843149
:103C300013FB0211A404204008602968803113FBA3
:103C4000021230BC136823F4001313607047186825
:103C50008431102313FB021120F0604008602968B2
:103C6000803113FB021230BC136843F4001313605D
:103C7000704700BF0000FC1F4388826810B59BB2EC
:103C80000446084602EB0311102201F039FA63885A
:103C9000A1889BB2013393FBF1F201FB12339BB27B
:103CA0006380012010BD00BFF8B5204C204A217967
:103CB0000546034601F0FD0102202A606FF3000172
:103CC000002285F894011D2720261020C5F8A02089
:103CD000C5F8F870A5F89661A5F8980121712260E1
:103CE000114643F8B02F05F1F00243F8041F934248
:103CF0004FF00004F9D1C5F88440C5F88840C5F8F4
:103D00008C40C5F890409822214605F1FC0005F052
:103D100027FE1F220F2385F8FC40C5F80841C5F88F
:103D20000021C5F80C312846F8BD00BFA895FF1F3B
:103D30000040024038B5D0F8A03003B138BD044689
:103D4000B0F89801000102F0EDFFD4F8B020C4F8FB
:103D5000A000AAB10023B4F89851B4F89611A4F8C1
:103D60009430C4F89C00A4F89630C4F8AC20A4F8B1
:103D7000A430A4F89850A4F8A810A4F8A63038BD30
:103D8000B4F89601000102F0CDFFC4F8B00002467D
:103D9000D4F8A000DEE700BFF8B52C4BB3FBF1F57B
:103DA000052DB3FBF5F6A1EB06064BD900229E4686
:103DB0001746931CB5FBF3F4192C02F1010203FB27
:103DC00004F3F6D8BEFBF3F3CB1A002BB8BF5B426B
:103DD000B3422EDB2FD0052CEBD87B1CB5FBF3F5C3
:103DE000053D142D1CD8B6F5967F19DC184A0068DD
:103DF00005EB45055319515D5A789B7801F0070191
:103E000041F48001D20441F4804102F460121B04A9
:103E10000A4303F4E023134343EA07674760F8BD0E
:103E200039210C4802F0F8FB0B48BDE8F84002F0DD
:103E300049BD1E4617460B2CCDD9122C9CBF1E46E1
:103E40001746C8E701230027C8E700BF0024F40095
:103E50005087FF1F98E300009C87FF1F0F2930B495
:103E600004462DDC69BBD0F8A030012084F8940111
:103E700023B3002210252368803315FB023301325F
:103E8000196801F4001141F08061196094F89401FF
:103E9000C0F11003D2B2DBB29342ECD80F2B0DD895
:103EA00010204FF000612268803210FB03220133A2
:103EB000DBB2102B1160F6D194F8940130BC70473E
:103EC0000F21D4F8A03084F894111BB11029D0D15F
:103ED0000023E5E70846F1E790F89431C3F11003B9
:103EE000DBB29A4201D2FFF791BE704790F894314D
:103EF000C3F11003DBB29A4220D2036810B41C68ED
:103F0000E4011CD41C6844F080441C6004682368ED
:103F100043F08053236004682368DB01FCD504F57B
:103F2000086404EB820211600268136823F0805376
:103F3000136002681368DB01FCD410BC704703F502
:103F4000086303EB820210BC1160F7E72DE9F04132
:103F50000546164698460C469DF81870FFF7EAFE8F
:103F60002A68524B9A4200F08F80514A4F49137889
:103F700043F0800313702B688B427BD05A6822F485
:103F800000525A602A68136843F0804313602A681D
:103F9000136823F0004313602A681368DB02FCD423
:103FA000136883F0007313602B681A689701FCD4C0
:103FB0001A68D001FCD51A6842F400321A60214612
:103FC0002846FFF7E9FE2A68136843F4803313603C
:103FD00095F89431102B18BF002404D11DE0013452
:103FE000E4B29C4219D2224600212846FFF77EFF08
:103FF00095F89431C3F11003DBB2A342EFD9224606
:1040000031462846FFF702FE95F894310134C3F19A
:104010001003DBB2E4B29C42E5D32A68136823F0B4
:10402000805313602B681A68D101FCD41A681201FE
:10403000FCD495F894112846FFF710FFD5F8F83016
:1040400003F1604303F5644340221A70D5F8F82069
:1040500053099B0003F1604303F5614302F01F0223
:10406000012101FA02F21A602B684FF6FF729A6280
:10407000BDE8F081A2F5E732A2F5E272136843F0E1
:10408000100313602B6879E7B8F1010F06BF03F541
:1040900018334833074B4FF40072012F1A600CBFDE
:1040A000054B064B4FF400721A605EE70040024079
:1040B00000500640309004404CA00440349004402E
:1040C000D0F8F83030B45C09A10001F1604101F58D
:1040D000614101220968144D03F01F0302FA03F342
:1040E000194008BF002280F8F42045F82430B0F8C9
:1040F000A430B0F8A6209BB292B29B1A44BFB0F88D
:10410000A8209B1869B1D0F8F8104A09920002F172
:10411000604202F5614201F01F01012000FA01F145
:104120001160184630BC704780E100E0F8B50446E5
:10413000D0F8F8001A4F4609B30003F1604303F5C5
:10414000614301221D6800F01F0002FA00F31D42C6
:1041500014BF1546002584F8F45047F82630B4F80B
:10416000A420B4F8A63092B29BB29A4216D004F1C1
:10417000A400FFF781FD94F8F45075B1D4F8F8204D
:1041800053099B0003F1604303F56143012102F0F1
:104190001F0201FA02F21A60F8BDF8BD0020ECE738
:1041A00080E100E070B48B7913F0010F036828D030
:1041B0000C681025843315FB023324F0604412FB95
:1041C00005F21C6003688C68883324BA9C5003682D
:1041D000CC688C3324BA9C508B79DC071DD513F046
:1041E000020FCB7901684FEA034303F4702301F116
:1041F000800114BF43F0476343F046638B5070BCAB
:1042000070470D680E4C1026843316FB0233AD0444
:104210002C4012FB06F21C60D4E713F0020FCB799E
:1042200001684FEA034303F4702301F1800114BFD6
:1042300043F0416343F040638B5070BC704700BF54
:104240000000FC1F0368F0B58033102717FB023312
:104250008C791D688D80C5F34056C5F30343C5F3C3
:10426000005E66F30004CB7106686EF3410404F04F
:10427000FB046FF3C70417FB02668C7191F806E02C
:10428000D6F884401EF0010F24F060440C60C5F3A2
:10429000036504BFA40C0C60062D25D0D6F8884019
:1042A000CC72260A250C042B4FEA14648E724D72D0
:1042B0000C7210D900688C3017FB0202072B1268B1
:1042C000CA734FEA12244FEA12404FEA12628C730B
:1042D00048730A7307D807330B4400220F3103F8E1
:1042E000012F8B42FBD1F0BD8C7944F004048C711A
:1042F000D4E700BF38B50B888D8848889BB201335E
:1043000093FBF5F405FB14339DB283B29D420CD0B0
:104310000B8888680C469BB2114600EB03101022F4
:1043200000F0EEFE2580012038BD002038BD00BF22
:10433000F8B50446D0F8F8002B4E4509AB0003F160
:10434000604303F5614301221F6800F01F0002FA79
:1043500000F31F4208BF002284F8F42046F82530FD
:10436000B4F89430B4F896209BB292B29A4218D026
:104370000A46204604F19401FFF7BCFF94F8F4309C
:1043800073B1D4F8F82053099B0003F1604303F59F
:104390006143012102F01F0201FA02F21A60F8BD26
:1043A000F8BD94F89421C2F11002D2B20F2ADFD8DE
:1043B00002F12D0504EB8505130104E00132102AFA
:1043C00003F11003D4D055F8040B0028F6D120686F
:1043D0008030C058C0F303600828EFD12046D2B225
:1043E000FFF7E0FE0120C9E780E100E02DE9F04F92
:1043F000026889B0136B03938346054600F1B40A43
:104400000024994608E0022B3AD00134102C05F123
:1044100008050AF1040A2ED029FA04F3D907F4D5C5
:10442000270102F18003DB59C3F30363062B27D076
:10443000082BE8D1DAF8000008B90BF194000188E4
:10444000438889B29BB2994200F09D8001884388DD
:1044500089B29BB29942D8D004A9FFF70DFC00287D
:1044600040F0B280DBF800200134102C05F1080583
:104470000AF1040AD0D1039B136309B0BDE8F08FA1
:1044800004A9E2B25846FFF7DDFE9BF8FC306BB1A1
:10449000D5F814319DF8162001335207C5F81431B0
:1044A00004D5D5F818310133C5F81831002201239D
:1044B0008DE88400A34002950BF180060BF1900873
:1044C0001D4656F8040F28B1426812EA05032BD1A5
:1044D000002A3FDBB045F4D1009B019F029D002BD9
:1044E0003FD09BF8FC3083B1BBF8A430BBF8A610DA
:1044F0009AB28BB2D31A44BFBBF8A8209B18DBF842
:1045000004219A4238BFCBF804310BEBC4031B7A69
:10451000DB0714D5DBF800306A68843322F0604290
:10452000DA51DBF8002070E703681F682D4B9F42CB
:1045300045D10020009B1843C3B20093CAE76968C5
:10454000DBF80030284A890484330A40DA51DBF86A
:1045500000205AE702681768224A97423CD1184661
:10456000E8E704AA0BF1A4015846FFF7C3FE0028B0
:10457000B7D19BF8FC30002BC7D0DBF808310133F2
:10458000CBF80831B0E70127A74047F000470BF10F
:1045900080060BF1900856F8040F10B143681F42D3
:1045A00004D1B045F7D1DBF800205DE703680F4A7E
:1045B0005B689342F5D0002221469847F1E700233B
:1045C000224604A9B847B5E7E2B204A95846FFF766
:1045D000E9FDDBF8002018E74FF0FF3204A9B847E7
:1045E000A8E700BF053C00000000FC1F093C0000DC
:1045F0000148FFF7FBBE00BF0C94FF1F704700BFD0
:10460000014B1B681B6A70470C94FF1F704700BF6B
:10461000704700BF704700BF00210148FFF744BB4F
:104620000C94FF1F10F001030BD110F0060F06D100
:1046300001070AD4C20604D483060ED47047184674
:1046400070470221052004F0BFBD064A13880221ED
:1046500023330520138004F0B7BD0221072004F0A6
:10466000B3BD00BFB295FF1F70B50F4E3368DB07B7
:1046700004460ED50D4D2B880D4A04EB84046400CE
:104680005A2000FB0340A2FB00304009288080B282
:1046900070BD304601F072F8044D0028EBD0304672
:1046A0002C8001F071F8E6E7B495FF1FB095FF1F6D
:1046B0001F85EB5170B515468CB006460021684643
:1046C00002F004FAAC68002C1ADD694608A802F072
:1046D00011FA2246013C2346294604A802F0F6FAC4
:1046E00004A908A802F0ACFA0146684602F056FA9E
:1046F00004A802F0ABF908A802F0A8F9002CE4D154
:104700006946304602F03EFA684602F09FF93046AC
:104710000CB070BDF0B50746114689B002221C46A8
:1047200002F006FABE68B4422CD0A61B68461849AF
:1047300002F0CCF9002E28DD012504AC69462046A4
:1047400002F0D8F91349204602F082FA0146684681
:1047500002F024FA0135204602F078F9AE42EDDA93
:104760006946204602F0C6F93946204602F068FA4A
:104770000146384602F012FA204602F067F9684610
:1047800002F064F9384609B0F0BD04ACE8E700BFB8
:10479000D8E0000018D7000082B02DE9F04FD3B068
:1047A0000C465CA981E80C0068AB60A9D3E9002342
:1047B0000490D1E9000103F06BFC66ABD3E9002360
:1047C00006460F4600206E4903F040FF32463B4646
:1047D0009DF87751019503F00FFE639F629E649DE3
:1047E00080463846894603F0A1FD02460B4600206C
:1047F0004FF0804102F08CFBCDE9020165986149E0
:1048000002F034FA002800F05882002200234046CB
:10481000494604F063F8002840F0088349464046C2
:1048200004F09AF8214602463B461EA8FFF772FFA5
:104830005549284602F01AFA002800F001820DF5C9
:104840009C791EA94AA802F055F94AAA4846214671
:10485000FFF730FF49461EA802F0A8F9484602F0CB
:10486000F5F84AA802F0F2F84849284602F0FEF9A5
:10487000002800F0FD81072E40F2DF81A6F1080339
:10488000072BA6F1100398BFC6F1170A072BA6F154
:10489000180398BFC6F1270A072BA6F1200398BF7B
:1048A000C6F1370A072BA6F1280398BFC6F1470ABD
:1048B000072BA6F1300398BFC6F1570A072BA6F1C4
:1048C000380398BFC6F1670A072B98BFC6F1770A6D
:1048D000574422A8002102F0F9F8019B002B5DD07B
:1048E000019B03F107085CAB98440DF2771626E0B4
:1048F00046A94AA802F0FEF84AAA21464846FFF710
:10490000D9FE494646A802F051F9484602F09EF801
:104910004AA802F09BF822A9484602F0EBF846A903
:10492000484602F08DF9014622A802F037F94846C0
:1049300002F08CF846A802F089F8B0452ED0214646
:1049400046A8082316F8012FFFF7E4FE0E49284673
:1049500002F08CF90028CBD10D49284602F086F9E7
:104960000028C5D10B49284602F080F90028BFD1A4
:104970000949284602F07AF90028B9D1CBE700BFEF
:104980000000F03F8CD700007CD7000018D8000052
:10499000DCE30000E0E30000E8E30000CB4926A8E8
:1049A00002F094F82AA8C94902F090F8BAF1000F71
:1049B0000CDD5346002222A9484602F087F94946F9
:1049C00026A802F0F3F8484602F040F8249B9F42E4
:1049D000C0F0668126A9484602F08CF81EA9484618
:1049E00002F02EF92AA902F02BF901461EA802F0C6
:1049F000D5F8484602F02AF8B549284602F036F9BB
:104A0000002800F07581082300221EA9484602F004
:104A10005DF921464A462EA8FFF74CFE484602F0B3
:104A200015F8102308221EA9484602F04FF9214626
:104A30004A4632A8FFF73EFE484602F007F8182320
:104A400010221EA9484602F041F921464A4636A8DE
:104A5000FFF730FE484601F0F9FF202318221EA977
:104A6000484602F033F921464A463AA8FFF722FEAB
:104A7000484601F0EBFF282320221EA9484602F0F9
:104A800025F921464A463EA8FFF714FE484601F0A4
:104A9000DDFF302328221EA9484602F017F92146DF
:104AA0004A4642A8FFF706FE484601F0CFFF3823EA
:104AB00030221EA9484602F009F921464A4646A876
:104AC000FFF7F8FD484601F0C1FF402338221EA938
:104AD000484602F0FBF821464A464AA8FFF7EAFD9D
:104AE0000DF1180B484601F0B1FF2EA859460023DE
:104AF000092202F0D1F80DF1240A0CAB1C460293F6
:104B000032A851460023092202F0C6F80DF13C08F4
:104B1000214636A80023092202F0BEF812AF3AA8B7
:104B200041460023092202F0B7F83EA83946002387
:104B3000092202F0B1F815AE18AB1D46059342A844
:104B400031460023092202F0A7F81BAC46A82946EB
:104B50000023092202F0A0F82146002309224AA8D6
:104B600002F09AF84AA801F071FF46A801F06EFF22
:104B700042A801F06BFF3EA801F068FF3AA801F0DF
:104B800065FF36A801F062FF32A801F05FFF2EA892
:104B900001F05CFF58460222002105F08FFC022242
:104BA0008DF878010021504605F088FC02228DF82E
:104BB00079010021029805F081FC02228DF87A012A
:104BC0000021404605F07AFC02228DF87B0100218D
:104BD000384605F073FC02228DF87C010021304636
:104BE00005F06CFC02228DF87D010021059805F08E
:104BF00065FC02228DF87E010021204605F05EFC56
:104C00009DF804308DF877318DF87F015CAB0FCBC8
:104C1000049C84E80F002AA801F018FF26A801F0E0
:104C200015FF22A801F012FF1EA801F00FFF049843
:104C300053B0BDE8F04F02B07047C6F1070A1DE659
:104C40002449284602F012F800287FF4F8AD2249E2
:104C5000284602F00BF800287FF4F1AD1F492846E2
:104C600002F004F800287FF4EAAD0DF59C79FBE52D
:104C70001B49284601F0FAFF00287FF4FCAD1949D2
:104C8000284601F0F3FF00287FF4F5AD16492846C9
:104C900001F0ECFF00287FF4EEAD3744B24618E691
:104CA0003A4622A9484602F011F849462AA801F0DE
:104CB0007DFF484601F0CAFE8CE60C49659801F07C
:104CC000D5FF00287FF4A1ADA8E500BFD8E0000023
:104CD0007CD70000DCE30000E0E30000E8E3000034
:104CE000F0E30000F4E3000000E40000D4E300007F
:104CF0005849284601F0BAFF00287FF484AE56498F
:104D0000284601F0B3FF00287FF47DAE28465349C2
:104D100001F0ACFF054600287FF475AE02461EA9DF
:104D2000484608230DF1180B01F0D0FF59462B46D9
:104D30000922484601F0B0FF484601F087FE0DF118
:104D4000240A1EA948461023092201F0BFFF51463C
:104D50002B460922484601F09FFF484601F076FEA7
:104D60000CAB1C4602931EA948461823102201F0E2
:104D7000ADFF21462B460922484601F08DFF4846EB
:104D800001F064FE0DF13C081EA9484620231822BC
:104D900001F09CFF41462B460922484601F07CFF6A
:104DA000484601F053FE12AF1EA948462823202290
:104DB00001F08CFF39462B460922484601F06CFF72
:104DC000484601F043FE15AE1EA94846302328226E
:104DD00001F07CFF31462B460922484601F05CFF7A
:104DE000484601F033FE18AB1C4605931EA9484601
:104DF0003823302201F06AFF21462B46092248461B
:104E000001F04AFF484601F021FE1BAC1EA94846AE
:104E10004023382201F05AFF48462B4621460922FA
:104E200001F03AFF484601F011FEB3E600220C4BB8
:104E3000DDE9020103F02CF903F08EFD013003F0EF
:104E400075FA02460B464046494603F023F9804670
:104E50008946E3E4DCE30000E0E30000E8E300006F
:104E60000000F03F84B02DE9F0439DB00DF19408AF
:104E700088E80E009DF89B40DDF8A4902B9F064625
:104E80000021684601F022FE002C4CD00734A044DB
:104E90000DF19B050CAC26E004A908A801F02AFE40
:104EA00008AA31462046FFF705FC214604A801F078
:104EB0007DFE204601F0CAFD08A801F0C7FD694645
:104EC000204601F017FE04A9204601F0B9FE014674
:104ED000684601F063FE204601F0B8FD04A801F029
:104EE000B5FDA84520D0314604A8082315F8012FA8
:104EF000FFF710FC7749384601F0B8FE0028CBD107
:104F00007549384601F0B2FE0028C5D173493846CC
:104F100001F0ACFE0028BFD17149384601F0A6FE71
:104F20000028B9D1CBE70CAC6E49384601F09EFEA3
:104F3000002800F09980B9F1070F40F2928000221A
:104F4000A9F10803072BA9F1100398BFC9F11702B3
:104F5000072BA9F1180398BFC9F12702072BA9F164
:104F6000200398BFC9F13702072BA9F1280398BF86
:104F7000C9F14702072BA9F1300398BFC9F15702C5
:104F8000072BA9F1380398BFC9F16702072B2A9BA9
:104F900098BFC9F17702D3186946204601F096FE02
:104FA0002146684601F002FE204601F04FFD4949C6
:104FB000384601F05BFE002876D0694608A801F06B
:104FC00099FD08AA31462046FFF774FB2146684642
:104FD00001F0ECFD204601F039FD08A801F036FD96
:104FE000029803F093F902460B4600204FF08041EF
:104FF00001F08EFF00223C4B03F04AF803F0ACFCBA
:105000002146002340220546684601F045FE204621
:105010000021022205F052FA344904462C9801F08E
:1050200025FE002839D005EBD573B4EB630F01DD05
:105030000135641B204603F079F9DDE92E2303F0E6
:10504000DBF9DDE9302303F025F8044668460D4618
:1050500001F0FCFC204629461DB0BDE8F04304B039
:105060007047C9F107026BE72149384601F0FEFDA0
:1050700000287FF460AF1F49384601F0F7FD002893
:105080007FF459AF1C49384601F0F0FD00287FF449
:1050900052AF2A9B4A464B447EE718492C9801F0B0
:1050A000E5FD0028BFD1C5E70B49384601F0DEFD1C
:1050B000002882D10949384601F0D8FD00287FF444
:1050C0007CAF3846064901F0D1FD00287FF475AF6A
:1050D00086E700BF7CD70000DCE30000E0E30000CF
:1050E000E8E3000018D800000000F03F8CD7000073
:1050F000F0E30000F4E3000000E40000D4E300006B
:1051000001B441EA000313F003036FD1403A41D3E5
:1051100051F8043B40F8043B51F8043B40F8043B91
:1051200051F8043B40F8043B51F8043B40F8043B81
:1051300051F8043B40F8043B51F8043B40F8043B71
:1051400051F8043B40F8043B51F8043B40F8043B61
:1051500051F8043B40F8043B51F8043B40F8043B51
:1051600051F8043B40F8043B51F8043B40F8043B41
:1051700051F8043B40F8043B51F8043B40F8043B31
:1051800051F8043B40F8043B51F8043B40F8043B21
:10519000403ABDD2303211D351F8043B40F8043BC1
:1051A00051F8043B40F8043B51F8043B40F8043B01
:1051B00051F8043B40F8043B103AEDD20C3205D3D1
:1051C00051F8043B40F8043B043AF9D204320AD0C7
:1051D000D2071CBF11F8013B00F8013B03D30B7849
:1051E00003704B78437001BC704700BF0C2A4AD350
:1051F00010F0030311D0C3F10403D21ADB071CBF64
:1052000011F8013B00F8013B07D311F8013B00F80E
:10521000013B11F8013B00F8013B11F003033FF49F
:1052200075AF30B4043AC91AC3F1040C51F8044BF9
:10523000022B19D0032B0BD0240A51F8043B1D0676
:1052400044EA050440F8044B1C46043AF4D216E044
:10525000240E51F8043B1D0244EA050440F8044BB7
:105260001C46043AF4D20AE0240C51F8043B1D0415
:1052700044EA050440F8044B1C46043AF4D20432D4
:10528000B1EB0C0130BC043AA0D3013A11F8013B58
:1052900000F8013BF9D20B7803704B7843708B78A0
:1052A000837001BC704700BF374A384913681B063A
:1052B000FCD40B6813F08003F8D172B634490A7835
:1052C000002A5FD0334A3448F0B4344C176806687B
:1052D0002568D4680C303E44143200681268304FA0
:1052E00035442C4420440244C2F34E022D4E2E4835
:1052F0002E4D2F4C42F400423A60376806682D6804
:105300002C4A24680C303E44006812682A4F354409
:105310002C4420440244C2F34E02284E2848294D12
:10532000294C42F400423A60376806682D68274AE3
:1053300024680C303E4400681268254F35442C44E4
:1053400020440244C2F34E02224E2348234D244CF3
:1053500042F400423A60376806682D68214A2468A2
:105360000C303E440068126835442C44204402440A
:10537000C2F34E021C4842F4004202600B7062B657
:10538000F0BC704762B6704724B0034024B00B40B5
:10539000B995FF1F38B003403CB0034040B0034014
:1053A0002CB0034058B003405CB0034060B00340F1
:1053B00064B003406CB0034030B0034038B00B40E1
:1053C0003CB00B4040B00B4044B00B404CB00B40E5
:1053D0002CB00B4058B00B405CB00B4060B00B40A1
:1053E00064B00B406CB00B4030B00B4030B4294877
:1053F000294A2A4B2A4D6024E121047011701B7840
:10540000284C082B30D00A2B2748284937D00C2BA2
:105410000CBF35223D2212232A60236002600B60FC
:10542000234B24491B78244ABBB101230B60136032
:10543000224B23491B78234A012B26D9042B0FD951
:10544000082B1ED9102B94BF862387230B60136073
:105450001D4B01221A7030BC70470B601360E7E7E8
:1054600084230B601360F3E700F58E200F490830AA
:10547000012213232A60236002600B60D0E73922E7
:10548000F7E785230B601360E2E780230B6013606E
:10549000DEE700BF00400740014007408F87FF1F45
:1054A00008B003400CB0034008B00B400CB00B40F8
:1054B000BC95FF1F20B0034020B00B409087FF1F1A
:1054C00024B0034024B00B40B995FF1F0C2830B422
:1054D00017D91023984228BF18461C46104A114D70
:1054E0001178181A8C42287018D00F4913700B7855
:1054F00023B10E490E4A00230B60136030BCFFF746
:1055000075BF0A2802D90C231C46E7E7082802D9F0
:105510000A231C46E2E708231C46DFE730BC70473D
:105520008F87FF1FB895FF1FB995FF1F24B0034059
:1055300024B00B4028282FD8334B2DE9F0411E5CB6
:10554000FF2E2BD0314B1B78002B2AD132062CD4C6
:1055500072B62F4D2F4C2F46012326602B7062B65A
:1055600072B623681B060CD43B781BB9F4E72B7882
:10557000002BF1D062B601F0EBFB72B6236818067F
:10558000F5D5254B1B6800222A7062B6234A107895
:1055900043FA00F0BDE8F081002070470020BDE82C
:1055A000F081FFF781FE3206D2D572B61C4DDFF8CE
:1055B0007C801C4C06F04007FFB206F03F06D8F88E
:1055C0000030DFB123F01003C8F80030012326605B
:1055D000134A2B7062B672B6236819060CD413787E
:1055E0001BB9ECE72B78002BE9D062B601F0B0FBD9
:1055F00072B623681B06F5D50B4BC3E743F01003C7
:10560000C8F80030E2E700BF0CE40000B995FF1FC6
:10561000BB95FF1F00B0034010B00340B895FF1FBB
:10562000BA95FF1F00B00B4010B00B400CB00B4000
:10563000F0B585B0102219496846FFF761FD184A98
:10564000127891071DD51749174D0A7812F070028C
:1056500018BF0A701549164A0346802715480F706F
:105660000026332403212E700470117072B60D4C85
:1056700043F001032046984762B6237813F0700385
:1056800009D10D4B064901E0013B02D00A78D2074F
:10569000FAD505B0F0BD237005B0F0BD38E40000C8
:1056A00001000240000002400400024007000240E6
:1056B0000A0002400B000240410D0300B0F5006FEC
:1056C0000AD210B5094B1B78DB07044606D504F156
:1056D000A0500078C0B210BD00207047FFF7A8FFAF
:1056E00004F1A0500078C0B210BD00BF010002401C
:1056F00008B5104C08E0236859050DD423681A0535
:105700000FD42368DB0411D423685803F3D500F0C9
:1057100043FA23685905F1D500F00EF823681A05FD
:10572000EFD500F009F82368DB04EDD500F004F8AC
:10573000EAE700BF3480044008B5FFF7D9FF00BF97
:10574000014B10221A80704700200540704700BFAF
:10575000094908B50B6830B16A461844A2F5805271
:10576000904202D20860184608BD03F06BFD0C237E
:1057700003604FF0FF3008BD9487FF1F0078B0FA38
:1057800080F04009704700BF01230370704700BFDD
:1057900010B40F4B53F8302092F880422CB1012303
:1057A00069B182F8803010BC704703EBC0035B68BE
:1057B0001A6841B922F002021A6010BC704782F8E0
:1057C000003110BC704742F003021A6010BC7047F1
:1057D00048E400001C4A02EBC00301295B6811D0B9
:1057E00004291BD052F83000002280F8802229B111
:1057F000022920D0032922D01A6070474FF480720A
:105800001A60704752F830004FF4A27280F880128C
:105810001A601A6822F020021A60704752F830109D
:105820004FF4A272012081F880021A601A6842F0D7
:1058300020021A60704740F203121A6070474FF45A
:1058400081721A60704700BF48E4000030B4054B15
:10585000054D064C002210211A602A602060196054
:1058600030BC704714D0034004D0034000D0034044
:10587000704700BF212801D8FFF78ABF704700BFDB
:10588000212806D8044B53F8303093F80002C0B2F8
:1058900070470020704700BF48E40000212801D86D
:1058A000FFF798BF704700BF2DE9F843054672B671
:1058B000204F214B214A1B683C68126862B6520196
:1058C00002D5322B88BF013495B3C3F5BB331C4ED0
:1058D000DFF86490DFF86480FF334FF47A72A6FB40
:1058E000031302FB04F404EB931472B6D9F800100E
:1058F0003A68D8F800E062B6C1F5BB33FF33A6FBC7
:1059000003031EF0806FC4EB93134FF47A7002D040
:10591000322988BF013200FB0233B3F57A7F04D30A
:10592000013D05D004F57A74DFE701F011FADCE7F8
:10593000BDE8F883C095FF1F18E000E004ED00E02B
:10594000ABAAAAAAF8B52E4B2E49DFF8D4E0DFF8AF
:10595000D4C02D4E2D4D2E4C2E4A2F4F4FF400000B
:1059600018604FF0807018604FF0007018604FF0B2
:10597000806018604FF000601860002008602823E5
:105980004BF6FF71CCF80010CEF800303360136096
:105990002B6023603B60B3629362092245F8242C9C
:1059A000C4F8D80F05F57F65C7F8D41F07F5FF27A2
:1059B00007F5FA67C6F8F83F2B6006F5FF26C4F82E
:1059C000D42F05F5FD2504F5FF24386006F2F476A2
:1059D0001248316005F5FF6504F5FD642B60236016
:1059E0000260FFF703FDFFF743FF1420FFF75CFFA2
:1059F00000F00CFD4FF48C70BDE8F840FFF754BF89
:105A000008E100E004800340148003402480034048
:105A10002C8003401C8003403480034000800B40F6
:105A20000C80034008800340431E032B14D872B639
:105A30000A4951F8230068B170B4094C058834F85C
:105A40001320466841F82360521B24F8132062B6E5
:105A500070BC704762B67047002070471C96FF1FED
:105A60001897FF1F013803280BD872B6074B53F85D
:105A7000203043B100205B680130002BFBD162B6BF
:105A80007047002070471846F9E700BF7096FF1F67
:105A9000F0B472B61A491B4E012311F8014B194F8D
:105AA0009A00240742F0010505D556F8324064B14A
:105AB00056F83520BAB10133052BEED162B6124B40
:105AC00000221A70F0BC00F01BBD0F4C0F4D217866
:105AD00007EB4313083001395860217047F8325002
