:1000000000800020BD01000029580000E1570000D9
:10001000E1570000E1570000E1570000E157000000
:10002000E1570000E1570000E157000029580000A7
:1000300029580000E1570000556900005969000087
:1000400029580000295800002958000029580000AC
:10005000295800002958000029580000295800009C
:10006000295800002958000029580000295800008C
:10007000295800002958000029580000295800007C
:10008000295800002958000029580000295800006C
:10009000295800002958000029580000295800005C
:1000A000295800002958000029580000295800004C
:1000B00029580000E1460000ED460000F14600002E
:1000C000FD460000014700000547000029580000D8
:1000D000295800002958000029580000295800001C
:1000E000295800002958000029580000295800000C
:1000F00029580000295800002958000029580000FC
:1001000029580000295800002958000029580000EB
:1001100029580000295800002958000029580000DB
:1001200029580000295800002958000029580000CB
:1001300029580000295800002958000029580000BB
:1001400029580000295800002958000029580000AB
:10015000295800002958000029580000295800009B
:1001600029580000895C0000295800002958000027
:10017000295800002958000029580000295800007B
:10018000295800002958000029580000295800006B
:10019000295800002958000029580000295800005B
:1001A000295800002958000029580000295800004B
:1001B000295800002958000029580000564B4CF2DD
:1001C000205210B51A804DF628121A8000BF00BFC9
:1001D00005F02EFB514B4FF010621A60504A9A60A6
:1001E000504ADA60504A136813F4807304D14F49BF
:1001F0000B604FF4A85313604D4B1A78110703D5C9
:100200001A7842F008021A704A4B4B492A221A7097
:100210004A4A4B4B8B4204D252F8040F43F8040B6A
:10022000F8E7484B484900228B4202D243F8042B9E
:10023000FAE74649464A002352F8230041F82300D2
:1002400001336F2BF8D1434B434A802103F8011B44
:100250009342FBD1414B3D4A1A60414B8A221A70AE
:10026000A3F5805324225A70A0221A709A7992071B
:10027000FCD59A79D406FCD43A4A937903F00C035E
:10028000082B384BF9D103221A7140225A719A79FE
:100290009006FCD5334A9179324B4906FBD5324A58
:1002A000324911600221516020221A709A7902F0BD
:1002B0000C020C2AFAD12E4B2E4A1A602E4B2F4AD2
:1002C0001A6000225A60072243F8042C2C4AC3F813
:1002D0000C2D62B605F0AEFB144B1B68DA0705D592
:1002E000284805F02BFB284B284A1A60284B1B781E
:1002F0005B0609D5244C254B22689A4204D121483B
:1003000005F01CFB0023236005F098FA09F018F8AB
:1003100006F078FDFEE700BF0E2005403080044067
:10032000823F04000100002B10D0034014D0034092
:1003300002D0074000E007400092FF1F88E900005C
:100340002087FF1F0092FF1F3097FF1F0082FF1FB3
:100350000000000000E400E05FE400E008ED00E0E1
:100360000050064000400640448004400000030165
:1003700004800440C010050014E000E0FF76010096
:1003800000002020F88734621CE00340A5C3945A83
:1003900000F00740FFFFFFFFFFFFFFFFFFFFFFFF32
:1003A000FFFFFFFFFFFFFFFFFFFFFFFFFFFFFFFF5D
:1003B000FFFFFFFFFFFFFFFFFFFFFFFFFFFFFFFF4D
:1003C000FFFFFFFFFFFFFFFFFFFFFFFFFFFFFFFF3D
:1003D000FFFFFFFFFFFFFFFFFFFFFFFFFFFFFFFF2D
:1003E000FFFFFFFFFFFFFFFFFFFFFFFFFFFFFFFF1D
:1003F000FFFFFFFFFFFFFFFFFFFFFFFFFFFFFFFF0D
:10040000FFFFFFFFFFFFFFFFFFFFFFFFDEF9FFFF23
:1004100010B5054C237833B9044B13B10448AFF33E
:1004200000800123237010BD0092FF1F0000000018
:1004300084E90000084B10B51BB108490848AFF328
:1004400000800848036803B910BD074B002BFBD0A0
:10045000BDE81040184700BF000000000492FF1FD5
:1004600084E900000092FF1F0000000008B514207E
:1004700005F092FA01210C2005F074FAC82005F06D
:100480008BFA01210B20BDE8084005F06BBA00BFD4
:10049000F8B5284C28480B2106F036F92168274882
:1004A00006F0DCFA254806F085FA254A136863B998
:1004B000244D254825492B60012505600B6001333B
:1004C0001360236801332360F8BD012B07D11E4D53
:1004D0001C481E492B60002505600B60EFE7022BCE
:1004E00008D1194F174E1948002101253960316094
:1004F0000560E4E7032B08D1134E124D1348012188
:100500000027376029600160D9E7042B03D10E4F23
:100510000E4E0C48E8E7052BD1D10C480A4E094D88
:1005200000230360136023680121013331602960D7
:100530002360F8BD9C92FF1FACD70000A087FF1F6F
:100540003892FF1FCC92FF1FFC93FF1F2C92FF1FBE
:1005500070B51D210B4806F0D7F80B4806F02AFAB3
:100560000A4B0B4A5A60142602250A24002040F642
:100570005A214FF443721E705D701C72587259817B
:100580009A8170BDB8D70000A087FF1F6892FF1F37
:1005900020A10700F0B50746144689B0022206F0F4
:1005A0003FFBBE68B4422CD0A61B6846174906F034
:1005B00005FB002E28DD012504AC6946204606F027
:1005C00011FB1349204606F0BBFB0146684606F0C6
:1005D0005DFB0135204606F0B1FAAE42EDDA694620
:1005E000204606F0FFFA3946204606F0A1FB0146F8
:1005F000384606F04BFB204606F0A0FA684606F0A7
:100600009DFA384609B0F0BD04ACE8E798E1000077
:10061000D8D70000F0B51A4C25688DB008AC012D74
:1006200084E80F0005D02146164803F0F9FE0DB00E
:10063000F0BD02469DF82E109DF82F009DF82D70FC
:100640009DF82C609DF82B50069005919DF82A008E
:100650009DF829109DF828300190009104970A49CF
:1006600003960295094809F04FFC084809F048FE36
:100670000146064806F048F8054806F09BF9D2E71F
:100680009492FF1F0C94FF1FDCD70000D892FF1F2D
:10069000A087FF1F10B5A8B08DE80F0004A89DF833
:1006A0000A100822FFF776FF08A89DF80D1008220F
:1006B000FFF770FF0CA89DF80F100822FFF76AFFE4
:1006C00004A910A80223002206F078FB08A914A8A8
:1006D0000423012206F072FB0CA918A806230422A9
:1006E00006F06CFB10A81CA90023102206F04CFB9E
:1006F00014A820A90023102206F046FB18A824A95C
:100700000023102206F040FB1CA80222002109F061
:1007100035FF124B02221860002120A809F02EFF9D
:100720000F4B02220021186024A809F027FF0D4B6F
:10073000186018A806F002FA14A806F0FFF910A82D
:1007400006F0FCF90CA806F0F9F908A806F0F6F98D
:1007500004A806F0F3F928B010BD00BF6493FF1F92
:100760006893FF1F0494FF1F10B5AAB08DE80F0017
:1007700005A89DF80B100822FFF70CFF09A89DF8AB
:100780000C100822FFF706FF0DA89DF80D10082297
:10079000FFF700FF2D4B9DF80E201A6009A925A830
:1007A00006F020FA05A925A806F0C2FA014611A80C
:1007B00006F018FA25A806F0C1F90DA915A803231B
:1007C000002206F0FBFA0DA919A80623032206F061
:1007D000F5FA25A911A80023112206F0D5FA15A8CB
:1007E0001DA90023102206F0CFFA19A821A9002381
:1007F000102206F0C9FA25A80222002109F0BEFE47
:10080000134BA0F5FA4402221DA800211C6009F038
:10081000B5FE104B02220021186021A809F0AEFE9F
:100820000D4B186019A806F089F915A806F086F98D
:1008300011A806F083F90DA806F080F909A806F0C2
:100840007DF905A806F07AF92AB010BD6093FF1F64
:10085000E493FF1FD493FF1F3492FF1FF0B599B0AC
:100860008DE80F0004A89DF808102B4D2B4E082290
:10087000FFF790FE04A908A80623042206F09EFABA
:1008800004A90CA80823062206F098FA08A810A9C3
:100890000023102206F078FA00230CA814A91022D5
:1008A00006F072FA0222002110A809F067FE022267
:1008B0002860002114A809F061FE2C68306034F033
:1008C00002070AD13946162005F04CF839460520B2
:1008D00005F048F8124B2C681F60012C10D03368CB
:1008E0000BB1012B01D10F4A13600CA806F026F9B9
:1008F00008A806F023F904A806F020F919B0F0BD05
:100900002146162005F02EF82146052005F02AF88C
:10091000034B1C60E3E700BF2892FF1FD093FF1F2B
:100920003092FF1F4087FF1F2DE9F04FDFF8DC906A
:1009300097B00EAD0AAC12AE84E80F0049462846C7
:1009400006F03CF930462C4906F038F90FF2A00BBE
:10095000DBE900AB0496039500274FF0000894E80C
:100960000E00CDE9087810274FF0000E02970D9F7A
:10097000CDF804E0CDE906AB0097204804F0EAFA90
:1009800008F062F81E4B1860304606F0D7F828468B
:1009900006F0D4F81A4A1B4B12681A6049462846DA
:1009A00006F00CF930461849DFF8649006F006F9B5
:1009B00000220023CDE90823CDE906AB10230496DD
:1009C00003950293019394E80E000D9C00940B484C
:1009D00004F0C0FA08F038F8C9F80000304606F014
:1009E000ADF8284606F0AAF817B0BDE8F08F00BFB2
:1009F000000000A09999B93F40D80000C092FF1FA5
:100A0000AC93FF1FA893FF1F4CD800003CD80000F8
:100A1000D492FF1F2DE9F04397B00AAC0EAD84E8E5
:100A20000F0012AE1C491D4F284606F0C7F81C499E
:100A3000304606F0C3F84FF000084FF00009049666
:100A40000395102094E80E00CDE908890290DFF8A4
:100A50005C900D984FF0000800248DE81100CDE95E
:100A60000689104804F076FA07F0EEFF3860304649
:100A700006F064F8284606F061F83B68642B04D061
:100A8000094A136017B0BDE8F083074B63221A6070
:100A900017B0BDE8F08300BF3CD80000D893FF1F1B
:100AA00040D80000C092FF1F6C93FF1F0000F03F72
:100AB0002DE9F04F384CDFF8FCA02468374FDFF801
:100AC000F89099B04FF0000B0F94354C0F9D2560B6
:100AD00010AD0AAC14AE84E80F00C7F800B0514660
:100AE0000FF2AC08D8E90078284606F067F84946C6
:100AF000304606F063F80496039594E80E00CDE9BD
:100B0000067800274FF00008CDE9087810270297F3
:100B100001970D9F0097234804F01CFA07F094FFFB
:100B2000214B1860304606F009F8284606F006F812
:100B30005146284606F042F84946304606F03EF84F
:100B400000220023CDE9082311A3D3E90023CDE936
:100B500006231023049603950293CDF804B094E87D
:100B60000E000D9C00940F48104C04F0F3F907F0B0
:100B70006BFF2060304605F0E1FF284605F0DEFF00
:100B80000B4B22681A6019B0BDE8F08FAFF30080FC
:100B9000000000A09999B93FC095FF1FA492FF1FC4
:100BA000B093FF1FC092FF1F0094FF1FBC93FF1F55
:100BB0007493FF1F3CD8000040D8000010B596B0D9
:100BC0008DE80F0005A89DF80A100822FFF7E2FC47
:100BD000082209A89DF80B10FFF7DCFC09A911A851
:100BE00006F000F805A911A806F0A2F801460DA824
:100BF00005F0F8FF11A805F0A1FF002311A90DA829
:100C0000112206F0C1F80222002111A809F0B6FC59
:100C10000DA805F093FF09A805F090FF05A805F0C1
:100C20008DFF16B010BD00BF2DE9F04FABB08DE8C1
:100C30000F0005A89DF80810349E0822FFF7AAFCB3
:100C400009A808229DF80A109DF80950FFF7A2FC98
:100C50000DA808229DF80B10FFF79CFC05A911A810
:100C6000042302229DF80C7006F0A8F80823042241
:100C700005A915A806F0A2F80DA925A805F0B2FF50
:100C800009A925A806F054F8014619A805F0AAFFFD
:100C900025A805F053FF11A81DA90023102206F076
:100CA00073F815A821A90023102206F06DF800237F
:100CB00025A919A8112206F067F8022200211DA813
:100CC00009F05CFC02220021834621A809F056FCB1
:100CD00002220021824625A809F050FCB0F5004F01
:100CE0000446A4BFA0F57F44FF3C802DC8BFA5F5F6
:100CF0008075284607F092FB02460B4600202349E8
:100D000006F07EF980468946204607F087FB42467A
:100D10004B4607F0E9FB07F097FE012E2AD0022E82
:100D200020D0032E09D11A4B1A4918601A4A1B4BBE
:100D3000C1F800A01760C3F800B019A805F0FEFEC6
:100D400015A805F0FBFE11A805F0F8FE0DA805F0AA
:100D5000F5FE09A805F0F2FE05A805F0EFFE2BB0A0
:100D6000BDE8F08F0E4B0F4A18600F4BC2F800A081
:100D70001F60E2E70D4B0E4918600E4A0E4BC1F89A
:100D800000A01760C3F800B0D7E700BF0000244000
:100D90005C93FF1FF893FF1FEC93FF1F8893FF1FC7
:100DA0007C92FF1F8C93FF1F3C92FF1F8892FF1FB6
:100DB000E093FF1F8092FF1FC493FF1F10B596B0F2
:100DC0008DE80F0005A89DF80C100822FFF7E2FB44
:100DD000082209A89DF80D10FFF7DCFB09A911A84E
:100DE00005F000FF05A911A805F0A2FF01460DA816
:100DF00005F0F8FE11A805F0A1FE11A90DA8002329
:100E0000112205F0C1FF002111A8022209F0B6FB52
:100E1000074BA0F196020DA81A6005F08FFE09A8F5
:100E200005F08CFE05A805F089FE16B010BD00BFC8
:100E30007093FF1F30B57B4D7B4883B0294603F08C
:100E4000EDF92A68794B9A4200F0BB8018D9784BAB
:100E50009A4200F0C88040F28780764B9A425CD07C
:100E600003F540739A4200F0B680A3F5C0639A423E
:100E700057D10223009395E80F00FFF7D5FE50E00D
:100E800040F256339A4200F0978060D96A4B9A42FA
:100E90004DD003F500739A4200F0988040F25A3327
:100EA0009A423ED1654B1B7843B92B7A002B00F058
:100EB000A68063486349012303600B60624B1B6893
:100EC000012B32D1EB796149614809F01DF8604886
:100ED00009F016FA01465E4805F016FC2C68514BE5
:100EE00014F080444FD1DB798BB12B1959491A7A10
:100EF000574809F009F8564809F002FA01465448E3
:100F000005F002FC0134EB79E4B2A342EDD852487B
:100F100003B0BDE8304005F04DBD95E80F00FFF788
:100F20004DFE494B1B68012B06D003B030BD95E840
:100F30000F00FFF743FFF4E72A68D300C2D522F081
:100F40006042EB794549424808F0DEFFBFE740F2D6
:100F500051339A424ED040F255339A42E1D195E84E
:100F60000F00FFF757FDDCE7A3F578539A421ED038
:100F700003F570539A42D4D10323009395E80F00F0
:100F8000FFF752FECDE7364D314C0FCD0FC495E83B
:100F9000030044F8040B204620F81419152105F02D
:100FA000B3FB2D4803B0BDE8304005F003BD95E824
:100FB0000F00FFF753FCB4E795E80F00FFF7B4FC10
:100FC000AFE795E80F00FFF7CFFBAAE795E80F0022
:100FD000FFF760FBA5E71C4B22491B68E87A086015
:100FE000012BA2D1ABE70123009395E80F00FFF797
:100FF0001BFE96E795E80F00FFF75AFD91E76B7A25
:10100000002B7FF456AFA97A064B00297FF451AF2D
:10101000DB7A002B7FF44DAF09480A4903600B606F
:101020004CE700BFA892FF1F0C94FF1F8014FF180D
:101030008055FF18805AFF188011FF189892FF1FE3
:10104000C492FF1F1C92FF1F7893FF1F88D80000D7
:10105000D892FF1FC0D80000A087FF1F54D80000FF
:10106000A8D800007C93FF1F2DE9F041854BC8B044
:10107000196868461022FFF78DFA834B04A8196897
:101080001022FFF787FA814B08A819680222FFF7A0
:1010900081FA7F4B0CA819680222FFF77BFA7D4B7F
:1010A00010A819680222FFF775FA7B4B14A819687B
:1010B0000222FFF76FFA794B18A819680222FFF78E
:1010C00069FA1CA8764905F079FD764B20A81968C5
:1010D0000222FFF75FFA744B0222196824A8FFF777
:1010E00059FA10A944A805F07DFD0CA944A805F003
:1010F0001FFE08A905F01CFE14A905F019FE014603
:1011000028A805F06FFD44A805F018FD1CA944A807
:1011100005F068FD20A944A805F00AFE24A905F001
:1011200007FE18A905F004FE01462CA805F05AFD9B
:1011300044A805F003FD694644A81023082205F0E1
:101140003DFE30A944A80023102205F01DFE44A84E
:1011500005F0F4FC694644A80823002205F02EFEA1
:1011600034A944A80023102205F00EFE44A805F07F
:10117000E5FC04A944A81023082205F01FFE38A9A5
:1011800044A80023102205F0FFFD44A805F0D6FC7A
:1011900004A944A80823002205F010FE3CA944A895
:1011A0000023102205F0F0FD44A805F0C7FC28A894
:1011B00040A90023102205F0E7FD002344A92CA834
:1011C000102205F0E1FD30A80222002109F0D6F935
:1011D00002228046002134A809F0D0F902220746F5
:1011E000002138A809F0CAF90222064600213CA8CD
:1011F00009F0C4F902220546002140A809F0BEF911
:1012000002220446002144A809F0B8F9274BDFF870
:10121000A0E09A79C3F800E0062142F0010283F8C9
:1012200008805F729E72DD721C735873D9719A7157
:101230000FCBFFF7EFF92CA805F080FC28A805F0EC
:101240007DFC24A805F07AFC20A805F077FC1CA8FA
:1012500005F074FC18A805F071FC14A805F06EFCEC
:1012600010A805F06BFC0CA805F068FC08A805F0B8
:1012700065FC04A805F062FC684605F05FFC48B018
:10128000BDE8F0815893FF1FA893FF1FCC93FF1F69
:101290005492FF1F9C93FF1F4087FF1F3092FF1F38
:1012A000CCD80000F493FF1F2092FF1F4492FF1F31
:1012B0008221FF18F0B5594B594C1968B1B06846F6
:1012C0000422FFF767F9574B04A819680222FFF7B9
:1012D00061F9554B08A819680822FFF75BF9534BD1
:1012E000082219680CA8FFF755F910A8504905F015
:1012F00065FC10A92CA805F075FC10A92CA805F018
:1013000017FD0CA905F014FD014614A805F06AFCB0
:101310002CA805F013FC10A92CA805F063FC10A95B
:101320002CA805F005FD04A905F002FD10A905F0A3
:10133000FFFC014618A805F055FC2CA805F0FEFBA3
:1013400010A92CA805F04EFC69462CA805F0F0FC6D
:1013500010A905F0EDFC01461CA805F043FC2CA8E3
:1013600005F0ECFB14A820A90023102205F00CFDC9
:1013700018A824A90023102205F006FD1CA828A9FE
:101380000023102205F000FD00232CA908A810223C
:1013900005F0FAFC20A80222002109F0EFF8022251
:1013A0000746002124A809F0E9F802220646002198
:1013B00028A809F0E3F80222054600212CA809F02C
:1013C000DDF81C4B9A79987342F001010720002246
:1013D0001F729E72DD721C60D87199715A721A73F5
:1013E0005A730FCBFFF716F91CA805F0A7FB18A836
:1013F00005F0A4FB14A805F0A1FB10A805F09EFBC6
:101400000CA805F09BFB08A805F098FB04A805F0C4
:1014100095FB684605F092FB31B0F0BDA493FF1F29
:101420008230FF183487FF1F6C93FF1F8492FF1FC9
:10143000CCD800004492FF1F2DE9F04F3A4B3B4AB5
:101440001B681268012B99B068D0002B68D101226B
:10145000374B1B789BB1374B99791A7240F257344E
:10146000FF2203206FF300011C60D87199715A723A
:101470009A720FCBFFF7CEF819B0BDE8F08F2D4C64
:101480002D48A1790068254663F3000140F25737E3
:10149000032605F8082F2760E671A17106F0BEFF4C
:1014A0000DF1400A0DF1500B804689465046234904
:1014B00005F084FB5846224905F080FB95E80300BF
:1014C000CDE902898DE80300CDF81CB0CDF818A055
:1014D0000026002794E80C00CDE90A67194F4FF069
:1014E000100E0CAD00260821CDF814E0284604911A
:1014F000CDE90867144903F0C7F995E80F0084E8BF
:101500000F00584605F01AFB504605F017FB94E80B
:101510000F00FFF77FF819B0BDE8F08F002297E7C2
:10152000B2FA82F2520993E74087FF1FD093FF1F60
:101530007892FF1F4492FF1F6093FF1F3CD800006A
:1015400040D800000000F03FC092FF1FF0B5A5B0EA
:1015500068463F493F4D05F031FB3F4B04A81968F1
:101560000222FFF717F808A804220521FFF712F856
:1015700010220CA84FF47A71FFF70CF8694620A8E6
:1015800005F030FB04A920A805F0D2FB08A905F05E
:10159000CFFB014610A805F025FB20A805F0CEFAE8
:1015A00010A814A90023102205F0EEFB0CA920A816
:1015B0001023082205F002FC18A920A800231022FD
:1015C00005F0E2FB20A805F0B9FA0CA920A8082331
:1015D000002205F0F3FB00231CA920A8102205F02F
:1015E000D3FB20A805F0AAFA14A80222002108F0D3
:1015F000C5FF02220746002118A808F0BFFF0222FB
:10160000064600211CA808F0B9FF144B9A79D8723D
:10161000052442F00102002001211F729E721D600C
:10162000DC719A71587219730FCBFEF7F3FF10A893
:1016300005F084FA0CA805F081FA08A805F07EFAF6
:1016400004A805F07BFA684605F078FA25B0F0BDED
:10165000CCD800008239FF182C87FF1F4492FF1F4F
:10166000F0B5A5B068463F493F4D05F0A7FA3F4B9E
:1016700004A819680222FEF78DFF08A8042203219E
:10168000FEF788FF10220CA8C821FEF783FF6946E9
:1016900020A805F0A7FA04A920A805F049FB08A98D
:1016A00005F046FB014610A805F09CFA20A805F0BD
:1016B00045FA10A814A90023102205F065FB0CA917
:1016C00020A81023082205F079FB18A920A80023E0
:1016D000102205F059FB20A805F030FA0CA920A82B
:1016E0000823002205F06AFB00231CA920A8102271
:1016F00005F04AFB20A805F021FA14A802220021D7
:1017000008F03CFF02220746002118A808F036FF27
:101710000222064600211CA808F030FF144B9A79DB
:10172000D872052442F00102002001211F729E722E
:101730001D60DC719A71587219730FCBFEF76AFF46
:1017400010A805F0FBF90CA805F0F8F908A805F0B9
:10175000F5F904A805F0F2F9684605F0EFF925B0AF
:10176000F0BD00BFCCD800008237FF184C87FF1FA8
:101770004492FF1FF0B59DB068463B493B4C3C4D41
:1017800005F01CFA3B4B04A819681022FEF702FF73
:10179000394B0422196808A8FEF7FCFE694618A810
:1017A00005F020FA08A918A805F0C2FA01460CA80D
:1017B00005F018FA18A805F0C1F904A918A8102313
:1017C000082205F0FBFA10A918A80023102205F042
:1017D000DBFA18A805F0B2F904A918A8082300221A
:1017E00005F0ECFA14A918A80023102205F0CCFA91
:1017F00018A805F0A3F9002318A90CA8102205F0D9
:10180000C3FA10A80222002108F0B8FE02220746FF
:10181000002114A808F0B2FE02220646002118A8F2
:1018200008F0ACFE154B16499A79246809681873BC
:1018300042F0010205201F725E721D609C72D87119
:101840009A71D9720FCBFEF7E5FE0CA805F076F978
:1018500008A805F073F904A805F070F9684605F0CA
:101860006DF91DB0F0BD00BFD0D800008493FF1FFC
:101870008233FF187493FF1F2487FF1F4492FF1FBA
:101880003087FF1FF0B59DB068463B493B4C3C4D4F
:1018900005F094F93B4B04A819681022FEF77AFE74
:1018A000394B0422196808A8FEF774FE694618A887
:1018B00005F098F908A918A805F03AFA01460CA80D
:1018C00005F090F918A805F039F904A918A8102313
:1018D000082205F073FA10A918A80023102205F0B9
:1018E00053FA18A805F02AF904A918A80823002219
:1018F00005F064FA14A918A80023102205F044FA90
:1019000018A805F01BF9002318A90CA8102205F04F
:101910003BFA10A80222002108F030FE02220746FE
:10192000002114A808F02AFE02220646002118A869
:1019300008F024FE154B16499A7924680968187333
:1019400042F0010205201F725E721D609C72D87108
:101950009A71D9720FCBFEF75DFE0CA805F0EEF878
:1019600008A805F0EBF804A805F0E8F8684605F0CB
:10197000E5F81DB0F0BD00BFD0D80000B892FF1F41
:101980008234FF183887FF1F5087FF1F4492FF1FC4
:101990004487FF1F2DE9F04F2D4C2E4EA2792E4D7E
:1019A0002E492F482F4B36682D680968236099B05F
:1019B000FF2342F0010208270068A271E37223733B
:1019C0006373A373E373E77126726572A17206F005
:1019D00025FD0DF1400A0DF1500B80468946504619
:1019E000214905F0EBF85846204905F0E7F8E319DE
:1019F00093E8030000260027CDE90A671C4FCDF8C5
:101A00001CB04FF0020E8DE803000CAD002635210E
:101A1000CDF814E094E80C0028460491CDE9028941
:101A2000CDF818A0CDE90867124902F02DFF95E81E
:101A30000F0084E80F00584605F080F8504605F086
:101A40007DF894E80F00FEF7E5FD19B0BDE8F08FD2
:101A50004492FF1FFC93FF1FCC92FF1F2C92FF1F8D
:101A60003C87FF1F8220FF183CD8000040D80000B0
:101A70000000F03FC092FF1FC74AC848C849C94B81
:101A800012681B682DE9F04F05680F68C648C74902
:101A900090F80080097849F6404412F10009A3F15A
:101AA0000F0318BF4FF00109A5F10105A742B5FAD0
:101AB00085F5D4BF00240124092BEBB04FEA55155E
:101AC00000F2C981BA4B1E68A6F10106B6FA86F685
:101AD000760912A80122FEF75DFD16A80122002159
:101AE000FEF758FD41461AA80122FEF753FD49466C
:101AF0001EA80122FEF74EFD294622A80122FEF76C
:101B000049FD26A801220021FEF744FD21462AA80E
:101B10000122FEF73FFD66AD012231462EA8FEF7F9
:101B200039FD2EA9284605F05DF82AA9284605F0BA
:101B3000FFF826A905F0FCF822A905F0F9F81EA97E
:101B400005F0F6F81AA905F0F3F816A905F0F0F873
:101B500012A905F0EDF8014632A805F043F8284631
:101B600004F0ECFF934B19688B1EA1F10108B8FA41
:101B700088F8012B4FEA581840F26F8149F6404926
:101B80004F45D4BF4FF000094FF001098A4A8B4BF3
:101B900017681E688A4C112003F0EAFE894B8246C2
:101BA000196836A80122FEF7F5FC874BA7F101075B
:101BB00019783AA80122B7FA87F7A6F10106FEF7CD
:101BC000E9FC7F0941463EA80122B6FA86F6FEF7F7
:101BD000E1FC7609394642A80122FEF7DBFC3146DA
:101BE00046A80122FEF7D6FC784B4AA819780122B4
:101BF000FEF7D0FC49464EA80122FEF7CBFC1AF1B5
:101C0000000118BF0121012252A8FEF7C3FC52A90E
:101C1000284604F0E7FF4EA9284605F089F84AA9AE
:101C200005F086F846A905F083F842A905F080F88A
:101C30003EA905F07DF83AA905F07AF836A905F035
:101C400077F8014656A804F0CDFF284604F076FF49
:101C50005AA932A80023102205F096F856A85EA9CA
:101C60000023102205F090F85AA80222002108F063
:101C700085FC5EAB0C9002221846002108F07EFC29
:101C8000A3790D90524806226FF3000340F26A31A7
:101C9000E271A3710068216006F0C0FB62AE80466D
:101CA000894630464B4904F089FF04F1080A4A4945
:101CB000284604F083FF9AE80300CDE902898DE805
:101CC00003000FF2CC09D9E90089069607954FF079
:101CD000170E94E80C000EAFCDE908894FF0100BF9
:101CE0004FF000084FF00009CDF810E0CDE90A8967
:101CF0003846CDF814B0394902F0C6FD97E80F0018
:101D000084E80F00284604F019FF304604F016FF5F
:101D1000334B186806F082FB8046894630462D49D1
:101D200004F04CFF2C49284604F048FF0022002311
:101D30009AE80300CDE90A2315A3D3E900238DE82F
:101D40000300CDE90823CDE902894FF0270E06965E
:101D5000CDF814B0079594E80C003846CDF810E0A3
:101D60001E4902F091FD97E80F0084E80F00284615
:101D700004F0E4FE304604F0E1FE9DF830302372BA
:101D80009DF83430637294E80F00FEF743FC29E0BD
:101D9000000000A09999B93FA492FF1FC492FF1FB1
:101DA0007093FF1F4887FF1F9092FF1F9493FF1FA0
:101DB0007C93FF1F6493FF1F6893FF1F2892FF1FF0
:101DC0004492FF1FE893FF1F7892FF1F4092FF1F6E
:101DD0008093FF1FD8D8000040D80000C092FF1F9A
:101DE0005893FF1F56A804F0A9FE52A804F0A6FEBF
:101DF0004EA804F0A3FE4AA804F0A0FE46A804F0F2
:101E00009DFE42A804F09AFE3EA804F097FE3AA870
:101E100004F094FE36A804F091FE32A804F08EFE81
:101E20002EA804F08BFE2AA804F088FE26A804F051
:101E300085FE22A804F082FE1EA804F07FFE1AA8E8
:101E400004F07CFE16A804F079FE12A804F076FED9
:101E50006BB0BDE8F08F00263BE64FF0010995E638
:101E600010B5A34C236884B0002B67D0012B6CD035
:101E7000022B71D0032B76D0042B7BD0052B00F0E6
:101E80008180062B00F08680072B00F08B80082BCA
:101E900000F09080092B00F095800A2B00F09A80CA
:101EA0000B2B00F09F800C2B00F0A4800D2B00F07A
:101EB000A9800E2B00F0AE800F2B00F0B380102B0A
:101EC00000F0B880112B00F0BD80122B00F0C28012
:101ED000132B00F0C780142B00F0CC80152B00F0E2
:101EE000D180162B00F0D680172B00F0DB80182B4A
:101EF00000F0E080192B00F0E5801A2B00F0EA805A
:101F00001B2B00F0EF8000217A4804F0FDFB7A489B
:101F100004F050FD6846794904F050FE684678495F
:101F200004F006FF0146744804F01EFD724804F0F8
:101F300041FD684604F002FE04B010BD71497048CE
:101F400004F0B4FE2368012B92D16F496C4804F071
:101F5000ADFE2368022B8DD16C49694804F0A6FEC2
:101F60002368032B88D16A49654804F09FFE2368E3
:101F7000042B83D16749624804F098FE2368052B3F
:101F80007FF47FAF64495E4804F090FE2368062B1F
:101F90007FF47AAF61495A4804F088FE2368072B22
:101FA0007FF475AF5E49564804F080FE2368082B25
:101FB0007FF470AF5B49524804F078FE2368092B28
:101FC0007FF46BAF58494E4804F070FE23680A2B2B
:101FD0007FF466AF55494A4804F068FE23680B2B2E
:101FE0007FF461AF5249464804F060FE23680C2B31
:101FF0007FF45CAF4F49424804F058FE23680D2B34
:102000007FF457AF4C493E4804F050FE23680E2B36
:102010007FF452AF49493A4804F048FE23680F2B39
:102020007FF44DAF4649364804F040FE2368102B3C
:102030007FF448AF4349324804F038FE2368112B3F
:102040007FF443AF40492E4804F030FE2368122B42
:102050007FF43EAF3D492A4804F028FE2368132B45
:102060007FF439AF3A49264804F020FE2368142B48
:102070007FF434AF3749224804F018FE2368152B4B
:102080007FF42FAF34491E4804F010FE2368162B4E
:102090007FF42AAF31491A4804F008FE2368172B51
:1020A0007FF425AF2E49164804F000FE2368182B54
:1020B0007FF420AF2B49124804F0F8FD2368192B58
:1020C0007FF41BAF28490E4804F0F0FD23681A2B5B
:1020D0007FF416AF25490A4804F0E8FD23681B2B5E
:1020E0007FF411AF2249064804F0E0FD0BE700BF82
:1020F0007C93FF1F98E10000A087FF1FB8DA000063
:102100005892FF1FDCD80000E4D80000F0D800008F
:10211000F8D8000004D900001CD900002CD9000018
:1021200044D9000054D9000068D9000078D90000D3
:1021300090D90000A8D90000BCD90000CCD900007B
:10214000DCD90000F8D9000004DA000010DA000041
:1021500020DA000030DA000040DA000050DA000037
:1021600064DA000070DA00008CDA000098DA00000F
:10217000A8DA000010B500216A486B4C04F0C4FADC
:102180006A4804F017FC236833B3012B2ED0022BCE
:1021900036D0032B3ED0664C2368002B45D0012B54
:1021A0004DD0022B55D0032B5DD0042B65D0052BD1
:1021B0006DD0062B75D0072B7DD05E4C2368002B8D
:1021C00000F08580012B00F08D80022B00F09580BF
:1021D000032B00F09D8010BD2221574804F094FA93
:1021E000524804F0E7FB2368012BD0D11E2153484D
:1021F00004F08AFA4D4804F0DDFB2368022BC8D1B5
:102200001A214F4804F080FA484804F0D3FB2368B1
:10221000032BC0D118214B48454C04F075FA4348B4
:1022200004F0C8FB2368002BB9D11C21464804F0F8
:102230006BFA3E4804F0BEFB2368012BB1D11A2192
:10224000424804F061FA394804F0B4FB2368022BD9
:10225000A9D11A213E4804F057FA344804F0AAFBE9
:102260002368032BA1D11D213A4804F04DFA2F48D1
:1022700004F0A0FB2368042B99D11D21364804F0FB
:1022800043FA2A4804F096FB2368052B91D11D21BF
:10229000324804F039FA254804F08CFB2368062BF9
:1022A00089D119212E4804F02FFA204804F082FB2E
:1022B0002368072B81D117212A481E4C04F024FAE9
:1022C0001A4804F077FB2368002B7FF47BAF2621AC
:1022D000254804F019FA154804F06CFB2368012B1B
:1022E0007FF473AF2221214804F00EFA0F4804F066
:1022F00061FB2368022B7FF46BAF1E211C4804F0A6
:1023000003FA0A4804F056FB2368032B7FF463AFFB
:102310001C21184804F0F8F90448BDE8104004F006
:1023200049BB00BF98E100006493FF1FA087FF1F17
:102330006893FF1F0494FF1FD0DA0000F4DA000056
:1023400014DB000030DB00004CDB00006CDB000025
:1023500088DB0000A4DB0000C4DB0000E4DB00003D
:1023600004DC000020DC000038DC000060DC000041
:1023700084DC0000A4DC000010B500217B487C4C0C
:1023800004F0C2F97B4804F015FB17217A4804F0E9
:10239000BBF97A4B7748196804F060FB0221784852
:1023A00004F0B2F9734804F005FB2368002B37D022
:1023B000012B3FD0022B47D0032B4FD0042B57D0FB
:1023C000052B5FD0062B67D0072B6FD06D4C236891
:1023D000002B76D0012B7ED0022B00F08780032BC0
:1023E00000F08F80042B00F09780052B00F09F8079
:1023F000062B00F0A780072B00F0AF801A2162485F
:1024000004F082F9614B5B48196804F027FB012155
:102410005F4804F079F95748BDE8104004F0CABAA3
:102420001D215C4804F070F9524804F0C3FA236897
:10243000012BBFD11E21584804F066F94D4804F025
:10244000B9FA2368022BB7D11E21544804F05CF975
:10245000484804F0AFFA2368032BAFD11D21504840
:1024600004F052F9434804F0A5FA2368042BA7D1DD
:102470001D214C4804F048F93E4804F09BFA2368BB
:10248000052B9FD11D21484804F03EF9394804F03E
:1024900091FA2368062B97D11D21444804F034F9A2
:1024A000344804F087FA2368072B8FD1162140485F
:1024B000344C04F029F92F4804F07CFA2368002BEF
:1024C00088D11B213B4804F01FF92A4804F072FA16
:1024D0002368012B80D11B21374804F015F92548CA
:1024E00004F068FA2368022B7FF479AF2421334883
:1024F00004F00AF91F4804F05DFA2368032B7FF407
:1025000071AF1B212E4804F0FFF81A4804F052FA6C
:102510002368042B7FF469AF1B212A4804F0F4F8E8
:10252000144804F047FA2368052B7FF461AF1B21A0
:10253000254804F0E9F80F4804F03CFA2368062B1C
:102540007FF459AF1721214804F0DEF8094804F060
:1025500031FA2368072B7FF451AF15211C4804F092
:10256000D3F8044804F026FA48E700BF98E10000D9
:10257000D493FF1FA087FF1FC4DC0000E493FF1F5C
:10258000DCDC00003492FF1FBCDE00006093FF1F04
:10259000B8DE0000E0DC000000DD000020DD00000F
:1025A00040DD000060DD000080DD0000A0DD0000F7
:1025B000C0DD0000D8DD0000F4DD000010DE00000A
:1025C00038DE000054DE000070DE00008CDE00000B
:1025D000A4DE000010B500213448354C04F094F816
:1025E000344804F0E7F923687BB1012B17D0022BA4
:1025F0001FD0032B27D0304C23687BB3012B37D05F
:10260000022B3FD0032B47D010BD17212B4804F0DD
:102610007BF8284804F0CEF92368012BE7D1182174
:10262000274804F071F8234804F0C4F92368022B0A
:10263000DFD11C21234804F067F81E4804F0BAF9E2
:102640002368032BD7D116211F481B4C04F05CF8DC
:10265000184804F0AFF92368002BCFD12B211B4879
:1026600004F052F8134804F0A5F92368012BC7D1F0
:102670002721174804F048F80E4804F09BF9236816
:10268000022BBFD12621134804F03EF8094804F07C
:1026900091F92368032BB7D121210F4804F034F8B6
:1026A0000448BDE8104004F085B900BF98E100007F
:1026B0002892FF1FA087FF1FD093FF1FD8DE0000C6
:1026C000F0DE00000CDF00002CDF000044DF000023
:1026D00070DF000098DF0000C0DF000070B500214F
:1026E0005448554D04F010F8544804F063F90021A3
:1026F000504804F009F8514804F05CF91D21504895
:1027000004F002F84D4804F055F90021494803F05F
:10271000FBFF4A4804F04EF91C214A4803F0F4FF3D
:102720002C68012C4DD064B31C21474803F0ECFF0A
:10273000464B4248196804F091F9454B1B68012B40
:1027400005D0444C2368052B53D0062B57D00021CD
:102750003848414D03F0D8FF384804F02BF91C21CC
:102760003E4803F0D1FF2C68012C12D004B170BD9B
:1027700003213B4803F0C8FF3048BDE8704004F037
:1027800019B90321364803F0BFFF2C4804F012F9B1
:10279000CAE7344B2948196804F060F9324B1B68CA
:1027A000012B05D0314E3368032B2DD0042B3CD0A8
:1027B0000021204803F0A8FF204804F0FBF82C6813
:1027C000D4E72B4B1D48196804F048F9294B1B68C6
:1027D000012B05D0284E3368052B20D0062B19D0AD
:1027E0000021144803F090FF144804F0E3F82C682B
:1027F00099E70121214803F087FF2368A5E702211B
:102800001F4803F081FFA2E721461E4803F07CFF2A
:102810003368CBE702211A4803F076FFE0E7214650
:10282000164803F071FF3368D8E70221164803F019
:102830006BFFBDE798E10000C493FF1FA087FF1F57
:10284000E4DF000004E000002CE000007C92FF1FA9
:102850003C92FF1F8C93FF1F8893FF1F4CE00000EA
:1028600034DC00005C93FF1FEC93FF1FF893FF1F05
:102870008892FF1F8092FF1FE093FF1F24E000005B
:1028800028E00000B8DE00006CE0000010B52E214A
:10289000BB48BC4C03F038FFBB4804F08BF8242144
:1028A000BA4803F031FFB84804F084F80021B84872
:1028B00003F02AFFB44804F07DF81021B54803F076
:1028C00023FFB14804F076F80C21B34803F01CFF55
:1028D0002368002B00F0B881012B00F0C081AF4CC1
:1028E000AF480D2103F010FF2368002B00F0DE81BC
:1028F000012B00F0E681AB4CAB48132103F004FF41
:102900002368002B00F0BF81012B00F0C781132149
:10291000A648A74C03F0F8FEA64B9B48196804F0A4
:102920009DF80121A44803F0EFFE974804F042F817
:102930001721A24803F0E8FEA14B9348196804F060
:102940008DF801219F4803F0DFFE8F4804F032F834
:1029500017219D4803F0D8FE9C4B8B48196804F062
:102960007DF801219A4803F0CFFE874804F022F851
:102970001821984803F0C8FE974B8348196804F063
:102980006DF80121924803F0BFFE7F4804F012F871
:102990001821924803F0B8FE914B7B48196804F067
:1029A0005DF80121874803F0AFFE774804F002F894
:1029B0000021774803F0A8FE734803F0FBFF0F21C6
:1029C000884803F0A1FE704803F0F4FF1221864806
:1029D00003F09AFE854B6C48196804F03FF801211A
:1029E000834803F091FE684803F0E4FF1821814812
:1029F00003F08AFE804B6448196804F02FF8012127
:102A00007B4803F081FE604803F0D4FF002160485A
:102A100003F07AFE5C4803F0CDFF00215C4803F030
:102A200073FE594803F0C6FF1521744803F06CFE8D
:102A3000554803F0BFFF0D21714803F065FE714B4F
:102A40005148197804F00AF80021514803F05CFE5F
:102A50004D4803F0AFFF12216B4803F055FE6B4B5E
:102A60004948197803F0FAFF0021494803F04CFE69
:102A7000454803F09FFF0E21654803F045FE654B76
:102A80004148197803F0EAFF0021414803F03CFE79
:102A90003D4803F08FFF00213D4803F035FE3A48E2
:102AA00003F088FF2378002B40F0E18020215A4872
:102AB00003F02AFE344803F07DFF0021344803F080
:102AC00023FE314803F076FF1721544803F01CFE23
:102AD000534B2D48196803F0C1FF2B4803F06AFFE0
:102AE0001321504803F010FE4F4B2748196803F09C
:102AF000B5FF254803F05EFF1A214C4803F004FEA1
:102B00004B4B2148196803F0A9FF0321494803F002
:102B1000FBFD1D4803F04EFF2321474803F0F4FD61
:102B2000464B1948196803F099FF0121284803F022
:102B3000EBFD154803F03EFF1B21414803F0E4FD87
:102B4000404B1148196803F089FF0121204803F028
:102B5000DBFD0D4803F02EFFFFF782F9FFF70AFBBC
:102B6000FFF70AFCFFF736FDFFF7B8FD2E210448FA
:102B700003F0CAFD0448BDE8104003F01BBF00BFCE
:102B800070E00000A492FF1FA087FF1FA0E00000DC
:102B900098E10000C8E00000DCE000001C92FF1F8C
:102BA000F0E00000C492FF1F08E100001CE10000FB
:102BB0007892FF1FD893FF1F30E1000034E100003E
:102BC000AC93FF1F24E000004CE10000D492FF1FF3
:102BD000B8DE000064E100000094FF1F80E1000007
:102BE000BC93FF1F9CE10000ACE100008093FF1F3D
:102BF000C0E10000C4E100005893FF1FE0E10000C5
:102C0000F8E100004092FF1F08E200009493FF1FCC
:102C10001CE200000894FF1F2CE2000074E2000098
:102C20004887FF1F8CE200009C93FF1FA0E200007A
:102C30007093FF1FBCE20000C0E20000C893FF1FBA
:102C4000E4E200003887FF1F0221224803F05CFD08
:102C5000214803F0AFFE2368012B7FF440AE05212D
:102C60001E4803F051FD1C4803F0A4FE37E6202166
:102C70001B4803F049FD184803F09CFE2378002B05
:102C80007FF41BAF12E70221164803F03DFD124806
:102C900003F090FE2368012B7FF439AE0321124824
:102CA00003F032FD0C4803F085FE30E602210D48AA
:102CB00003F02AFD084803F07DFE2368012B7FF412
:102CC0001AAE0321084803F01FFD034803F072FE0B
:102CD00011E600BFECE00000A087FF1F18DC000039
:102CE00050E2000000E1000004E1000008B54FF4EC
:102CF000967002F051FE00210B2002F033FE0021FD
:102D00000C2002F02FFE0021162002F02BFE0021E5
:102D1000172002F027FE0021052002F023FE024BBF
:102D200000221A7008BD00BF4092FF1F38B5234A29
:102D3000234B11681B68994218DDCB1A214C22786D
:102D40004AB921480268182B02F10102026018DD1D
:102D5000132A04DC38BD1C4B1A68132AFADD1B4BFE
:102D600001221A70BDE83840FFF7C0BF01DA5B1AD4
:102D7000E4E7144C2378002BEDD1134B1A68013291
:102D80001A60312AEBDC124B1D78002DE0D1C829E6
:102D9000DEDD642002F000FE0121172002F0E2FDDA
:102DA000C82002F0F9FD29460B2002F0DBFD0123CB
:102DB00023700A20BDE8384002F0EEBDAC93FF1F3F
:102DC0008093FF1F4092FF1FBC92FF1F9493FF1F31
:102DD0009092FF1F08B5102002F0CAFD012804BF21
:102DE000054B1870102002F0C3FD20B9024A034BB6
:102DF000107001221A7008BD0894FF1F9092FF1FE7
:102E0000F0B5642085B0B94D02F0C6FD05F110069D
:102E10002F462C46601B02F0C9FC04F8010BA642A9
:102E2000F8D13B78142B01D0FDF792FB0024234608
:102E30007968AF4A0094AF4801F000F99DF80C3072
:102E4000029443F0010364F341038DF80C30042431
:102E5000E2B202A90134A74801F0B6F8102CF7D16C
:102E6000082001F057FCA44BA44C1860082001F086
:102E700051FCA34B2568A34AA34EA44F186040F20F
:102E8000EE2013783BB13378D90704D5236839682D
:102E90005B1A0E2B08D8236811785B1B002900F001
:102EA000D880B3F5FA6FECD90C21994803F02CFCCB
:102EB000984803F07FFD1821974803F025FC9548BA
:102EC00003F078FD1421934803F004FE914803F0C9
:102ED00071FD1721914803F017FC8E4803F06AFD3D
:102EE0008F4B1B789A0600F147818D4B1B781B078F
:102EF00000F13A818A4B1B785F0700F1EE80884B26
:102F00001B789E0700F1D580864B1B781D0600F1CB
:102F1000DC80844B1B785C0600F1C380814B1B78FE
:102F2000980600F1B6807F4B1B78590700F1A98005
:102F30007C4B1B781A0700F19C807A4B1B789B070F
:102F400000F18F80734803F035FD72B6764A4CF27B
:102F500020504DF62811108020231180013BFDD117
:102F600072487349734B00244FF4805505800C80E0
:102F70001C8032F80E3C9BB243F0D30322F80E3C87
:102F80002146102002F002FD2146112002F0FEFC35
:102F90002146122002F0FAFC2146132002F0F6FC32
:102FA00001210B2002F0F2FC01210C2002F0EEFCCA
:102FB0000121142002F0EAFC0121152002F0E6FCB8
:102FC0000121162002F0E2FC0121172002F0DEFCB4
:102FD0000121052002F0DAFC21460B2002F0C2FCA0
:102FE00021460C2002F0BEFC2146162002F0BAFC5D
:102FF0002146172002F0B6FC2146052002F0B2FC63
:103000000121142002F0AEFC642002F0C5FCFFF7A1
:10301000E1FE01210D2002F0B9FC01210D2002F09A
:10302000A1FC0C2002F0CAFA434B1B78ABB1434B16
:103030001B78002B00F0A880642002F0ADFC0F216B
:103040003F4803F061FB334803F0B4FC62B605B0BF
:10305000F0BD83427FF615AF26E73A4B01221A7086
:10306000EAE71821384803F04FFB2A4803F0A2FC96
:1030700068E71921354803F047FB264803F09AFC1E
:103080005BE71C21324803F03FFB224803F092FC2F
:103090004EE713212F4803F037FB1E4803F08AFC4C
:1030A00041E712212C4803F02FFB1A4803F082FC61
:1030B00034E71721294803F027FB164803F07AFC70
:1030C000184B1B781D067FF524AF0E21244803F012
:1030D0001BFB104803F06EFC1BE70E21214803F098
:1030E00013FB0C4803F066FC09E700BF6892FF1F62
:1030F000A895FF1F0C94FF1F2492FF1FC095FF1F70
:10310000DC93FF1FA496FF1FBC96FF1F2897FF1F8D
:1031100000E30000A087FF1F10E300002CE3000085
:1031200001F0074000F007400E2005400420054054
:1031300006200540162005400894FF1F9092FF1FAF
:1031400030E400009493FF1F14E40000F8E3000053
:10315000D8E30000C4E30000B0E3000088E300000F
:10316000A0E3000078E300000C21094803F0CCFA4A
:10317000084803F01FFCBDE62121074803F0C4FA0C
:10318000044803F017FCB0E6FDF770F954E700BF00
:1031900068E30000A087FF1F44E3000070B5122021
:1031A00002F040FA464C474E2060132002F03AFAF3
:1031B0002468454A454B4649186002FB04F202F276
:1031C000FF7281FB0241404BD4171144C4EBE12153
:1031D00003FB00F33E4C03F2FF73002A84FB03243D
:1031E0001C444FEAE372B8BF01F1FF31C2EBE424A3
:1031F000002B0846B8BF04F1FF3405F007FD354940
:1032000005F00CFE05F0A6FE334B05461D6020467A
:1032100005F0FCFC2F4905F001FE05F09BFEA5F52D
:1032200061534FF4BD7202FB03F32C4A2C492D4D20
:10323000086003F5E16382FB03421A44002B4FEA66
:10324000E374A0F561514FF4BD7303FB01F1234B0F
:1032500001F5E161C4EBE22483FB01230B444FEA57
:10326000E172B8BF04F1FF34C2EBE3230029B8BF19
:1032700003F1FF33092C2C60336005DC0022092B9D
:103280002A600EDC326070BD092B13DC0023C82CD1
:10329000336014DD144B2046196801F05DFA336881
:1032A0002860C82BEFDD114A1846116801F054FA66
:1032B000306070BDC82CEDDCC82BF4DCE3E770BDDA
:1032C000A093FF1F5893FF1F10090500C892FF1F0E
:1032D000810008809A9901419893FF1FC5B3A2917C
:1032E000A092FF1F8093FF1F2492FF1FDC93FF1FFC
:1032F0002DE9F04F8BB001E0FDF79CFD394800F05F
:1033000057FF0028F8D103F0D5F9002807DD36482B
:1033100003F010FC431EC72B9CBF344B1860344C89
:10332000344A23680393039B11685B1AFA2B28D94C
:10333000236805930598304923680493049B096822
:1033400010605B1AB3F5FA7F06D92C4A1368032B79
:1033500000F3688101331360294B1B78002B40F088
:103360005981284D2B7813B3274E3368012B1EDD6E
:103370000121152002F0F6FA2B78C3B13368012B36
:1033800015DD2368214A0693069B116818485B1ACD
:10339000642B43D823681E4A0893089B116814487D
:1033A0005B1AB3F5FA7F07D80BB0BDE8F08F0021A8
:1033B000152002F0D7FAE4E703680993099B13602C
:1033C00072B6144B4AF202614BF2804219801A80A5
:1033D00062B6FEF751FB104B1B68012BE4D1FFF7DF
:1033E00055FAE1E70C94FF1FA087FF1F3887FF1FE6
:1033F000C095FF1FB493FF1FB093FF1F9093FF1F53
:103400000894FF1F4092FF1FD893FF1FB893FF1F20
:103410008C92FF1F0C2005402887FF1F036807932D
:10342000DFF89482079B1360FEF706F8FDF71CFE99
:10343000FDF740FFFEF78AF8FEF712F9FEF79AF95A
:10344000FEF720FAFEF7A6FAFFF7A8FEFFF7C2FC88
:1034500098F800304BB17D4B1B683B2B40F30E833B
:103460007B4A0023136088F80030DFF848B2DBF8AD
:103470000030012B00F0B280764B1B68012B00F06E
:10348000AD80754B1B78002B40F0A880DFF820A2A0
:10349000724D9AF8003023B1714B1B78002B00F06D
:1034A000DF822B68012B00F00D81022B40F043835B
:1034B0006C4A6D4B11686D4E6D4FDFF800921A68C3
:1034C0003B294FF0010333603B60C9F8003028DC32
:1034D000684B1B68C82B24DDDFF8BC81D8F80030AE
:1034E000012B1ED1644B1B68012B1AD1634B1B6847
:1034F000012B16D1AAB9DFF8C8B1DBF80030022BD6
:103500000FD15F4B196842F23413994209DD5D4BCC
:103510001B68022B05D15C4B1B68012B04BF5B4968
:103520000B605B4B1B68002B40F03581594B012130
:103530001970022A00F009832B68042B00F04781E0
:10354000052B00F0C482062B00F06B82072B00F0E5
:103550007F83082B00F07B81092B00F0B3820F2BB7
:1035600000F05981102B00F07883112B00F03A8283
:10357000122B00F02481142B00F01681152B00F083
:103580005D81162B00F09F81172B00F08181182B95
:1035900038D1414B1B68172B03D03B4A1268012AD4
:1035A0004BD119232B60304B3C481A683C4901230E
:1035B00003600B6012B9354B0A601A60394B1B78F7
:1035C00023B93949394A0120086013602A4B1B6826
:1035D000002B7FF4DFAE01232B60DBE6DFF8D0A009
:1035E000224E234FDFF8D4901C4D9AF8002001237F
:1035F000336000233B60C9F8003019232B60002A98
:103600007FF44AAFA3F10F02092A14D9192B7FF4D2
:10361000C1AEC8E7264DFFF789FB2B78002B7FF45E
:10362000A3AEC4E6234B01221A600D4B1B78002B7E
:103630003FF497AEEEE7184B1B68012B00F0218298
:103640002B68192B7FF4A6AEADE700BF9C92FF1F3D
:10365000D092FF1FC492FF1F9493FF1F4887FF1F44
:103660000894FF1F5893FF1F6893FF1FFC93FF1FD1
:10367000CC92FF1FA893FF1F6493FF1F0494FF1FAA
:10368000E493FF1F2892FF1FD093FF1FCC93FF1FCF
:103690003492FF1F7892FF1F7C93FF1F4087FF1F0C
:1036A0005492FF1F7992FF1F2092FF1F9C93FF1FD0
:1036B0004092FF1FA492FF1FF093FF1F2C92FF1F49
:1036C000D493FF1FDBF80020002A9BD1A24A126886
:1036D000002A97D1DFF8E4B2A049DBF80030012BD3
:1036E00000F069829E4B032008601A6098F8003051
:1036F00043B99C4E9C4FDFF8D492012333603B606A
:10370000C9F80030994A9A499A4E9B4800231360A1
:103710000B609A4A9A49136033700360994A0B60B0
:10372000994B0126112016601E6002F021F918B194
:10373000964B1A7802B91E70112002F019F9024650
:10374000C0B992490B78ABB1914E924F3368087073
:1037500001331946904833603A6003F07FF917212E
:103760008E4802F0D1FF8C4803F024F933680A2B0D
:1037700000F032828A4B1B683B2B0ADC894B1A68AB
:10378000C82A06DDDFF84082D8F80020012A00F0C0
:1037900027822B6889E6012B7FF4CBAE824B002178
:1037A0001970C6E614232B60DFF81C82D8F80030AD
:1037B000122B00F0D0812B68E3E612232B607B4BA9
:1037C0001B68012BEED02B68D8E604232B60764BC8
:1037D000644E1A78644FDFF8F491002301213360BE
:1037E0003B60C9F80010002A40F05C815A4B1B680E
:1037F0000BB95E4B1960DFF8D8B1DBF80030032B52
:1038000000F0AF81DFF8C081D8F800300E2B00F057
:1038100056812B6897E6DFF8B08110232B60D8F82B
:103820000030634E6348644901220327102B376040
:1038300002600A6000F08C812B6899E6DFF88881CD
:10384000D8F80030142B00F089812B689CE65B4B84
:10385000444E1A68444FDFF874910023012133600D
:103860003B60C9F80010002A40F01A8109232B6040
:10387000534B19680022012332603A60C9F80030C6
:1038800021B9504A12680AB92B60BBE62B6869E679
:103890004D4B344F1B68344E4C4900220120162BEF
:1038A0003A60326008600BD0494A1268022A07D099
:1038B000484A116842F23412914201DC2B68A1E6B9
:1038C00018222A6067E6DFF80081434B254E1B680B
:1038D000DFF8F890244F4149DFF804A1002232605C
:1038E000C9F80020C82B4FF001023A6000F3B38002
:1038F000C72B0B60DAF8002000F3AF809342B4BF0F
:103900000A680A601F490B689342BCBF01330B6011
:103910009342C8BF03F1FF334FF01100C8BF0B60E3
:1039200002F026F810B9DAF800303BB91348114913
:103930000E4A012303600B7000231360D8F8003097
:10394000122B82D1172100222960012132603A60B6
:10395000C9F80010A8E700BFC492FF1F3C87FF1FF3
:103960005492FF1FFC93FF1FCC92FF1F9C93FF1FDD
:103970003092FF1F7992FF1FCC93FF1F2092FF1FF1
:10398000E893FF1F3887FF1F4087FF1FC093FF1F6B
:10399000D092FF1F9C92FF1FA087FF1F40E40000F2
:1039A0005893FF1FA893FF1F7892FF1F2892FF1FB5
:1039B000A493FF1F2C87FF1F4C87FF1F6893FF1FD7
:1039C0006493FF1F0494FF1F7C93FF1F2C92FF1F23
:1039D000D493FF1FE493FF1F5C93FF1FC893FF1F47
:1039E0000094FF1FDFF8D082D8F800309C4A12689C
:1039F0009AB99C499C4A0968126891420DDD9B491D
:103A00009B4A09681268914207DA9A4A01211160BB
:103A1000112B3FF4D2AE2B68ADE5974A012111601E
:103A2000F6E7964E964FDFF8689207232B60954B8A
:103A3000954A196895480023136002294FF0010246
:103A400033603B600260C9F800208C4F8C4E904878
:103A500021D02B6880E5DAF80020C82008604DE707
:103A6000864E874FDFF828920193FFF73FF9019BBD
:103A70003B6001223260C9F8003012E5FCF708FD16
:103A8000F3E47E4A7E4882491360002319220360D2
:103A90000B602A6087E508213B6033600260296083
:103AA0002B685CE5DFF814B2DBF80030032B67D03D
:103AB000DFF80482D8F80030022B7FF4A7AE0F2382
:103AC0002B60AAE66D4E6E4FDFF8C491D0E66B4EC8
:103AD0006B4FDFF8BC91DFF8E4B16E496E4A6F4B73
:103AE0004FF000084FF0010A1120C1F80080C6F81D
:103AF0000080C9F80080C2F800A0C7F800A0C3F891
:103B000000A001F035FF28B1654A5A4BC2F800A069
:103B1000C3F80080DBF80030012B38D0022B3CD0FA
:103B2000604B1B68002B7FF474AE5D49514A012045
:103B30000860136079E7032B7FF4FFAC514B1B68DF
:103B4000012B3FF442AE2B68FAE403232B60FAE723
:103B500011222A604AE715232B6076E616232B6094
:103B6000B3E6514B196841F6631399423FF74AAEE9
:103B7000404B1B68012B22D0002A3FF443AE97E74D
:103B8000494B196841F66313994291DCF0E74449C7
:103B9000384A0B600023136047E7434B1A6842F230
:103BA00034139A42BCDD3F4B1B6806222A60002B6F
:103BB0007FF43BAFB9E7354A0B60136096E5002A06
:103BC0007FF476AFDFF8F080D8F8003005220E2BB6
:103BD0002A603FF474AF80E7012388F80030C9E51C
:103BE000304A1268012A7FF4D4AD304A1268012AA3
:103BF0007FF4CFADDBF80020002A7FF4CAADDFF8F8
:103C0000BCB0DBF8001002297FF4C3AD2649086878
:103C100042F2341188427FF7BCAD25490968022978
:103C20007FF4B7AD2349096801297FF4B2AD9AF852
:103C3000001000293FF4ADAD104E114FDFF8509049
:103C40000121022031603960C9F80010286040E489
:103C50000A4E0B4FDFF83890E9E6DFF85C80DEE5CE
:103C6000C492FF1FAC93FF1F7C92FF1FBC93FF1FEA
:103C70008892FF1F9C93FF1FE893FF1FFC93FF1F79
:103C8000CC92FF1F6893FF1FCC93FF1F5492FF1F1E
:103C90002C92FF1FA493FF1F2C87FF1F4C87FF1F31
:103CA0002092FF1F6493FF1FE493FF1F0494FF1FE4
:103CB0002892FF1FD093FF1F7C93FF1FD493FF1FF9
:103CC00010B5074C01F02CFD2046064902F076FFA6
:103CD0002046054A0549BDE8104004F047BA00BF38
:103CE0005892FF1F98E100002087FF1F3D6B0000E6
:103CF00001F016BD00207047704700BF30B40B467E
:103D0000054603C905EBC204043484E803001979AD
:103D100011F0010F296812D11C6812481023843158
:103D200013FB0211A404204008602968803113FBB2
:103D3000021230BC136823F4001313607047186834
:103D40008431102313FB021120F0604008602968C1
:103D5000803113FB021230BC136843F4001313606C
:103D6000704700BF0000FC1F4388826810B59BB2FB
:103D70000446084602EB0311102201F039FA638869
:103D8000A1889BB2013393FBF1F201FB12339BB28A
:103D90006380012010BD00BFF8B5204C204A217976
:103DA0000546034601F0FD0102202A606FF3000181
:103DB000002285F894011D2720261020C5F8A02098
:103DC000C5F8F870A5F89661A5F8980121712260F0
:103DD000114643F8B02F05F1F00243F8041F934257
:103DE0004FF00004F9D1C5F88440C5F88840C5F803
:103DF0008C40C5F890409822214605F1FC0005F062
:103E000027FE1F220F2385F8FC40C5F80841C5F89E
:103E10000021C5F80C312846F8BD00BFA895FF1F4A
:103E20000040024038B5D0F8A03003B138BD044698
:103E3000B0F89801000102F0EDFFD4F8B020C4F80A
:103E4000A000AAB10023B4F89851B4F89611A4F8D0
:103E50009430C4F89C00A4F89630C4F8AC20A4F8C0
:103E6000A430A4F89850A4F8A810A4F8A63038BD3F
:103E7000B4F89601000102F0CDFFC4F8B00002468C
:103E8000D4F8A000DEE700BFF8B52C4BB3FBF1F58A
:103E9000052DB3FBF5F6A1EB06064BD900229E4695
:103EA0001746931CB5FBF3F4192C02F1010203FB36
:103EB00004F3F6D8BEFBF3F3CB1A002BB8BF5B427A
:103EC000B3422EDB2FD0052CEBD87B1CB5FBF3F5D2
:103ED000053D142D1CD8B6F5967F19DC184A0068EC
:103EE00005EB45055319515D5A789B7801F00701A0
:103EF00041F48001D20441F4804102F460121B04B9
:103F00000A4303F4E023134343EA07674760F8BD1D
:103F100039210C4802F0F8FB0B48BDE8F84002F0EC
:103F200049BD1E4617460B2CCDD9122C9CBF1E46F0
:103F30001746C8E701230027C8E700BF0024F400A4
:103F40005487FF1F58E40000A087FF1F0F2930B4DB
:103F500004462DDC69BBD0F8A030012084F8940120
:103F600023B3002210252368803315FB023301326E
:103F7000196801F4001141F08061196094F894010E
:103F8000C0F11003D2B2DBB29342ECD80F2B0DD8A4
:103F900010204FF000612268803210FB03220133B1
:103FA000DBB2102B1160F6D194F8940130BC70474D
:103FB0000F21D4F8A03084F894111BB11029D0D16E
:103FC0000023E5E70846F1E790F89431C3F11003C8
:103FD000DBB29A4201D2FFF791BE704790F894315C
:103FE000C3F11003DBB29A4220D2036810B41C68FC
:103FF000E4011CD41C6844F080441C6004682368FD
:1040000043F08053236004682368DB01FCD504F58A
:10401000086404EB820211600268136823F0805385
:10402000136002681368DB01FCD410BC704703F511
:10403000086303EB820210BC1160F7E72DE9F04141
:104040000546164698460C469DF81870FFF7EAFE9E
:104050002A68524B9A4200F08F80514A4F49137898
:1040600043F0800313702B688B427BD05A6822F494
:1040700000525A602A68136843F0804313602A682C
:10408000136823F0004313602A681368DB02FCD432
:10409000136883F0007313602B681A689701FCD4CF
:1040A0001A68D001FCD51A6842F400321A60214621
:1040B0002846FFF7E9FE2A68136843F4803313604B
:1040C00095F89431102B18BF002404D11DE0013461
:1040D000E4B29C4219D2224600212846FFF77EFF17
:1040E00095F89431C3F11003DBB2A342EFD9224615
:1040F00031462846FFF702FE95F894310134C3F1AA
:104100001003DBB2E4B29C42E5D32A68136823F0C3
:10411000805313602B681A68D101FCD41A6812010D
:10412000FCD495F894112846FFF710FFD5F8F83025
:1041300003F1604303F5644340221A70D5F8F82078
:1041400053099B0003F1604303F5614302F01F0232
:10415000012101FA02F21A602B684FF6FF729A628F
:10416000BDE8F081A2F5E732A2F5E272136843F0F0
:10417000100313602B6879E7B8F1010F06BF03F550
:1041800018334833074B4FF40072012F1A600CBFED
:10419000054B064B4FF400721A605EE70040024088
:1041A00000500640309004404CA00440349004403D
:1041B000D0F8F83030B45C09A10001F1604101F59C
:1041C000614101220968144D03F01F0302FA03F351
:1041D000194008BF002280F8F42045F82430B0F8D8
:1041E000A430B0F8A6209BB292B29B1A44BFB0F89C
:1041F000A8209B1869B1D0F8F8104A09920002F182
:10420000604202F5614201F01F01012000FA01F154
:104210001160184630BC704780E100E0F8B50446F4
:10422000D0F8F8001A4F4609B30003F1604303F5D4
:10423000614301221D6800F01F0002FA00F31D42D5
:1042400014BF1546002584F8F45047F82630B4F81A
:10425000A420B4F8A63092B29BB29A4216D004F1D0
:10426000A400FFF781FD94F8F45075B1D4F8F8205C
:1042700053099B0003F1604303F56143012102F000
:104280001F0201FA02F21A60F8BDF8BD0020ECE747
:1042900080E100E070B48B7913F0010F036828D03F
:1042A0000C681025843315FB023324F0604412FBA4
:1042B00005F21C6003688C68883324BA9C5003683C
:1042C000CC688C3324BA9C508B79DC071DD513F055
:1042D000020FCB7901684FEA034303F4702301F125
:1042E000800114BF43F0476343F046638B5070BCBA
:1042F00070470D680E4C1026843316FB0233AD0454
:104300002C4012FB06F21C60D4E713F0020FCB79AD
:1043100001684FEA034303F4702301F1800114BFE5
:1043200043F0416343F040638B5070BC704700BF63
:104330000000FC1F0368F0B58033102717FB023321
:104340008C791D688D80C5F34056C5F30343C5F3D2
:10435000005E66F30004CB7106686EF3410404F05E
:10436000FB046FF3C70417FB02668C7191F806E03B
:10437000D6F884401EF0010F24F060440C60C5F3B1
:10438000036504BFA40C0C60062D25D0D6F8884028
:10439000CC72260A250C042B4FEA14648E724D72DF
:1043A0000C7210D900688C3017FB0202072B1268C0
:1043B000CA734FEA12244FEA12404FEA12628C731A
:1043C00048730A7307D807330B4400220F3103F8F0
:1043D000012F8B42FBD1F0BD8C7944F004048C7129
:1043E000D4E700BF38B50B888D8848889BB201336D
:1043F00093FBF5F405FB14339DB283B29D420CD0C0
:104400000B8888680C469BB2114600EB0310102203
:1044100000F0EEFE2580012038BD002038BD00BF31
:10442000F8B50446D0F8F8002B4E4509AB0003F16F
:10443000604303F5614301221F6800F01F0002FA88
:1044400000F31F4208BF002284F8F42046F825300C
:10445000B4F89430B4F896209BB292B29A4218D035
:104460000A46204604F19401FFF7BCFF94F8F430AB
:1044700073B1D4F8F82053099B0003F1604303F5AE
:104480006143012102F01F0201FA02F21A60F8BD35
:10449000F8BD94F89421C2F11002D2B20F2ADFD8ED
:1044A00002F12D0504EB8505130104E00132102A09
:1044B00003F11003D4D055F8040B0028F6D120687E
:1044C0008030C058C0F303600828EFD12046D2B234
:1044D000FFF7E0FE0120C9E780E100E02DE9F04FA1
:1044E000026889B0136B03938346054600F1B40A52
:1044F0000024994608E0022B3AD00134102C05F133
:1045000008050AF1040A2ED029FA04F3D907F4D5D4
:10451000270102F18003DB59C3F30363062B27D085
:10452000082BE8D1DAF8000008B90BF194000188F3
:10453000438889B29BB2994200F09D8001884388EC
:1045400089B29BB29942D8D004A9FFF70DFC00288C
:1045500040F0B280DBF800200134102C05F1080592
:104560000AF1040AD0D1039B136309B0BDE8F08FB0
:1045700004A9E2B25846FFF7DDFE9BF8FC306BB1B0
:10458000D5F814319DF8162001335207C5F81431BF
:1045900004D5D5F818310133C5F8183100220123AC
:1045A0008DE88400A34002950BF180060BF1900882
:1045B0001D4656F8040F28B1426812EA05032BD1B4
:1045C000002A3FDBB045F4D1009B019F029D002BE8
:1045D0003FD09BF8FC3083B1BBF8A430BBF8A610E9
:1045E0009AB28BB2D31A44BFBBF8A8209B18DBF851
:1045F00004219A4238BFCBF804310BEBC4031B7A79
:10460000DB0714D5DBF800306A68843322F060429F
:10461000DA51DBF8002070E703681F682D4B9F42DA
:1046200045D10020009B1843C3B20093CAE76968D4
:10463000DBF80030284A890484330A40DA51DBF879
:1046400000205AE702681768224A97423CD1184670
:10465000E8E704AA0BF1A4015846FFF7C3FE0028BF
:10466000B7D19BF8FC30002BC7D0DBF80831013301
:10467000CBF80831B0E70127A74047F000470BF11E
:1046800080060BF1900856F8040F10B143681F42E2
:1046900004D1B045F7D1DBF800205DE703680F4A8D
:1046A0005B689342F5D0002221469847F1E700234A
:1046B000224604A9B847B5E7E2B204A95846FFF775
:1046C000E9FDDBF8002018E74FF0FF3204A9B847F6
:1046D000A8E700BFF53C00000000FC1FF93C00000B
:1046E0000148FFF7FBBE00BF0C94FF1F704700BFDF
:1046F000014B1B681B6A70470C94FF1F704700BF7B
:10470000704700BF704700BF00210148FFF744BB5E
:104710000C94FF1F10F001030BD110F0060F06D10F
:1047200001070AD4C20604D483060ED47047184683
:1047300070470221052004F0BFBD064A13880221FC
:1047400023330520138004F0B7BD0221072004F0B5
:10475000B3BD00BFB295FF1F70B50F4E3368DB07C6
:1047600004460ED50D4D2B880D4A04EB84046400DD
:104770005A2000FB0340A2FB00304009288080B291
:1047800070BD304601F072F8044D0028EBD0304681
:104790002C8001F071F8E6E7B495FF1FB095FF1F7C
:1047A0001F85EB5170B515468CB006460021684652
:1047B00002F004FAAC68002C1ADD694608A802F081
:1047C00011FA2246013C2346294604A802F0F6FAD3
:1047D00004A908A802F0ACFA0146684602F056FAAD
:1047E00004A802F0ABF908A802F0A8F9002CE4D163
:1047F0006946304602F03EFA684602F09FF93046BC
:104800000CB070BDF0B50746114689B002221C46B7
:1048100002F006FABE68B4422CD0A61B68461849BE
:1048200002F0CCF9002E28DD012504AC69462046B3
:1048300002F0D8F91349204602F082FA0146684690
:1048400002F024FA0135204602F078F9AE42EDDAA2
:104850006946204602F0C6F93946204602F068FA59
:104860000146384602F012FA204602F067F968461F
:1048700002F064F9384609B0F0BD04ACE8E700BFC7
:1048800098E10000D8D7000082B02DE9F04FD3B0F6
:104890000C465CA981E80C0068AB60A9D3E9002351
:1048A0000490D1E9000103F06BFC66ABD3E900236F
:1048B00006460F4600206E4903F040FF32463B4655
:1048C0009DF87751019503F00FFE639F629E649DF2
:1048D00080463846894603F0A1FD02460B4600207B
:1048E0004FF0804102F08CFBCDE9020165986149EF
:1048F00002F034FA002800F05882002200234046DB
:10490000494604F063F8002840F0088349464046D1
:1049100004F09AF8214602463B461EA8FFF772FFB4
:104920005549284602F01AFA002800F001820DF5D8
:104930009C791EA94AA802F055F94AAA4846214680
:10494000FFF730FF49461EA802F0A8F9484602F0DA
:10495000F5F84AA802F0F2F84849284602F0FEF9B4
:10496000002800F0FD81072E40F2DF81A6F1080348
:10497000072BA6F1100398BFC6F1170A072BA6F163
:10498000180398BFC6F1270A072BA6F1200398BF8A
:10499000C6F1370A072BA6F1280398BFC6F1470ACC
:1049A000072BA6F1300398BFC6F1570A072BA6F1D3
:1049B000380398BFC6F1670A072B98BFC6F1770A7C
:1049C000574422A8002102F0F9F8019B002B5DD08A
:1049D000019B03F107085CAB98440DF2771626E0C3
:1049E00046A94AA802F0FEF84AAA21464846FFF71F
:1049F000D9FE494646A802F051F9484602F09EF811
:104A00004AA802F09BF822A9484602F0EBF846A912
:104A1000484602F08DF9014622A802F037F94846CF
:104A200002F08CF846A802F089F8B0452ED0214655
:104A300046A8082316F8012FFFF7E4FE0E49284682
:104A400002F08CF90028CBD10D49284602F086F9F6
:104A50000028C5D10B49284602F080F90028BFD1B3
:104A60000949284602F07AF90028B9D1CBE700BFFE
:104A70000000F03F4CD800003CD80000D8D800001F
:104A80009CE40000A0E40000A8E40000CB4926A8B4
:104A900002F094F82AA8C94902F090F8BAF1000F80
:104AA0000CDD5346002222A9484602F087F9494608
:104AB00026A802F0F3F8484602F040F8249B9F42F3
:104AC000C0F0668126A9484602F08CF81EA9484627
:104AD00002F02EF92AA902F02BF901461EA802F0D5
:104AE000D5F8484602F02AF8B549284602F036F9CA
:104AF000002800F07581082300221EA9484602F014
:104B00005DF921464A462EA8FFF74CFE484602F0C2
:104B100015F8102308221EA9484602F04FF9214635
:104B20004A4632A8FFF73EFE484602F007F818232F
:104B300010221EA9484602F041F921464A4636A8ED
:104B4000FFF730FE484601F0F9FF202318221EA986
:104B5000484602F033F921464A463AA8FFF722FEBA
:104B6000484601F0EBFF282320221EA9484602F008
:104B700025F921464A463EA8FFF714FE484601F0B3
:104B8000DDFF302328221EA9484602F017F92146EE
:104B90004A4642A8FFF706FE484601F0CFFF3823F9
:104BA00030221EA9484602F009F921464A4646A885
:104BB000FFF7F8FD484601F0C1FF402338221EA947
:104BC000484602F0FBF821464A464AA8FFF7EAFDAC
:104BD0000DF1180B484601F0B1FF2EA859460023ED
:104BE000092202F0D1F80DF1240A0CAB1C46029305
:104BF00032A851460023092202F0C6F80DF13C0804
:104C0000214636A80023092202F0BEF812AF3AA8C6
:104C100041460023092202F0B7F83EA83946002396
:104C2000092202F0B1F815AE18AB1D46059342A853
:104C300031460023092202F0A7F81BAC46A82946FA
:104C40000023092202F0A0F82146002309224AA8E5
:104C500002F09AF84AA801F071FF46A801F06EFF31
:104C600042A801F06BFF3EA801F068FF3AA801F0EE
:104C700065FF36A801F062FF32A801F05FFF2EA8A1
:104C800001F05CFF58460222002105F077FC022269
:104C90008DF878010021504605F070FC02228DF855
:104CA00079010021029805F069FC02228DF87A0151
:104CB0000021404605F062FC02228DF87B010021B4
:104CC000384605F05BFC02228DF87C01002130465D
:104CD00005F054FC02228DF87D010021059805F0B5
:104CE0004DFC02228DF87E010021204605F046FC95
:104CF0009DF804308DF877318DF87F015CAB0FCBD8
:104D0000049C84E80F002AA801F018FF26A801F0EF
:104D100015FF22A801F012FF1EA801F00FFF049852
:104D200053B0BDE8F04F02B07047C6F1070A1DE668
:104D30002449284602F012F800287FF4F8AD2249F1
:104D4000284602F00BF800287FF4F1AD1F492846F1
:104D500002F004F800287FF4EAAD0DF59C79FBE53C
:104D60001B49284601F0FAFF00287FF4FCAD1949E1
:104D7000284601F0F3FF00287FF4F5AD16492846D8
:104D800001F0ECFF00287FF4EEAD3744B24618E6A0
:104D90003A4622A9484602F011F849462AA801F0ED
:104DA0007DFF484601F0CAFE8CE60C49659801F08B
:104DB000D5FF00287FF4A1ADA8E500BF98E1000071
:104DC0003CD800009CE40000A0E40000A8E400003F
:104DD000B0E40000B4E40000C0E4000094E400008B
:104DE0005849284601F0BAFF00287FF484AE56499E
:104DF000284601F0B3FF00287FF47DAE28465349D2
:104E000001F0ACFF054600287FF475AE02461EA9EE
:104E1000484608230DF1180B01F0D0FF59462B46E8
:104E20000922484601F0B0FF484601F087FE0DF127
:104E3000240A1EA948461023092201F0BFFF51464B
:104E40002B460922484601F09FFF484601F076FEB6
:104E50000CAB1C4602931EA948461823102201F0F1
:104E6000ADFF21462B460922484601F08DFF4846FA
:104E700001F064FE0DF13C081EA9484620231822CB
:104E800001F09CFF41462B460922484601F07CFF79
:104E9000484601F053FE12AF1EA94846282320229F
:104EA00001F08CFF39462B460922484601F06CFF81
:104EB000484601F043FE15AE1EA94846302328227D
:104EC00001F07CFF31462B460922484601F05CFF89
:104ED000484601F033FE18AB1C4605931EA9484610
:104EE0003823302201F06AFF21462B46092248462A
:104EF00001F04AFF484601F021FE1BAC1EA94846BE
:104F00004023382201F05AFF48462B462146092209
:104F100001F03AFF484601F011FEB3E600220C4BC7
:104F2000DDE9020103F02CF903F08EFD013003F0FE
:104F300075FA02460B464046494603F023F980467F
:104F40008946E3E49CE40000A0E40000A8E400003B
:104F50000000F03F84B02DE9F0439DB00DF19408BE
:104F600088E80E009DF89B40DDF8A4902B9F064634
:104F70000021684601F022FE002C4CD00734A044EA
:104F80000DF19B050CAC26E004A908A801F02AFE4F
:104F900008AA31462046FFF705FC214604A801F087
:104FA0007DFE204601F0CAFD08A801F0C7FD694654
:104FB000204601F017FE04A9204601F0B9FE014683
:104FC000684601F063FE204601F0B8FD04A801F038
:104FD000B5FDA84520D0314604A8082315F8012FB7
:104FE000FFF710FC7749384601F0B8FE0028CBD116
:104FF0007549384601F0B2FE0028C5D173493846DC
:1050000001F0ACFE0028BFD17149384601F0A6FE80
:105010000028B9D1CBE70CAC6E49384601F09EFEB2
:10502000002800F09980B9F1070F40F29280002229
:10503000A9F10803072BA9F1100398BFC9F11702C2
:10504000072BA9F1180398BFC9F12702072BA9F173
:10505000200398BFC9F13702072BA9F1280398BF95
:10506000C9F14702072BA9F1300398BFC9F15702D4
:10507000072BA9F1380398BFC9F16702072B2A9BB8
:1050800098BFC9F17702D3186946204601F096FE11
:105090002146684601F002FE204601F04FFD4949D5
:1050A000384601F05BFE002876D0694608A801F07A
:1050B00099FD08AA31462046FFF774FB2146684651
:1050C00001F0ECFD204601F039FD08A801F036FDA5
:1050D000029803F093F902460B4600204FF08041FE
:1050E00001F08EFF00223C4B03F04AF803F0ACFCC9
:1050F0002146002340220546684601F045FE204631
:105100000021022205F03AFA344904462C9801F0B5
:1051100025FE002839D005EBD573B4EB630F01DD14
:105120000135641B204603F079F9DDE92E2303F0F5
:10513000DBF9DDE9302303F025F8044668460D4627
:1051400001F0FCFC204629461DB0BDE8F04304B048
:105150007047C9F107026BE72149384601F0FEFDAF
:1051600000287FF460AF1F49384601F0F7FD0028A2
:105170007FF459AF1C49384601F0F0FD00287FF458
:1051800052AF2A9B4A464B447EE718492C9801F0BF
:10519000E5FD0028BFD1C5E70B49384601F0DEFD2B
:1051A000002882D10949384601F0D8FD00287FF453
:1051B0007CAF3846064901F0D1FD00287FF475AF79
:1051C00086E700BF3CD800009CE40000A0E400009B
:1051D000A8E40000D8D800000000F03F4CD8000040
:1051E000B0E40000B4E40000C0E4000094E4000077
:1051F00001B441EA000313F003036FD1403A41D3F5
:1052000051F8043B40F8043B51F8043B40F8043BA0
:1052100051F8043B40F8043B51F8043B40F8043B90
:1052200051F8043B40F8043B51F8043B40F8043B80
:1052300051F8043B40F8043B51F8043B40F8043B70
:1052400051F8043B40F8043B51F8043B40F8043B60
:1052500051F8043B40F8043B51F8043B40F8043B50
:1052600051F8043B40F8043B51F8043B40F8043B40
:1052700051F8043B40F8043B51F8043B40F8043B30
:10528000403ABDD2303211D351F8043B40F8043BD0
:1052900051F8043B40F8043B51F8043B40F8043B10
:1052A00051F8043B40F8043B103AEDD20C3205D3E0
:1052B00051F8043B40F8043B043AF9D204320AD0D6
:1052C000D2071CBF11F8013B00F8013B03D30B7858
:1052D00003704B78437001BC704700BF0C2A4AD35F
:1052E00010F0030311D0C3F10403D21ADB071CBF73
:1052F00011F8013B00F8013B07D311F8013B00F81E
:10530000013B11F8013B00F8013B11F003033FF4AE
:1053100075AF30B4043AC91AC3F1040C51F8044B08
:10532000022B19D0032B0BD0240A51F8043B1D0685
:1053300044EA050440F8044B1C46043AF4D216E053
:10534000240E51F8043B1D0244EA050440F8044BC6
:105350001C46043AF4D20AE0240C51F8043B1D0424
:1053600044EA050440F8044B1C46043AF4D20432E3
:10537000B1EB0C0130BC043AA0D3013A11F8013B67
:1053800000F8013BF9D20B7803704B7843708B78AF
:10539000837001BC704700BF374A384913681B0649
:1053A000FCD40B6813F08003F8D172B634490A7844
:1053B000002A5FD0334A3448F0B4344C176806688A
:1053C0002568D4680C303E44143200681268304FAF
:1053D00035442C4420440244C2F34E022D4E2E4844
:1053E0002E4D2F4C42F400423A60376806682D6813
:1053F0002C4A24680C303E44006812682A4F354419
:105400002C4420440244C2F34E02284E2848294D21
:10541000294C42F400423A60376806682D68274AF2
:1054200024680C303E4400681268254F35442C44F3
:1054300020440244C2F34E02224E2348234D244C02
:1054400042F400423A60376806682D68214A2468B1
:105450000C303E440068126835442C442044024419
:10546000C2F34E021C4842F4004202600B7062B666
:10547000F0BC704762B6704724B0034024B00B40C4
:10548000B995FF1F38B003403CB0034040B0034023
:105490002CB0034058B003405CB0034060B0034000
:1054A00064B003406CB0034030B0034038B00B40F0
:1054B0003CB00B4040B00B4044B00B404CB00B40F4
:1054C0002CB00B4058B00B405CB00B4060B00B40B0
:1054D00064B00B406CB00B4030B00B4030B4294886
:1054E000294A2A4B2A4D6024E121047011701B784F
:1054F000284C082B30D00A2B2748284937D00C2BB2
:105500000CBF35223D2212232A60236002600B600B
:10551000234B24491B78244ABBB101230B60136041
:10552000224B23491B78234A012B26D9042B0FD960
:10553000082B1ED9102B94BF862387230B60136082
:105540001D4B01221A7030BC70470B601360E7E7F7
:1055500084230B601360F3E700F58E200F490830B9
:10556000012213232A60236002600B60D0E73922F6
:10557000F7E785230B601360E2E780230B6013607D
:10558000DEE700BF00400740014007409387FF1F50
:1055900008B003400CB0034008B00B400CB00B4007
:1055A000BC95FF1F20B0034020B00B409487FF1F25
:1055B00024B0034024B00B40B995FF1F0C2830B431
:1055C00017D91023984228BF18461C46104A114D7F
:1055D0001178181A8C42287018D00F4913700B7864
:1055E00023B10E490E4A00230B60136030BCFFF755
:1055F00075BF0A2802D90C231C46E7E7082802D900
:105600000A231C46E2E708231C46DFE730BC70474C
:105610009387FF1FB895FF1FB995FF1F24B0034064
:1056200024B00B4028282FD8334B2DE9F0411E5CC5
:10563000FF2E2BD0314B1B78002B2AD132062CD4D5
:1056400072B62F4D2F4C2F46012326602B7062B669
:1056500072B623681B060CD43B781BB9F4E72B7891
:10566000002BF1D062B601F0EBFB72B6236818068E
:10567000F5D5254B1B6800222A7062B6234A1078A4
:1056800043FA00F0BDE8F081002070470020BDE83B
:10569000F081FFF781FE3206D2D572B61C4DDFF8DD
:1056A0007C801C4C06F04007FFB206F03F06D8F89D
:1056B0000030DFB123F01003C8F80030012326606A
:1056C000134A2B7062B672B6236819060CD413788D
:1056D0001BB9ECE72B78002BE9D062B601F0B0FBE8
:1056E00072B623681B06F5D50B4BC3E743F01003D6
:1056F000C8F80030E2E700BFCCE40000B995FF1F16
:10570000BB95FF1F00B0034010B00340B895FF1FCA
:10571000BA95FF1F00B00B4010B00B400CB00B400F
:10572000F0B585B0102219496846FFF761FD184AA7
:10573000127891071DD51749174D0A7812F070029B
:1057400018BF0A701549164A0346802715480F707E
:105750000026332403212E700470117072B60D4C94
:1057600043F001032046984762B6237813F0700394
:1057700009D10D4B064901E0013B02D00A78D2075E
:10578000FAD505B0F0BD237005B0F0BDF8E4000017
:1057900001000240000002400400024007000240F5
:1057A0000A0002400B000240410D0300B0F5006FFB
:1057B0000AD210B5094B1B78DB07044606D504F165
:1057C000A0500078C0B210BD00207047FFF7A8FFBE
:1057D00004F1A0500078C0B210BD00BF010002402B
:1057E00008B5104C08E0236859050DD423681A0544
:1057F0000FD42368DB0411D423685803F3D500F0D9
:1058000043FA23685905F1D500F00EF823681A050C
:10581000EFD500F009F82368DB04EDD500F004F8BB
:10582000EAE700BF3480044008B5FFF7D9FF00BFA6
:10583000014B10221A80704700200540704700BFBE
:10584000094908B50B6830B16A461844A2F5805280
:10585000904202D20860184608BD03F06BFD0C238D
:1058600003604FF0FF3008BD9887FF1F0078B0FA43
:1058700080F04009704700BF01230370704700BFEC
:1058800010B40F4B53F8302092F880422CB1012312
:1058900069B182F8803010BC704703EBC0035B68CD
:1058A0001A6841B922F002021A6010BC704782F8EF
:1058B000003110BC704742F003021A6010BC704700
:1058C00008E500001C4A02EBC00301295B6811D007
:1058D00004291BD052F83000002280F8802229B120
:1058E000022920D0032922D01A6070474FF4807219
:1058F0001A60704752F830004FF4A27280F880129C
:105900001A601A6822F020021A60704752F83010AC
:105910004FF4A272012081F880021A601A6842F0E6
:1059200020021A60704740F203121A6070474FF469
:1059300081721A60704700BF08E5000030B4054B63
:10594000054D064C002210211A602A602060196063
:1059500030BC704714D0034004D0034000D0034053
:10596000704700BF212801D8FFF78ABF704700BFEA
:10597000212806D8044B53F8303093F80002C0B207
:1059800070470020704700BF08E50000212801D8BB
:10599000FFF798BF704700BF2DE9F843054672B680
:1059A000204F214B214A1B683C68126862B65201A5
:1059B00002D5322B88BF013495B3C3F5BB331C4EDF
:1059C000DFF86490DFF86480FF334FF47A72A6FB4F
:1059D000031302FB04F404EB931472B6D9F800101D
:1059E0003A68D8F800E062B6C1F5BB33FF33A6FBD6
:1059F00003031EF0806FC4EB93134FF47A7002D050
:105A0000322988BF013200FB0233B3F57A7F04D319
:105A1000013D05D004F57A74DFE701F011FADCE707
:105A2000BDE8F883C095FF1F18E000E004ED00E03A
:105A3000ABAAAAAAF8B52E4B2E49DFF8D4E0DFF8BE
:105A4000D4C02D4E2D4D2E4C2E4A2F4F4FF400001A
:105A500018604FF0807018604FF0007018604FF0C1
:105A6000806018604FF000601860002008602823F4
:105A70004BF6FF71CCF80010CEF8003033601360A5
:105A80002B6023603B60B3629362092245F8242CAB
:105A9000C4F8D80F05F57F65C7F8D41F07F5FF27B1
:105AA00007F5FA67C6F8F83F2B6006F5FF26C4F83D
:105AB000D42F05F5FD2504F5FF24386006F2F476B1
:105AC0001248316005F5FF6504F5FD642B60236025
:105AD0000260FFF703FDFFF743FF1420FFF75CFFB1
